{
	"Date.sol": {
		"DatingApp": {
			"abi": [
				{
					"inputs": [],
					"stateMutability": "nonpayable",
					"type": "constructor"
				},
				{
					"inputs": [
						{
							"internalType": "address",
							"name": "spender",
							"type": "address"
						},
						{
							"internalType": "uint256",
							"name": "allowance",
							"type": "uint256"
						},
						{
							"internalType": "uint256",
							"name": "needed",
							"type": "uint256"
						}
					],
					"name": "ERC20InsufficientAllowance",
					"type": "error"
				},
				{
					"inputs": [
						{
							"internalType": "address",
							"name": "sender",
							"type": "address"
						},
						{
							"internalType": "uint256",
							"name": "balance",
							"type": "uint256"
						},
						{
							"internalType": "uint256",
							"name": "needed",
							"type": "uint256"
						}
					],
					"name": "ERC20InsufficientBalance",
					"type": "error"
				},
				{
					"inputs": [
						{
							"internalType": "address",
							"name": "approver",
							"type": "address"
						}
					],
					"name": "ERC20InvalidApprover",
					"type": "error"
				},
				{
					"inputs": [
						{
							"internalType": "address",
							"name": "receiver",
							"type": "address"
						}
					],
					"name": "ERC20InvalidReceiver",
					"type": "error"
				},
				{
					"inputs": [
						{
							"internalType": "address",
							"name": "sender",
							"type": "address"
						}
					],
					"name": "ERC20InvalidSender",
					"type": "error"
				},
				{
					"inputs": [
						{
							"internalType": "address",
							"name": "spender",
							"type": "address"
						}
					],
					"name": "ERC20InvalidSpender",
					"type": "error"
				},
				{
					"anonymous": false,
					"inputs": [
						{
							"indexed": true,
							"internalType": "address",
							"name": "owner",
							"type": "address"
						},
						{
							"indexed": true,
							"internalType": "address",
							"name": "spender",
							"type": "address"
						},
						{
							"indexed": false,
							"internalType": "uint256",
							"name": "value",
							"type": "uint256"
						}
					],
					"name": "Approval",
					"type": "event"
				},
				{
					"anonymous": false,
					"inputs": [
						{
							"indexed": true,
							"internalType": "address",
							"name": "from",
							"type": "address"
						},
						{
							"indexed": true,
							"internalType": "address",
							"name": "to",
							"type": "address"
						},
						{
							"indexed": false,
							"internalType": "uint256",
							"name": "value",
							"type": "uint256"
						}
					],
					"name": "Transfer",
					"type": "event"
				},
				{
					"inputs": [
						{
							"internalType": "address",
							"name": "sender",
							"type": "address"
						},
						{
							"internalType": "bool",
							"name": "accepted",
							"type": "bool"
						}
					],
					"name": "acceptRequest",
					"outputs": [],
					"stateMutability": "nonpayable",
					"type": "function"
				},
				{
					"inputs": [
						{
							"internalType": "address",
							"name": "owner",
							"type": "address"
						},
						{
							"internalType": "address",
							"name": "spender",
							"type": "address"
						}
					],
					"name": "allowance",
					"outputs": [
						{
							"internalType": "uint256",
							"name": "",
							"type": "uint256"
						}
					],
					"stateMutability": "view",
					"type": "function"
				},
				{
					"inputs": [
						{
							"internalType": "address",
							"name": "spender",
							"type": "address"
						},
						{
							"internalType": "uint256",
							"name": "value",
							"type": "uint256"
						}
					],
					"name": "approve",
					"outputs": [
						{
							"internalType": "bool",
							"name": "",
							"type": "bool"
						}
					],
					"stateMutability": "nonpayable",
					"type": "function"
				},
				{
					"inputs": [
						{
							"internalType": "address",
							"name": "account",
							"type": "address"
						}
					],
					"name": "balanceOf",
					"outputs": [
						{
							"internalType": "uint256",
							"name": "",
							"type": "uint256"
						}
					],
					"stateMutability": "view",
					"type": "function"
				},
				{
					"inputs": [
						{
							"internalType": "string",
							"name": "name",
							"type": "string"
						},
						{
							"internalType": "uint256",
							"name": "age",
							"type": "uint256"
						},
						{
							"internalType": "string",
							"name": "gender",
							"type": "string"
						}
					],
					"name": "createProfile",
					"outputs": [],
					"stateMutability": "nonpayable",
					"type": "function"
				},
				{
					"inputs": [],
					"name": "decimals",
					"outputs": [
						{
							"internalType": "uint8",
							"name": "",
							"type": "uint8"
						}
					],
					"stateMutability": "view",
					"type": "function"
				},
				{
					"inputs": [],
					"name": "getPendingRequests",
					"outputs": [
						{
							"internalType": "address[]",
							"name": "",
							"type": "address[]"
						}
					],
					"stateMutability": "view",
					"type": "function"
				},
				{
					"inputs": [
						{
							"internalType": "address",
							"name": "sender",
							"type": "address"
						}
					],
					"name": "getRequestStatus",
					"outputs": [
						{
							"internalType": "bool",
							"name": "",
							"type": "bool"
						}
					],
					"stateMutability": "view",
					"type": "function"
				},
				{
					"inputs": [
						{
							"internalType": "address",
							"name": "userAddress",
							"type": "address"
						}
					],
					"name": "getUsername",
					"outputs": [
						{
							"internalType": "string",
							"name": "",
							"type": "string"
						}
					],
					"stateMutability": "view",
					"type": "function"
				},
				{
					"inputs": [
						{
							"internalType": "address",
							"name": "target",
							"type": "address"
						}
					],
					"name": "likeUser",
					"outputs": [],
					"stateMutability": "nonpayable",
					"type": "function"
				},
				{
					"inputs": [
						{
							"internalType": "uint256",
							"name": "",
							"type": "uint256"
						}
					],
					"name": "matches",
					"outputs": [
						{
							"internalType": "address",
							"name": "user1",
							"type": "address"
						},
						{
							"internalType": "address",
							"name": "user2",
							"type": "address"
						}
					],
					"stateMutability": "view",
					"type": "function"
				},
				{
					"inputs": [
						{
							"internalType": "bytes32",
							"name": "",
							"type": "bytes32"
						},
						{
							"internalType": "uint256",
							"name": "",
							"type": "uint256"
						}
					],
					"name": "messages",
					"outputs": [
						{
							"internalType": "address",
							"name": "sender",
							"type": "address"
						},
						{
							"internalType": "string",
							"name": "text",
							"type": "string"
						}
					],
					"stateMutability": "view",
					"type": "function"
				},
				{
					"inputs": [],
					"name": "name",
					"outputs": [
						{
							"internalType": "string",
							"name": "",
							"type": "string"
						}
					],
					"stateMutability": "view",
					"type": "function"
				},
				{
					"inputs": [
						{
							"internalType": "address",
							"name": "target",
							"type": "address"
						}
					],
					"name": "rewardInteraction",
					"outputs": [],
					"stateMutability": "nonpayable",
					"type": "function"
				},
				{
					"inputs": [
						{
							"internalType": "address",
							"name": "target",
							"type": "address"
						},
						{
							"internalType": "string",
							"name": "message",
							"type": "string"
						}
					],
					"name": "sendMessage",
					"outputs": [],
					"stateMutability": "nonpayable",
					"type": "function"
				},
				{
					"inputs": [
						{
							"internalType": "address",
							"name": "target",
							"type": "address"
						}
					],
					"name": "sendRequest",
					"outputs": [],
					"stateMutability": "nonpayable",
					"type": "function"
				},
				{
					"inputs": [],
					"name": "symbol",
					"outputs": [
						{
							"internalType": "string",
							"name": "",
							"type": "string"
						}
					],
					"stateMutability": "view",
					"type": "function"
				},
				{
					"inputs": [],
					"name": "token",
					"outputs": [
						{
							"internalType": "contract IERC20",
							"name": "",
							"type": "address"
						}
					],
					"stateMutability": "view",
					"type": "function"
				},
				{
					"inputs": [],
					"name": "totalSupply",
					"outputs": [
						{
							"internalType": "uint256",
							"name": "",
							"type": "uint256"
						}
					],
					"stateMutability": "view",
					"type": "function"
				},
				{
					"inputs": [
						{
							"internalType": "address",
							"name": "to",
							"type": "address"
						},
						{
							"internalType": "uint256",
							"name": "value",
							"type": "uint256"
						}
					],
					"name": "transfer",
					"outputs": [
						{
							"internalType": "bool",
							"name": "",
							"type": "bool"
						}
					],
					"stateMutability": "nonpayable",
					"type": "function"
				},
				{
					"inputs": [
						{
							"internalType": "address",
							"name": "from",
							"type": "address"
						},
						{
							"internalType": "address",
							"name": "to",
							"type": "address"
						},
						{
							"internalType": "uint256",
							"name": "value",
							"type": "uint256"
						}
					],
					"name": "transferFrom",
					"outputs": [
						{
							"internalType": "bool",
							"name": "",
							"type": "bool"
						}
					],
					"stateMutability": "nonpayable",
					"type": "function"
				},
				{
					"inputs": [
						{
							"internalType": "string",
							"name": "name",
							"type": "string"
						},
						{
							"internalType": "uint256",
							"name": "age",
							"type": "uint256"
						},
						{
							"internalType": "string",
							"name": "gender",
							"type": "string"
						}
					],
					"name": "updateProfile",
					"outputs": [],
					"stateMutability": "nonpayable",
					"type": "function"
				},
				{
					"inputs": [
						{
							"internalType": "address",
							"name": "",
							"type": "address"
						}
					],
					"name": "userProfiles",
					"outputs": [
						{
							"internalType": "string",
							"name": "name",
							"type": "string"
						},
						{
							"internalType": "uint256",
							"name": "age",
							"type": "uint256"
						},
						{
							"internalType": "string",
							"name": "gender",
							"type": "string"
						},
						{
							"internalType": "uint256",
							"name": "likes",
							"type": "uint256"
						},
						{
							"internalType": "uint256",
							"name": "interactionCount",
							"type": "uint256"
						}
					],
					"stateMutability": "view",
					"type": "function"
				}
			],
			"devdoc": {
				"errors": {
					"ERC20InsufficientAllowance(address,uint256,uint256)": [
						{
							"details": "Indicates a failure with the `spender`’s `allowance`. Used in transfers.",
							"params": {
								"allowance": "Amount of tokens a `spender` is allowed to operate with.",
								"needed": "Minimum amount required to perform a transfer.",
								"spender": "Address that may be allowed to operate on tokens without being their owner."
							}
						}
					],
					"ERC20InsufficientBalance(address,uint256,uint256)": [
						{
							"details": "Indicates an error related to the current `balance` of a `sender`. Used in transfers.",
							"params": {
								"balance": "Current balance for the interacting account.",
								"needed": "Minimum amount required to perform a transfer.",
								"sender": "Address whose tokens are being transferred."
							}
						}
					],
					"ERC20InvalidApprover(address)": [
						{
							"details": "Indicates a failure with the `approver` of a token to be approved. Used in approvals.",
							"params": {
								"approver": "Address initiating an approval operation."
							}
						}
					],
					"ERC20InvalidReceiver(address)": [
						{
							"details": "Indicates a failure with the token `receiver`. Used in transfers.",
							"params": {
								"receiver": "Address to which tokens are being transferred."
							}
						}
					],
					"ERC20InvalidSender(address)": [
						{
							"details": "Indicates a failure with the token `sender`. Used in transfers.",
							"params": {
								"sender": "Address whose tokens are being transferred."
							}
						}
					],
					"ERC20InvalidSpender(address)": [
						{
							"details": "Indicates a failure with the `spender` to be approved. Used in approvals.",
							"params": {
								"spender": "Address that may be allowed to operate on tokens without being their owner."
							}
						}
					]
				},
				"events": {
					"Approval(address,address,uint256)": {
						"details": "Emitted when the allowance of a `spender` for an `owner` is set by a call to {approve}. `value` is the new allowance."
					},
					"Transfer(address,address,uint256)": {
						"details": "Emitted when `value` tokens are moved from one account (`from`) to another (`to`). Note that `value` may be zero."
					}
				},
				"kind": "dev",
				"methods": {
					"allowance(address,address)": {
						"details": "See {IERC20-allowance}."
					},
					"approve(address,uint256)": {
						"details": "See {IERC20-approve}. NOTE: If `value` is the maximum `uint256`, the allowance is not updated on `transferFrom`. This is semantically equivalent to an infinite approval. Requirements: - `spender` cannot be the zero address."
					},
					"balanceOf(address)": {
						"details": "See {IERC20-balanceOf}."
					},
					"decimals()": {
						"details": "Returns the number of decimals used to get its user representation. For example, if `decimals` equals `2`, a balance of `505` tokens should be displayed to a user as `5.05` (`505 / 10 ** 2`). Tokens usually opt for a value of 18, imitating the relationship between Ether and Wei. This is the default value returned by this function, unless it's overridden. NOTE: This information is only used for _display_ purposes: it in no way affects any of the arithmetic of the contract, including {IERC20-balanceOf} and {IERC20-transfer}."
					},
					"name()": {
						"details": "Returns the name of the token."
					},
					"symbol()": {
						"details": "Returns the symbol of the token, usually a shorter version of the name."
					},
					"totalSupply()": {
						"details": "See {IERC20-totalSupply}."
					},
					"transfer(address,uint256)": {
						"details": "See {IERC20-transfer}. Requirements: - `to` cannot be the zero address. - the caller must have a balance of at least `value`."
					},
					"transferFrom(address,address,uint256)": {
						"details": "See {IERC20-transferFrom}. Emits an {Approval} event indicating the updated allowance. This is not required by the EIP. See the note at the beginning of {ERC20}. NOTE: Does not update the allowance if the current allowance is the maximum `uint256`. Requirements: - `from` and `to` cannot be the zero address. - `from` must have a balance of at least `value`. - the caller must have allowance for ``from``'s tokens of at least `value`."
					}
				},
				"version": 1
			},
			"evm": {
				"assembly": "    /* \"Date.sol\":120:6433  contract DatingApp is ERC20 {... */\n  mstore(0x40, 0x80)\n    /* \"Date.sol\":803:883  constructor() ERC20(\"Test\", \"TST\") {... */\n  callvalue\n  dup1\n  iszero\n  tag_1\n  jumpi\n  0x00\n  dup1\n  revert\ntag_1:\n  pop\n    /* \"@openzeppelin/contracts/token/ERC20/ERC20.sol\":1896:2009  constructor(string memory name_, string memory symbol_) {... */\n  mload(0x40)\n  dup1\n  0x40\n  add\n  0x40\n  mstore\n  dup1\n  0x04\n  dup2\n  mstore\n  0x20\n  add\n  0x5465737400000000000000000000000000000000000000000000000000000000\n  dup2\n  mstore\n  pop\n  mload(0x40)\n  dup1\n  0x40\n  add\n  0x40\n  mstore\n  dup1\n  0x03\n  dup2\n  mstore\n  0x20\n  add\n  0x5453540000000000000000000000000000000000000000000000000000000000\n  dup2\n  mstore\n  pop\n    /* \"@openzeppelin/contracts/token/ERC20/ERC20.sol\":1970:1975  name_ */\n  dup2\n    /* \"@openzeppelin/contracts/token/ERC20/ERC20.sol\":1962:1967  _name */\n  0x03\n    /* \"@openzeppelin/contracts/token/ERC20/ERC20.sol\":1962:1975  _name = name_ */\n  swap1\n  dup2\n  tag_5\n  swap2\n  swap1\n  tag_6\n  jump\t// in\ntag_5:\n  pop\n    /* \"@openzeppelin/contracts/token/ERC20/ERC20.sol\":1995:2002  symbol_ */\n  dup1\n    /* \"@openzeppelin/contracts/token/ERC20/ERC20.sol\":1985:1992  _symbol */\n  0x04\n    /* \"@openzeppelin/contracts/token/ERC20/ERC20.sol\":1985:2002  _symbol = symbol_ */\n  swap1\n  dup2\n  tag_7\n  swap2\n  swap1\n  tag_6\n  jump\t// in\ntag_7:\n  pop\n    /* \"@openzeppelin/contracts/token/ERC20/ERC20.sol\":1896:2009  constructor(string memory name_, string memory symbol_) {... */\n  pop\n  pop\n    /* \"Date.sol\":849:875  _mint(address(this), 1000) */\n  tag_9\n    /* \"Date.sol\":863:867  this */\n  address\n    /* \"Date.sol\":870:874  1000 */\n  0x03e8\n    /* \"Date.sol\":849:854  _mint */\n  shl(0x20, tag_10)\n    /* \"Date.sol\":849:875  _mint(address(this), 1000) */\n  0x20\n  shr\n  jump\t// in\ntag_9:\n    /* \"Date.sol\":120:6433  contract DatingApp is ERC20 {... */\n  jump(tag_11)\n    /* \"@openzeppelin/contracts/token/ERC20/ERC20.sol\":7721:7929  function _mint(address account, uint256 value) internal {... */\ntag_10:\n    /* \"@openzeppelin/contracts/token/ERC20/ERC20.sol\":7810:7811  0 */\n  0x00\n    /* \"@openzeppelin/contracts/token/ERC20/ERC20.sol\":7791:7812  account == address(0) */\n  0xffffffffffffffffffffffffffffffffffffffff\n  and\n    /* \"@openzeppelin/contracts/token/ERC20/ERC20.sol\":7791:7798  account */\n  dup3\n    /* \"@openzeppelin/contracts/token/ERC20/ERC20.sol\":7791:7812  account == address(0) */\n  0xffffffffffffffffffffffffffffffffffffffff\n  and\n  sub\n    /* \"@openzeppelin/contracts/token/ERC20/ERC20.sol\":7787:7878  if (account == address(0)) {... */\n  tag_13\n  jumpi\n    /* \"@openzeppelin/contracts/token/ERC20/ERC20.sol\":7864:7865  0 */\n  0x00\n    /* \"@openzeppelin/contracts/token/ERC20/ERC20.sol\":7835:7867  ERC20InvalidReceiver(address(0)) */\n  mload(0x40)\n  0xec442f0500000000000000000000000000000000000000000000000000000000\n  dup2\n  mstore\n  0x04\n  add\n  tag_14\n  swap2\n  swap1\n  tag_15\n  jump\t// in\ntag_14:\n  mload(0x40)\n  dup1\n  swap2\n  sub\n  swap1\n  revert\n    /* \"@openzeppelin/contracts/token/ERC20/ERC20.sol\":7787:7878  if (account == address(0)) {... */\ntag_13:\n    /* \"@openzeppelin/contracts/token/ERC20/ERC20.sol\":7887:7922  _update(address(0), account, value) */\n  tag_16\n    /* \"@openzeppelin/contracts/token/ERC20/ERC20.sol\":7903:7904  0 */\n  0x00\n    /* \"@openzeppelin/contracts/token/ERC20/ERC20.sol\":7907:7914  account */\n  dup4\n    /* \"@openzeppelin/contracts/token/ERC20/ERC20.sol\":7916:7921  value */\n  dup4\n    /* \"@openzeppelin/contracts/token/ERC20/ERC20.sol\":7887:7894  _update */\n  shl(0x20, tag_17)\n    /* \"@openzeppelin/contracts/token/ERC20/ERC20.sol\":7887:7922  _update(address(0), account, value) */\n  0x20\n  shr\n  jump\t// in\ntag_16:\n    /* \"@openzeppelin/contracts/token/ERC20/ERC20.sol\":7721:7929  function _mint(address account, uint256 value) internal {... */\n  pop\n  pop\n  jump\t// out\n    /* \"@openzeppelin/contracts/token/ERC20/ERC20.sol\":6271:7378  function _update(address from, address to, uint256 value) internal virtual {... */\ntag_17:\n    /* \"@openzeppelin/contracts/token/ERC20/ERC20.sol\":6376:6377  0 */\n  0x00\n    /* \"@openzeppelin/contracts/token/ERC20/ERC20.sol\":6360:6378  from == address(0) */\n  0xffffffffffffffffffffffffffffffffffffffff\n  and\n    /* \"@openzeppelin/contracts/token/ERC20/ERC20.sol\":6360:6364  from */\n  dup4\n    /* \"@openzeppelin/contracts/token/ERC20/ERC20.sol\":6360:6378  from == address(0) */\n  0xffffffffffffffffffffffffffffffffffffffff\n  and\n  sub\n    /* \"@openzeppelin/contracts/token/ERC20/ERC20.sol\":6356:6896  if (from == address(0)) {... */\n  tag_19\n  jumpi\n    /* \"@openzeppelin/contracts/token/ERC20/ERC20.sol\":6512:6517  value */\n  dup1\n    /* \"@openzeppelin/contracts/token/ERC20/ERC20.sol\":6496:6508  _totalSupply */\n  0x02\n  0x00\n    /* \"@openzeppelin/contracts/token/ERC20/ERC20.sol\":6496:6517  _totalSupply += value */\n  dup3\n  dup3\n  sload\n  tag_20\n  swap2\n  swap1\n  tag_21\n  jump\t// in\ntag_20:\n  swap3\n  pop\n  pop\n  dup2\n  swap1\n  sstore\n  pop\n    /* \"@openzeppelin/contracts/token/ERC20/ERC20.sol\":6356:6896  if (from == address(0)) {... */\n  jump(tag_22)\ntag_19:\n    /* \"@openzeppelin/contracts/token/ERC20/ERC20.sol\":6548:6567  uint256 fromBalance */\n  0x00\n    /* \"@openzeppelin/contracts/token/ERC20/ERC20.sol\":6570:6579  _balances */\n  dup1\n    /* \"@openzeppelin/contracts/token/ERC20/ERC20.sol\":6570:6585  _balances[from] */\n  0x00\n    /* \"@openzeppelin/contracts/token/ERC20/ERC20.sol\":6580:6584  from */\n  dup6\n    /* \"@openzeppelin/contracts/token/ERC20/ERC20.sol\":6570:6585  _balances[from] */\n  0xffffffffffffffffffffffffffffffffffffffff\n  and\n  0xffffffffffffffffffffffffffffffffffffffff\n  and\n  dup2\n  mstore\n  0x20\n  add\n  swap1\n  dup2\n  mstore\n  0x20\n  add\n  0x00\n  keccak256\n  sload\n    /* \"@openzeppelin/contracts/token/ERC20/ERC20.sol\":6548:6585  uint256 fromBalance = _balances[from] */\n  swap1\n  pop\n    /* \"@openzeppelin/contracts/token/ERC20/ERC20.sol\":6617:6622  value */\n  dup2\n    /* \"@openzeppelin/contracts/token/ERC20/ERC20.sol\":6603:6614  fromBalance */\n  dup2\n    /* \"@openzeppelin/contracts/token/ERC20/ERC20.sol\":6603:6622  fromBalance < value */\n  lt\n    /* \"@openzeppelin/contracts/token/ERC20/ERC20.sol\":6599:6714  if (fromBalance < value) {... */\n  iszero\n  tag_23\n  jumpi\n    /* \"@openzeppelin/contracts/token/ERC20/ERC20.sol\":6674:6678  from */\n  dup4\n    /* \"@openzeppelin/contracts/token/ERC20/ERC20.sol\":6680:6691  fromBalance */\n  dup2\n    /* \"@openzeppelin/contracts/token/ERC20/ERC20.sol\":6693:6698  value */\n  dup4\n    /* \"@openzeppelin/contracts/token/ERC20/ERC20.sol\":6649:6699  ERC20InsufficientBalance(from, fromBalance, value) */\n  mload(0x40)\n  0xe450d38c00000000000000000000000000000000000000000000000000000000\n  dup2\n  mstore\n  0x04\n  add\n  tag_24\n  swap4\n  swap3\n  swap2\n  swap1\n  tag_25\n  jump\t// in\ntag_24:\n  mload(0x40)\n  dup1\n  swap2\n  sub\n  swap1\n  revert\n    /* \"@openzeppelin/contracts/token/ERC20/ERC20.sol\":6599:6714  if (fromBalance < value) {... */\ntag_23:\n    /* \"@openzeppelin/contracts/token/ERC20/ERC20.sol\":6866:6871  value */\n  dup2\n    /* \"@openzeppelin/contracts/token/ERC20/ERC20.sol\":6852:6863  fromBalance */\n  dup2\n    /* \"@openzeppelin/contracts/token/ERC20/ERC20.sol\":6852:6871  fromBalance - value */\n  sub\n    /* \"@openzeppelin/contracts/token/ERC20/ERC20.sol\":6834:6843  _balances */\n  0x00\n    /* \"@openzeppelin/contracts/token/ERC20/ERC20.sol\":6834:6849  _balances[from] */\n  dup1\n    /* \"@openzeppelin/contracts/token/ERC20/ERC20.sol\":6844:6848  from */\n  dup7\n    /* \"@openzeppelin/contracts/token/ERC20/ERC20.sol\":6834:6849  _balances[from] */\n  0xffffffffffffffffffffffffffffffffffffffff\n  and\n  0xffffffffffffffffffffffffffffffffffffffff\n  and\n  dup2\n  mstore\n  0x20\n  add\n  swap1\n  dup2\n  mstore\n  0x20\n  add\n  0x00\n  keccak256\n    /* \"@openzeppelin/contracts/token/ERC20/ERC20.sol\":6834:6871  _balances[from] = fromBalance - value */\n  dup2\n  swap1\n  sstore\n  pop\n    /* \"@openzeppelin/contracts/token/ERC20/ERC20.sol\":6534:6896  {... */\n  pop\n    /* \"@openzeppelin/contracts/token/ERC20/ERC20.sol\":6356:6896  if (from == address(0)) {... */\ntag_22:\n    /* \"@openzeppelin/contracts/token/ERC20/ERC20.sol\":6924:6925  0 */\n  0x00\n    /* \"@openzeppelin/contracts/token/ERC20/ERC20.sol\":6910:6926  to == address(0) */\n  0xffffffffffffffffffffffffffffffffffffffff\n  and\n    /* \"@openzeppelin/contracts/token/ERC20/ERC20.sol\":6910:6912  to */\n  dup3\n    /* \"@openzeppelin/contracts/token/ERC20/ERC20.sol\":6910:6926  to == address(0) */\n  0xffffffffffffffffffffffffffffffffffffffff\n  and\n  sub\n    /* \"@openzeppelin/contracts/token/ERC20/ERC20.sol\":6906:7331  if (to == address(0)) {... */\n  tag_26\n  jumpi\n    /* \"@openzeppelin/contracts/token/ERC20/ERC20.sol\":7089:7094  value */\n  dup1\n    /* \"@openzeppelin/contracts/token/ERC20/ERC20.sol\":7073:7085  _totalSupply */\n  0x02\n  0x00\n    /* \"@openzeppelin/contracts/token/ERC20/ERC20.sol\":7073:7094  _totalSupply -= value */\n  dup3\n  dup3\n  sload\n  sub\n  swap3\n  pop\n  pop\n  dup2\n  swap1\n  sstore\n  pop\n    /* \"@openzeppelin/contracts/token/ERC20/ERC20.sol\":6906:7331  if (to == address(0)) {... */\n  jump(tag_27)\ntag_26:\n    /* \"@openzeppelin/contracts/token/ERC20/ERC20.sol\":7301:7306  value */\n  dup1\n    /* \"@openzeppelin/contracts/token/ERC20/ERC20.sol\":7284:7293  _balances */\n  0x00\n    /* \"@openzeppelin/contracts/token/ERC20/ERC20.sol\":7284:7297  _balances[to] */\n  dup1\n    /* \"@openzeppelin/contracts/token/ERC20/ERC20.sol\":7294:7296  to */\n  dup5\n    /* \"@openzeppelin/contracts/token/ERC20/ERC20.sol\":7284:7297  _balances[to] */\n  0xffffffffffffffffffffffffffffffffffffffff\n  and\n  0xffffffffffffffffffffffffffffffffffffffff\n  and\n  dup2\n  mstore\n  0x20\n  add\n  swap1\n  dup2\n  mstore\n  0x20\n  add\n  0x00\n  keccak256\n  0x00\n    /* \"@openzeppelin/contracts/token/ERC20/ERC20.sol\":7284:7306  _balances[to] += value */\n  dup3\n  dup3\n  sload\n  add\n  swap3\n  pop\n  pop\n  dup2\n  swap1\n  sstore\n  pop\n    /* \"@openzeppelin/contracts/token/ERC20/ERC20.sol\":6906:7331  if (to == address(0)) {... */\ntag_27:\n    /* \"@openzeppelin/contracts/token/ERC20/ERC20.sol\":7361:7363  to */\n  dup2\n    /* \"@openzeppelin/contracts/token/ERC20/ERC20.sol\":7346:7371  Transfer(from, to, value) */\n  0xffffffffffffffffffffffffffffffffffffffff\n  and\n    /* \"@openzeppelin/contracts/token/ERC20/ERC20.sol\":7355:7359  from */\n  dup4\n    /* \"@openzeppelin/contracts/token/ERC20/ERC20.sol\":7346:7371  Transfer(from, to, value) */\n  0xffffffffffffffffffffffffffffffffffffffff\n  and\n  0xddf252ad1be2c89b69c2b068fc378daa952ba7f163c4a11628f55a4df523b3ef\n    /* \"@openzeppelin/contracts/token/ERC20/ERC20.sol\":7365:7370  value */\n  dup4\n    /* \"@openzeppelin/contracts/token/ERC20/ERC20.sol\":7346:7371  Transfer(from, to, value) */\n  mload(0x40)\n  tag_28\n  swap2\n  swap1\n  tag_29\n  jump\t// in\ntag_28:\n  mload(0x40)\n  dup1\n  swap2\n  sub\n  swap1\n  log3\n    /* \"@openzeppelin/contracts/token/ERC20/ERC20.sol\":6271:7378  function _update(address from, address to, uint256 value) internal virtual {... */\n  pop\n  pop\n  pop\n  jump\t// out\n    /* \"#utility.yul\":7:106   */\ntag_30:\n    /* \"#utility.yul\":59:65   */\n  0x00\n    /* \"#utility.yul\":93:98   */\n  dup2\n    /* \"#utility.yul\":87:99   */\n  mload\n    /* \"#utility.yul\":77:99   */\n  swap1\n  pop\n    /* \"#utility.yul\":7:106   */\n  swap2\n  swap1\n  pop\n  jump\t// out\n    /* \"#utility.yul\":112:292   */\ntag_31:\n    /* \"#utility.yul\":160:237   */\n  0x4e487b7100000000000000000000000000000000000000000000000000000000\n    /* \"#utility.yul\":157:158   */\n  0x00\n    /* \"#utility.yul\":150:238   */\n  mstore\n    /* \"#utility.yul\":257:261   */\n  0x41\n    /* \"#utility.yul\":254:255   */\n  0x04\n    /* \"#utility.yul\":247:262   */\n  mstore\n    /* \"#utility.yul\":281:285   */\n  0x24\n    /* \"#utility.yul\":278:279   */\n  0x00\n    /* \"#utility.yul\":271:286   */\n  revert\n    /* \"#utility.yul\":298:478   */\ntag_32:\n    /* \"#utility.yul\":346:423   */\n  0x4e487b7100000000000000000000000000000000000000000000000000000000\n    /* \"#utility.yul\":343:344   */\n  0x00\n    /* \"#utility.yul\":336:424   */\n  mstore\n    /* \"#utility.yul\":443:447   */\n  0x22\n    /* \"#utility.yul\":440:441   */\n  0x04\n    /* \"#utility.yul\":433:448   */\n  mstore\n    /* \"#utility.yul\":467:471   */\n  0x24\n    /* \"#utility.yul\":464:465   */\n  0x00\n    /* \"#utility.yul\":457:472   */\n  revert\n    /* \"#utility.yul\":484:804   */\ntag_33:\n    /* \"#utility.yul\":528:534   */\n  0x00\n    /* \"#utility.yul\":565:566   */\n  0x02\n    /* \"#utility.yul\":559:563   */\n  dup3\n    /* \"#utility.yul\":555:567   */\n  div\n    /* \"#utility.yul\":545:567   */\n  swap1\n  pop\n    /* \"#utility.yul\":612:613   */\n  0x01\n    /* \"#utility.yul\":606:610   */\n  dup3\n    /* \"#utility.yul\":602:614   */\n  and\n    /* \"#utility.yul\":633:651   */\n  dup1\n    /* \"#utility.yul\":623:704   */\n  tag_60\n  jumpi\n    /* \"#utility.yul\":689:693   */\n  0x7f\n    /* \"#utility.yul\":681:687   */\n  dup3\n    /* \"#utility.yul\":677:694   */\n  and\n    /* \"#utility.yul\":667:694   */\n  swap2\n  pop\n    /* \"#utility.yul\":623:704   */\ntag_60:\n    /* \"#utility.yul\":751:753   */\n  0x20\n    /* \"#utility.yul\":743:749   */\n  dup3\n    /* \"#utility.yul\":740:754   */\n  lt\n    /* \"#utility.yul\":720:738   */\n  dup2\n    /* \"#utility.yul\":717:755   */\n  sub\n    /* \"#utility.yul\":714:798   */\n  tag_61\n  jumpi\n    /* \"#utility.yul\":770:788   */\n  tag_62\n  tag_32\n  jump\t// in\ntag_62:\n    /* \"#utility.yul\":714:798   */\ntag_61:\n    /* \"#utility.yul\":535:804   */\n  pop\n    /* \"#utility.yul\":484:804   */\n  swap2\n  swap1\n  pop\n  jump\t// out\n    /* \"#utility.yul\":810:951   */\ntag_34:\n    /* \"#utility.yul\":859:863   */\n  0x00\n    /* \"#utility.yul\":882:885   */\n  dup2\n    /* \"#utility.yul\":874:885   */\n  swap1\n  pop\n    /* \"#utility.yul\":905:908   */\n  dup2\n    /* \"#utility.yul\":902:903   */\n  0x00\n    /* \"#utility.yul\":895:909   */\n  mstore\n    /* \"#utility.yul\":939:943   */\n  0x20\n    /* \"#utility.yul\":936:937   */\n  0x00\n    /* \"#utility.yul\":926:944   */\n  keccak256\n    /* \"#utility.yul\":918:944   */\n  swap1\n  pop\n    /* \"#utility.yul\":810:951   */\n  swap2\n  swap1\n  pop\n  jump\t// out\n    /* \"#utility.yul\":957:1050   */\ntag_35:\n    /* \"#utility.yul\":994:1000   */\n  0x00\n    /* \"#utility.yul\":1041:1043   */\n  0x20\n    /* \"#utility.yul\":1036:1038   */\n  0x1f\n    /* \"#utility.yul\":1029:1034   */\n  dup4\n    /* \"#utility.yul\":1025:1039   */\n  add\n    /* \"#utility.yul\":1021:1044   */\n  div\n    /* \"#utility.yul\":1011:1044   */\n  swap1\n  pop\n    /* \"#utility.yul\":957:1050   */\n  swap2\n  swap1\n  pop\n  jump\t// out\n    /* \"#utility.yul\":1056:1163   */\ntag_36:\n    /* \"#utility.yul\":1100:1108   */\n  0x00\n    /* \"#utility.yul\":1150:1155   */\n  dup3\n    /* \"#utility.yul\":1144:1148   */\n  dup3\n    /* \"#utility.yul\":1140:1156   */\n  shl\n    /* \"#utility.yul\":1119:1156   */\n  swap1\n  pop\n    /* \"#utility.yul\":1056:1163   */\n  swap3\n  swap2\n  pop\n  pop\n  jump\t// out\n    /* \"#utility.yul\":1169:1562   */\ntag_37:\n    /* \"#utility.yul\":1238:1244   */\n  0x00\n    /* \"#utility.yul\":1288:1289   */\n  0x08\n    /* \"#utility.yul\":1276:1286   */\n  dup4\n    /* \"#utility.yul\":1272:1290   */\n  mul\n    /* \"#utility.yul\":1311:1408   */\n  tag_67\n    /* \"#utility.yul\":1341:1407   */\n  0xffffffffffffffffffffffffffffffffffffffffffffffffffffffffffffffff\n    /* \"#utility.yul\":1330:1339   */\n  dup3\n    /* \"#utility.yul\":1311:1408   */\n  tag_36\n  jump\t// in\ntag_67:\n    /* \"#utility.yul\":1429:1468   */\n  tag_68\n    /* \"#utility.yul\":1459:1467   */\n  dup7\n    /* \"#utility.yul\":1448:1457   */\n  dup4\n    /* \"#utility.yul\":1429:1468   */\n  tag_36\n  jump\t// in\ntag_68:\n    /* \"#utility.yul\":1417:1468   */\n  swap6\n  pop\n    /* \"#utility.yul\":1501:1505   */\n  dup1\n    /* \"#utility.yul\":1497:1506   */\n  not\n    /* \"#utility.yul\":1490:1495   */\n  dup5\n    /* \"#utility.yul\":1486:1507   */\n  and\n    /* \"#utility.yul\":1477:1507   */\n  swap4\n  pop\n    /* \"#utility.yul\":1550:1554   */\n  dup1\n    /* \"#utility.yul\":1540:1548   */\n  dup7\n    /* \"#utility.yul\":1536:1555   */\n  and\n    /* \"#utility.yul\":1529:1534   */\n  dup5\n    /* \"#utility.yul\":1526:1556   */\n  or\n    /* \"#utility.yul\":1516:1556   */\n  swap3\n  pop\n    /* \"#utility.yul\":1245:1562   */\n  pop\n  pop\n    /* \"#utility.yul\":1169:1562   */\n  swap4\n  swap3\n  pop\n  pop\n  pop\n  jump\t// out\n    /* \"#utility.yul\":1568:1645   */\ntag_38:\n    /* \"#utility.yul\":1605:1612   */\n  0x00\n    /* \"#utility.yul\":1634:1639   */\n  dup2\n    /* \"#utility.yul\":1623:1639   */\n  swap1\n  pop\n    /* \"#utility.yul\":1568:1645   */\n  swap2\n  swap1\n  pop\n  jump\t// out\n    /* \"#utility.yul\":1651:1711   */\ntag_39:\n    /* \"#utility.yul\":1679:1682   */\n  0x00\n    /* \"#utility.yul\":1700:1705   */\n  dup2\n    /* \"#utility.yul\":1693:1705   */\n  swap1\n  pop\n    /* \"#utility.yul\":1651:1711   */\n  swap2\n  swap1\n  pop\n  jump\t// out\n    /* \"#utility.yul\":1717:1859   */\ntag_40:\n    /* \"#utility.yul\":1767:1776   */\n  0x00\n    /* \"#utility.yul\":1800:1853   */\n  tag_72\n    /* \"#utility.yul\":1818:1852   */\n  tag_73\n    /* \"#utility.yul\":1827:1851   */\n  tag_74\n    /* \"#utility.yul\":1845:1850   */\n  dup5\n    /* \"#utility.yul\":1827:1851   */\n  tag_38\n  jump\t// in\ntag_74:\n    /* \"#utility.yul\":1818:1852   */\n  tag_39\n  jump\t// in\ntag_73:\n    /* \"#utility.yul\":1800:1853   */\n  tag_38\n  jump\t// in\ntag_72:\n    /* \"#utility.yul\":1787:1853   */\n  swap1\n  pop\n    /* \"#utility.yul\":1717:1859   */\n  swap2\n  swap1\n  pop\n  jump\t// out\n    /* \"#utility.yul\":1865:1940   */\ntag_41:\n    /* \"#utility.yul\":1908:1911   */\n  0x00\n    /* \"#utility.yul\":1929:1934   */\n  dup2\n    /* \"#utility.yul\":1922:1934   */\n  swap1\n  pop\n    /* \"#utility.yul\":1865:1940   */\n  swap2\n  swap1\n  pop\n  jump\t// out\n    /* \"#utility.yul\":1946:2215   */\ntag_42:\n    /* \"#utility.yul\":2056:2095   */\n  tag_77\n    /* \"#utility.yul\":2087:2094   */\n  dup4\n    /* \"#utility.yul\":2056:2095   */\n  tag_40\n  jump\t// in\ntag_77:\n    /* \"#utility.yul\":2117:2208   */\n  tag_78\n    /* \"#utility.yul\":2166:2207   */\n  tag_79\n    /* \"#utility.yul\":2190:2206   */\n  dup3\n    /* \"#utility.yul\":2166:2207   */\n  tag_41\n  jump\t// in\ntag_79:\n    /* \"#utility.yul\":2158:2164   */\n  dup5\n    /* \"#utility.yul\":2151:2155   */\n  dup5\n    /* \"#utility.yul\":2145:2156   */\n  sload\n    /* \"#utility.yul\":2117:2208   */\n  tag_37\n  jump\t// in\ntag_78:\n    /* \"#utility.yul\":2111:2115   */\n  dup3\n    /* \"#utility.yul\":2104:2209   */\n  sstore\n    /* \"#utility.yul\":2022:2215   */\n  pop\n    /* \"#utility.yul\":1946:2215   */\n  pop\n  pop\n  pop\n  jump\t// out\n    /* \"#utility.yul\":2221:2294   */\ntag_43:\n    /* \"#utility.yul\":2266:2269   */\n  0x00\n    /* \"#utility.yul\":2221:2294   */\n  swap1\n  jump\t// out\n    /* \"#utility.yul\":2300:2489   */\ntag_44:\n    /* \"#utility.yul\":2377:2409   */\n  tag_82\n  tag_43\n  jump\t// in\ntag_82:\n    /* \"#utility.yul\":2418:2483   */\n  tag_83\n    /* \"#utility.yul\":2476:2482   */\n  dup2\n    /* \"#utility.yul\":2468:2474   */\n  dup5\n    /* \"#utility.yul\":2462:2466   */\n  dup5\n    /* \"#utility.yul\":2418:2483   */\n  tag_42\n  jump\t// in\ntag_83:\n    /* \"#utility.yul\":2353:2489   */\n  pop\n    /* \"#utility.yul\":2300:2489   */\n  pop\n  pop\n  jump\t// out\n    /* \"#utility.yul\":2495:2681   */\ntag_45:\n    /* \"#utility.yul\":2555:2675   */\ntag_85:\n    /* \"#utility.yul\":2572:2575   */\n  dup2\n    /* \"#utility.yul\":2565:2570   */\n  dup2\n    /* \"#utility.yul\":2562:2576   */\n  lt\n    /* \"#utility.yul\":2555:2675   */\n  iszero\n  tag_87\n  jumpi\n    /* \"#utility.yul\":2626:2665   */\n  tag_88\n    /* \"#utility.yul\":2663:2664   */\n  0x00\n    /* \"#utility.yul\":2656:2661   */\n  dup3\n    /* \"#utility.yul\":2626:2665   */\n  tag_44\n  jump\t// in\ntag_88:\n    /* \"#utility.yul\":2599:2600   */\n  0x01\n    /* \"#utility.yul\":2592:2597   */\n  dup2\n    /* \"#utility.yul\":2588:2601   */\n  add\n    /* \"#utility.yul\":2579:2601   */\n  swap1\n  pop\n    /* \"#utility.yul\":2555:2675   */\n  jump(tag_85)\ntag_87:\n    /* \"#utility.yul\":2495:2681   */\n  pop\n  pop\n  jump\t// out\n    /* \"#utility.yul\":2687:3230   */\ntag_46:\n    /* \"#utility.yul\":2788:2790   */\n  0x1f\n    /* \"#utility.yul\":2783:2786   */\n  dup3\n    /* \"#utility.yul\":2780:2791   */\n  gt\n    /* \"#utility.yul\":2777:3223   */\n  iszero\n  tag_90\n  jumpi\n    /* \"#utility.yul\":2822:2860   */\n  tag_91\n    /* \"#utility.yul\":2854:2859   */\n  dup2\n    /* \"#utility.yul\":2822:2860   */\n  tag_34\n  jump\t// in\ntag_91:\n    /* \"#utility.yul\":2906:2935   */\n  tag_92\n    /* \"#utility.yul\":2924:2934   */\n  dup5\n    /* \"#utility.yul\":2906:2935   */\n  tag_35\n  jump\t// in\ntag_92:\n    /* \"#utility.yul\":2896:2904   */\n  dup2\n    /* \"#utility.yul\":2892:2936   */\n  add\n    /* \"#utility.yul\":3089:3091   */\n  0x20\n    /* \"#utility.yul\":3077:3087   */\n  dup6\n    /* \"#utility.yul\":3074:3092   */\n  lt\n    /* \"#utility.yul\":3071:3120   */\n  iszero\n  tag_93\n  jumpi\n    /* \"#utility.yul\":3110:3118   */\n  dup2\n    /* \"#utility.yul\":3095:3118   */\n  swap1\n  pop\n    /* \"#utility.yul\":3071:3120   */\ntag_93:\n    /* \"#utility.yul\":3133:3213   */\n  tag_94\n    /* \"#utility.yul\":3189:3211   */\n  tag_95\n    /* \"#utility.yul\":3207:3210   */\n  dup6\n    /* \"#utility.yul\":3189:3211   */\n  tag_35\n  jump\t// in\ntag_95:\n    /* \"#utility.yul\":3179:3187   */\n  dup4\n    /* \"#utility.yul\":3175:3212   */\n  add\n    /* \"#utility.yul\":3162:3173   */\n  dup3\n    /* \"#utility.yul\":3133:3213   */\n  tag_45\n  jump\t// in\ntag_94:\n    /* \"#utility.yul\":2792:3223   */\n  pop\n  pop\n    /* \"#utility.yul\":2777:3223   */\ntag_90:\n    /* \"#utility.yul\":2687:3230   */\n  pop\n  pop\n  pop\n  jump\t// out\n    /* \"#utility.yul\":3236:3353   */\ntag_47:\n    /* \"#utility.yul\":3290:3298   */\n  0x00\n    /* \"#utility.yul\":3340:3345   */\n  dup3\n    /* \"#utility.yul\":3334:3338   */\n  dup3\n    /* \"#utility.yul\":3330:3346   */\n  shr\n    /* \"#utility.yul\":3309:3346   */\n  swap1\n  pop\n    /* \"#utility.yul\":3236:3353   */\n  swap3\n  swap2\n  pop\n  pop\n  jump\t// out\n    /* \"#utility.yul\":3359:3528   */\ntag_48:\n    /* \"#utility.yul\":3403:3409   */\n  0x00\n    /* \"#utility.yul\":3436:3487   */\n  tag_98\n    /* \"#utility.yul\":3484:3485   */\n  0x00\n    /* \"#utility.yul\":3480:3486   */\n  not\n    /* \"#utility.yul\":3472:3477   */\n  dup5\n    /* \"#utility.yul\":3469:3470   */\n  0x08\n    /* \"#utility.yul\":3465:3478   */\n  mul\n    /* \"#utility.yul\":3436:3487   */\n  tag_47\n  jump\t// in\ntag_98:\n    /* \"#utility.yul\":3432:3488   */\n  not\n    /* \"#utility.yul\":3517:3521   */\n  dup1\n    /* \"#utility.yul\":3511:3515   */\n  dup4\n    /* \"#utility.yul\":3507:3522   */\n  and\n    /* \"#utility.yul\":3497:3522   */\n  swap2\n  pop\n    /* \"#utility.yul\":3410:3528   */\n  pop\n    /* \"#utility.yul\":3359:3528   */\n  swap3\n  swap2\n  pop\n  pop\n  jump\t// out\n    /* \"#utility.yul\":3533:3828   */\ntag_49:\n    /* \"#utility.yul\":3609:3613   */\n  0x00\n    /* \"#utility.yul\":3755:3784   */\n  tag_100\n    /* \"#utility.yul\":3780:3783   */\n  dup4\n    /* \"#utility.yul\":3774:3778   */\n  dup4\n    /* \"#utility.yul\":3755:3784   */\n  tag_48\n  jump\t// in\ntag_100:\n    /* \"#utility.yul\":3747:3784   */\n  swap2\n  pop\n    /* \"#utility.yul\":3817:3820   */\n  dup3\n    /* \"#utility.yul\":3814:3815   */\n  0x02\n    /* \"#utility.yul\":3810:3821   */\n  mul\n    /* \"#utility.yul\":3804:3808   */\n  dup3\n    /* \"#utility.yul\":3801:3822   */\n  or\n    /* \"#utility.yul\":3793:3822   */\n  swap1\n  pop\n    /* \"#utility.yul\":3533:3828   */\n  swap3\n  swap2\n  pop\n  pop\n  jump\t// out\n    /* \"#utility.yul\":3833:5228   */\ntag_6:\n    /* \"#utility.yul\":3950:3987   */\n  tag_102\n    /* \"#utility.yul\":3983:3986   */\n  dup3\n    /* \"#utility.yul\":3950:3987   */\n  tag_30\n  jump\t// in\ntag_102:\n    /* \"#utility.yul\":4052:4070   */\n  0xffffffffffffffff\n    /* \"#utility.yul\":4044:4050   */\n  dup2\n    /* \"#utility.yul\":4041:4071   */\n  gt\n    /* \"#utility.yul\":4038:4094   */\n  iszero\n  tag_103\n  jumpi\n    /* \"#utility.yul\":4074:4092   */\n  tag_104\n  tag_31\n  jump\t// in\ntag_104:\n    /* \"#utility.yul\":4038:4094   */\ntag_103:\n    /* \"#utility.yul\":4118:4156   */\n  tag_105\n    /* \"#utility.yul\":4150:4154   */\n  dup3\n    /* \"#utility.yul\":4144:4155   */\n  sload\n    /* \"#utility.yul\":4118:4156   */\n  tag_33\n  jump\t// in\ntag_105:\n    /* \"#utility.yul\":4203:4270   */\n  tag_106\n    /* \"#utility.yul\":4263:4269   */\n  dup3\n    /* \"#utility.yul\":4255:4261   */\n  dup3\n    /* \"#utility.yul\":4249:4253   */\n  dup6\n    /* \"#utility.yul\":4203:4270   */\n  tag_46\n  jump\t// in\ntag_106:\n    /* \"#utility.yul\":4297:4298   */\n  0x00\n    /* \"#utility.yul\":4321:4325   */\n  0x20\n    /* \"#utility.yul\":4308:4325   */\n  swap1\n  pop\n    /* \"#utility.yul\":4353:4355   */\n  0x1f\n    /* \"#utility.yul\":4345:4351   */\n  dup4\n    /* \"#utility.yul\":4342:4356   */\n  gt\n    /* \"#utility.yul\":4370:4371   */\n  0x01\n    /* \"#utility.yul\":4365:4983   */\n  dup2\n  eq\n  tag_108\n  jumpi\n    /* \"#utility.yul\":5027:5028   */\n  0x00\n    /* \"#utility.yul\":5044:5050   */\n  dup5\n    /* \"#utility.yul\":5041:5118   */\n  iszero\n  tag_109\n  jumpi\n    /* \"#utility.yul\":5093:5102   */\n  dup3\n    /* \"#utility.yul\":5088:5091   */\n  dup8\n    /* \"#utility.yul\":5084:5103   */\n  add\n    /* \"#utility.yul\":5078:5104   */\n  mload\n    /* \"#utility.yul\":5069:5104   */\n  swap1\n  pop\n    /* \"#utility.yul\":5041:5118   */\ntag_109:\n    /* \"#utility.yul\":5144:5211   */\n  tag_110\n    /* \"#utility.yul\":5204:5210   */\n  dup6\n    /* \"#utility.yul\":5197:5202   */\n  dup3\n    /* \"#utility.yul\":5144:5211   */\n  tag_49\n  jump\t// in\ntag_110:\n    /* \"#utility.yul\":5138:5142   */\n  dup7\n    /* \"#utility.yul\":5131:5212   */\n  sstore\n    /* \"#utility.yul\":5000:5222   */\n  pop\n    /* \"#utility.yul\":4335:5222   */\n  jump(tag_107)\n    /* \"#utility.yul\":4365:4983   */\ntag_108:\n    /* \"#utility.yul\":4417:4421   */\n  0x1f\n    /* \"#utility.yul\":4413:4422   */\n  not\n    /* \"#utility.yul\":4405:4411   */\n  dup5\n    /* \"#utility.yul\":4401:4423   */\n  and\n    /* \"#utility.yul\":4451:4488   */\n  tag_111\n    /* \"#utility.yul\":4483:4487   */\n  dup7\n    /* \"#utility.yul\":4451:4488   */\n  tag_34\n  jump\t// in\ntag_111:\n    /* \"#utility.yul\":4510:4511   */\n  0x00\n    /* \"#utility.yul\":4524:4732   */\ntag_112:\n    /* \"#utility.yul\":4538:4545   */\n  dup3\n    /* \"#utility.yul\":4535:4536   */\n  dup2\n    /* \"#utility.yul\":4532:4546   */\n  lt\n    /* \"#utility.yul\":4524:4732   */\n  iszero\n  tag_114\n  jumpi\n    /* \"#utility.yul\":4617:4626   */\n  dup5\n    /* \"#utility.yul\":4612:4615   */\n  dup10\n    /* \"#utility.yul\":4608:4627   */\n  add\n    /* \"#utility.yul\":4602:4628   */\n  mload\n    /* \"#utility.yul\":4594:4600   */\n  dup3\n    /* \"#utility.yul\":4587:4629   */\n  sstore\n    /* \"#utility.yul\":4668:4669   */\n  0x01\n    /* \"#utility.yul\":4660:4666   */\n  dup3\n    /* \"#utility.yul\":4656:4670   */\n  add\n    /* \"#utility.yul\":4646:4670   */\n  swap2\n  pop\n    /* \"#utility.yul\":4715:4717   */\n  0x20\n    /* \"#utility.yul\":4704:4713   */\n  dup6\n    /* \"#utility.yul\":4700:4718   */\n  add\n    /* \"#utility.yul\":4687:4718   */\n  swap5\n  pop\n    /* \"#utility.yul\":4561:4565   */\n  0x20\n    /* \"#utility.yul\":4558:4559   */\n  dup2\n    /* \"#utility.yul\":4554:4566   */\n  add\n    /* \"#utility.yul\":4549:4566   */\n  swap1\n  pop\n    /* \"#utility.yul\":4524:4732   */\n  jump(tag_112)\ntag_114:\n    /* \"#utility.yul\":4760:4766   */\n  dup7\n    /* \"#utility.yul\":4751:4758   */\n  dup4\n    /* \"#utility.yul\":4748:4767   */\n  lt\n    /* \"#utility.yul\":4745:4924   */\n  iszero\n  tag_115\n  jumpi\n    /* \"#utility.yul\":4818:4827   */\n  dup5\n    /* \"#utility.yul\":4813:4816   */\n  dup10\n    /* \"#utility.yul\":4809:4828   */\n  add\n    /* \"#utility.yul\":4803:4829   */\n  mload\n    /* \"#utility.yul\":4861:4909   */\n  tag_116\n    /* \"#utility.yul\":4903:4907   */\n  0x1f\n    /* \"#utility.yul\":4895:4901   */\n  dup10\n    /* \"#utility.yul\":4891:4908   */\n  and\n    /* \"#utility.yul\":4880:4889   */\n  dup3\n    /* \"#utility.yul\":4861:4909   */\n  tag_48\n  jump\t// in\ntag_116:\n    /* \"#utility.yul\":4853:4859   */\n  dup4\n    /* \"#utility.yul\":4846:4910   */\n  sstore\n    /* \"#utility.yul\":4768:4924   */\n  pop\n    /* \"#utility.yul\":4745:4924   */\ntag_115:\n    /* \"#utility.yul\":4970:4971   */\n  0x01\n    /* \"#utility.yul\":4966:4967   */\n  0x02\n    /* \"#utility.yul\":4958:4964   */\n  dup9\n    /* \"#utility.yul\":4954:4968   */\n  mul\n    /* \"#utility.yul\":4950:4972   */\n  add\n    /* \"#utility.yul\":4944:4948   */\n  dup9\n    /* \"#utility.yul\":4937:4973   */\n  sstore\n    /* \"#utility.yul\":4372:4983   */\n  pop\n  pop\n  pop\n    /* \"#utility.yul\":4335:5222   */\ntag_107:\n  pop\n    /* \"#utility.yul\":3925:5228   */\n  pop\n  pop\n  pop\n    /* \"#utility.yul\":3833:5228   */\n  pop\n  pop\n  jump\t// out\n    /* \"#utility.yul\":5234:5360   */\ntag_50:\n    /* \"#utility.yul\":5271:5278   */\n  0x00\n    /* \"#utility.yul\":5311:5353   */\n  0xffffffffffffffffffffffffffffffffffffffff\n    /* \"#utility.yul\":5304:5309   */\n  dup3\n    /* \"#utility.yul\":5300:5354   */\n  and\n    /* \"#utility.yul\":5289:5354   */\n  swap1\n  pop\n    /* \"#utility.yul\":5234:5360   */\n  swap2\n  swap1\n  pop\n  jump\t// out\n    /* \"#utility.yul\":5366:5462   */\ntag_51:\n    /* \"#utility.yul\":5403:5410   */\n  0x00\n    /* \"#utility.yul\":5432:5456   */\n  tag_119\n    /* \"#utility.yul\":5450:5455   */\n  dup3\n    /* \"#utility.yul\":5432:5456   */\n  tag_50\n  jump\t// in\ntag_119:\n    /* \"#utility.yul\":5421:5456   */\n  swap1\n  pop\n    /* \"#utility.yul\":5366:5462   */\n  swap2\n  swap1\n  pop\n  jump\t// out\n    /* \"#utility.yul\":5468:5586   */\ntag_52:\n    /* \"#utility.yul\":5555:5579   */\n  tag_121\n    /* \"#utility.yul\":5573:5578   */\n  dup2\n    /* \"#utility.yul\":5555:5579   */\n  tag_51\n  jump\t// in\ntag_121:\n    /* \"#utility.yul\":5550:5553   */\n  dup3\n    /* \"#utility.yul\":5543:5580   */\n  mstore\n    /* \"#utility.yul\":5468:5586   */\n  pop\n  pop\n  jump\t// out\n    /* \"#utility.yul\":5592:5814   */\ntag_15:\n    /* \"#utility.yul\":5685:5689   */\n  0x00\n    /* \"#utility.yul\":5723:5725   */\n  0x20\n    /* \"#utility.yul\":5712:5721   */\n  dup3\n    /* \"#utility.yul\":5708:5726   */\n  add\n    /* \"#utility.yul\":5700:5726   */\n  swap1\n  pop\n    /* \"#utility.yul\":5736:5807   */\n  tag_123\n    /* \"#utility.yul\":5804:5805   */\n  0x00\n    /* \"#utility.yul\":5793:5802   */\n  dup4\n    /* \"#utility.yul\":5789:5806   */\n  add\n    /* \"#utility.yul\":5780:5786   */\n  dup5\n    /* \"#utility.yul\":5736:5807   */\n  tag_52\n  jump\t// in\ntag_123:\n    /* \"#utility.yul\":5592:5814   */\n  swap3\n  swap2\n  pop\n  pop\n  jump\t// out\n    /* \"#utility.yul\":5820:6000   */\ntag_53:\n    /* \"#utility.yul\":5868:5945   */\n  0x4e487b7100000000000000000000000000000000000000000000000000000000\n    /* \"#utility.yul\":5865:5866   */\n  0x00\n    /* \"#utility.yul\":5858:5946   */\n  mstore\n    /* \"#utility.yul\":5965:5969   */\n  0x11\n    /* \"#utility.yul\":5962:5963   */\n  0x04\n    /* \"#utility.yul\":5955:5970   */\n  mstore\n    /* \"#utility.yul\":5989:5993   */\n  0x24\n    /* \"#utility.yul\":5986:5987   */\n  0x00\n    /* \"#utility.yul\":5979:5994   */\n  revert\n    /* \"#utility.yul\":6006:6197   */\ntag_21:\n    /* \"#utility.yul\":6046:6049   */\n  0x00\n    /* \"#utility.yul\":6065:6085   */\n  tag_126\n    /* \"#utility.yul\":6083:6084   */\n  dup3\n    /* \"#utility.yul\":6065:6085   */\n  tag_38\n  jump\t// in\ntag_126:\n    /* \"#utility.yul\":6060:6085   */\n  swap2\n  pop\n    /* \"#utility.yul\":6099:6119   */\n  tag_127\n    /* \"#utility.yul\":6117:6118   */\n  dup4\n    /* \"#utility.yul\":6099:6119   */\n  tag_38\n  jump\t// in\ntag_127:\n    /* \"#utility.yul\":6094:6119   */\n  swap3\n  pop\n    /* \"#utility.yul\":6142:6143   */\n  dup3\n    /* \"#utility.yul\":6139:6140   */\n  dup3\n    /* \"#utility.yul\":6135:6144   */\n  add\n    /* \"#utility.yul\":6128:6144   */\n  swap1\n  pop\n    /* \"#utility.yul\":6163:6166   */\n  dup1\n    /* \"#utility.yul\":6160:6161   */\n  dup3\n    /* \"#utility.yul\":6157:6167   */\n  gt\n    /* \"#utility.yul\":6154:6190   */\n  iszero\n  tag_128\n  jumpi\n    /* \"#utility.yul\":6170:6188   */\n  tag_129\n  tag_53\n  jump\t// in\ntag_129:\n    /* \"#utility.yul\":6154:6190   */\ntag_128:\n    /* \"#utility.yul\":6006:6197   */\n  swap3\n  swap2\n  pop\n  pop\n  jump\t// out\n    /* \"#utility.yul\":6203:6321   */\ntag_54:\n    /* \"#utility.yul\":6290:6314   */\n  tag_131\n    /* \"#utility.yul\":6308:6313   */\n  dup2\n    /* \"#utility.yul\":6290:6314   */\n  tag_38\n  jump\t// in\ntag_131:\n    /* \"#utility.yul\":6285:6288   */\n  dup3\n    /* \"#utility.yul\":6278:6315   */\n  mstore\n    /* \"#utility.yul\":6203:6321   */\n  pop\n  pop\n  jump\t// out\n    /* \"#utility.yul\":6327:6769   */\ntag_25:\n    /* \"#utility.yul\":6476:6480   */\n  0x00\n    /* \"#utility.yul\":6514:6516   */\n  0x60\n    /* \"#utility.yul\":6503:6512   */\n  dup3\n    /* \"#utility.yul\":6499:6517   */\n  add\n    /* \"#utility.yul\":6491:6517   */\n  swap1\n  pop\n    /* \"#utility.yul\":6527:6598   */\n  tag_133\n    /* \"#utility.yul\":6595:6596   */\n  0x00\n    /* \"#utility.yul\":6584:6593   */\n  dup4\n    /* \"#utility.yul\":6580:6597   */\n  add\n    /* \"#utility.yul\":6571:6577   */\n  dup7\n    /* \"#utility.yul\":6527:6598   */\n  tag_52\n  jump\t// in\ntag_133:\n    /* \"#utility.yul\":6608:6680   */\n  tag_134\n    /* \"#utility.yul\":6676:6678   */\n  0x20\n    /* \"#utility.yul\":6665:6674   */\n  dup4\n    /* \"#utility.yul\":6661:6679   */\n  add\n    /* \"#utility.yul\":6652:6658   */\n  dup6\n    /* \"#utility.yul\":6608:6680   */\n  tag_54\n  jump\t// in\ntag_134:\n    /* \"#utility.yul\":6690:6762   */\n  tag_135\n    /* \"#utility.yul\":6758:6760   */\n  0x40\n    /* \"#utility.yul\":6747:6756   */\n  dup4\n    /* \"#utility.yul\":6743:6761   */\n  add\n    /* \"#utility.yul\":6734:6740   */\n  dup5\n    /* \"#utility.yul\":6690:6762   */\n  tag_54\n  jump\t// in\ntag_135:\n    /* \"#utility.yul\":6327:6769   */\n  swap5\n  swap4\n  pop\n  pop\n  pop\n  pop\n  jump\t// out\n    /* \"#utility.yul\":6775:6997   */\ntag_29:\n    /* \"#utility.yul\":6868:6872   */\n  0x00\n    /* \"#utility.yul\":6906:6908   */\n  0x20\n    /* \"#utility.yul\":6895:6904   */\n  dup3\n    /* \"#utility.yul\":6891:6909   */\n  add\n    /* \"#utility.yul\":6883:6909   */\n  swap1\n  pop\n    /* \"#utility.yul\":6919:6990   */\n  tag_137\n    /* \"#utility.yul\":6987:6988   */\n  0x00\n    /* \"#utility.yul\":6976:6985   */\n  dup4\n    /* \"#utility.yul\":6972:6989   */\n  add\n    /* \"#utility.yul\":6963:6969   */\n  dup5\n    /* \"#utility.yul\":6919:6990   */\n  tag_54\n  jump\t// in\ntag_137:\n    /* \"#utility.yul\":6775:6997   */\n  swap3\n  swap2\n  pop\n  pop\n  jump\t// out\n    /* \"Date.sol\":120:6433  contract DatingApp is ERC20 {... */\ntag_11:\n  dataSize(sub_0)\n  dup1\n  dataOffset(sub_0)\n  0x00\n  codecopy\n  0x00\n  return\nstop\n\nsub_0: assembly {\n        /* \"Date.sol\":120:6433  contract DatingApp is ERC20 {... */\n      mstore(0x40, 0x80)\n      callvalue\n      dup1\n      iszero\n      tag_1\n      jumpi\n      0x00\n      dup1\n      revert\n    tag_1:\n      pop\n      jumpi(tag_2, lt(calldatasize, 0x04))\n      shr(0xe0, calldataload(0x00))\n      dup1\n      0x80a1f712\n      gt\n      tag_26\n      jumpi\n      dup1\n      0xce43c032\n      gt\n      tag_27\n      jumpi\n      dup1\n      0xce43c032\n      eq\n      tag_20\n      jumpi\n      dup1\n      0xdd62ed3e\n      eq\n      tag_21\n      jumpi\n      dup1\n      0xde6f24bb\n      eq\n      tag_22\n      jumpi\n      dup1\n      0xdf6c5b2c\n      eq\n      tag_23\n      jumpi\n      dup1\n      0xf98fe628\n      eq\n      tag_24\n      jumpi\n      dup1\n      0xfc0c546a\n      eq\n      tag_25\n      jumpi\n      jump(tag_2)\n    tag_27:\n      dup1\n      0x80a1f712\n      eq\n      tag_14\n      jumpi\n      dup1\n      0x85e1b15b\n      eq\n      tag_15\n      jumpi\n      dup1\n      0x95d89b41\n      eq\n      tag_16\n      jumpi\n      dup1\n      0xa5fb1fb8\n      eq\n      tag_17\n      jumpi\n      dup1\n      0xa9059cbb\n      eq\n      tag_18\n      jumpi\n      dup1\n      0xb708fd4d\n      eq\n      tag_19\n      jumpi\n      jump(tag_2)\n    tag_26:\n      dup1\n      0x332d56d7\n      gt\n      tag_28\n      jumpi\n      dup1\n      0x332d56d7\n      eq\n      tag_8\n      jumpi\n      dup1\n      0x4768d4ef\n      eq\n      tag_9\n      jumpi\n      dup1\n      0x6036a039\n      eq\n      tag_10\n      jumpi\n      dup1\n      0x70a08231\n      eq\n      tag_11\n      jumpi\n      dup1\n      0x71f8b59e\n      eq\n      tag_12\n      jumpi\n      dup1\n      0x7ebda124\n      eq\n      tag_13\n      jumpi\n      jump(tag_2)\n    tag_28:\n      dup1\n      0x06fdde03\n      eq\n      tag_3\n      jumpi\n      dup1\n      0x095ea7b3\n      eq\n      tag_4\n      jumpi\n      dup1\n      0x18160ddd\n      eq\n      tag_5\n      jumpi\n      dup1\n      0x23b872dd\n      eq\n      tag_6\n      jumpi\n      dup1\n      0x313ce567\n      eq\n      tag_7\n      jumpi\n    tag_2:\n      0x00\n      dup1\n      revert\n        /* \"@openzeppelin/contracts/token/ERC20/ERC20.sol\":2074:2163  function name() public view virtual returns (string memory) {... */\n    tag_3:\n      tag_29\n      tag_30\n      jump\t// in\n    tag_29:\n      mload(0x40)\n      tag_31\n      swap2\n      swap1\n      tag_32\n      jump\t// in\n    tag_31:\n      mload(0x40)\n      dup1\n      swap2\n      sub\n      swap1\n      return\n        /* \"@openzeppelin/contracts/token/ERC20/ERC20.sol\":4293:4479  function approve(address spender, uint256 value) public virtual returns (bool) {... */\n    tag_4:\n      tag_33\n      0x04\n      dup1\n      calldatasize\n      sub\n      dup2\n      add\n      swap1\n      tag_34\n      swap2\n      swap1\n      tag_35\n      jump\t// in\n    tag_34:\n      tag_36\n      jump\t// in\n    tag_33:\n      mload(0x40)\n      tag_37\n      swap2\n      swap1\n      tag_38\n      jump\t// in\n    tag_37:\n      mload(0x40)\n      dup1\n      swap2\n      sub\n      swap1\n      return\n        /* \"@openzeppelin/contracts/token/ERC20/ERC20.sol\":3144:3241  function totalSupply() public view virtual returns (uint256) {... */\n    tag_5:\n      tag_39\n      tag_40\n      jump\t// in\n    tag_39:\n      mload(0x40)\n      tag_41\n      swap2\n      swap1\n      tag_42\n      jump\t// in\n    tag_41:\n      mload(0x40)\n      dup1\n      swap2\n      sub\n      swap1\n      return\n        /* \"@openzeppelin/contracts/token/ERC20/ERC20.sol\":5039:5283  function transferFrom(address from, address to, uint256 value) public virtual returns (bool) {... */\n    tag_6:\n      tag_43\n      0x04\n      dup1\n      calldatasize\n      sub\n      dup2\n      add\n      swap1\n      tag_44\n      swap2\n      swap1\n      tag_45\n      jump\t// in\n    tag_44:\n      tag_46\n      jump\t// in\n    tag_43:\n      mload(0x40)\n      tag_47\n      swap2\n      swap1\n      tag_38\n      jump\t// in\n    tag_47:\n      mload(0x40)\n      dup1\n      swap2\n      sub\n      swap1\n      return\n        /* \"@openzeppelin/contracts/token/ERC20/ERC20.sol\":3002:3084  function decimals() public view virtual returns (uint8) {... */\n    tag_7:\n      tag_48\n      tag_49\n      jump\t// in\n    tag_48:\n      mload(0x40)\n      tag_50\n      swap2\n      swap1\n      tag_51\n      jump\t// in\n    tag_50:\n      mload(0x40)\n      dup1\n      swap2\n      sub\n      swap1\n      return\n        /* \"Date.sol\":628:679  mapping(address => UserProfile) public userProfiles */\n    tag_8:\n      tag_52\n      0x04\n      dup1\n      calldatasize\n      sub\n      dup2\n      add\n      swap1\n      tag_53\n      swap2\n      swap1\n      tag_54\n      jump\t// in\n    tag_53:\n      tag_55\n      jump\t// in\n    tag_52:\n      mload(0x40)\n      tag_56\n      swap6\n      swap5\n      swap4\n      swap3\n      swap2\n      swap1\n      tag_57\n      jump\t// in\n    tag_56:\n      mload(0x40)\n      dup1\n      swap2\n      sub\n      swap1\n      return\n        /* \"Date.sol\":686:708  Match[] public matches */\n    tag_9:\n      tag_58\n      0x04\n      dup1\n      calldatasize\n      sub\n      dup2\n      add\n      swap1\n      tag_59\n      swap2\n      swap1\n      tag_60\n      jump\t// in\n    tag_59:\n      tag_61\n      jump\t// in\n    tag_58:\n      mload(0x40)\n      tag_62\n      swap3\n      swap2\n      swap1\n      tag_63\n      jump\t// in\n    tag_62:\n      mload(0x40)\n      dup1\n      swap2\n      sub\n      swap1\n      return\n        /* \"Date.sol\":715:760  mapping(bytes32 => Message[]) public messages */\n    tag_10:\n      tag_64\n      0x04\n      dup1\n      calldatasize\n      sub\n      dup2\n      add\n      swap1\n      tag_65\n      swap2\n      swap1\n      tag_66\n      jump\t// in\n    tag_65:\n      tag_67\n      jump\t// in\n    tag_64:\n      mload(0x40)\n      tag_68\n      swap3\n      swap2\n      swap1\n      tag_69\n      jump\t// in\n    tag_68:\n      mload(0x40)\n      dup1\n      swap2\n      sub\n      swap1\n      return\n        /* \"@openzeppelin/contracts/token/ERC20/ERC20.sol\":3299:3415  function balanceOf(address account) public view virtual returns (uint256) {... */\n    tag_11:\n      tag_70\n      0x04\n      dup1\n      calldatasize\n      sub\n      dup2\n      add\n      swap1\n      tag_71\n      swap2\n      swap1\n      tag_54\n      jump\t// in\n    tag_71:\n      tag_72\n      jump\t// in\n    tag_70:\n      mload(0x40)\n      tag_73\n      swap2\n      swap1\n      tag_42\n      jump\t// in\n    tag_73:\n      mload(0x40)\n      dup1\n      swap2\n      sub\n      swap1\n      return\n        /* \"Date.sol\":4845:5255  function rewardInteraction(address target) external {... */\n    tag_12:\n      tag_74\n      0x04\n      dup1\n      calldatasize\n      sub\n      dup2\n      add\n      swap1\n      tag_75\n      swap2\n      swap1\n      tag_54\n      jump\t// in\n    tag_75:\n      tag_76\n      jump\t// in\n    tag_74:\n      stop\n        /* \"Date.sol\":2976:3634  function acceptRequest(address sender, bool accepted) external {... */\n    tag_13:\n      tag_77\n      0x04\n      dup1\n      calldatasize\n      sub\n      dup2\n      add\n      swap1\n      tag_78\n      swap2\n      swap1\n      tag_79\n      jump\t// in\n    tag_78:\n      tag_80\n      jump\t// in\n    tag_77:\n      stop\n        /* \"Date.sol\":3642:4035  function getPendingRequests() external view returns (address[] memory) {... */\n    tag_14:\n      tag_81\n      tag_82\n      jump\t// in\n    tag_81:\n      mload(0x40)\n      tag_83\n      swap2\n      swap1\n      tag_84\n      jump\t// in\n    tag_83:\n      mload(0x40)\n      dup1\n      swap2\n      sub\n      swap1\n      return\n        /* \"Date.sol\":2335:2968  function sendRequest(address target) external {... */\n    tag_15:\n      tag_85\n      0x04\n      dup1\n      calldatasize\n      sub\n      dup2\n      add\n      swap1\n      tag_86\n      swap2\n      swap1\n      tag_54\n      jump\t// in\n    tag_86:\n      tag_87\n      jump\t// in\n    tag_85:\n      stop\n        /* \"@openzeppelin/contracts/token/ERC20/ERC20.sol\":2276:2369  function symbol() public view virtual returns (string memory) {... */\n    tag_16:\n      tag_88\n      tag_89\n      jump\t// in\n    tag_88:\n      mload(0x40)\n      tag_90\n      swap2\n      swap1\n      tag_32\n      jump\t// in\n    tag_90:\n      mload(0x40)\n      dup1\n      swap2\n      sub\n      swap1\n      return\n        /* \"Date.sol\":1294:1680  function updateProfile(string memory name, uint256 age, string memory gender) external {... */\n    tag_17:\n      tag_91\n      0x04\n      dup1\n      calldatasize\n      sub\n      dup2\n      add\n      swap1\n      tag_92\n      swap2\n      swap1\n      tag_93\n      jump\t// in\n    tag_92:\n      tag_94\n      jump\t// in\n    tag_91:\n      stop\n        /* \"@openzeppelin/contracts/token/ERC20/ERC20.sol\":3610:3788  function transfer(address to, uint256 value) public virtual returns (bool) {... */\n    tag_18:\n      tag_95\n      0x04\n      dup1\n      calldatasize\n      sub\n      dup2\n      add\n      swap1\n      tag_96\n      swap2\n      swap1\n      tag_35\n      jump\t// in\n    tag_96:\n      tag_97\n      jump\t// in\n    tag_95:\n      mload(0x40)\n      tag_98\n      swap2\n      swap1\n      tag_38\n      jump\t// in\n    tag_98:\n      mload(0x40)\n      dup1\n      swap2\n      sub\n      swap1\n      return\n        /* \"Date.sol\":891:1286  function createProfile(string memory name, uint256 age, string memory gender) external {... */\n    tag_19:\n      tag_99\n      0x04\n      dup1\n      calldatasize\n      sub\n      dup2\n      add\n      swap1\n      tag_100\n      swap2\n      swap1\n      tag_93\n      jump\t// in\n    tag_100:\n      tag_101\n      jump\t// in\n    tag_99:\n      stop\n        /* \"Date.sol\":6213:6428  function getUsername(address userAddress) external view returns (string memory) {... */\n    tag_20:\n      tag_102\n      0x04\n      dup1\n      calldatasize\n      sub\n      dup2\n      add\n      swap1\n      tag_103\n      swap2\n      swap1\n      tag_54\n      jump\t// in\n    tag_103:\n      tag_104\n      jump\t// in\n    tag_102:\n      mload(0x40)\n      tag_105\n      swap2\n      swap1\n      tag_32\n      jump\t// in\n    tag_105:\n      mload(0x40)\n      dup1\n      swap2\n      sub\n      swap1\n      return\n        /* \"@openzeppelin/contracts/token/ERC20/ERC20.sol\":3846:3986  function allowance(address owner, address spender) public view virtual returns (uint256) {... */\n    tag_21:\n      tag_106\n      0x04\n      dup1\n      calldatasize\n      sub\n      dup2\n      add\n      swap1\n      tag_107\n      swap2\n      swap1\n      tag_108\n      jump\t// in\n    tag_107:\n      tag_109\n      jump\t// in\n    tag_106:\n      mload(0x40)\n      tag_110\n      swap2\n      swap1\n      tag_42\n      jump\t// in\n    tag_110:\n      mload(0x40)\n      dup1\n      swap2\n      sub\n      swap1\n      return\n        /* \"Date.sol\":4198:4837  function sendMessage(address target, string memory message) external {... */\n    tag_22:\n      tag_111\n      0x04\n      dup1\n      calldatasize\n      sub\n      dup2\n      add\n      swap1\n      tag_112\n      swap2\n      swap1\n      tag_113\n      jump\t// in\n    tag_112:\n      tag_114\n      jump\t// in\n    tag_111:\n      stop\n        /* \"Date.sol\":1688:2327  function likeUser(address target) external {... */\n    tag_23:\n      tag_115\n      0x04\n      dup1\n      calldatasize\n      sub\n      dup2\n      add\n      swap1\n      tag_116\n      swap2\n      swap1\n      tag_54\n      jump\t// in\n    tag_116:\n      tag_117\n      jump\t// in\n    tag_115:\n      stop\n        /* \"Date.sol\":4043:4190  function getRequestStatus(address sender) external view returns (bool) {... */\n    tag_24:\n      tag_118\n      0x04\n      dup1\n      calldatasize\n      sub\n      dup2\n      add\n      swap1\n      tag_119\n      swap2\n      swap1\n      tag_54\n      jump\t// in\n    tag_119:\n      tag_120\n      jump\t// in\n    tag_118:\n      mload(0x40)\n      tag_121\n      swap2\n      swap1\n      tag_38\n      jump\t// in\n    tag_121:\n      mload(0x40)\n      dup1\n      swap2\n      sub\n      swap1\n      return\n        /* \"Date.sol\":769:788  IERC20 public token */\n    tag_25:\n      tag_122\n      tag_123\n      jump\t// in\n    tag_122:\n      mload(0x40)\n      tag_124\n      swap2\n      swap1\n      tag_125\n      jump\t// in\n    tag_124:\n      mload(0x40)\n      dup1\n      swap2\n      sub\n      swap1\n      return\n        /* \"@openzeppelin/contracts/token/ERC20/ERC20.sol\":2074:2163  function name() public view virtual returns (string memory) {... */\n    tag_30:\n        /* \"@openzeppelin/contracts/token/ERC20/ERC20.sol\":2119:2132  string memory */\n      0x60\n        /* \"@openzeppelin/contracts/token/ERC20/ERC20.sol\":2151:2156  _name */\n      0x03\n        /* \"@openzeppelin/contracts/token/ERC20/ERC20.sol\":2144:2156  return _name */\n      dup1\n      sload\n      tag_127\n      swap1\n      tag_128\n      jump\t// in\n    tag_127:\n      dup1\n      0x1f\n      add\n      0x20\n      dup1\n      swap2\n      div\n      mul\n      0x20\n      add\n      mload(0x40)\n      swap1\n      dup2\n      add\n      0x40\n      mstore\n      dup1\n      swap3\n      swap2\n      swap1\n      dup2\n      dup2\n      mstore\n      0x20\n      add\n      dup3\n      dup1\n      sload\n      tag_129\n      swap1\n      tag_128\n      jump\t// in\n    tag_129:\n      dup1\n      iszero\n      tag_130\n      jumpi\n      dup1\n      0x1f\n      lt\n      tag_131\n      jumpi\n      0x0100\n      dup1\n      dup4\n      sload\n      div\n      mul\n      dup4\n      mstore\n      swap2\n      0x20\n      add\n      swap2\n      jump(tag_130)\n    tag_131:\n      dup3\n      add\n      swap2\n      swap1\n      0x00\n      mstore\n      keccak256(0x00, 0x20)\n      swap1\n    tag_132:\n      dup2\n      sload\n      dup2\n      mstore\n      swap1\n      0x01\n      add\n      swap1\n      0x20\n      add\n      dup1\n      dup4\n      gt\n      tag_132\n      jumpi\n      dup3\n      swap1\n      sub\n      0x1f\n      and\n      dup3\n      add\n      swap2\n    tag_130:\n      pop\n      pop\n      pop\n      pop\n      pop\n      swap1\n      pop\n        /* \"@openzeppelin/contracts/token/ERC20/ERC20.sol\":2074:2163  function name() public view virtual returns (string memory) {... */\n      swap1\n      jump\t// out\n        /* \"@openzeppelin/contracts/token/ERC20/ERC20.sol\":4293:4479  function approve(address spender, uint256 value) public virtual returns (bool) {... */\n    tag_36:\n        /* \"@openzeppelin/contracts/token/ERC20/ERC20.sol\":4366:4370  bool */\n      0x00\n        /* \"@openzeppelin/contracts/token/ERC20/ERC20.sol\":4382:4395  address owner */\n      dup1\n        /* \"@openzeppelin/contracts/token/ERC20/ERC20.sol\":4398:4410  _msgSender() */\n      tag_134\n        /* \"@openzeppelin/contracts/token/ERC20/ERC20.sol\":4398:4408  _msgSender */\n      tag_135\n        /* \"@openzeppelin/contracts/token/ERC20/ERC20.sol\":4398:4410  _msgSender() */\n      jump\t// in\n    tag_134:\n        /* \"@openzeppelin/contracts/token/ERC20/ERC20.sol\":4382:4410  address owner = _msgSender() */\n      swap1\n      pop\n        /* \"@openzeppelin/contracts/token/ERC20/ERC20.sol\":4420:4451  _approve(owner, spender, value) */\n      tag_136\n        /* \"@openzeppelin/contracts/token/ERC20/ERC20.sol\":4429:4434  owner */\n      dup2\n        /* \"@openzeppelin/contracts/token/ERC20/ERC20.sol\":4436:4443  spender */\n      dup6\n        /* \"@openzeppelin/contracts/token/ERC20/ERC20.sol\":4445:4450  value */\n      dup6\n        /* \"@openzeppelin/contracts/token/ERC20/ERC20.sol\":4420:4428  _approve */\n      tag_137\n        /* \"@openzeppelin/contracts/token/ERC20/ERC20.sol\":4420:4451  _approve(owner, spender, value) */\n      jump\t// in\n    tag_136:\n        /* \"@openzeppelin/contracts/token/ERC20/ERC20.sol\":4468:4472  true */\n      0x01\n        /* \"@openzeppelin/contracts/token/ERC20/ERC20.sol\":4461:4472  return true */\n      swap2\n      pop\n      pop\n        /* \"@openzeppelin/contracts/token/ERC20/ERC20.sol\":4293:4479  function approve(address spender, uint256 value) public virtual returns (bool) {... */\n      swap3\n      swap2\n      pop\n      pop\n      jump\t// out\n        /* \"@openzeppelin/contracts/token/ERC20/ERC20.sol\":3144:3241  function totalSupply() public view virtual returns (uint256) {... */\n    tag_40:\n        /* \"@openzeppelin/contracts/token/ERC20/ERC20.sol\":3196:3203  uint256 */\n      0x00\n        /* \"@openzeppelin/contracts/token/ERC20/ERC20.sol\":3222:3234  _totalSupply */\n      sload(0x02)\n        /* \"@openzeppelin/contracts/token/ERC20/ERC20.sol\":3215:3234  return _totalSupply */\n      swap1\n      pop\n        /* \"@openzeppelin/contracts/token/ERC20/ERC20.sol\":3144:3241  function totalSupply() public view virtual returns (uint256) {... */\n      swap1\n      jump\t// out\n        /* \"@openzeppelin/contracts/token/ERC20/ERC20.sol\":5039:5283  function transferFrom(address from, address to, uint256 value) public virtual returns (bool) {... */\n    tag_46:\n        /* \"@openzeppelin/contracts/token/ERC20/ERC20.sol\":5126:5130  bool */\n      0x00\n        /* \"@openzeppelin/contracts/token/ERC20/ERC20.sol\":5142:5157  address spender */\n      dup1\n        /* \"@openzeppelin/contracts/token/ERC20/ERC20.sol\":5160:5172  _msgSender() */\n      tag_140\n        /* \"@openzeppelin/contracts/token/ERC20/ERC20.sol\":5160:5170  _msgSender */\n      tag_135\n        /* \"@openzeppelin/contracts/token/ERC20/ERC20.sol\":5160:5172  _msgSender() */\n      jump\t// in\n    tag_140:\n        /* \"@openzeppelin/contracts/token/ERC20/ERC20.sol\":5142:5172  address spender = _msgSender() */\n      swap1\n      pop\n        /* \"@openzeppelin/contracts/token/ERC20/ERC20.sol\":5182:5219  _spendAllowance(from, spender, value) */\n      tag_141\n        /* \"@openzeppelin/contracts/token/ERC20/ERC20.sol\":5198:5202  from */\n      dup6\n        /* \"@openzeppelin/contracts/token/ERC20/ERC20.sol\":5204:5211  spender */\n      dup3\n        /* \"@openzeppelin/contracts/token/ERC20/ERC20.sol\":5213:5218  value */\n      dup6\n        /* \"@openzeppelin/contracts/token/ERC20/ERC20.sol\":5182:5197  _spendAllowance */\n      tag_142\n        /* \"@openzeppelin/contracts/token/ERC20/ERC20.sol\":5182:5219  _spendAllowance(from, spender, value) */\n      jump\t// in\n    tag_141:\n        /* \"@openzeppelin/contracts/token/ERC20/ERC20.sol\":5229:5255  _transfer(from, to, value) */\n      tag_143\n        /* \"@openzeppelin/contracts/token/ERC20/ERC20.sol\":5239:5243  from */\n      dup6\n        /* \"@openzeppelin/contracts/token/ERC20/ERC20.sol\":5245:5247  to */\n      dup6\n        /* \"@openzeppelin/contracts/token/ERC20/ERC20.sol\":5249:5254  value */\n      dup6\n        /* \"@openzeppelin/contracts/token/ERC20/ERC20.sol\":5229:5238  _transfer */\n      tag_144\n        /* \"@openzeppelin/contracts/token/ERC20/ERC20.sol\":5229:5255  _transfer(from, to, value) */\n      jump\t// in\n    tag_143:\n        /* \"@openzeppelin/contracts/token/ERC20/ERC20.sol\":5272:5276  true */\n      0x01\n        /* \"@openzeppelin/contracts/token/ERC20/ERC20.sol\":5265:5276  return true */\n      swap2\n      pop\n      pop\n        /* \"@openzeppelin/contracts/token/ERC20/ERC20.sol\":5039:5283  function transferFrom(address from, address to, uint256 value) public virtual returns (bool) {... */\n      swap4\n      swap3\n      pop\n      pop\n      pop\n      jump\t// out\n        /* \"@openzeppelin/contracts/token/ERC20/ERC20.sol\":3002:3084  function decimals() public view virtual returns (uint8) {... */\n    tag_49:\n        /* \"@openzeppelin/contracts/token/ERC20/ERC20.sol\":3051:3056  uint8 */\n      0x00\n        /* \"@openzeppelin/contracts/token/ERC20/ERC20.sol\":3075:3077  18 */\n      0x12\n        /* \"@openzeppelin/contracts/token/ERC20/ERC20.sol\":3068:3077  return 18 */\n      swap1\n      pop\n        /* \"@openzeppelin/contracts/token/ERC20/ERC20.sol\":3002:3084  function decimals() public view virtual returns (uint8) {... */\n      swap1\n      jump\t// out\n        /* \"Date.sol\":628:679  mapping(address => UserProfile) public userProfiles */\n    tag_55:\n      mstore(0x20, 0x05)\n      dup1\n      0x00\n      mstore\n      keccak256(0x00, 0x40)\n      0x00\n      swap2\n      pop\n      swap1\n      pop\n      dup1\n      0x00\n      add\n      dup1\n      sload\n      tag_146\n      swap1\n      tag_128\n      jump\t// in\n    tag_146:\n      dup1\n      0x1f\n      add\n      0x20\n      dup1\n      swap2\n      div\n      mul\n      0x20\n      add\n      mload(0x40)\n      swap1\n      dup2\n      add\n      0x40\n      mstore\n      dup1\n      swap3\n      swap2\n      swap1\n      dup2\n      dup2\n      mstore\n      0x20\n      add\n      dup3\n      dup1\n      sload\n      tag_147\n      swap1\n      tag_128\n      jump\t// in\n    tag_147:\n      dup1\n      iszero\n      tag_148\n      jumpi\n      dup1\n      0x1f\n      lt\n      tag_149\n      jumpi\n      0x0100\n      dup1\n      dup4\n      sload\n      div\n      mul\n      dup4\n      mstore\n      swap2\n      0x20\n      add\n      swap2\n      jump(tag_148)\n    tag_149:\n      dup3\n      add\n      swap2\n      swap1\n      0x00\n      mstore\n      keccak256(0x00, 0x20)\n      swap1\n    tag_150:\n      dup2\n      sload\n      dup2\n      mstore\n      swap1\n      0x01\n      add\n      swap1\n      0x20\n      add\n      dup1\n      dup4\n      gt\n      tag_150\n      jumpi\n      dup3\n      swap1\n      sub\n      0x1f\n      and\n      dup3\n      add\n      swap2\n    tag_148:\n      pop\n      pop\n      pop\n      pop\n      pop\n      swap1\n      dup1\n      0x01\n      add\n      sload\n      swap1\n      dup1\n      0x02\n      add\n      dup1\n      sload\n      tag_151\n      swap1\n      tag_128\n      jump\t// in\n    tag_151:\n      dup1\n      0x1f\n      add\n      0x20\n      dup1\n      swap2\n      div\n      mul\n      0x20\n      add\n      mload(0x40)\n      swap1\n      dup2\n      add\n      0x40\n      mstore\n      dup1\n      swap3\n      swap2\n      swap1\n      dup2\n      dup2\n      mstore\n      0x20\n      add\n      dup3\n      dup1\n      sload\n      tag_152\n      swap1\n      tag_128\n      jump\t// in\n    tag_152:\n      dup1\n      iszero\n      tag_153\n      jumpi\n      dup1\n      0x1f\n      lt\n      tag_154\n      jumpi\n      0x0100\n      dup1\n      dup4\n      sload\n      div\n      mul\n      dup4\n      mstore\n      swap2\n      0x20\n      add\n      swap2\n      jump(tag_153)\n    tag_154:\n      dup3\n      add\n      swap2\n      swap1\n      0x00\n      mstore\n      keccak256(0x00, 0x20)\n      swap1\n    tag_155:\n      dup2\n      sload\n      dup2\n      mstore\n      swap1\n      0x01\n      add\n      swap1\n      0x20\n      add\n      dup1\n      dup4\n      gt\n      tag_155\n      jumpi\n      dup3\n      swap1\n      sub\n      0x1f\n      and\n      dup3\n      add\n      swap2\n    tag_153:\n      pop\n      pop\n      pop\n      pop\n      pop\n      swap1\n      dup1\n      0x03\n      add\n      sload\n      swap1\n      dup1\n      0x04\n      add\n      sload\n      swap1\n      pop\n      dup6\n      jump\t// out\n        /* \"Date.sol\":686:708  Match[] public matches */\n    tag_61:\n      0x06\n      dup2\n      dup2\n      sload\n      dup2\n      lt\n      tag_156\n      jumpi\n      0x00\n      dup1\n      revert\n    tag_156:\n      swap1\n      0x00\n      mstore\n      keccak256(0x00, 0x20)\n      swap1\n      0x02\n      mul\n      add\n      0x00\n      swap2\n      pop\n      swap1\n      pop\n      dup1\n      0x00\n      add\n      0x00\n      swap1\n      sload\n      swap1\n      0x0100\n      exp\n      swap1\n      div\n      0xffffffffffffffffffffffffffffffffffffffff\n      and\n      swap1\n      dup1\n      0x01\n      add\n      0x00\n      swap1\n      sload\n      swap1\n      0x0100\n      exp\n      swap1\n      div\n      0xffffffffffffffffffffffffffffffffffffffff\n      and\n      swap1\n      pop\n      dup3\n      jump\t// out\n        /* \"Date.sol\":715:760  mapping(bytes32 => Message[]) public messages */\n    tag_67:\n      mstore(0x20, 0x07)\n      dup2\n      0x00\n      mstore\n      keccak256(0x00, 0x40)\n      dup2\n      dup2\n      sload\n      dup2\n      lt\n      tag_158\n      jumpi\n      0x00\n      dup1\n      revert\n    tag_158:\n      swap1\n      0x00\n      mstore\n      keccak256(0x00, 0x20)\n      swap1\n      0x02\n      mul\n      add\n      0x00\n      swap2\n      pop\n      swap2\n      pop\n      pop\n      dup1\n      0x00\n      add\n      0x00\n      swap1\n      sload\n      swap1\n      0x0100\n      exp\n      swap1\n      div\n      0xffffffffffffffffffffffffffffffffffffffff\n      and\n      swap1\n      dup1\n      0x01\n      add\n      dup1\n      sload\n      tag_160\n      swap1\n      tag_128\n      jump\t// in\n    tag_160:\n      dup1\n      0x1f\n      add\n      0x20\n      dup1\n      swap2\n      div\n      mul\n      0x20\n      add\n      mload(0x40)\n      swap1\n      dup2\n      add\n      0x40\n      mstore\n      dup1\n      swap3\n      swap2\n      swap1\n      dup2\n      dup2\n      mstore\n      0x20\n      add\n      dup3\n      dup1\n      sload\n      tag_161\n      swap1\n      tag_128\n      jump\t// in\n    tag_161:\n      dup1\n      iszero\n      tag_162\n      jumpi\n      dup1\n      0x1f\n      lt\n      tag_163\n      jumpi\n      0x0100\n      dup1\n      dup4\n      sload\n      div\n      mul\n      dup4\n      mstore\n      swap2\n      0x20\n      add\n      swap2\n      jump(tag_162)\n    tag_163:\n      dup3\n      add\n      swap2\n      swap1\n      0x00\n      mstore\n      keccak256(0x00, 0x20)\n      swap1\n    tag_164:\n      dup2\n      sload\n      dup2\n      mstore\n      swap1\n      0x01\n      add\n      swap1\n      0x20\n      add\n      dup1\n      dup4\n      gt\n      tag_164\n      jumpi\n      dup3\n      swap1\n      sub\n      0x1f\n      and\n      dup3\n      add\n      swap2\n    tag_162:\n      pop\n      pop\n      pop\n      pop\n      pop\n      swap1\n      pop\n      dup3\n      jump\t// out\n        /* \"@openzeppelin/contracts/token/ERC20/ERC20.sol\":3299:3415  function balanceOf(address account) public view virtual returns (uint256) {... */\n    tag_72:\n        /* \"@openzeppelin/contracts/token/ERC20/ERC20.sol\":3364:3371  uint256 */\n      0x00\n        /* \"@openzeppelin/contracts/token/ERC20/ERC20.sol\":3390:3399  _balances */\n      dup1\n        /* \"@openzeppelin/contracts/token/ERC20/ERC20.sol\":3390:3408  _balances[account] */\n      0x00\n        /* \"@openzeppelin/contracts/token/ERC20/ERC20.sol\":3400:3407  account */\n      dup4\n        /* \"@openzeppelin/contracts/token/ERC20/ERC20.sol\":3390:3408  _balances[account] */\n      0xffffffffffffffffffffffffffffffffffffffff\n      and\n      0xffffffffffffffffffffffffffffffffffffffff\n      and\n      dup2\n      mstore\n      0x20\n      add\n      swap1\n      dup2\n      mstore\n      0x20\n      add\n      0x00\n      keccak256\n      sload\n        /* \"@openzeppelin/contracts/token/ERC20/ERC20.sol\":3383:3408  return _balances[account] */\n      swap1\n      pop\n        /* \"@openzeppelin/contracts/token/ERC20/ERC20.sol\":3299:3415  function balanceOf(address account) public view virtual returns (uint256) {... */\n      swap2\n      swap1\n      pop\n      jump\t// out\n        /* \"Date.sol\":4845:5255  function rewardInteraction(address target) external {... */\n    tag_76:\n        /* \"Date.sol\":4930:4936  target */\n      dup1\n        /* \"Date.sol\":4916:4936  msg.sender != target */\n      0xffffffffffffffffffffffffffffffffffffffff\n      and\n        /* \"Date.sol\":4916:4926  msg.sender */\n      caller\n        /* \"Date.sol\":4916:4936  msg.sender != target */\n      0xffffffffffffffffffffffffffffffffffffffff\n      and\n      sub\n        /* \"Date.sol\":4908:4974  require(msg.sender != target, \"You cannot interact with yourself\") */\n      tag_167\n      jumpi\n      mload(0x40)\n      0x08c379a000000000000000000000000000000000000000000000000000000000\n      dup2\n      mstore\n      0x04\n      add\n      tag_168\n      swap1\n      tag_169\n      jump\t// in\n    tag_168:\n      mload(0x40)\n      dup1\n      swap2\n      sub\n      swap1\n      revert\n    tag_167:\n        /* \"Date.sol\":5024:5025  0 */\n      0x00\n        /* \"Date.sol\":4993:5005  userProfiles */\n      0x05\n        /* \"Date.sol\":4993:5017  userProfiles[msg.sender] */\n      0x00\n        /* \"Date.sol\":5006:5016  msg.sender */\n      caller\n        /* \"Date.sol\":4993:5017  userProfiles[msg.sender] */\n      0xffffffffffffffffffffffffffffffffffffffff\n      and\n      0xffffffffffffffffffffffffffffffffffffffff\n      and\n      dup2\n      mstore\n      0x20\n      add\n      swap1\n      dup2\n      mstore\n      0x20\n      add\n      0x00\n      keccak256\n        /* \"Date.sol\":4993:5021  userProfiles[msg.sender].age */\n      0x01\n      add\n      sload\n        /* \"Date.sol\":4993:5025  userProfiles[msg.sender].age > 0 */\n      gt\n        /* \"Date.sol\":4985:5073  require(userProfiles[msg.sender].age > 0, \"User must have a profile with interactions.\") */\n      tag_170\n      jumpi\n      mload(0x40)\n      0x08c379a000000000000000000000000000000000000000000000000000000000\n      dup2\n      mstore\n      0x04\n      add\n      tag_171\n      swap1\n      tag_172\n      jump\t// in\n    tag_171:\n      mload(0x40)\n      dup1\n      swap2\n      sub\n      swap1\n      revert\n    tag_170:\n        /* \"Date.sol\":5086:5106  uint256 rewardAmount */\n      0x00\n        /* \"Date.sol\":5109:5138  calculateRewardAmount(target) */\n      tag_173\n        /* \"Date.sol\":5131:5137  target */\n      dup3\n        /* \"Date.sol\":5109:5130  calculateRewardAmount */\n      tag_174\n        /* \"Date.sol\":5109:5138  calculateRewardAmount(target) */\n      jump\t// in\n    tag_173:\n        /* \"Date.sol\":5086:5138  uint256 rewardAmount = calculateRewardAmount(target) */\n      swap1\n      pop\n        /* \"Date.sol\":5151:5181  transfer(target, rewardAmount) */\n      tag_175\n        /* \"Date.sol\":5160:5166  target */\n      dup3\n        /* \"Date.sol\":5168:5180  rewardAmount */\n      dup3\n        /* \"Date.sol\":5151:5159  transfer */\n      tag_97\n        /* \"Date.sol\":5151:5181  transfer(target, rewardAmount) */\n      jump\t// in\n    tag_175:\n      pop\n        /* \"Date.sol\":5192:5204  userProfiles */\n      0x05\n        /* \"Date.sol\":5192:5216  userProfiles[msg.sender] */\n      0x00\n        /* \"Date.sol\":5205:5215  msg.sender */\n      caller\n        /* \"Date.sol\":5192:5216  userProfiles[msg.sender] */\n      0xffffffffffffffffffffffffffffffffffffffff\n      and\n      0xffffffffffffffffffffffffffffffffffffffff\n      and\n      dup2\n      mstore\n      0x20\n      add\n      swap1\n      dup2\n      mstore\n      0x20\n      add\n      0x00\n      keccak256\n        /* \"Date.sol\":5192:5233  userProfiles[msg.sender].interactionCount */\n      0x04\n      add\n      0x00\n        /* \"Date.sol\":5192:5235  userProfiles[msg.sender].interactionCount++ */\n      dup2\n      sload\n      dup1\n      swap3\n      swap2\n      swap1\n      tag_176\n      swap1\n      tag_177\n      jump\t// in\n    tag_176:\n      swap2\n      swap1\n      pop\n      sstore\n      pop\n        /* \"Date.sol\":4897:5255  {... */\n      pop\n        /* \"Date.sol\":4845:5255  function rewardInteraction(address target) external {... */\n      pop\n      jump\t// out\n        /* \"Date.sol\":2976:3634  function acceptRequest(address sender, bool accepted) external {... */\n    tag_80:\n        /* \"Date.sol\":3089:3090  0 */\n      0x00\n        /* \"Date.sol\":3058:3070  userProfiles */\n      0x05\n        /* \"Date.sol\":3058:3082  userProfiles[msg.sender] */\n      0x00\n        /* \"Date.sol\":3071:3081  msg.sender */\n      caller\n        /* \"Date.sol\":3058:3082  userProfiles[msg.sender] */\n      0xffffffffffffffffffffffffffffffffffffffff\n      and\n      0xffffffffffffffffffffffffffffffffffffffff\n      and\n      dup2\n      mstore\n      0x20\n      add\n      swap1\n      dup2\n      mstore\n      0x20\n      add\n      0x00\n      keccak256\n        /* \"Date.sol\":3058:3086  userProfiles[msg.sender].age */\n      0x01\n      add\n      sload\n        /* \"Date.sol\":3058:3090  userProfiles[msg.sender].age > 0 */\n      gt\n        /* \"Date.sol\":3050:3118  require(userProfiles[msg.sender].age > 0, \"User profile must exist\") */\n      tag_179\n      jumpi\n      mload(0x40)\n      0x08c379a000000000000000000000000000000000000000000000000000000000\n      dup2\n      mstore\n      0x04\n      add\n      tag_180\n      swap1\n      tag_181\n      jump\t// in\n    tag_180:\n      mload(0x40)\n      dup1\n      swap2\n      sub\n      swap1\n      revert\n    tag_179:\n        /* \"Date.sol\":3137:3149  userProfiles */\n      0x05\n        /* \"Date.sol\":3137:3161  userProfiles[msg.sender] */\n      0x00\n        /* \"Date.sol\":3150:3160  msg.sender */\n      caller\n        /* \"Date.sol\":3137:3161  userProfiles[msg.sender] */\n      0xffffffffffffffffffffffffffffffffffffffff\n      and\n      0xffffffffffffffffffffffffffffffffffffffff\n      and\n      dup2\n      mstore\n      0x20\n      add\n      swap1\n      dup2\n      mstore\n      0x20\n      add\n      0x00\n      keccak256\n        /* \"Date.sol\":3137:3177  userProfiles[msg.sender].pendingRequests */\n      0x06\n      add\n        /* \"Date.sol\":3137:3185  userProfiles[msg.sender].pendingRequests[sender] */\n      0x00\n        /* \"Date.sol\":3178:3184  sender */\n      dup4\n        /* \"Date.sol\":3137:3185  userProfiles[msg.sender].pendingRequests[sender] */\n      0xffffffffffffffffffffffffffffffffffffffff\n      and\n      0xffffffffffffffffffffffffffffffffffffffff\n      and\n      dup2\n      mstore\n      0x20\n      add\n      swap1\n      dup2\n      mstore\n      0x20\n      add\n      0x00\n      keccak256\n      0x00\n      swap1\n      sload\n      swap1\n      0x0100\n      exp\n      swap1\n      div\n      0xff\n      and\n        /* \"Date.sol\":3129:3207  require(userProfiles[msg.sender].pendingRequests[sender], \"Request not found\") */\n      tag_182\n      jumpi\n      mload(0x40)\n      0x08c379a000000000000000000000000000000000000000000000000000000000\n      dup2\n      mstore\n      0x04\n      add\n      tag_183\n      swap1\n      tag_184\n      jump\t// in\n    tag_183:\n      mload(0x40)\n      dup1\n      swap2\n      sub\n      swap1\n      revert\n    tag_182:\n        /* \"Date.sol\":3271:3276  false */\n      0x00\n        /* \"Date.sol\":3220:3232  userProfiles */\n      0x05\n        /* \"Date.sol\":3220:3244  userProfiles[msg.sender] */\n      0x00\n        /* \"Date.sol\":3233:3243  msg.sender */\n      caller\n        /* \"Date.sol\":3220:3244  userProfiles[msg.sender] */\n      0xffffffffffffffffffffffffffffffffffffffff\n      and\n      0xffffffffffffffffffffffffffffffffffffffff\n      and\n      dup2\n      mstore\n      0x20\n      add\n      swap1\n      dup2\n      mstore\n      0x20\n      add\n      0x00\n      keccak256\n        /* \"Date.sol\":3220:3260  userProfiles[msg.sender].pendingRequests */\n      0x06\n      add\n        /* \"Date.sol\":3220:3268  userProfiles[msg.sender].pendingRequests[sender] */\n      0x00\n        /* \"Date.sol\":3261:3267  sender */\n      dup5\n        /* \"Date.sol\":3220:3268  userProfiles[msg.sender].pendingRequests[sender] */\n      0xffffffffffffffffffffffffffffffffffffffff\n      and\n      0xffffffffffffffffffffffffffffffffffffffff\n      and\n      dup2\n      mstore\n      0x20\n      add\n      swap1\n      dup2\n      mstore\n      0x20\n      add\n      0x00\n      keccak256\n      0x00\n        /* \"Date.sol\":3220:3276  userProfiles[msg.sender].pendingRequests[sender] = false */\n      0x0100\n      exp\n      dup2\n      sload\n      dup2\n      0xff\n      mul\n      not\n      and\n      swap1\n      dup4\n      iszero\n      iszero\n      mul\n      or\n      swap1\n      sstore\n      pop\n        /* \"Date.sol\":3293:3301  accepted */\n      dup1\n        /* \"Date.sol\":3289:3627  if (accepted) {... */\n      iszero\n      tag_185\n      jumpi\n        /* \"Date.sol\":3318:3330  userProfiles */\n      0x05\n        /* \"Date.sol\":3318:3342  userProfiles[msg.sender] */\n      0x00\n        /* \"Date.sol\":3331:3341  msg.sender */\n      caller\n        /* \"Date.sol\":3318:3342  userProfiles[msg.sender] */\n      0xffffffffffffffffffffffffffffffffffffffff\n      and\n      0xffffffffffffffffffffffffffffffffffffffff\n      and\n      dup2\n      mstore\n      0x20\n      add\n      swap1\n      dup2\n      mstore\n      0x20\n      add\n      0x00\n      keccak256\n        /* \"Date.sol\":3318:3359  userProfiles[msg.sender].acceptedRequests */\n      0x07\n      add\n        /* \"Date.sol\":3365:3371  sender */\n      dup3\n        /* \"Date.sol\":3318:3372  userProfiles[msg.sender].acceptedRequests.push(sender) */\n      swap1\n      dup1\n      0x01\n      dup2\n      sload\n      add\n      dup1\n      dup3\n      sstore\n      dup1\n      swap2\n      pop\n      pop\n      0x01\n      swap1\n      sub\n      swap1\n      0x00\n      mstore\n      keccak256(0x00, 0x20)\n      add\n      0x00\n      swap1\n      swap2\n      swap1\n      swap2\n      swap1\n      swap2\n      0x0100\n      exp\n      dup2\n      sload\n      dup2\n      0xffffffffffffffffffffffffffffffffffffffff\n      mul\n      not\n      and\n      swap1\n      dup4\n      0xffffffffffffffffffffffffffffffffffffffff\n      and\n      mul\n      or\n      swap1\n      sstore\n      pop\n        /* \"Date.sol\":3550:3580  hasMatched(sender, msg.sender) */\n      tag_187\n        /* \"Date.sol\":3561:3567  sender */\n      dup3\n        /* \"Date.sol\":3569:3579  msg.sender */\n      caller\n        /* \"Date.sol\":3550:3560  hasMatched */\n      tag_188\n        /* \"Date.sol\":3550:3580  hasMatched(sender, msg.sender) */\n      jump\t// in\n    tag_187:\n        /* \"Date.sol\":3546:3616  if (hasMatched(sender, msg.sender)) {... */\n      pop\n        /* \"Date.sol\":3289:3627  if (accepted) {... */\n    tag_185:\n        /* \"Date.sol\":2976:3634  function acceptRequest(address sender, bool accepted) external {... */\n      pop\n      pop\n      jump\t// out\n        /* \"Date.sol\":3642:4035  function getPendingRequests() external view returns (address[] memory) {... */\n    tag_82:\n        /* \"Date.sol\":3695:3711  address[] memory */\n      0x60\n        /* \"Date.sol\":3724:3755  UserProfile storage userProfile */\n      0x00\n        /* \"Date.sol\":3758:3770  userProfiles */\n      0x05\n        /* \"Date.sol\":3758:3782  userProfiles[msg.sender] */\n      0x00\n        /* \"Date.sol\":3771:3781  msg.sender */\n      caller\n        /* \"Date.sol\":3758:3782  userProfiles[msg.sender] */\n      0xffffffffffffffffffffffffffffffffffffffff\n      and\n      0xffffffffffffffffffffffffffffffffffffffff\n      and\n      dup2\n      mstore\n      0x20\n      add\n      swap1\n      dup2\n      mstore\n      0x20\n      add\n      0x00\n      keccak256\n        /* \"Date.sol\":3724:3782  UserProfile storage userProfile = userProfiles[msg.sender] */\n      swap1\n      pop\n        /* \"Date.sol\":3793:3816  address[] memory result */\n      0x00\n        /* \"Date.sol\":3833:3844  userProfile */\n      dup2\n        /* \"Date.sol\":3833:3857  userProfile.sentRequests */\n      0x05\n      add\n        /* \"Date.sol\":3833:3864  userProfile.sentRequests.length */\n      dup1\n      sload\n      swap1\n      pop\n        /* \"Date.sol\":3819:3865  new address[](userProfile.sentRequests.length) */\n      0xffffffffffffffff\n      dup2\n      gt\n      iszero\n      tag_191\n      jumpi\n      tag_192\n      tag_193\n      jump\t// in\n    tag_192:\n    tag_191:\n      mload(0x40)\n      swap1\n      dup1\n      dup3\n      mstore\n      dup1\n      0x20\n      mul\n      0x20\n      add\n      dup3\n      add\n      0x40\n      mstore\n      dup1\n      iszero\n      tag_194\n      jumpi\n      dup2\n      0x20\n      add\n      0x20\n      dup3\n      mul\n      dup1\n      calldatasize\n      dup4\n      calldatacopy\n      dup1\n      dup3\n      add\n      swap2\n      pop\n      pop\n      swap1\n      pop\n    tag_194:\n      pop\n        /* \"Date.sol\":3793:3865  address[] memory result = new address[](userProfile.sentRequests.length) */\n      swap1\n      pop\n        /* \"Date.sol\":3881:3890  uint256 i */\n      0x00\n        /* \"Date.sol\":3876:4004  for (uint256 i = 0; i < userProfile.sentRequests.length; i++) {... */\n    tag_195:\n        /* \"Date.sol\":3900:3911  userProfile */\n      dup3\n        /* \"Date.sol\":3900:3924  userProfile.sentRequests */\n      0x05\n      add\n        /* \"Date.sol\":3900:3931  userProfile.sentRequests.length */\n      dup1\n      sload\n      swap1\n      pop\n        /* \"Date.sol\":3896:3897  i */\n      dup2\n        /* \"Date.sol\":3896:3931  i < userProfile.sentRequests.length */\n      lt\n        /* \"Date.sol\":3876:4004  for (uint256 i = 0; i < userProfile.sentRequests.length; i++) {... */\n      iszero\n      tag_196\n      jumpi\n        /* \"Date.sol\":3965:3976  userProfile */\n      dup3\n        /* \"Date.sol\":3965:3989  userProfile.sentRequests */\n      0x05\n      add\n        /* \"Date.sol\":3990:3991  i */\n      dup2\n        /* \"Date.sol\":3965:3992  userProfile.sentRequests[i] */\n      dup2\n      sload\n      dup2\n      lt\n      tag_198\n      jumpi\n      tag_199\n      tag_200\n      jump\t// in\n    tag_199:\n    tag_198:\n      swap1\n      0x00\n      mstore\n      keccak256(0x00, 0x20)\n      add\n      0x00\n      swap1\n      sload\n      swap1\n      0x0100\n      exp\n      swap1\n      div\n      0xffffffffffffffffffffffffffffffffffffffff\n      and\n        /* \"Date.sol\":3953:3959  result */\n      dup3\n        /* \"Date.sol\":3960:3961  i */\n      dup3\n        /* \"Date.sol\":3953:3962  result[i] */\n      dup2\n      mload\n      dup2\n      lt\n      tag_202\n      jumpi\n      tag_203\n      tag_200\n      jump\t// in\n    tag_203:\n    tag_202:\n      0x20\n      mul\n      0x20\n      add\n      add\n        /* \"Date.sol\":3953:3992  result[i] = userProfile.sentRequests[i] */\n      swap1\n      0xffffffffffffffffffffffffffffffffffffffff\n      and\n      swap1\n      dup2\n      0xffffffffffffffffffffffffffffffffffffffff\n      and\n      dup2\n      mstore\n      pop\n      pop\n        /* \"Date.sol\":3933:3936  i++ */\n      dup1\n      dup1\n      tag_204\n      swap1\n      tag_177\n      jump\t// in\n    tag_204:\n      swap2\n      pop\n      pop\n        /* \"Date.sol\":3876:4004  for (uint256 i = 0; i < userProfile.sentRequests.length; i++) {... */\n      jump(tag_195)\n    tag_196:\n      pop\n        /* \"Date.sol\":4021:4027  result */\n      dup1\n        /* \"Date.sol\":4014:4027  return result */\n      swap3\n      pop\n      pop\n      pop\n        /* \"Date.sol\":3642:4035  function getPendingRequests() external view returns (address[] memory) {... */\n      swap1\n      jump\t// out\n        /* \"Date.sol\":2335:2968  function sendRequest(address target) external {... */\n    tag_87:\n        /* \"Date.sol\":2414:2420  target */\n      dup1\n        /* \"Date.sol\":2400:2420  msg.sender != target */\n      0xffffffffffffffffffffffffffffffffffffffff\n      and\n        /* \"Date.sol\":2400:2410  msg.sender */\n      caller\n        /* \"Date.sol\":2400:2420  msg.sender != target */\n      0xffffffffffffffffffffffffffffffffffffffff\n      and\n      sub\n        /* \"Date.sol\":2392:2462  require(msg.sender != target, \"You cannot send a request to yourself\") */\n      tag_206\n      jumpi\n      mload(0x40)\n      0x08c379a000000000000000000000000000000000000000000000000000000000\n      dup2\n      mstore\n      0x04\n      add\n      tag_207\n      swap1\n      tag_208\n      jump\t// in\n    tag_207:\n      mload(0x40)\n      dup1\n      swap2\n      sub\n      swap1\n      revert\n    tag_206:\n        /* \"Date.sol\":2512:2513  0 */\n      0x00\n        /* \"Date.sol\":2481:2493  userProfiles */\n      0x05\n        /* \"Date.sol\":2481:2505  userProfiles[msg.sender] */\n      0x00\n        /* \"Date.sol\":2494:2504  msg.sender */\n      caller\n        /* \"Date.sol\":2481:2505  userProfiles[msg.sender] */\n      0xffffffffffffffffffffffffffffffffffffffff\n      and\n      0xffffffffffffffffffffffffffffffffffffffff\n      and\n      dup2\n      mstore\n      0x20\n      add\n      swap1\n      dup2\n      mstore\n      0x20\n      add\n      0x00\n      keccak256\n        /* \"Date.sol\":2481:2509  userProfiles[msg.sender].age */\n      0x01\n      add\n      sload\n        /* \"Date.sol\":2481:2513  userProfiles[msg.sender].age > 0 */\n      gt\n        /* \"Date.sol\":2473:2541  require(userProfiles[msg.sender].age > 0, \"User profile must exist\") */\n      tag_209\n      jumpi\n      mload(0x40)\n      0x08c379a000000000000000000000000000000000000000000000000000000000\n      dup2\n      mstore\n      0x04\n      add\n      tag_210\n      swap1\n      tag_181\n      jump\t// in\n    tag_210:\n      mload(0x40)\n      dup1\n      swap2\n      sub\n      swap1\n      revert\n    tag_209:\n        /* \"Date.sol\":2587:2588  0 */\n      0x00\n        /* \"Date.sol\":2560:2572  userProfiles */\n      0x05\n        /* \"Date.sol\":2560:2580  userProfiles[target] */\n      0x00\n        /* \"Date.sol\":2573:2579  target */\n      dup4\n        /* \"Date.sol\":2560:2580  userProfiles[target] */\n      0xffffffffffffffffffffffffffffffffffffffff\n      and\n      0xffffffffffffffffffffffffffffffffffffffff\n      and\n      dup2\n      mstore\n      0x20\n      add\n      swap1\n      dup2\n      mstore\n      0x20\n      add\n      0x00\n      keccak256\n        /* \"Date.sol\":2560:2584  userProfiles[target].age */\n      0x01\n      add\n      sload\n        /* \"Date.sol\":2560:2588  userProfiles[target].age > 0 */\n      gt\n        /* \"Date.sol\":2552:2618  require(userProfiles[target].age > 0, \"Target profile must exist\") */\n      tag_211\n      jumpi\n      mload(0x40)\n      0x08c379a000000000000000000000000000000000000000000000000000000000\n      dup2\n      mstore\n      0x04\n      add\n      tag_212\n      swap1\n      tag_213\n      jump\t// in\n    tag_212:\n      mload(0x40)\n      dup1\n      swap2\n      sub\n      swap1\n      revert\n    tag_211:\n        /* \"Date.sol\":2638:2668  hasMatched(msg.sender, target) */\n      tag_214\n        /* \"Date.sol\":2649:2659  msg.sender */\n      caller\n        /* \"Date.sol\":2661:2667  target */\n      dup3\n        /* \"Date.sol\":2638:2648  hasMatched */\n      tag_188\n        /* \"Date.sol\":2638:2668  hasMatched(msg.sender, target) */\n      jump\t// in\n    tag_214:\n        /* \"Date.sol\":2637:2668  !hasMatched(msg.sender, target) */\n      iszero\n        /* \"Date.sol\":2629:2712  require(!hasMatched(msg.sender, target), \"You have already matched with this user\") */\n      tag_215\n      jumpi\n      mload(0x40)\n      0x08c379a000000000000000000000000000000000000000000000000000000000\n      dup2\n      mstore\n      0x04\n      add\n      tag_216\n      swap1\n      tag_217\n      jump\t// in\n    tag_216:\n      mload(0x40)\n      dup1\n      swap2\n      sub\n      swap1\n      revert\n    tag_215:\n        /* \"Date.sol\":2732:2744  userProfiles */\n      0x05\n        /* \"Date.sol\":2732:2756  userProfiles[msg.sender] */\n      0x00\n        /* \"Date.sol\":2745:2755  msg.sender */\n      caller\n        /* \"Date.sol\":2732:2756  userProfiles[msg.sender] */\n      0xffffffffffffffffffffffffffffffffffffffff\n      and\n      0xffffffffffffffffffffffffffffffffffffffff\n      and\n      dup2\n      mstore\n      0x20\n      add\n      swap1\n      dup2\n      mstore\n      0x20\n      add\n      0x00\n      keccak256\n        /* \"Date.sol\":2732:2772  userProfiles[msg.sender].pendingRequests */\n      0x06\n      add\n        /* \"Date.sol\":2732:2780  userProfiles[msg.sender].pendingRequests[target] */\n      0x00\n        /* \"Date.sol\":2773:2779  target */\n      dup3\n        /* \"Date.sol\":2732:2780  userProfiles[msg.sender].pendingRequests[target] */\n      0xffffffffffffffffffffffffffffffffffffffff\n      and\n      0xffffffffffffffffffffffffffffffffffffffff\n      and\n      dup2\n      mstore\n      0x20\n      add\n      swap1\n      dup2\n      mstore\n      0x20\n      add\n      0x00\n      keccak256\n      0x00\n      swap1\n      sload\n      swap1\n      0x0100\n      exp\n      swap1\n      div\n      0xff\n      and\n        /* \"Date.sol\":2731:2780  !userProfiles[msg.sender].pendingRequests[target] */\n      iszero\n        /* \"Date.sol\":2723:2829  require(!userProfiles[msg.sender].pendingRequests[target], \"You have already sent a request to this user\") */\n      tag_218\n      jumpi\n      mload(0x40)\n      0x08c379a000000000000000000000000000000000000000000000000000000000\n      dup2\n      mstore\n      0x04\n      add\n      tag_219\n      swap1\n      tag_220\n      jump\t// in\n    tag_219:\n      mload(0x40)\n      dup1\n      swap2\n      sub\n      swap1\n      revert\n    tag_218:\n        /* \"Date.sol\":2893:2897  true */\n      0x01\n        /* \"Date.sol\":2842:2854  userProfiles */\n      0x05\n        /* \"Date.sol\":2842:2866  userProfiles[msg.sender] */\n      0x00\n        /* \"Date.sol\":2855:2865  msg.sender */\n      caller\n        /* \"Date.sol\":2842:2866  userProfiles[msg.sender] */\n      0xffffffffffffffffffffffffffffffffffffffff\n      and\n      0xffffffffffffffffffffffffffffffffffffffff\n      and\n      dup2\n      mstore\n      0x20\n      add\n      swap1\n      dup2\n      mstore\n      0x20\n      add\n      0x00\n      keccak256\n        /* \"Date.sol\":2842:2882  userProfiles[msg.sender].pendingRequests */\n      0x06\n      add\n        /* \"Date.sol\":2842:2890  userProfiles[msg.sender].pendingRequests[target] */\n      0x00\n        /* \"Date.sol\":2883:2889  target */\n      dup4\n        /* \"Date.sol\":2842:2890  userProfiles[msg.sender].pendingRequests[target] */\n      0xffffffffffffffffffffffffffffffffffffffff\n      and\n      0xffffffffffffffffffffffffffffffffffffffff\n      and\n      dup2\n      mstore\n      0x20\n      add\n      swap1\n      dup2\n      mstore\n      0x20\n      add\n      0x00\n      keccak256\n      0x00\n        /* \"Date.sol\":2842:2897  userProfiles[msg.sender].pendingRequests[target] = true */\n      0x0100\n      exp\n      dup2\n      sload\n      dup2\n      0xff\n      mul\n      not\n      and\n      swap1\n      dup4\n      iszero\n      iszero\n      mul\n      or\n      swap1\n      sstore\n      pop\n        /* \"Date.sol\":2908:2920  userProfiles */\n      0x05\n        /* \"Date.sol\":2908:2932  userProfiles[msg.sender] */\n      0x00\n        /* \"Date.sol\":2921:2931  msg.sender */\n      caller\n        /* \"Date.sol\":2908:2932  userProfiles[msg.sender] */\n      0xffffffffffffffffffffffffffffffffffffffff\n      and\n      0xffffffffffffffffffffffffffffffffffffffff\n      and\n      dup2\n      mstore\n      0x20\n      add\n      swap1\n      dup2\n      mstore\n      0x20\n      add\n      0x00\n      keccak256\n        /* \"Date.sol\":2908:2945  userProfiles[msg.sender].sentRequests */\n      0x05\n      add\n        /* \"Date.sol\":2951:2957  target */\n      dup2\n        /* \"Date.sol\":2908:2958  userProfiles[msg.sender].sentRequests.push(target) */\n      swap1\n      dup1\n      0x01\n      dup2\n      sload\n      add\n      dup1\n      dup3\n      sstore\n      dup1\n      swap2\n      pop\n      pop\n      0x01\n      swap1\n      sub\n      swap1\n      0x00\n      mstore\n      keccak256(0x00, 0x20)\n      add\n      0x00\n      swap1\n      swap2\n      swap1\n      swap2\n      swap1\n      swap2\n      0x0100\n      exp\n      dup2\n      sload\n      dup2\n      0xffffffffffffffffffffffffffffffffffffffff\n      mul\n      not\n      and\n      swap1\n      dup4\n      0xffffffffffffffffffffffffffffffffffffffff\n      and\n      mul\n      or\n      swap1\n      sstore\n      pop\n        /* \"Date.sol\":2335:2968  function sendRequest(address target) external {... */\n      pop\n      jump\t// out\n        /* \"@openzeppelin/contracts/token/ERC20/ERC20.sol\":2276:2369  function symbol() public view virtual returns (string memory) {... */\n    tag_89:\n        /* \"@openzeppelin/contracts/token/ERC20/ERC20.sol\":2323:2336  string memory */\n      0x60\n        /* \"@openzeppelin/contracts/token/ERC20/ERC20.sol\":2355:2362  _symbol */\n      0x04\n        /* \"@openzeppelin/contracts/token/ERC20/ERC20.sol\":2348:2362  return _symbol */\n      dup1\n      sload\n      tag_223\n      swap1\n      tag_128\n      jump\t// in\n    tag_223:\n      dup1\n      0x1f\n      add\n      0x20\n      dup1\n      swap2\n      div\n      mul\n      0x20\n      add\n      mload(0x40)\n      swap1\n      dup2\n      add\n      0x40\n      mstore\n      dup1\n      swap3\n      swap2\n      swap1\n      dup2\n      dup2\n      mstore\n      0x20\n      add\n      dup3\n      dup1\n      sload\n      tag_224\n      swap1\n      tag_128\n      jump\t// in\n    tag_224:\n      dup1\n      iszero\n      tag_225\n      jumpi\n      dup1\n      0x1f\n      lt\n      tag_226\n      jumpi\n      0x0100\n      dup1\n      dup4\n      sload\n      div\n      mul\n      dup4\n      mstore\n      swap2\n      0x20\n      add\n      swap2\n      jump(tag_225)\n    tag_226:\n      dup3\n      add\n      swap2\n      swap1\n      0x00\n      mstore\n      keccak256(0x00, 0x20)\n      swap1\n    tag_227:\n      dup2\n      sload\n      dup2\n      mstore\n      swap1\n      0x01\n      add\n      swap1\n      0x20\n      add\n      dup1\n      dup4\n      gt\n      tag_227\n      jumpi\n      dup3\n      swap1\n      sub\n      0x1f\n      and\n      dup3\n      add\n      swap2\n    tag_225:\n      pop\n      pop\n      pop\n      pop\n      pop\n      swap1\n      pop\n        /* \"@openzeppelin/contracts/token/ERC20/ERC20.sol\":2276:2369  function symbol() public view virtual returns (string memory) {... */\n      swap1\n      jump\t// out\n        /* \"Date.sol\":1294:1680  function updateProfile(string memory name, uint256 age, string memory gender) external {... */\n    tag_94:\n        /* \"Date.sol\":1421:1422  0 */\n      0x00\n        /* \"Date.sol\":1406:1410  name */\n      dup4\n        /* \"Date.sol\":1400:1418  bytes(name).length */\n      mload\n        /* \"Date.sol\":1400:1422  bytes(name).length > 0 */\n      gt\n        /* \"Date.sol\":1392:1447  require(bytes(name).length > 0, \"Name cannot be empty\") */\n      tag_229\n      jumpi\n      mload(0x40)\n      0x08c379a000000000000000000000000000000000000000000000000000000000\n      dup2\n      mstore\n      0x04\n      add\n      tag_230\n      swap1\n      tag_231\n      jump\t// in\n    tag_230:\n      mload(0x40)\n      dup1\n      swap2\n      sub\n      swap1\n      revert\n    tag_229:\n        /* \"Date.sol\":1497:1498  0 */\n      0x00\n        /* \"Date.sol\":1466:1478  userProfiles */\n      0x05\n        /* \"Date.sol\":1466:1490  userProfiles[msg.sender] */\n      0x00\n        /* \"Date.sol\":1479:1489  msg.sender */\n      caller\n        /* \"Date.sol\":1466:1490  userProfiles[msg.sender] */\n      0xffffffffffffffffffffffffffffffffffffffff\n      and\n      0xffffffffffffffffffffffffffffffffffffffff\n      and\n      dup2\n      mstore\n      0x20\n      add\n      swap1\n      dup2\n      mstore\n      0x20\n      add\n      0x00\n      keccak256\n        /* \"Date.sol\":1466:1494  userProfiles[msg.sender].age */\n      0x01\n      add\n      sload\n        /* \"Date.sol\":1466:1498  userProfiles[msg.sender].age > 0 */\n      gt\n        /* \"Date.sol\":1458:1525  require(userProfiles[msg.sender].age > 0, \"Profile does not exist\") */\n      tag_232\n      jumpi\n      mload(0x40)\n      0x08c379a000000000000000000000000000000000000000000000000000000000\n      dup2\n      mstore\n      0x04\n      add\n      tag_233\n      swap1\n      tag_234\n      jump\t// in\n    tag_233:\n      mload(0x40)\n      dup1\n      swap2\n      sub\n      swap1\n      revert\n    tag_232:\n        /* \"Date.sol\":1570:1574  name */\n      dup3\n        /* \"Date.sol\":1538:1550  userProfiles */\n      0x05\n        /* \"Date.sol\":1538:1562  userProfiles[msg.sender] */\n      0x00\n        /* \"Date.sol\":1551:1561  msg.sender */\n      caller\n        /* \"Date.sol\":1538:1562  userProfiles[msg.sender] */\n      0xffffffffffffffffffffffffffffffffffffffff\n      and\n      0xffffffffffffffffffffffffffffffffffffffff\n      and\n      dup2\n      mstore\n      0x20\n      add\n      swap1\n      dup2\n      mstore\n      0x20\n      add\n      0x00\n      keccak256\n        /* \"Date.sol\":1538:1567  userProfiles[msg.sender].name */\n      0x00\n      add\n        /* \"Date.sol\":1538:1574  userProfiles[msg.sender].name = name */\n      swap1\n      dup2\n      tag_235\n      swap2\n      swap1\n      tag_236\n      jump\t// in\n    tag_235:\n      pop\n        /* \"Date.sol\":1616:1619  age */\n      dup2\n        /* \"Date.sol\":1585:1597  userProfiles */\n      0x05\n        /* \"Date.sol\":1585:1609  userProfiles[msg.sender] */\n      0x00\n        /* \"Date.sol\":1598:1608  msg.sender */\n      caller\n        /* \"Date.sol\":1585:1609  userProfiles[msg.sender] */\n      0xffffffffffffffffffffffffffffffffffffffff\n      and\n      0xffffffffffffffffffffffffffffffffffffffff\n      and\n      dup2\n      mstore\n      0x20\n      add\n      swap1\n      dup2\n      mstore\n      0x20\n      add\n      0x00\n      keccak256\n        /* \"Date.sol\":1585:1613  userProfiles[msg.sender].age */\n      0x01\n      add\n        /* \"Date.sol\":1585:1619  userProfiles[msg.sender].age = age */\n      dup2\n      swap1\n      sstore\n      pop\n        /* \"Date.sol\":1664:1670  gender */\n      dup1\n        /* \"Date.sol\":1630:1642  userProfiles */\n      0x05\n        /* \"Date.sol\":1630:1654  userProfiles[msg.sender] */\n      0x00\n        /* \"Date.sol\":1643:1653  msg.sender */\n      caller\n        /* \"Date.sol\":1630:1654  userProfiles[msg.sender] */\n      0xffffffffffffffffffffffffffffffffffffffff\n      and\n      0xffffffffffffffffffffffffffffffffffffffff\n      and\n      dup2\n      mstore\n      0x20\n      add\n      swap1\n      dup2\n      mstore\n      0x20\n      add\n      0x00\n      keccak256\n        /* \"Date.sol\":1630:1661  userProfiles[msg.sender].gender */\n      0x02\n      add\n        /* \"Date.sol\":1630:1670  userProfiles[msg.sender].gender = gender */\n      swap1\n      dup2\n      tag_237\n      swap2\n      swap1\n      tag_236\n      jump\t// in\n    tag_237:\n      pop\n        /* \"Date.sol\":1294:1680  function updateProfile(string memory name, uint256 age, string memory gender) external {... */\n      pop\n      pop\n      pop\n      jump\t// out\n        /* \"@openzeppelin/contracts/token/ERC20/ERC20.sol\":3610:3788  function transfer(address to, uint256 value) public virtual returns (bool) {... */\n    tag_97:\n        /* \"@openzeppelin/contracts/token/ERC20/ERC20.sol\":3679:3683  bool */\n      0x00\n        /* \"@openzeppelin/contracts/token/ERC20/ERC20.sol\":3695:3708  address owner */\n      dup1\n        /* \"@openzeppelin/contracts/token/ERC20/ERC20.sol\":3711:3723  _msgSender() */\n      tag_239\n        /* \"@openzeppelin/contracts/token/ERC20/ERC20.sol\":3711:3721  _msgSender */\n      tag_135\n        /* \"@openzeppelin/contracts/token/ERC20/ERC20.sol\":3711:3723  _msgSender() */\n      jump\t// in\n    tag_239:\n        /* \"@openzeppelin/contracts/token/ERC20/ERC20.sol\":3695:3723  address owner = _msgSender() */\n      swap1\n      pop\n        /* \"@openzeppelin/contracts/token/ERC20/ERC20.sol\":3733:3760  _transfer(owner, to, value) */\n      tag_240\n        /* \"@openzeppelin/contracts/token/ERC20/ERC20.sol\":3743:3748  owner */\n      dup2\n        /* \"@openzeppelin/contracts/token/ERC20/ERC20.sol\":3750:3752  to */\n      dup6\n        /* \"@openzeppelin/contracts/token/ERC20/ERC20.sol\":3754:3759  value */\n      dup6\n        /* \"@openzeppelin/contracts/token/ERC20/ERC20.sol\":3733:3742  _transfer */\n      tag_144\n        /* \"@openzeppelin/contracts/token/ERC20/ERC20.sol\":3733:3760  _transfer(owner, to, value) */\n      jump\t// in\n    tag_240:\n        /* \"@openzeppelin/contracts/token/ERC20/ERC20.sol\":3777:3781  true */\n      0x01\n        /* \"@openzeppelin/contracts/token/ERC20/ERC20.sol\":3770:3781  return true */\n      swap2\n      pop\n      pop\n        /* \"@openzeppelin/contracts/token/ERC20/ERC20.sol\":3610:3788  function transfer(address to, uint256 value) public virtual returns (bool) {... */\n      swap3\n      swap2\n      pop\n      pop\n      jump\t// out\n        /* \"Date.sol\":891:1286  function createProfile(string memory name, uint256 age, string memory gender) external {... */\n    tag_101:\n        /* \"Date.sol\":1018:1019  0 */\n      0x00\n        /* \"Date.sol\":1003:1007  name */\n      dup4\n        /* \"Date.sol\":997:1015  bytes(name).length */\n      mload\n        /* \"Date.sol\":997:1019  bytes(name).length > 0 */\n      gt\n        /* \"Date.sol\":989:1044  require(bytes(name).length > 0, \"Name cannot be empty\") */\n      tag_242\n      jumpi\n      mload(0x40)\n      0x08c379a000000000000000000000000000000000000000000000000000000000\n      dup2\n      mstore\n      0x04\n      add\n      tag_243\n      swap1\n      tag_231\n      jump\t// in\n    tag_243:\n      mload(0x40)\n      dup1\n      swap2\n      sub\n      swap1\n      revert\n    tag_242:\n        /* \"Date.sol\":1095:1096  0 */\n      0x00\n        /* \"Date.sol\":1063:1075  userProfiles */\n      0x05\n        /* \"Date.sol\":1063:1087  userProfiles[msg.sender] */\n      0x00\n        /* \"Date.sol\":1076:1086  msg.sender */\n      caller\n        /* \"Date.sol\":1063:1087  userProfiles[msg.sender] */\n      0xffffffffffffffffffffffffffffffffffffffff\n      and\n      0xffffffffffffffffffffffffffffffffffffffff\n      and\n      dup2\n      mstore\n      0x20\n      add\n      swap1\n      dup2\n      mstore\n      0x20\n      add\n      0x00\n      keccak256\n        /* \"Date.sol\":1063:1091  userProfiles[msg.sender].age */\n      0x01\n      add\n      sload\n        /* \"Date.sol\":1063:1096  userProfiles[msg.sender].age == 0 */\n      eq\n        /* \"Date.sol\":1055:1123  require(userProfiles[msg.sender].age == 0, \"Profile already exists\") */\n      tag_244\n      jumpi\n      mload(0x40)\n      0x08c379a000000000000000000000000000000000000000000000000000000000\n      dup2\n      mstore\n      0x04\n      add\n      tag_245\n      swap1\n      tag_246\n      jump\t// in\n    tag_245:\n      mload(0x40)\n      dup1\n      swap2\n      sub\n      swap1\n      revert\n    tag_244:\n        /* \"Date.sol\":1168:1172  name */\n      dup3\n        /* \"Date.sol\":1136:1148  userProfiles */\n      0x05\n        /* \"Date.sol\":1136:1160  userProfiles[msg.sender] */\n      0x00\n        /* \"Date.sol\":1149:1159  msg.sender */\n      caller\n        /* \"Date.sol\":1136:1160  userProfiles[msg.sender] */\n      0xffffffffffffffffffffffffffffffffffffffff\n      and\n      0xffffffffffffffffffffffffffffffffffffffff\n      and\n      dup2\n      mstore\n      0x20\n      add\n      swap1\n      dup2\n      mstore\n      0x20\n      add\n      0x00\n      keccak256\n        /* \"Date.sol\":1136:1165  userProfiles[msg.sender].name */\n      0x00\n      add\n        /* \"Date.sol\":1136:1172  userProfiles[msg.sender].name = name */\n      swap1\n      dup2\n      tag_247\n      swap2\n      swap1\n      tag_236\n      jump\t// in\n    tag_247:\n      pop\n        /* \"Date.sol\":1214:1217  age */\n      dup2\n        /* \"Date.sol\":1183:1195  userProfiles */\n      0x05\n        /* \"Date.sol\":1183:1207  userProfiles[msg.sender] */\n      0x00\n        /* \"Date.sol\":1196:1206  msg.sender */\n      caller\n        /* \"Date.sol\":1183:1207  userProfiles[msg.sender] */\n      0xffffffffffffffffffffffffffffffffffffffff\n      and\n      0xffffffffffffffffffffffffffffffffffffffff\n      and\n      dup2\n      mstore\n      0x20\n      add\n      swap1\n      dup2\n      mstore\n      0x20\n      add\n      0x00\n      keccak256\n        /* \"Date.sol\":1183:1211  userProfiles[msg.sender].age */\n      0x01\n      add\n        /* \"Date.sol\":1183:1217  userProfiles[msg.sender].age = age */\n      dup2\n      swap1\n      sstore\n      pop\n        /* \"Date.sol\":1262:1268  gender */\n      dup1\n        /* \"Date.sol\":1228:1240  userProfiles */\n      0x05\n        /* \"Date.sol\":1228:1252  userProfiles[msg.sender] */\n      0x00\n        /* \"Date.sol\":1241:1251  msg.sender */\n      caller\n        /* \"Date.sol\":1228:1252  userProfiles[msg.sender] */\n      0xffffffffffffffffffffffffffffffffffffffff\n      and\n      0xffffffffffffffffffffffffffffffffffffffff\n      and\n      dup2\n      mstore\n      0x20\n      add\n      swap1\n      dup2\n      mstore\n      0x20\n      add\n      0x00\n      keccak256\n        /* \"Date.sol\":1228:1259  userProfiles[msg.sender].gender */\n      0x02\n      add\n        /* \"Date.sol\":1228:1268  userProfiles[msg.sender].gender = gender */\n      swap1\n      dup2\n      tag_248\n      swap2\n      swap1\n      tag_236\n      jump\t// in\n    tag_248:\n      pop\n        /* \"Date.sol\":891:1286  function createProfile(string memory name, uint256 age, string memory gender) external {... */\n      pop\n      pop\n      pop\n      jump\t// out\n        /* \"Date.sol\":6213:6428  function getUsername(address userAddress) external view returns (string memory) {... */\n    tag_104:\n        /* \"Date.sol\":6278:6291  string memory */\n      0x60\n        /* \"Date.sol\":6344:6345  0 */\n      0x00\n        /* \"Date.sol\":6312:6324  userProfiles */\n      0x05\n        /* \"Date.sol\":6312:6337  userProfiles[userAddress] */\n      0x00\n        /* \"Date.sol\":6325:6336  userAddress */\n      dup5\n        /* \"Date.sol\":6312:6337  userProfiles[userAddress] */\n      0xffffffffffffffffffffffffffffffffffffffff\n      and\n      0xffffffffffffffffffffffffffffffffffffffff\n      and\n      dup2\n      mstore\n      0x20\n      add\n      swap1\n      dup2\n      mstore\n      0x20\n      add\n      0x00\n      keccak256\n        /* \"Date.sol\":6312:6341  userProfiles[userAddress].age */\n      0x01\n      add\n      sload\n        /* \"Date.sol\":6312:6345  userProfiles[userAddress].age > 0 */\n      gt\n        /* \"Date.sol\":6304:6372  require(userProfiles[userAddress].age > 0, \"Profile does not exist\") */\n      tag_250\n      jumpi\n      mload(0x40)\n      0x08c379a000000000000000000000000000000000000000000000000000000000\n      dup2\n      mstore\n      0x04\n      add\n      tag_251\n      swap1\n      tag_234\n      jump\t// in\n    tag_251:\n      mload(0x40)\n      dup1\n      swap2\n      sub\n      swap1\n      revert\n    tag_250:\n        /* \"Date.sol\":6390:6402  userProfiles */\n      0x05\n        /* \"Date.sol\":6390:6415  userProfiles[userAddress] */\n      0x00\n        /* \"Date.sol\":6403:6414  userAddress */\n      dup4\n        /* \"Date.sol\":6390:6415  userProfiles[userAddress] */\n      0xffffffffffffffffffffffffffffffffffffffff\n      and\n      0xffffffffffffffffffffffffffffffffffffffff\n      and\n      dup2\n      mstore\n      0x20\n      add\n      swap1\n      dup2\n      mstore\n      0x20\n      add\n      0x00\n      keccak256\n        /* \"Date.sol\":6390:6420  userProfiles[userAddress].name */\n      0x00\n      add\n        /* \"Date.sol\":6383:6420  return userProfiles[userAddress].name */\n      dup1\n      sload\n      tag_252\n      swap1\n      tag_128\n      jump\t// in\n    tag_252:\n      dup1\n      0x1f\n      add\n      0x20\n      dup1\n      swap2\n      div\n      mul\n      0x20\n      add\n      mload(0x40)\n      swap1\n      dup2\n      add\n      0x40\n      mstore\n      dup1\n      swap3\n      swap2\n      swap1\n      dup2\n      dup2\n      mstore\n      0x20\n      add\n      dup3\n      dup1\n      sload\n      tag_253\n      swap1\n      tag_128\n      jump\t// in\n    tag_253:\n      dup1\n      iszero\n      tag_254\n      jumpi\n      dup1\n      0x1f\n      lt\n      tag_255\n      jumpi\n      0x0100\n      dup1\n      dup4\n      sload\n      div\n      mul\n      dup4\n      mstore\n      swap2\n      0x20\n      add\n      swap2\n      jump(tag_254)\n    tag_255:\n      dup3\n      add\n      swap2\n      swap1\n      0x00\n      mstore\n      keccak256(0x00, 0x20)\n      swap1\n    tag_256:\n      dup2\n      sload\n      dup2\n      mstore\n      swap1\n      0x01\n      add\n      swap1\n      0x20\n      add\n      dup1\n      dup4\n      gt\n      tag_256\n      jumpi\n      dup3\n      swap1\n      sub\n      0x1f\n      and\n      dup3\n      add\n      swap2\n    tag_254:\n      pop\n      pop\n      pop\n      pop\n      pop\n      swap1\n      pop\n        /* \"Date.sol\":6213:6428  function getUsername(address userAddress) external view returns (string memory) {... */\n      swap2\n      swap1\n      pop\n      jump\t// out\n        /* \"@openzeppelin/contracts/token/ERC20/ERC20.sol\":3846:3986  function allowance(address owner, address spender) public view virtual returns (uint256) {... */\n    tag_109:\n        /* \"@openzeppelin/contracts/token/ERC20/ERC20.sol\":3926:3933  uint256 */\n      0x00\n        /* \"@openzeppelin/contracts/token/ERC20/ERC20.sol\":3952:3963  _allowances */\n      0x01\n        /* \"@openzeppelin/contracts/token/ERC20/ERC20.sol\":3952:3970  _allowances[owner] */\n      0x00\n        /* \"@openzeppelin/contracts/token/ERC20/ERC20.sol\":3964:3969  owner */\n      dup5\n        /* \"@openzeppelin/contracts/token/ERC20/ERC20.sol\":3952:3970  _allowances[owner] */\n      0xffffffffffffffffffffffffffffffffffffffff\n      and\n      0xffffffffffffffffffffffffffffffffffffffff\n      and\n      dup2\n      mstore\n      0x20\n      add\n      swap1\n      dup2\n      mstore\n      0x20\n      add\n      0x00\n      keccak256\n        /* \"@openzeppelin/contracts/token/ERC20/ERC20.sol\":3952:3979  _allowances[owner][spender] */\n      0x00\n        /* \"@openzeppelin/contracts/token/ERC20/ERC20.sol\":3971:3978  spender */\n      dup4\n        /* \"@openzeppelin/contracts/token/ERC20/ERC20.sol\":3952:3979  _allowances[owner][spender] */\n      0xffffffffffffffffffffffffffffffffffffffff\n      and\n      0xffffffffffffffffffffffffffffffffffffffff\n      and\n      dup2\n      mstore\n      0x20\n      add\n      swap1\n      dup2\n      mstore\n      0x20\n      add\n      0x00\n      keccak256\n      sload\n        /* \"@openzeppelin/contracts/token/ERC20/ERC20.sol\":3945:3979  return _allowances[owner][spender] */\n      swap1\n      pop\n        /* \"@openzeppelin/contracts/token/ERC20/ERC20.sol\":3846:3986  function allowance(address owner, address spender) public view virtual returns (uint256) {... */\n      swap3\n      swap2\n      pop\n      pop\n      jump\t// out\n        /* \"Date.sol\":4198:4837  function sendMessage(address target, string memory message) external {... */\n    tag_114:\n        /* \"Date.sol\":4300:4306  target */\n      dup2\n        /* \"Date.sol\":4286:4306  msg.sender != target */\n      0xffffffffffffffffffffffffffffffffffffffff\n      and\n        /* \"Date.sol\":4286:4296  msg.sender */\n      caller\n        /* \"Date.sol\":4286:4306  msg.sender != target */\n      0xffffffffffffffffffffffffffffffffffffffff\n      and\n      sub\n        /* \"Date.sol\":4278:4348  require(msg.sender != target, \"You cannot send a message to yourself\") */\n      tag_259\n      jumpi\n      mload(0x40)\n      0x08c379a000000000000000000000000000000000000000000000000000000000\n      dup2\n      mstore\n      0x04\n      add\n      tag_260\n      swap1\n      tag_261\n      jump\t// in\n    tag_260:\n      mload(0x40)\n      dup1\n      swap2\n      sub\n      swap1\n      revert\n    tag_259:\n        /* \"Date.sol\":4391:4392  0 */\n      0x00\n        /* \"Date.sol\":4373:4380  message */\n      dup2\n        /* \"Date.sol\":4367:4388  bytes(message).length */\n      mload\n        /* \"Date.sol\":4367:4392  bytes(message).length > 0 */\n      gt\n        /* \"Date.sol\":4359:4420  require(bytes(message).length > 0, \"Message cannot be empty\") */\n      tag_262\n      jumpi\n      mload(0x40)\n      0x08c379a000000000000000000000000000000000000000000000000000000000\n      dup2\n      mstore\n      0x04\n      add\n      tag_263\n      swap1\n      tag_264\n      jump\t// in\n    tag_263:\n      mload(0x40)\n      dup1\n      swap2\n      sub\n      swap1\n      revert\n    tag_262:\n        /* \"Date.sol\":4470:4471  0 */\n      0x00\n        /* \"Date.sol\":4439:4451  userProfiles */\n      0x05\n        /* \"Date.sol\":4439:4463  userProfiles[msg.sender] */\n      0x00\n        /* \"Date.sol\":4452:4462  msg.sender */\n      caller\n        /* \"Date.sol\":4439:4463  userProfiles[msg.sender] */\n      0xffffffffffffffffffffffffffffffffffffffff\n      and\n      0xffffffffffffffffffffffffffffffffffffffff\n      and\n      dup2\n      mstore\n      0x20\n      add\n      swap1\n      dup2\n      mstore\n      0x20\n      add\n      0x00\n      keccak256\n        /* \"Date.sol\":4439:4467  userProfiles[msg.sender].age */\n      0x01\n      add\n      sload\n        /* \"Date.sol\":4439:4471  userProfiles[msg.sender].age > 0 */\n      gt\n        /* \"Date.sol\":4431:4499  require(userProfiles[msg.sender].age > 0, \"User profile must exist\") */\n      tag_265\n      jumpi\n      mload(0x40)\n      0x08c379a000000000000000000000000000000000000000000000000000000000\n      dup2\n      mstore\n      0x04\n      add\n      tag_266\n      swap1\n      tag_181\n      jump\t// in\n    tag_266:\n      mload(0x40)\n      dup1\n      swap2\n      sub\n      swap1\n      revert\n    tag_265:\n        /* \"Date.sol\":4545:4546  0 */\n      0x00\n        /* \"Date.sol\":4518:4530  userProfiles */\n      0x05\n        /* \"Date.sol\":4518:4538  userProfiles[target] */\n      0x00\n        /* \"Date.sol\":4531:4537  target */\n      dup5\n        /* \"Date.sol\":4518:4538  userProfiles[target] */\n      0xffffffffffffffffffffffffffffffffffffffff\n      and\n      0xffffffffffffffffffffffffffffffffffffffff\n      and\n      dup2\n      mstore\n      0x20\n      add\n      swap1\n      dup2\n      mstore\n      0x20\n      add\n      0x00\n      keccak256\n        /* \"Date.sol\":4518:4542  userProfiles[target].age */\n      0x01\n      add\n      sload\n        /* \"Date.sol\":4518:4546  userProfiles[target].age > 0 */\n      gt\n        /* \"Date.sol\":4510:4576  require(userProfiles[target].age > 0, \"Target profile must exist\") */\n      tag_267\n      jumpi\n      mload(0x40)\n      0x08c379a000000000000000000000000000000000000000000000000000000000\n      dup2\n      mstore\n      0x04\n      add\n      tag_268\n      swap1\n      tag_213\n      jump\t// in\n    tag_268:\n      mload(0x40)\n      dup1\n      swap2\n      sub\n      swap1\n      revert\n    tag_267:\n        /* \"Date.sol\":4595:4625  hasMatched(msg.sender, target) */\n      tag_269\n        /* \"Date.sol\":4606:4616  msg.sender */\n      caller\n        /* \"Date.sol\":4618:4624  target */\n      dup4\n        /* \"Date.sol\":4595:4605  hasMatched */\n      tag_188\n        /* \"Date.sol\":4595:4625  hasMatched(msg.sender, target) */\n      jump\t// in\n    tag_269:\n        /* \"Date.sol\":4587:4664  require(hasMatched(msg.sender, target), \"You must be matched with this user\") */\n      tag_270\n      jumpi\n      mload(0x40)\n      0x08c379a000000000000000000000000000000000000000000000000000000000\n      dup2\n      mstore\n      0x04\n      add\n      tag_271\n      swap1\n      tag_272\n      jump\t// in\n    tag_271:\n      mload(0x40)\n      dup1\n      swap2\n      sub\n      swap1\n      revert\n    tag_270:\n        /* \"Date.sol\":4677:4699  bytes32 conversationID */\n      0x00\n        /* \"Date.sol\":4729:4739  msg.sender */\n      caller\n        /* \"Date.sol\":4741:4747  target */\n      dup4\n        /* \"Date.sol\":4712:4748  abi.encodePacked(msg.sender, target) */\n      add(0x20, mload(0x40))\n      tag_273\n      swap3\n      swap2\n      swap1\n      tag_274\n      jump\t// in\n    tag_273:\n      mload(0x40)\n      0x20\n      dup2\n      dup4\n      sub\n      sub\n      dup2\n      mstore\n      swap1\n      0x40\n      mstore\n        /* \"Date.sol\":4702:4749  keccak256(abi.encodePacked(msg.sender, target)) */\n      dup1\n      mload\n      swap1\n      0x20\n      add\n      keccak256\n        /* \"Date.sol\":4677:4749  bytes32 conversationID = keccak256(abi.encodePacked(msg.sender, target)) */\n      swap1\n      pop\n        /* \"Date.sol\":4760:4768  messages */\n      0x07\n        /* \"Date.sol\":4760:4784  messages[conversationID] */\n      0x00\n        /* \"Date.sol\":4769:4783  conversationID */\n      dup3\n        /* \"Date.sol\":4760:4784  messages[conversationID] */\n      dup2\n      mstore\n      0x20\n      add\n      swap1\n      dup2\n      mstore\n      0x20\n      add\n      0x00\n      keccak256\n        /* \"Date.sol\":4790:4818  Message(msg.sender, message) */\n      mload(0x40)\n      dup1\n      0x40\n      add\n      0x40\n      mstore\n      dup1\n        /* \"Date.sol\":4798:4808  msg.sender */\n      caller\n        /* \"Date.sol\":4790:4818  Message(msg.sender, message) */\n      0xffffffffffffffffffffffffffffffffffffffff\n      and\n      dup2\n      mstore\n      0x20\n      add\n        /* \"Date.sol\":4810:4817  message */\n      dup5\n        /* \"Date.sol\":4790:4818  Message(msg.sender, message) */\n      dup2\n      mstore\n      pop\n        /* \"Date.sol\":4760:4819  messages[conversationID].push(Message(msg.sender, message)) */\n      swap1\n      dup1\n      0x01\n      dup2\n      sload\n      add\n      dup1\n      dup3\n      sstore\n      dup1\n      swap2\n      pop\n      pop\n      0x01\n      swap1\n      sub\n      swap1\n      0x00\n      mstore\n      keccak256(0x00, 0x20)\n      swap1\n      0x02\n      mul\n      add\n      0x00\n      swap1\n      swap2\n      swap1\n      swap2\n      swap1\n      swap2\n      pop\n      0x00\n      dup3\n      add\n      mload\n      dup2\n      0x00\n      add\n      exp(0x0100, 0x00)\n      dup2\n      sload\n      dup2\n      0xffffffffffffffffffffffffffffffffffffffff\n      mul\n      not\n      and\n      swap1\n      dup4\n      0xffffffffffffffffffffffffffffffffffffffff\n      and\n      mul\n      or\n      swap1\n      sstore\n      pop\n      0x20\n      dup3\n      add\n      mload\n      dup2\n      0x01\n      add\n      swap1\n      dup2\n      tag_276\n      swap2\n      swap1\n      tag_236\n      jump\t// in\n    tag_276:\n      pop\n      pop\n      pop\n        /* \"Date.sol\":4267:4837  {... */\n      pop\n        /* \"Date.sol\":4198:4837  function sendMessage(address target, string memory message) external {... */\n      pop\n      pop\n      jump\t// out\n        /* \"Date.sol\":1688:2327  function likeUser(address target) external {... */\n    tag_117:\n        /* \"Date.sol\":1764:1770  target */\n      dup1\n        /* \"Date.sol\":1750:1770  msg.sender != target */\n      0xffffffffffffffffffffffffffffffffffffffff\n      and\n        /* \"Date.sol\":1750:1760  msg.sender */\n      caller\n        /* \"Date.sol\":1750:1770  msg.sender != target */\n      0xffffffffffffffffffffffffffffffffffffffff\n      and\n      sub\n        /* \"Date.sol\":1742:1799  require(msg.sender != target, \"You cannot like yourself\") */\n      tag_278\n      jumpi\n      mload(0x40)\n      0x08c379a000000000000000000000000000000000000000000000000000000000\n      dup2\n      mstore\n      0x04\n      add\n      tag_279\n      swap1\n      tag_280\n      jump\t// in\n    tag_279:\n      mload(0x40)\n      dup1\n      swap2\n      sub\n      swap1\n      revert\n    tag_278:\n        /* \"Date.sol\":1849:1850  0 */\n      0x00\n        /* \"Date.sol\":1818:1830  userProfiles */\n      0x05\n        /* \"Date.sol\":1818:1842  userProfiles[msg.sender] */\n      0x00\n        /* \"Date.sol\":1831:1841  msg.sender */\n      caller\n        /* \"Date.sol\":1818:1842  userProfiles[msg.sender] */\n      0xffffffffffffffffffffffffffffffffffffffff\n      and\n      0xffffffffffffffffffffffffffffffffffffffff\n      and\n      dup2\n      mstore\n      0x20\n      add\n      swap1\n      dup2\n      mstore\n      0x20\n      add\n      0x00\n      keccak256\n        /* \"Date.sol\":1818:1846  userProfiles[msg.sender].age */\n      0x01\n      add\n      sload\n        /* \"Date.sol\":1818:1850  userProfiles[msg.sender].age > 0 */\n      gt\n        /* \"Date.sol\":1810:1878  require(userProfiles[msg.sender].age > 0, \"User profile must exist\") */\n      tag_281\n      jumpi\n      mload(0x40)\n      0x08c379a000000000000000000000000000000000000000000000000000000000\n      dup2\n      mstore\n      0x04\n      add\n      tag_282\n      swap1\n      tag_181\n      jump\t// in\n    tag_282:\n      mload(0x40)\n      dup1\n      swap2\n      sub\n      swap1\n      revert\n    tag_281:\n        /* \"Date.sol\":1924:1925  0 */\n      0x00\n        /* \"Date.sol\":1897:1909  userProfiles */\n      0x05\n        /* \"Date.sol\":1897:1917  userProfiles[target] */\n      0x00\n        /* \"Date.sol\":1910:1916  target */\n      dup4\n        /* \"Date.sol\":1897:1917  userProfiles[target] */\n      0xffffffffffffffffffffffffffffffffffffffff\n      and\n      0xffffffffffffffffffffffffffffffffffffffff\n      and\n      dup2\n      mstore\n      0x20\n      add\n      swap1\n      dup2\n      mstore\n      0x20\n      add\n      0x00\n      keccak256\n        /* \"Date.sol\":1897:1921  userProfiles[target].age */\n      0x01\n      add\n      sload\n        /* \"Date.sol\":1897:1925  userProfiles[target].age > 0 */\n      gt\n        /* \"Date.sol\":1889:1955  require(userProfiles[target].age > 0, \"Target profile must exist\") */\n      tag_283\n      jumpi\n      mload(0x40)\n      0x08c379a000000000000000000000000000000000000000000000000000000000\n      dup2\n      mstore\n      0x04\n      add\n      tag_284\n      swap1\n      tag_213\n      jump\t// in\n    tag_284:\n      mload(0x40)\n      dup1\n      swap2\n      sub\n      swap1\n      revert\n    tag_283:\n        /* \"Date.sol\":1975:2005  hasMatched(msg.sender, target) */\n      tag_285\n        /* \"Date.sol\":1986:1996  msg.sender */\n      caller\n        /* \"Date.sol\":1998:2004  target */\n      dup3\n        /* \"Date.sol\":1975:1985  hasMatched */\n      tag_188\n        /* \"Date.sol\":1975:2005  hasMatched(msg.sender, target) */\n      jump\t// in\n    tag_285:\n        /* \"Date.sol\":1974:2005  !hasMatched(msg.sender, target) */\n      iszero\n        /* \"Date.sol\":1966:2049  require(!hasMatched(msg.sender, target), \"You have already matched with this user\") */\n      tag_286\n      jumpi\n      mload(0x40)\n      0x08c379a000000000000000000000000000000000000000000000000000000000\n      dup2\n      mstore\n      0x04\n      add\n      tag_287\n      swap1\n      tag_217\n      jump\t// in\n    tag_287:\n      mload(0x40)\n      dup1\n      swap2\n      sub\n      swap1\n      revert\n    tag_286:\n        /* \"Date.sol\":2062:2074  userProfiles */\n      0x05\n        /* \"Date.sol\":2062:2086  userProfiles[msg.sender] */\n      0x00\n        /* \"Date.sol\":2075:2085  msg.sender */\n      caller\n        /* \"Date.sol\":2062:2086  userProfiles[msg.sender] */\n      0xffffffffffffffffffffffffffffffffffffffff\n      and\n      0xffffffffffffffffffffffffffffffffffffffff\n      and\n      dup2\n      mstore\n      0x20\n      add\n      swap1\n      dup2\n      mstore\n      0x20\n      add\n      0x00\n      keccak256\n        /* \"Date.sol\":2062:2092  userProfiles[msg.sender].likes */\n      0x03\n      add\n      0x00\n        /* \"Date.sol\":2062:2094  userProfiles[msg.sender].likes++ */\n      dup2\n      sload\n      dup1\n      swap3\n      swap2\n      swap1\n      tag_288\n      swap1\n      tag_177\n      jump\t// in\n    tag_288:\n      swap2\n      swap1\n      pop\n      sstore\n      pop\n        /* \"Date.sol\":2105:2117  userProfiles */\n      0x05\n        /* \"Date.sol\":2105:2125  userProfiles[target] */\n      0x00\n        /* \"Date.sol\":2118:2124  target */\n      dup3\n        /* \"Date.sol\":2105:2125  userProfiles[target] */\n      0xffffffffffffffffffffffffffffffffffffffff\n      and\n      0xffffffffffffffffffffffffffffffffffffffff\n      and\n      dup2\n      mstore\n      0x20\n      add\n      swap1\n      dup2\n      mstore\n      0x20\n      add\n      0x00\n      keccak256\n        /* \"Date.sol\":2105:2131  userProfiles[target].likes */\n      0x03\n      add\n      0x00\n        /* \"Date.sol\":2105:2133  userProfiles[target].likes++ */\n      dup2\n      sload\n      dup1\n      swap3\n      swap2\n      swap1\n      tag_289\n      swap1\n      tag_177\n      jump\t// in\n    tag_289:\n      swap2\n      swap1\n      pop\n      sstore\n      pop\n        /* \"Date.sol\":2146:2153  matches */\n      0x06\n        /* \"Date.sol\":2159:2184  Match(msg.sender, target) */\n      mload(0x40)\n      dup1\n      0x40\n      add\n      0x40\n      mstore\n      dup1\n        /* \"Date.sol\":2165:2175  msg.sender */\n      caller\n        /* \"Date.sol\":2159:2184  Match(msg.sender, target) */\n      0xffffffffffffffffffffffffffffffffffffffff\n      and\n      dup2\n      mstore\n      0x20\n      add\n        /* \"Date.sol\":2177:2183  target */\n      dup4\n        /* \"Date.sol\":2159:2184  Match(msg.sender, target) */\n      0xffffffffffffffffffffffffffffffffffffffff\n      and\n      dup2\n      mstore\n      pop\n        /* \"Date.sol\":2146:2185  matches.push(Match(msg.sender, target)) */\n      swap1\n      dup1\n      0x01\n      dup2\n      sload\n      add\n      dup1\n      dup3\n      sstore\n      dup1\n      swap2\n      pop\n      pop\n      0x01\n      swap1\n      sub\n      swap1\n      0x00\n      mstore\n      keccak256(0x00, 0x20)\n      swap1\n      0x02\n      mul\n      add\n      0x00\n      swap1\n      swap2\n      swap1\n      swap2\n      swap1\n      swap2\n      pop\n      0x00\n      dup3\n      add\n      mload\n      dup2\n      0x00\n      add\n      exp(0x0100, 0x00)\n      dup2\n      sload\n      dup2\n      0xffffffffffffffffffffffffffffffffffffffff\n      mul\n      not\n      and\n      swap1\n      dup4\n      0xffffffffffffffffffffffffffffffffffffffff\n      and\n      mul\n      or\n      swap1\n      sstore\n      pop\n      0x20\n      dup3\n      add\n      mload\n      dup2\n      0x01\n      add\n      exp(0x0100, 0x00)\n      dup2\n      sload\n      dup2\n      0xffffffffffffffffffffffffffffffffffffffff\n      mul\n      not\n      and\n      swap1\n      dup4\n      0xffffffffffffffffffffffffffffffffffffffff\n      and\n      mul\n      or\n      swap1\n      sstore\n      pop\n      pop\n      pop\n        /* \"Date.sol\":2276:2306  hasMatched(target, msg.sender) */\n      tag_291\n        /* \"Date.sol\":2287:2293  target */\n      dup2\n        /* \"Date.sol\":2295:2305  msg.sender */\n      caller\n        /* \"Date.sol\":2276:2286  hasMatched */\n      tag_188\n        /* \"Date.sol\":2276:2306  hasMatched(target, msg.sender) */\n      jump\t// in\n    tag_291:\n        /* \"Date.sol\":2272:2320  if (hasMatched(target, msg.sender)) {... */\n      pop\n        /* \"Date.sol\":1688:2327  function likeUser(address target) external {... */\n      pop\n      jump\t// out\n        /* \"Date.sol\":4043:4190  function getRequestStatus(address sender) external view returns (bool) {... */\n    tag_120:\n        /* \"Date.sol\":4108:4112  bool */\n      0x00\n        /* \"Date.sol\":4043:4190  function getRequestStatus(address sender) external view returns (bool) {... */\n      swap2\n      swap1\n      pop\n      jump\t// out\n        /* \"Date.sol\":769:788  IERC20 public token */\n    tag_123:\n      0x08\n      0x00\n      swap1\n      sload\n      swap1\n      0x0100\n      exp\n      swap1\n      div\n      0xffffffffffffffffffffffffffffffffffffffff\n      and\n      dup2\n      jump\t// out\n        /* \"@openzeppelin/contracts/utils/Context.sol\":656:752  function _msgSender() internal view virtual returns (address) {... */\n    tag_135:\n        /* \"@openzeppelin/contracts/utils/Context.sol\":709:716  address */\n      0x00\n        /* \"@openzeppelin/contracts/utils/Context.sol\":735:745  msg.sender */\n      caller\n        /* \"@openzeppelin/contracts/utils/Context.sol\":728:745  return msg.sender */\n      swap1\n      pop\n        /* \"@openzeppelin/contracts/utils/Context.sol\":656:752  function _msgSender() internal view virtual returns (address) {... */\n      swap1\n      jump\t// out\n        /* \"@openzeppelin/contracts/token/ERC20/ERC20.sol\":8989:9117  function _approve(address owner, address spender, uint256 value) internal {... */\n    tag_137:\n        /* \"@openzeppelin/contracts/token/ERC20/ERC20.sol\":9073:9110  _approve(owner, spender, value, true) */\n      tag_296\n        /* \"@openzeppelin/contracts/token/ERC20/ERC20.sol\":9082:9087  owner */\n      dup4\n        /* \"@openzeppelin/contracts/token/ERC20/ERC20.sol\":9089:9096  spender */\n      dup4\n        /* \"@openzeppelin/contracts/token/ERC20/ERC20.sol\":9098:9103  value */\n      dup4\n        /* \"@openzeppelin/contracts/token/ERC20/ERC20.sol\":9105:9109  true */\n      0x01\n        /* \"@openzeppelin/contracts/token/ERC20/ERC20.sol\":9073:9081  _approve */\n      tag_297\n        /* \"@openzeppelin/contracts/token/ERC20/ERC20.sol\":9073:9110  _approve(owner, spender, value, true) */\n      jump\t// in\n    tag_296:\n        /* \"@openzeppelin/contracts/token/ERC20/ERC20.sol\":8989:9117  function _approve(address owner, address spender, uint256 value) internal {... */\n      pop\n      pop\n      pop\n      jump\t// out\n        /* \"@openzeppelin/contracts/token/ERC20/ERC20.sol\":10663:11140  function _spendAllowance(address owner, address spender, uint256 value) internal virtual {... */\n    tag_142:\n        /* \"@openzeppelin/contracts/token/ERC20/ERC20.sol\":10762:10786  uint256 currentAllowance */\n      0x00\n        /* \"@openzeppelin/contracts/token/ERC20/ERC20.sol\":10789:10814  allowance(owner, spender) */\n      tag_299\n        /* \"@openzeppelin/contracts/token/ERC20/ERC20.sol\":10799:10804  owner */\n      dup5\n        /* \"@openzeppelin/contracts/token/ERC20/ERC20.sol\":10806:10813  spender */\n      dup5\n        /* \"@openzeppelin/contracts/token/ERC20/ERC20.sol\":10789:10798  allowance */\n      tag_109\n        /* \"@openzeppelin/contracts/token/ERC20/ERC20.sol\":10789:10814  allowance(owner, spender) */\n      jump\t// in\n    tag_299:\n        /* \"@openzeppelin/contracts/token/ERC20/ERC20.sol\":10762:10814  uint256 currentAllowance = allowance(owner, spender) */\n      swap1\n      pop\n        /* \"@openzeppelin/contracts/token/ERC20/ERC20.sol\":10848:10865  type(uint256).max */\n      0xffffffffffffffffffffffffffffffffffffffffffffffffffffffffffffffff\n        /* \"@openzeppelin/contracts/token/ERC20/ERC20.sol\":10828:10844  currentAllowance */\n      dup2\n        /* \"@openzeppelin/contracts/token/ERC20/ERC20.sol\":10828:10865  currentAllowance != type(uint256).max */\n      eq\n        /* \"@openzeppelin/contracts/token/ERC20/ERC20.sol\":10824:11134  if (currentAllowance != type(uint256).max) {... */\n      tag_300\n      jumpi\n        /* \"@openzeppelin/contracts/token/ERC20/ERC20.sol\":10904:10909  value */\n      dup2\n        /* \"@openzeppelin/contracts/token/ERC20/ERC20.sol\":10885:10901  currentAllowance */\n      dup2\n        /* \"@openzeppelin/contracts/token/ERC20/ERC20.sol\":10885:10909  currentAllowance < value */\n      lt\n        /* \"@openzeppelin/contracts/token/ERC20/ERC20.sol\":10881:11011  if (currentAllowance < value) {... */\n      iszero\n      tag_301\n      jumpi\n        /* \"@openzeppelin/contracts/token/ERC20/ERC20.sol\":10963:10970  spender */\n      dup3\n        /* \"@openzeppelin/contracts/token/ERC20/ERC20.sol\":10972:10988  currentAllowance */\n      dup2\n        /* \"@openzeppelin/contracts/token/ERC20/ERC20.sol\":10990:10995  value */\n      dup4\n        /* \"@openzeppelin/contracts/token/ERC20/ERC20.sol\":10936:10996  ERC20InsufficientAllowance(spender, currentAllowance, value) */\n      mload(0x40)\n      0xfb8f41b200000000000000000000000000000000000000000000000000000000\n      dup2\n      mstore\n      0x04\n      add\n      tag_302\n      swap4\n      swap3\n      swap2\n      swap1\n      tag_303\n      jump\t// in\n    tag_302:\n      mload(0x40)\n      dup1\n      swap2\n      sub\n      swap1\n      revert\n        /* \"@openzeppelin/contracts/token/ERC20/ERC20.sol\":10881:11011  if (currentAllowance < value) {... */\n    tag_301:\n        /* \"@openzeppelin/contracts/token/ERC20/ERC20.sol\":11052:11109  _approve(owner, spender, currentAllowance - value, false) */\n      tag_304\n        /* \"@openzeppelin/contracts/token/ERC20/ERC20.sol\":11061:11066  owner */\n      dup5\n        /* \"@openzeppelin/contracts/token/ERC20/ERC20.sol\":11068:11075  spender */\n      dup5\n        /* \"@openzeppelin/contracts/token/ERC20/ERC20.sol\":11096:11101  value */\n      dup5\n        /* \"@openzeppelin/contracts/token/ERC20/ERC20.sol\":11077:11093  currentAllowance */\n      dup5\n        /* \"@openzeppelin/contracts/token/ERC20/ERC20.sol\":11077:11101  currentAllowance - value */\n      sub\n        /* \"@openzeppelin/contracts/token/ERC20/ERC20.sol\":11103:11108  false */\n      0x00\n        /* \"@openzeppelin/contracts/token/ERC20/ERC20.sol\":11052:11060  _approve */\n      tag_297\n        /* \"@openzeppelin/contracts/token/ERC20/ERC20.sol\":11052:11109  _approve(owner, spender, currentAllowance - value, false) */\n      jump\t// in\n    tag_304:\n        /* \"@openzeppelin/contracts/token/ERC20/ERC20.sol\":10824:11134  if (currentAllowance != type(uint256).max) {... */\n    tag_300:\n        /* \"@openzeppelin/contracts/token/ERC20/ERC20.sol\":10752:11140  {... */\n      pop\n        /* \"@openzeppelin/contracts/token/ERC20/ERC20.sol\":10663:11140  function _spendAllowance(address owner, address spender, uint256 value) internal virtual {... */\n      pop\n      pop\n      pop\n      jump\t// out\n        /* \"@openzeppelin/contracts/token/ERC20/ERC20.sol\":5656:5956  function _transfer(address from, address to, uint256 value) internal {... */\n    tag_144:\n        /* \"@openzeppelin/contracts/token/ERC20/ERC20.sol\":5755:5756  0 */\n      0x00\n        /* \"@openzeppelin/contracts/token/ERC20/ERC20.sol\":5739:5757  from == address(0) */\n      0xffffffffffffffffffffffffffffffffffffffff\n      and\n        /* \"@openzeppelin/contracts/token/ERC20/ERC20.sol\":5739:5743  from */\n      dup4\n        /* \"@openzeppelin/contracts/token/ERC20/ERC20.sol\":5739:5757  from == address(0) */\n      0xffffffffffffffffffffffffffffffffffffffff\n      and\n      sub\n        /* \"@openzeppelin/contracts/token/ERC20/ERC20.sol\":5735:5821  if (from == address(0)) {... */\n      tag_306\n      jumpi\n        /* \"@openzeppelin/contracts/token/ERC20/ERC20.sol\":5807:5808  0 */\n      0x00\n        /* \"@openzeppelin/contracts/token/ERC20/ERC20.sol\":5780:5810  ERC20InvalidSender(address(0)) */\n      mload(0x40)\n      0x96c6fd1e00000000000000000000000000000000000000000000000000000000\n      dup2\n      mstore\n      0x04\n      add\n      tag_307\n      swap2\n      swap1\n      tag_308\n      jump\t// in\n    tag_307:\n      mload(0x40)\n      dup1\n      swap2\n      sub\n      swap1\n      revert\n        /* \"@openzeppelin/contracts/token/ERC20/ERC20.sol\":5735:5821  if (from == address(0)) {... */\n    tag_306:\n        /* \"@openzeppelin/contracts/token/ERC20/ERC20.sol\":5848:5849  0 */\n      0x00\n        /* \"@openzeppelin/contracts/token/ERC20/ERC20.sol\":5834:5850  to == address(0) */\n      0xffffffffffffffffffffffffffffffffffffffff\n      and\n        /* \"@openzeppelin/contracts/token/ERC20/ERC20.sol\":5834:5836  to */\n      dup3\n        /* \"@openzeppelin/contracts/token/ERC20/ERC20.sol\":5834:5850  to == address(0) */\n      0xffffffffffffffffffffffffffffffffffffffff\n      and\n      sub\n        /* \"@openzeppelin/contracts/token/ERC20/ERC20.sol\":5830:5916  if (to == address(0)) {... */\n      tag_309\n      jumpi\n        /* \"@openzeppelin/contracts/token/ERC20/ERC20.sol\":5902:5903  0 */\n      0x00\n        /* \"@openzeppelin/contracts/token/ERC20/ERC20.sol\":5873:5905  ERC20InvalidReceiver(address(0)) */\n      mload(0x40)\n      0xec442f0500000000000000000000000000000000000000000000000000000000\n      dup2\n      mstore\n      0x04\n      add\n      tag_310\n      swap2\n      swap1\n      tag_308\n      jump\t// in\n    tag_310:\n      mload(0x40)\n      dup1\n      swap2\n      sub\n      swap1\n      revert\n        /* \"@openzeppelin/contracts/token/ERC20/ERC20.sol\":5830:5916  if (to == address(0)) {... */\n    tag_309:\n        /* \"@openzeppelin/contracts/token/ERC20/ERC20.sol\":5925:5949  _update(from, to, value) */\n      tag_311\n        /* \"@openzeppelin/contracts/token/ERC20/ERC20.sol\":5933:5937  from */\n      dup4\n        /* \"@openzeppelin/contracts/token/ERC20/ERC20.sol\":5939:5941  to */\n      dup4\n        /* \"@openzeppelin/contracts/token/ERC20/ERC20.sol\":5943:5948  value */\n      dup4\n        /* \"@openzeppelin/contracts/token/ERC20/ERC20.sol\":5925:5932  _update */\n      tag_312\n        /* \"@openzeppelin/contracts/token/ERC20/ERC20.sol\":5925:5949  _update(from, to, value) */\n      jump\t// in\n    tag_311:\n        /* \"@openzeppelin/contracts/token/ERC20/ERC20.sol\":5656:5956  function _transfer(address from, address to, uint256 value) internal {... */\n      pop\n      pop\n      pop\n      jump\t// out\n        /* \"Date.sol\":5679:6205  function calculateRewardAmount(address target) internal view returns (uint256) {... */\n    tag_174:\n        /* \"Date.sol\":5749:5756  uint256 */\n      0x00\n        /* \"Date.sol\":5817:5818  0 */\n      dup1\n        /* \"Date.sol\":5777:5789  userProfiles */\n      0x05\n        /* \"Date.sol\":5777:5797  userProfiles[target] */\n      0x00\n        /* \"Date.sol\":5790:5796  target */\n      dup5\n        /* \"Date.sol\":5777:5797  userProfiles[target] */\n      0xffffffffffffffffffffffffffffffffffffffff\n      and\n      0xffffffffffffffffffffffffffffffffffffffff\n      and\n      dup2\n      mstore\n      0x20\n      add\n      swap1\n      dup2\n      mstore\n      0x20\n      add\n      0x00\n      keccak256\n        /* \"Date.sol\":5777:5814  userProfiles[target].interactionCount */\n      0x04\n      add\n      sload\n        /* \"Date.sol\":5777:5818  userProfiles[target].interactionCount > 0 */\n      gt\n        /* \"Date.sol\":5769:5858  require(userProfiles[target].interactionCount > 0, \"Target user must have interactions.\") */\n      tag_314\n      jumpi\n      mload(0x40)\n      0x08c379a000000000000000000000000000000000000000000000000000000000\n      dup2\n      mstore\n      0x04\n      add\n      tag_315\n      swap1\n      tag_316\n      jump\t// in\n    tag_315:\n      mload(0x40)\n      dup1\n      swap2\n      sub\n      swap1\n      revert\n    tag_314:\n        /* \"Date.sol\":5871:5889  uint256 baseReward */\n      0x00\n        /* \"Date.sol\":5892:5893  1 */\n      0x01\n        /* \"Date.sol\":5871:5893  uint256 baseReward = 1 */\n      swap1\n      pop\n        /* \"Date.sol\":5904:5930  uint256 targetInteractions */\n      0x00\n        /* \"Date.sol\":5933:5945  userProfiles */\n      0x05\n        /* \"Date.sol\":5933:5953  userProfiles[target] */\n      0x00\n        /* \"Date.sol\":5946:5952  target */\n      dup6\n        /* \"Date.sol\":5933:5953  userProfiles[target] */\n      0xffffffffffffffffffffffffffffffffffffffff\n      and\n      0xffffffffffffffffffffffffffffffffffffffff\n      and\n      dup2\n      mstore\n      0x20\n      add\n      swap1\n      dup2\n      mstore\n      0x20\n      add\n      0x00\n      keccak256\n        /* \"Date.sol\":5933:5970  userProfiles[target].interactionCount */\n      0x04\n      add\n      sload\n        /* \"Date.sol\":5904:5970  uint256 targetInteractions = userProfiles[target].interactionCount */\n      swap1\n      pop\n        /* \"Date.sol\":5981:6001  uint256 rewardAmount */\n      0x00\n        /* \"Date.sol\":6017:6035  targetInteractions */\n      dup2\n        /* \"Date.sol\":6004:6014  baseReward */\n      dup4\n        /* \"Date.sol\":6004:6035  baseReward + targetInteractions */\n      tag_317\n      swap2\n      swap1\n      tag_318\n      jump\t// in\n    tag_317:\n        /* \"Date.sol\":5981:6035  uint256 rewardAmount = baseReward + targetInteractions */\n      swap1\n      pop\n        /* \"Date.sol\":6046:6063  uint256 maxReward */\n      0x00\n        /* \"Date.sol\":6066:6068  10 */\n      0x0a\n        /* \"Date.sol\":6046:6068  uint256 maxReward = 10 */\n      swap1\n      pop\n        /* \"Date.sol\":6100:6109  maxReward */\n      dup1\n        /* \"Date.sol\":6085:6097  rewardAmount */\n      dup3\n        /* \"Date.sol\":6085:6109  rewardAmount > maxReward */\n      gt\n        /* \"Date.sol\":6081:6162  if (rewardAmount > maxReward) {... */\n      iszero\n      tag_319\n      jumpi\n        /* \"Date.sol\":6141:6150  maxReward */\n      dup1\n        /* \"Date.sol\":6126:6150  rewardAmount = maxReward */\n      swap2\n      pop\n        /* \"Date.sol\":6081:6162  if (rewardAmount > maxReward) {... */\n    tag_319:\n        /* \"Date.sol\":6181:6193  rewardAmount */\n      dup2\n        /* \"Date.sol\":6174:6193  return rewardAmount */\n      swap5\n      pop\n      pop\n      pop\n      pop\n      pop\n        /* \"Date.sol\":5679:6205  function calculateRewardAmount(address target) internal view returns (uint256) {... */\n      swap2\n      swap1\n      pop\n      jump\t// out\n        /* \"Date.sol\":5263:5671  function hasMatched(address user1, address user2) internal view returns (bool) {... */\n    tag_188:\n        /* \"Date.sol\":5336:5340  bool */\n      0x00\n        /* \"Date.sol\":5358:5367  uint256 i */\n      dup1\n        /* \"Date.sol\":5370:5371  0 */\n      0x00\n        /* \"Date.sol\":5358:5371  uint256 i = 0 */\n      swap1\n      pop\n        /* \"Date.sol\":5353:5641  for (uint256 i = 0; i < matches.length; i++) {... */\n    tag_321:\n        /* \"Date.sol\":5377:5384  matches */\n      0x06\n        /* \"Date.sol\":5377:5391  matches.length */\n      dup1\n      sload\n      swap1\n      pop\n        /* \"Date.sol\":5373:5374  i */\n      dup2\n        /* \"Date.sol\":5373:5391  i < matches.length */\n      lt\n        /* \"Date.sol\":5353:5641  for (uint256 i = 0; i < matches.length; i++) {... */\n      iszero\n      tag_322\n      jumpi\n        /* \"Date.sol\":5456:5461  user1 */\n      dup4\n        /* \"Date.sol\":5436:5461  matches[i].user1 == user1 */\n      0xffffffffffffffffffffffffffffffffffffffff\n      and\n        /* \"Date.sol\":5436:5443  matches */\n      0x06\n        /* \"Date.sol\":5444:5445  i */\n      dup3\n        /* \"Date.sol\":5436:5446  matches[i] */\n      dup2\n      sload\n      dup2\n      lt\n      tag_324\n      jumpi\n      tag_325\n      tag_200\n      jump\t// in\n    tag_325:\n    tag_324:\n      swap1\n      0x00\n      mstore\n      keccak256(0x00, 0x20)\n      swap1\n      0x02\n      mul\n      add\n        /* \"Date.sol\":5436:5452  matches[i].user1 */\n      0x00\n      add\n      0x00\n      swap1\n      sload\n      swap1\n      0x0100\n      exp\n      swap1\n      div\n      0xffffffffffffffffffffffffffffffffffffffff\n      and\n        /* \"Date.sol\":5436:5461  matches[i].user1 == user1 */\n      0xffffffffffffffffffffffffffffffffffffffff\n      and\n      eq\n        /* \"Date.sol\":5436:5490  matches[i].user1 == user1 && matches[i].user2 == user2 */\n      dup1\n      iszero\n      tag_327\n      jumpi\n      pop\n        /* \"Date.sol\":5485:5490  user2 */\n      dup3\n        /* \"Date.sol\":5465:5490  matches[i].user2 == user2 */\n      0xffffffffffffffffffffffffffffffffffffffff\n      and\n        /* \"Date.sol\":5465:5472  matches */\n      0x06\n        /* \"Date.sol\":5473:5474  i */\n      dup3\n        /* \"Date.sol\":5465:5475  matches[i] */\n      dup2\n      sload\n      dup2\n      lt\n      tag_328\n      jumpi\n      tag_329\n      tag_200\n      jump\t// in\n    tag_329:\n    tag_328:\n      swap1\n      0x00\n      mstore\n      keccak256(0x00, 0x20)\n      swap1\n      0x02\n      mul\n      add\n        /* \"Date.sol\":5465:5481  matches[i].user2 */\n      0x01\n      add\n      0x00\n      swap1\n      sload\n      swap1\n      0x0100\n      exp\n      swap1\n      div\n      0xffffffffffffffffffffffffffffffffffffffff\n      and\n        /* \"Date.sol\":5465:5490  matches[i].user2 == user2 */\n      0xffffffffffffffffffffffffffffffffffffffff\n      and\n      eq\n        /* \"Date.sol\":5436:5490  matches[i].user1 == user1 && matches[i].user2 == user2 */\n    tag_327:\n        /* \"Date.sol\":5435:5568  (matches[i].user1 == user1 && matches[i].user2 == user2) ||... */\n      dup1\n      tag_331\n      jumpi\n      pop\n        /* \"Date.sol\":5533:5538  user2 */\n      dup3\n        /* \"Date.sol\":5513:5538  matches[i].user1 == user2 */\n      0xffffffffffffffffffffffffffffffffffffffff\n      and\n        /* \"Date.sol\":5513:5520  matches */\n      0x06\n        /* \"Date.sol\":5521:5522  i */\n      dup3\n        /* \"Date.sol\":5513:5523  matches[i] */\n      dup2\n      sload\n      dup2\n      lt\n      tag_332\n      jumpi\n      tag_333\n      tag_200\n      jump\t// in\n    tag_333:\n    tag_332:\n      swap1\n      0x00\n      mstore\n      keccak256(0x00, 0x20)\n      swap1\n      0x02\n      mul\n      add\n        /* \"Date.sol\":5513:5529  matches[i].user1 */\n      0x00\n      add\n      0x00\n      swap1\n      sload\n      swap1\n      0x0100\n      exp\n      swap1\n      div\n      0xffffffffffffffffffffffffffffffffffffffff\n      and\n        /* \"Date.sol\":5513:5538  matches[i].user1 == user2 */\n      0xffffffffffffffffffffffffffffffffffffffff\n      and\n      eq\n        /* \"Date.sol\":5513:5567  matches[i].user1 == user2 && matches[i].user2 == user1 */\n      dup1\n      iszero\n      tag_335\n      jumpi\n      pop\n        /* \"Date.sol\":5562:5567  user1 */\n      dup4\n        /* \"Date.sol\":5542:5567  matches[i].user2 == user1 */\n      0xffffffffffffffffffffffffffffffffffffffff\n      and\n        /* \"Date.sol\":5542:5549  matches */\n      0x06\n        /* \"Date.sol\":5550:5551  i */\n      dup3\n        /* \"Date.sol\":5542:5552  matches[i] */\n      dup2\n      sload\n      dup2\n      lt\n      tag_336\n      jumpi\n      tag_337\n      tag_200\n      jump\t// in\n    tag_337:\n    tag_336:\n      swap1\n      0x00\n      mstore\n      keccak256(0x00, 0x20)\n      swap1\n      0x02\n      mul\n      add\n        /* \"Date.sol\":5542:5558  matches[i].user2 */\n      0x01\n      add\n      0x00\n      swap1\n      sload\n      swap1\n      0x0100\n      exp\n      swap1\n      div\n      0xffffffffffffffffffffffffffffffffffffffff\n      and\n        /* \"Date.sol\":5542:5567  matches[i].user2 == user1 */\n      0xffffffffffffffffffffffffffffffffffffffff\n      and\n      eq\n        /* \"Date.sol\":5513:5567  matches[i].user1 == user2 && matches[i].user2 == user1 */\n    tag_335:\n        /* \"Date.sol\":5435:5568  (matches[i].user1 == user1 && matches[i].user2 == user2) ||... */\n    tag_331:\n        /* \"Date.sol\":5413:5630  if (... */\n      iszero\n      tag_339\n      jumpi\n        /* \"Date.sol\":5610:5614  true */\n      0x01\n        /* \"Date.sol\":5603:5614  return true */\n      swap2\n      pop\n      pop\n      jump(tag_320)\n        /* \"Date.sol\":5413:5630  if (... */\n    tag_339:\n        /* \"Date.sol\":5393:5396  i++ */\n      dup1\n      dup1\n      tag_340\n      swap1\n      tag_177\n      jump\t// in\n    tag_340:\n      swap2\n      pop\n      pop\n        /* \"Date.sol\":5353:5641  for (uint256 i = 0; i < matches.length; i++) {... */\n      jump(tag_321)\n    tag_322:\n      pop\n        /* \"Date.sol\":5658:5663  false */\n      0x00\n        /* \"Date.sol\":5651:5663  return false */\n      swap1\n      pop\n        /* \"Date.sol\":5263:5671  function hasMatched(address user1, address user2) internal view returns (bool) {... */\n    tag_320:\n      swap3\n      swap2\n      pop\n      pop\n      jump\t// out\n        /* \"@openzeppelin/contracts/token/ERC20/ERC20.sol\":9949:10381  function _approve(address owner, address spender, uint256 value, bool emitEvent) internal virtual {... */\n    tag_297:\n        /* \"@openzeppelin/contracts/token/ERC20/ERC20.sol\":10078:10079  0 */\n      0x00\n        /* \"@openzeppelin/contracts/token/ERC20/ERC20.sol\":10061:10080  owner == address(0) */\n      0xffffffffffffffffffffffffffffffffffffffff\n      and\n        /* \"@openzeppelin/contracts/token/ERC20/ERC20.sol\":10061:10066  owner */\n      dup5\n        /* \"@openzeppelin/contracts/token/ERC20/ERC20.sol\":10061:10080  owner == address(0) */\n      0xffffffffffffffffffffffffffffffffffffffff\n      and\n      sub\n        /* \"@openzeppelin/contracts/token/ERC20/ERC20.sol\":10057:10146  if (owner == address(0)) {... */\n      tag_342\n      jumpi\n        /* \"@openzeppelin/contracts/token/ERC20/ERC20.sol\":10132:10133  0 */\n      0x00\n        /* \"@openzeppelin/contracts/token/ERC20/ERC20.sol\":10103:10135  ERC20InvalidApprover(address(0)) */\n      mload(0x40)\n      0xe602df0500000000000000000000000000000000000000000000000000000000\n      dup2\n      mstore\n      0x04\n      add\n      tag_343\n      swap2\n      swap1\n      tag_308\n      jump\t// in\n    tag_343:\n      mload(0x40)\n      dup1\n      swap2\n      sub\n      swap1\n      revert\n        /* \"@openzeppelin/contracts/token/ERC20/ERC20.sol\":10057:10146  if (owner == address(0)) {... */\n    tag_342:\n        /* \"@openzeppelin/contracts/token/ERC20/ERC20.sol\":10178:10179  0 */\n      0x00\n        /* \"@openzeppelin/contracts/token/ERC20/ERC20.sol\":10159:10180  spender == address(0) */\n      0xffffffffffffffffffffffffffffffffffffffff\n      and\n        /* \"@openzeppelin/contracts/token/ERC20/ERC20.sol\":10159:10166  spender */\n      dup4\n        /* \"@openzeppelin/contracts/token/ERC20/ERC20.sol\":10159:10180  spender == address(0) */\n      0xffffffffffffffffffffffffffffffffffffffff\n      and\n      sub\n        /* \"@openzeppelin/contracts/token/ERC20/ERC20.sol\":10155:10245  if (spender == address(0)) {... */\n      tag_344\n      jumpi\n        /* \"@openzeppelin/contracts/token/ERC20/ERC20.sol\":10231:10232  0 */\n      0x00\n        /* \"@openzeppelin/contracts/token/ERC20/ERC20.sol\":10203:10234  ERC20InvalidSpender(address(0)) */\n      mload(0x40)\n      0x94280d6200000000000000000000000000000000000000000000000000000000\n      dup2\n      mstore\n      0x04\n      add\n      tag_345\n      swap2\n      swap1\n      tag_308\n      jump\t// in\n    tag_345:\n      mload(0x40)\n      dup1\n      swap2\n      sub\n      swap1\n      revert\n        /* \"@openzeppelin/contracts/token/ERC20/ERC20.sol\":10155:10245  if (spender == address(0)) {... */\n    tag_344:\n        /* \"@openzeppelin/contracts/token/ERC20/ERC20.sol\":10284:10289  value */\n      dup2\n        /* \"@openzeppelin/contracts/token/ERC20/ERC20.sol\":10254:10265  _allowances */\n      0x01\n        /* \"@openzeppelin/contracts/token/ERC20/ERC20.sol\":10254:10272  _allowances[owner] */\n      0x00\n        /* \"@openzeppelin/contracts/token/ERC20/ERC20.sol\":10266:10271  owner */\n      dup7\n        /* \"@openzeppelin/contracts/token/ERC20/ERC20.sol\":10254:10272  _allowances[owner] */\n      0xffffffffffffffffffffffffffffffffffffffff\n      and\n      0xffffffffffffffffffffffffffffffffffffffff\n      and\n      dup2\n      mstore\n      0x20\n      add\n      swap1\n      dup2\n      mstore\n      0x20\n      add\n      0x00\n      keccak256\n        /* \"@openzeppelin/contracts/token/ERC20/ERC20.sol\":10254:10281  _allowances[owner][spender] */\n      0x00\n        /* \"@openzeppelin/contracts/token/ERC20/ERC20.sol\":10273:10280  spender */\n      dup6\n        /* \"@openzeppelin/contracts/token/ERC20/ERC20.sol\":10254:10281  _allowances[owner][spender] */\n      0xffffffffffffffffffffffffffffffffffffffff\n      and\n      0xffffffffffffffffffffffffffffffffffffffff\n      and\n      dup2\n      mstore\n      0x20\n      add\n      swap1\n      dup2\n      mstore\n      0x20\n      add\n      0x00\n      keccak256\n        /* \"@openzeppelin/contracts/token/ERC20/ERC20.sol\":10254:10289  _allowances[owner][spender] = value */\n      dup2\n      swap1\n      sstore\n      pop\n        /* \"@openzeppelin/contracts/token/ERC20/ERC20.sol\":10303:10312  emitEvent */\n      dup1\n        /* \"@openzeppelin/contracts/token/ERC20/ERC20.sol\":10299:10375  if (emitEvent) {... */\n      iszero\n      tag_346\n      jumpi\n        /* \"@openzeppelin/contracts/token/ERC20/ERC20.sol\":10349:10356  spender */\n      dup3\n        /* \"@openzeppelin/contracts/token/ERC20/ERC20.sol\":10333:10364  Approval(owner, spender, value) */\n      0xffffffffffffffffffffffffffffffffffffffff\n      and\n        /* \"@openzeppelin/contracts/token/ERC20/ERC20.sol\":10342:10347  owner */\n      dup5\n        /* \"@openzeppelin/contracts/token/ERC20/ERC20.sol\":10333:10364  Approval(owner, spender, value) */\n      0xffffffffffffffffffffffffffffffffffffffff\n      and\n      0x8c5be1e5ebec7d5bd14f71427d1e84f3dd0314c0f7b2291e5b200ac8c7c3b925\n        /* \"@openzeppelin/contracts/token/ERC20/ERC20.sol\":10358:10363  value */\n      dup5\n        /* \"@openzeppelin/contracts/token/ERC20/ERC20.sol\":10333:10364  Approval(owner, spender, value) */\n      mload(0x40)\n      tag_347\n      swap2\n      swap1\n      tag_42\n      jump\t// in\n    tag_347:\n      mload(0x40)\n      dup1\n      swap2\n      sub\n      swap1\n      log3\n        /* \"@openzeppelin/contracts/token/ERC20/ERC20.sol\":10299:10375  if (emitEvent) {... */\n    tag_346:\n        /* \"@openzeppelin/contracts/token/ERC20/ERC20.sol\":9949:10381  function _approve(address owner, address spender, uint256 value, bool emitEvent) internal virtual {... */\n      pop\n      pop\n      pop\n      pop\n      jump\t// out\n        /* \"@openzeppelin/contracts/token/ERC20/ERC20.sol\":6271:7378  function _update(address from, address to, uint256 value) internal virtual {... */\n    tag_312:\n        /* \"@openzeppelin/contracts/token/ERC20/ERC20.sol\":6376:6377  0 */\n      0x00\n        /* \"@openzeppelin/contracts/token/ERC20/ERC20.sol\":6360:6378  from == address(0) */\n      0xffffffffffffffffffffffffffffffffffffffff\n      and\n        /* \"@openzeppelin/contracts/token/ERC20/ERC20.sol\":6360:6364  from */\n      dup4\n        /* \"@openzeppelin/contracts/token/ERC20/ERC20.sol\":6360:6378  from == address(0) */\n      0xffffffffffffffffffffffffffffffffffffffff\n      and\n      sub\n        /* \"@openzeppelin/contracts/token/ERC20/ERC20.sol\":6356:6896  if (from == address(0)) {... */\n      tag_349\n      jumpi\n        /* \"@openzeppelin/contracts/token/ERC20/ERC20.sol\":6512:6517  value */\n      dup1\n        /* \"@openzeppelin/contracts/token/ERC20/ERC20.sol\":6496:6508  _totalSupply */\n      0x02\n      0x00\n        /* \"@openzeppelin/contracts/token/ERC20/ERC20.sol\":6496:6517  _totalSupply += value */\n      dup3\n      dup3\n      sload\n      tag_350\n      swap2\n      swap1\n      tag_318\n      jump\t// in\n    tag_350:\n      swap3\n      pop\n      pop\n      dup2\n      swap1\n      sstore\n      pop\n        /* \"@openzeppelin/contracts/token/ERC20/ERC20.sol\":6356:6896  if (from == address(0)) {... */\n      jump(tag_351)\n    tag_349:\n        /* \"@openzeppelin/contracts/token/ERC20/ERC20.sol\":6548:6567  uint256 fromBalance */\n      0x00\n        /* \"@openzeppelin/contracts/token/ERC20/ERC20.sol\":6570:6579  _balances */\n      dup1\n        /* \"@openzeppelin/contracts/token/ERC20/ERC20.sol\":6570:6585  _balances[from] */\n      0x00\n        /* \"@openzeppelin/contracts/token/ERC20/ERC20.sol\":6580:6584  from */\n      dup6\n        /* \"@openzeppelin/contracts/token/ERC20/ERC20.sol\":6570:6585  _balances[from] */\n      0xffffffffffffffffffffffffffffffffffffffff\n      and\n      0xffffffffffffffffffffffffffffffffffffffff\n      and\n      dup2\n      mstore\n      0x20\n      add\n      swap1\n      dup2\n      mstore\n      0x20\n      add\n      0x00\n      keccak256\n      sload\n        /* \"@openzeppelin/contracts/token/ERC20/ERC20.sol\":6548:6585  uint256 fromBalance = _balances[from] */\n      swap1\n      pop\n        /* \"@openzeppelin/contracts/token/ERC20/ERC20.sol\":6617:6622  value */\n      dup2\n        /* \"@openzeppelin/contracts/token/ERC20/ERC20.sol\":6603:6614  fromBalance */\n      dup2\n        /* \"@openzeppelin/contracts/token/ERC20/ERC20.sol\":6603:6622  fromBalance < value */\n      lt\n        /* \"@openzeppelin/contracts/token/ERC20/ERC20.sol\":6599:6714  if (fromBalance < value) {... */\n      iszero\n      tag_352\n      jumpi\n        /* \"@openzeppelin/contracts/token/ERC20/ERC20.sol\":6674:6678  from */\n      dup4\n        /* \"@openzeppelin/contracts/token/ERC20/ERC20.sol\":6680:6691  fromBalance */\n      dup2\n        /* \"@openzeppelin/contracts/token/ERC20/ERC20.sol\":6693:6698  value */\n      dup4\n        /* \"@openzeppelin/contracts/token/ERC20/ERC20.sol\":6649:6699  ERC20InsufficientBalance(from, fromBalance, value) */\n      mload(0x40)\n      0xe450d38c00000000000000000000000000000000000000000000000000000000\n      dup2\n      mstore\n      0x04\n      add\n      tag_353\n      swap4\n      swap3\n      swap2\n      swap1\n      tag_303\n      jump\t// in\n    tag_353:\n      mload(0x40)\n      dup1\n      swap2\n      sub\n      swap1\n      revert\n        /* \"@openzeppelin/contracts/token/ERC20/ERC20.sol\":6599:6714  if (fromBalance < value) {... */\n    tag_352:\n        /* \"@openzeppelin/contracts/token/ERC20/ERC20.sol\":6866:6871  value */\n      dup2\n        /* \"@openzeppelin/contracts/token/ERC20/ERC20.sol\":6852:6863  fromBalance */\n      dup2\n        /* \"@openzeppelin/contracts/token/ERC20/ERC20.sol\":6852:6871  fromBalance - value */\n      sub\n        /* \"@openzeppelin/contracts/token/ERC20/ERC20.sol\":6834:6843  _balances */\n      0x00\n        /* \"@openzeppelin/contracts/token/ERC20/ERC20.sol\":6834:6849  _balances[from] */\n      dup1\n        /* \"@openzeppelin/contracts/token/ERC20/ERC20.sol\":6844:6848  from */\n      dup7\n        /* \"@openzeppelin/contracts/token/ERC20/ERC20.sol\":6834:6849  _balances[from] */\n      0xffffffffffffffffffffffffffffffffffffffff\n      and\n      0xffffffffffffffffffffffffffffffffffffffff\n      and\n      dup2\n      mstore\n      0x20\n      add\n      swap1\n      dup2\n      mstore\n      0x20\n      add\n      0x00\n      keccak256\n        /* \"@openzeppelin/contracts/token/ERC20/ERC20.sol\":6834:6871  _balances[from] = fromBalance - value */\n      dup2\n      swap1\n      sstore\n      pop\n        /* \"@openzeppelin/contracts/token/ERC20/ERC20.sol\":6534:6896  {... */\n      pop\n        /* \"@openzeppelin/contracts/token/ERC20/ERC20.sol\":6356:6896  if (from == address(0)) {... */\n    tag_351:\n        /* \"@openzeppelin/contracts/token/ERC20/ERC20.sol\":6924:6925  0 */\n      0x00\n        /* \"@openzeppelin/contracts/token/ERC20/ERC20.sol\":6910:6926  to == address(0) */\n      0xffffffffffffffffffffffffffffffffffffffff\n      and\n        /* \"@openzeppelin/contracts/token/ERC20/ERC20.sol\":6910:6912  to */\n      dup3\n        /* \"@openzeppelin/contracts/token/ERC20/ERC20.sol\":6910:6926  to == address(0) */\n      0xffffffffffffffffffffffffffffffffffffffff\n      and\n      sub\n        /* \"@openzeppelin/contracts/token/ERC20/ERC20.sol\":6906:7331  if (to == address(0)) {... */\n      tag_354\n      jumpi\n        /* \"@openzeppelin/contracts/token/ERC20/ERC20.sol\":7089:7094  value */\n      dup1\n        /* \"@openzeppelin/contracts/token/ERC20/ERC20.sol\":7073:7085  _totalSupply */\n      0x02\n      0x00\n        /* \"@openzeppelin/contracts/token/ERC20/ERC20.sol\":7073:7094  _totalSupply -= value */\n      dup3\n      dup3\n      sload\n      sub\n      swap3\n      pop\n      pop\n      dup2\n      swap1\n      sstore\n      pop\n        /* \"@openzeppelin/contracts/token/ERC20/ERC20.sol\":6906:7331  if (to == address(0)) {... */\n      jump(tag_355)\n    tag_354:\n        /* \"@openzeppelin/contracts/token/ERC20/ERC20.sol\":7301:7306  value */\n      dup1\n        /* \"@openzeppelin/contracts/token/ERC20/ERC20.sol\":7284:7293  _balances */\n      0x00\n        /* \"@openzeppelin/contracts/token/ERC20/ERC20.sol\":7284:7297  _balances[to] */\n      dup1\n        /* \"@openzeppelin/contracts/token/ERC20/ERC20.sol\":7294:7296  to */\n      dup5\n        /* \"@openzeppelin/contracts/token/ERC20/ERC20.sol\":7284:7297  _balances[to] */\n      0xffffffffffffffffffffffffffffffffffffffff\n      and\n      0xffffffffffffffffffffffffffffffffffffffff\n      and\n      dup2\n      mstore\n      0x20\n      add\n      swap1\n      dup2\n      mstore\n      0x20\n      add\n      0x00\n      keccak256\n      0x00\n        /* \"@openzeppelin/contracts/token/ERC20/ERC20.sol\":7284:7306  _balances[to] += value */\n      dup3\n      dup3\n      sload\n      add\n      swap3\n      pop\n      pop\n      dup2\n      swap1\n      sstore\n      pop\n        /* \"@openzeppelin/contracts/token/ERC20/ERC20.sol\":6906:7331  if (to == address(0)) {... */\n    tag_355:\n        /* \"@openzeppelin/contracts/token/ERC20/ERC20.sol\":7361:7363  to */\n      dup2\n        /* \"@openzeppelin/contracts/token/ERC20/ERC20.sol\":7346:7371  Transfer(from, to, value) */\n      0xffffffffffffffffffffffffffffffffffffffff\n      and\n        /* \"@openzeppelin/contracts/token/ERC20/ERC20.sol\":7355:7359  from */\n      dup4\n        /* \"@openzeppelin/contracts/token/ERC20/ERC20.sol\":7346:7371  Transfer(from, to, value) */\n      0xffffffffffffffffffffffffffffffffffffffff\n      and\n      0xddf252ad1be2c89b69c2b068fc378daa952ba7f163c4a11628f55a4df523b3ef\n        /* \"@openzeppelin/contracts/token/ERC20/ERC20.sol\":7365:7370  value */\n      dup4\n        /* \"@openzeppelin/contracts/token/ERC20/ERC20.sol\":7346:7371  Transfer(from, to, value) */\n      mload(0x40)\n      tag_356\n      swap2\n      swap1\n      tag_42\n      jump\t// in\n    tag_356:\n      mload(0x40)\n      dup1\n      swap2\n      sub\n      swap1\n      log3\n        /* \"@openzeppelin/contracts/token/ERC20/ERC20.sol\":6271:7378  function _update(address from, address to, uint256 value) internal virtual {... */\n      pop\n      pop\n      pop\n      jump\t// out\n        /* \"#utility.yul\":7:106   */\n    tag_357:\n        /* \"#utility.yul\":59:65   */\n      0x00\n        /* \"#utility.yul\":93:98   */\n      dup2\n        /* \"#utility.yul\":87:99   */\n      mload\n        /* \"#utility.yul\":77:99   */\n      swap1\n      pop\n        /* \"#utility.yul\":7:106   */\n      swap2\n      swap1\n      pop\n      jump\t// out\n        /* \"#utility.yul\":112:281   */\n    tag_358:\n        /* \"#utility.yul\":196:207   */\n      0x00\n        /* \"#utility.yul\":230:236   */\n      dup3\n        /* \"#utility.yul\":225:228   */\n      dup3\n        /* \"#utility.yul\":218:237   */\n      mstore\n        /* \"#utility.yul\":270:274   */\n      0x20\n        /* \"#utility.yul\":265:268   */\n      dup3\n        /* \"#utility.yul\":261:275   */\n      add\n        /* \"#utility.yul\":246:275   */\n      swap1\n      pop\n        /* \"#utility.yul\":112:281   */\n      swap3\n      swap2\n      pop\n      pop\n      jump\t// out\n        /* \"#utility.yul\":287:533   */\n    tag_359:\n        /* \"#utility.yul\":368:369   */\n      0x00\n        /* \"#utility.yul\":378:491   */\n    tag_459:\n        /* \"#utility.yul\":392:398   */\n      dup4\n        /* \"#utility.yul\":389:390   */\n      dup2\n        /* \"#utility.yul\":386:399   */\n      lt\n        /* \"#utility.yul\":378:491   */\n      iszero\n      tag_461\n      jumpi\n        /* \"#utility.yul\":477:478   */\n      dup1\n        /* \"#utility.yul\":472:475   */\n      dup3\n        /* \"#utility.yul\":468:479   */\n      add\n        /* \"#utility.yul\":462:480   */\n      mload\n        /* \"#utility.yul\":458:459   */\n      dup2\n        /* \"#utility.yul\":453:456   */\n      dup5\n        /* \"#utility.yul\":449:460   */\n      add\n        /* \"#utility.yul\":442:481   */\n      mstore\n        /* \"#utility.yul\":414:416   */\n      0x20\n        /* \"#utility.yul\":411:412   */\n      dup2\n        /* \"#utility.yul\":407:417   */\n      add\n        /* \"#utility.yul\":402:417   */\n      swap1\n      pop\n        /* \"#utility.yul\":378:491   */\n      jump(tag_459)\n    tag_461:\n        /* \"#utility.yul\":525:526   */\n      0x00\n        /* \"#utility.yul\":516:522   */\n      dup5\n        /* \"#utility.yul\":511:514   */\n      dup5\n        /* \"#utility.yul\":507:523   */\n      add\n        /* \"#utility.yul\":500:527   */\n      mstore\n        /* \"#utility.yul\":349:533   */\n      pop\n        /* \"#utility.yul\":287:533   */\n      pop\n      pop\n      pop\n      jump\t// out\n        /* \"#utility.yul\":539:641   */\n    tag_360:\n        /* \"#utility.yul\":580:586   */\n      0x00\n        /* \"#utility.yul\":631:633   */\n      0x1f\n        /* \"#utility.yul\":627:634   */\n      not\n        /* \"#utility.yul\":622:624   */\n      0x1f\n        /* \"#utility.yul\":615:620   */\n      dup4\n        /* \"#utility.yul\":611:625   */\n      add\n        /* \"#utility.yul\":607:635   */\n      and\n        /* \"#utility.yul\":597:635   */\n      swap1\n      pop\n        /* \"#utility.yul\":539:641   */\n      swap2\n      swap1\n      pop\n      jump\t// out\n        /* \"#utility.yul\":647:1024   */\n    tag_361:\n        /* \"#utility.yul\":735:738   */\n      0x00\n        /* \"#utility.yul\":763:802   */\n      tag_464\n        /* \"#utility.yul\":796:801   */\n      dup3\n        /* \"#utility.yul\":763:802   */\n      tag_357\n      jump\t// in\n    tag_464:\n        /* \"#utility.yul\":818:889   */\n      tag_465\n        /* \"#utility.yul\":882:888   */\n      dup2\n        /* \"#utility.yul\":877:880   */\n      dup6\n        /* \"#utility.yul\":818:889   */\n      tag_358\n      jump\t// in\n    tag_465:\n        /* \"#utility.yul\":811:889   */\n      swap4\n      pop\n        /* \"#utility.yul\":898:963   */\n      tag_466\n        /* \"#utility.yul\":956:962   */\n      dup2\n        /* \"#utility.yul\":951:954   */\n      dup6\n        /* \"#utility.yul\":944:948   */\n      0x20\n        /* \"#utility.yul\":937:942   */\n      dup7\n        /* \"#utility.yul\":933:949   */\n      add\n        /* \"#utility.yul\":898:963   */\n      tag_359\n      jump\t// in\n    tag_466:\n        /* \"#utility.yul\":988:1017   */\n      tag_467\n        /* \"#utility.yul\":1010:1016   */\n      dup2\n        /* \"#utility.yul\":988:1017   */\n      tag_360\n      jump\t// in\n    tag_467:\n        /* \"#utility.yul\":983:986   */\n      dup5\n        /* \"#utility.yul\":979:1018   */\n      add\n        /* \"#utility.yul\":972:1018   */\n      swap2\n      pop\n        /* \"#utility.yul\":739:1024   */\n      pop\n        /* \"#utility.yul\":647:1024   */\n      swap3\n      swap2\n      pop\n      pop\n      jump\t// out\n        /* \"#utility.yul\":1030:1343   */\n    tag_32:\n        /* \"#utility.yul\":1143:1147   */\n      0x00\n        /* \"#utility.yul\":1181:1183   */\n      0x20\n        /* \"#utility.yul\":1170:1179   */\n      dup3\n        /* \"#utility.yul\":1166:1184   */\n      add\n        /* \"#utility.yul\":1158:1184   */\n      swap1\n      pop\n        /* \"#utility.yul\":1230:1239   */\n      dup2\n        /* \"#utility.yul\":1224:1228   */\n      dup2\n        /* \"#utility.yul\":1220:1240   */\n      sub\n        /* \"#utility.yul\":1216:1217   */\n      0x00\n        /* \"#utility.yul\":1205:1214   */\n      dup4\n        /* \"#utility.yul\":1201:1218   */\n      add\n        /* \"#utility.yul\":1194:1241   */\n      mstore\n        /* \"#utility.yul\":1258:1336   */\n      tag_469\n        /* \"#utility.yul\":1331:1335   */\n      dup2\n        /* \"#utility.yul\":1322:1328   */\n      dup5\n        /* \"#utility.yul\":1258:1336   */\n      tag_361\n      jump\t// in\n    tag_469:\n        /* \"#utility.yul\":1250:1336   */\n      swap1\n      pop\n        /* \"#utility.yul\":1030:1343   */\n      swap3\n      swap2\n      pop\n      pop\n      jump\t// out\n        /* \"#utility.yul\":1349:1424   */\n    tag_362:\n        /* \"#utility.yul\":1382:1388   */\n      0x00\n        /* \"#utility.yul\":1415:1417   */\n      0x40\n        /* \"#utility.yul\":1409:1418   */\n      mload\n        /* \"#utility.yul\":1399:1418   */\n      swap1\n      pop\n        /* \"#utility.yul\":1349:1424   */\n      swap1\n      jump\t// out\n        /* \"#utility.yul\":1430:1547   */\n    tag_363:\n        /* \"#utility.yul\":1539:1540   */\n      0x00\n        /* \"#utility.yul\":1536:1537   */\n      dup1\n        /* \"#utility.yul\":1529:1541   */\n      revert\n        /* \"#utility.yul\":1553:1670   */\n    tag_364:\n        /* \"#utility.yul\":1662:1663   */\n      0x00\n        /* \"#utility.yul\":1659:1660   */\n      dup1\n        /* \"#utility.yul\":1652:1664   */\n      revert\n        /* \"#utility.yul\":1676:1802   */\n    tag_365:\n        /* \"#utility.yul\":1713:1720   */\n      0x00\n        /* \"#utility.yul\":1753:1795   */\n      0xffffffffffffffffffffffffffffffffffffffff\n        /* \"#utility.yul\":1746:1751   */\n      dup3\n        /* \"#utility.yul\":1742:1796   */\n      and\n        /* \"#utility.yul\":1731:1796   */\n      swap1\n      pop\n        /* \"#utility.yul\":1676:1802   */\n      swap2\n      swap1\n      pop\n      jump\t// out\n        /* \"#utility.yul\":1808:1904   */\n    tag_366:\n        /* \"#utility.yul\":1845:1852   */\n      0x00\n        /* \"#utility.yul\":1874:1898   */\n      tag_475\n        /* \"#utility.yul\":1892:1897   */\n      dup3\n        /* \"#utility.yul\":1874:1898   */\n      tag_365\n      jump\t// in\n    tag_475:\n        /* \"#utility.yul\":1863:1898   */\n      swap1\n      pop\n        /* \"#utility.yul\":1808:1904   */\n      swap2\n      swap1\n      pop\n      jump\t// out\n        /* \"#utility.yul\":1910:2032   */\n    tag_367:\n        /* \"#utility.yul\":1983:2007   */\n      tag_477\n        /* \"#utility.yul\":2001:2006   */\n      dup2\n        /* \"#utility.yul\":1983:2007   */\n      tag_366\n      jump\t// in\n    tag_477:\n        /* \"#utility.yul\":1976:1981   */\n      dup2\n        /* \"#utility.yul\":1973:2008   */\n      eq\n        /* \"#utility.yul\":1963:2026   */\n      tag_478\n      jumpi\n        /* \"#utility.yul\":2022:2023   */\n      0x00\n        /* \"#utility.yul\":2019:2020   */\n      dup1\n        /* \"#utility.yul\":2012:2024   */\n      revert\n        /* \"#utility.yul\":1963:2026   */\n    tag_478:\n        /* \"#utility.yul\":1910:2032   */\n      pop\n      jump\t// out\n        /* \"#utility.yul\":2038:2177   */\n    tag_368:\n        /* \"#utility.yul\":2084:2089   */\n      0x00\n        /* \"#utility.yul\":2122:2128   */\n      dup2\n        /* \"#utility.yul\":2109:2129   */\n      calldataload\n        /* \"#utility.yul\":2100:2129   */\n      swap1\n      pop\n        /* \"#utility.yul\":2138:2171   */\n      tag_480\n        /* \"#utility.yul\":2165:2170   */\n      dup2\n        /* \"#utility.yul\":2138:2171   */\n      tag_367\n      jump\t// in\n    tag_480:\n        /* \"#utility.yul\":2038:2177   */\n      swap3\n      swap2\n      pop\n      pop\n      jump\t// out\n        /* \"#utility.yul\":2183:2260   */\n    tag_369:\n        /* \"#utility.yul\":2220:2227   */\n      0x00\n        /* \"#utility.yul\":2249:2254   */\n      dup2\n        /* \"#utility.yul\":2238:2254   */\n      swap1\n      pop\n        /* \"#utility.yul\":2183:2260   */\n      swap2\n      swap1\n      pop\n      jump\t// out\n        /* \"#utility.yul\":2266:2388   */\n    tag_370:\n        /* \"#utility.yul\":2339:2363   */\n      tag_483\n        /* \"#utility.yul\":2357:2362   */\n      dup2\n        /* \"#utility.yul\":2339:2363   */\n      tag_369\n      jump\t// in\n    tag_483:\n        /* \"#utility.yul\":2332:2337   */\n      dup2\n        /* \"#utility.yul\":2329:2364   */\n      eq\n        /* \"#utility.yul\":2319:2382   */\n      tag_484\n      jumpi\n        /* \"#utility.yul\":2378:2379   */\n      0x00\n        /* \"#utility.yul\":2375:2376   */\n      dup1\n        /* \"#utility.yul\":2368:2380   */\n      revert\n        /* \"#utility.yul\":2319:2382   */\n    tag_484:\n        /* \"#utility.yul\":2266:2388   */\n      pop\n      jump\t// out\n        /* \"#utility.yul\":2394:2533   */\n    tag_371:\n        /* \"#utility.yul\":2440:2445   */\n      0x00\n        /* \"#utility.yul\":2478:2484   */\n      dup2\n        /* \"#utility.yul\":2465:2485   */\n      calldataload\n        /* \"#utility.yul\":2456:2485   */\n      swap1\n      pop\n        /* \"#utility.yul\":2494:2527   */\n      tag_486\n        /* \"#utility.yul\":2521:2526   */\n      dup2\n        /* \"#utility.yul\":2494:2527   */\n      tag_370\n      jump\t// in\n    tag_486:\n        /* \"#utility.yul\":2394:2533   */\n      swap3\n      swap2\n      pop\n      pop\n      jump\t// out\n        /* \"#utility.yul\":2539:3013   */\n    tag_35:\n        /* \"#utility.yul\":2607:2613   */\n      0x00\n        /* \"#utility.yul\":2615:2621   */\n      dup1\n        /* \"#utility.yul\":2664:2666   */\n      0x40\n        /* \"#utility.yul\":2652:2661   */\n      dup4\n        /* \"#utility.yul\":2643:2650   */\n      dup6\n        /* \"#utility.yul\":2639:2662   */\n      sub\n        /* \"#utility.yul\":2635:2667   */\n      slt\n        /* \"#utility.yul\":2632:2751   */\n      iszero\n      tag_488\n      jumpi\n        /* \"#utility.yul\":2670:2749   */\n      tag_489\n      tag_363\n      jump\t// in\n    tag_489:\n        /* \"#utility.yul\":2632:2751   */\n    tag_488:\n        /* \"#utility.yul\":2790:2791   */\n      0x00\n        /* \"#utility.yul\":2815:2868   */\n      tag_490\n        /* \"#utility.yul\":2860:2867   */\n      dup6\n        /* \"#utility.yul\":2851:2857   */\n      dup3\n        /* \"#utility.yul\":2840:2849   */\n      dup7\n        /* \"#utility.yul\":2836:2858   */\n      add\n        /* \"#utility.yul\":2815:2868   */\n      tag_368\n      jump\t// in\n    tag_490:\n        /* \"#utility.yul\":2805:2868   */\n      swap3\n      pop\n        /* \"#utility.yul\":2761:2878   */\n      pop\n        /* \"#utility.yul\":2917:2919   */\n      0x20\n        /* \"#utility.yul\":2943:2996   */\n      tag_491\n        /* \"#utility.yul\":2988:2995   */\n      dup6\n        /* \"#utility.yul\":2979:2985   */\n      dup3\n        /* \"#utility.yul\":2968:2977   */\n      dup7\n        /* \"#utility.yul\":2964:2986   */\n      add\n        /* \"#utility.yul\":2943:2996   */\n      tag_371\n      jump\t// in\n    tag_491:\n        /* \"#utility.yul\":2933:2996   */\n      swap2\n      pop\n        /* \"#utility.yul\":2888:3006   */\n      pop\n        /* \"#utility.yul\":2539:3013   */\n      swap3\n      pop\n      swap3\n      swap1\n      pop\n      jump\t// out\n        /* \"#utility.yul\":3019:3109   */\n    tag_372:\n        /* \"#utility.yul\":3053:3060   */\n      0x00\n        /* \"#utility.yul\":3096:3101   */\n      dup2\n        /* \"#utility.yul\":3089:3102   */\n      iszero\n        /* \"#utility.yul\":3082:3103   */\n      iszero\n        /* \"#utility.yul\":3071:3103   */\n      swap1\n      pop\n        /* \"#utility.yul\":3019:3109   */\n      swap2\n      swap1\n      pop\n      jump\t// out\n        /* \"#utility.yul\":3115:3224   */\n    tag_373:\n        /* \"#utility.yul\":3196:3217   */\n      tag_494\n        /* \"#utility.yul\":3211:3216   */\n      dup2\n        /* \"#utility.yul\":3196:3217   */\n      tag_372\n      jump\t// in\n    tag_494:\n        /* \"#utility.yul\":3191:3194   */\n      dup3\n        /* \"#utility.yul\":3184:3218   */\n      mstore\n        /* \"#utility.yul\":3115:3224   */\n      pop\n      pop\n      jump\t// out\n        /* \"#utility.yul\":3230:3440   */\n    tag_38:\n        /* \"#utility.yul\":3317:3321   */\n      0x00\n        /* \"#utility.yul\":3355:3357   */\n      0x20\n        /* \"#utility.yul\":3344:3353   */\n      dup3\n        /* \"#utility.yul\":3340:3358   */\n      add\n        /* \"#utility.yul\":3332:3358   */\n      swap1\n      pop\n        /* \"#utility.yul\":3368:3433   */\n      tag_496\n        /* \"#utility.yul\":3430:3431   */\n      0x00\n        /* \"#utility.yul\":3419:3428   */\n      dup4\n        /* \"#utility.yul\":3415:3432   */\n      add\n        /* \"#utility.yul\":3406:3412   */\n      dup5\n        /* \"#utility.yul\":3368:3433   */\n      tag_373\n      jump\t// in\n    tag_496:\n        /* \"#utility.yul\":3230:3440   */\n      swap3\n      swap2\n      pop\n      pop\n      jump\t// out\n        /* \"#utility.yul\":3446:3564   */\n    tag_374:\n        /* \"#utility.yul\":3533:3557   */\n      tag_498\n        /* \"#utility.yul\":3551:3556   */\n      dup2\n        /* \"#utility.yul\":3533:3557   */\n      tag_369\n      jump\t// in\n    tag_498:\n        /* \"#utility.yul\":3528:3531   */\n      dup3\n        /* \"#utility.yul\":3521:3558   */\n      mstore\n        /* \"#utility.yul\":3446:3564   */\n      pop\n      pop\n      jump\t// out\n        /* \"#utility.yul\":3570:3792   */\n    tag_42:\n        /* \"#utility.yul\":3663:3667   */\n      0x00\n        /* \"#utility.yul\":3701:3703   */\n      0x20\n        /* \"#utility.yul\":3690:3699   */\n      dup3\n        /* \"#utility.yul\":3686:3704   */\n      add\n        /* \"#utility.yul\":3678:3704   */\n      swap1\n      pop\n        /* \"#utility.yul\":3714:3785   */\n      tag_500\n        /* \"#utility.yul\":3782:3783   */\n      0x00\n        /* \"#utility.yul\":3771:3780   */\n      dup4\n        /* \"#utility.yul\":3767:3784   */\n      add\n        /* \"#utility.yul\":3758:3764   */\n      dup5\n        /* \"#utility.yul\":3714:3785   */\n      tag_374\n      jump\t// in\n    tag_500:\n        /* \"#utility.yul\":3570:3792   */\n      swap3\n      swap2\n      pop\n      pop\n      jump\t// out\n        /* \"#utility.yul\":3798:4417   */\n    tag_45:\n        /* \"#utility.yul\":3875:3881   */\n      0x00\n        /* \"#utility.yul\":3883:3889   */\n      dup1\n        /* \"#utility.yul\":3891:3897   */\n      0x00\n        /* \"#utility.yul\":3940:3942   */\n      0x60\n        /* \"#utility.yul\":3928:3937   */\n      dup5\n        /* \"#utility.yul\":3919:3926   */\n      dup7\n        /* \"#utility.yul\":3915:3938   */\n      sub\n        /* \"#utility.yul\":3911:3943   */\n      slt\n        /* \"#utility.yul\":3908:4027   */\n      iszero\n      tag_502\n      jumpi\n        /* \"#utility.yul\":3946:4025   */\n      tag_503\n      tag_363\n      jump\t// in\n    tag_503:\n        /* \"#utility.yul\":3908:4027   */\n    tag_502:\n        /* \"#utility.yul\":4066:4067   */\n      0x00\n        /* \"#utility.yul\":4091:4144   */\n      tag_504\n        /* \"#utility.yul\":4136:4143   */\n      dup7\n        /* \"#utility.yul\":4127:4133   */\n      dup3\n        /* \"#utility.yul\":4116:4125   */\n      dup8\n        /* \"#utility.yul\":4112:4134   */\n      add\n        /* \"#utility.yul\":4091:4144   */\n      tag_368\n      jump\t// in\n    tag_504:\n        /* \"#utility.yul\":4081:4144   */\n      swap4\n      pop\n        /* \"#utility.yul\":4037:4154   */\n      pop\n        /* \"#utility.yul\":4193:4195   */\n      0x20\n        /* \"#utility.yul\":4219:4272   */\n      tag_505\n        /* \"#utility.yul\":4264:4271   */\n      dup7\n        /* \"#utility.yul\":4255:4261   */\n      dup3\n        /* \"#utility.yul\":4244:4253   */\n      dup8\n        /* \"#utility.yul\":4240:4262   */\n      add\n        /* \"#utility.yul\":4219:4272   */\n      tag_368\n      jump\t// in\n    tag_505:\n        /* \"#utility.yul\":4209:4272   */\n      swap3\n      pop\n        /* \"#utility.yul\":4164:4282   */\n      pop\n        /* \"#utility.yul\":4321:4323   */\n      0x40\n        /* \"#utility.yul\":4347:4400   */\n      tag_506\n        /* \"#utility.yul\":4392:4399   */\n      dup7\n        /* \"#utility.yul\":4383:4389   */\n      dup3\n        /* \"#utility.yul\":4372:4381   */\n      dup8\n        /* \"#utility.yul\":4368:4390   */\n      add\n        /* \"#utility.yul\":4347:4400   */\n      tag_371\n      jump\t// in\n    tag_506:\n        /* \"#utility.yul\":4337:4400   */\n      swap2\n      pop\n        /* \"#utility.yul\":4292:4410   */\n      pop\n        /* \"#utility.yul\":3798:4417   */\n      swap3\n      pop\n      swap3\n      pop\n      swap3\n      jump\t// out\n        /* \"#utility.yul\":4423:4509   */\n    tag_375:\n        /* \"#utility.yul\":4458:4465   */\n      0x00\n        /* \"#utility.yul\":4498:4502   */\n      0xff\n        /* \"#utility.yul\":4491:4496   */\n      dup3\n        /* \"#utility.yul\":4487:4503   */\n      and\n        /* \"#utility.yul\":4476:4503   */\n      swap1\n      pop\n        /* \"#utility.yul\":4423:4509   */\n      swap2\n      swap1\n      pop\n      jump\t// out\n        /* \"#utility.yul\":4515:4627   */\n    tag_376:\n        /* \"#utility.yul\":4598:4620   */\n      tag_509\n        /* \"#utility.yul\":4614:4619   */\n      dup2\n        /* \"#utility.yul\":4598:4620   */\n      tag_375\n      jump\t// in\n    tag_509:\n        /* \"#utility.yul\":4593:4596   */\n      dup3\n        /* \"#utility.yul\":4586:4621   */\n      mstore\n        /* \"#utility.yul\":4515:4627   */\n      pop\n      pop\n      jump\t// out\n        /* \"#utility.yul\":4633:4847   */\n    tag_51:\n        /* \"#utility.yul\":4722:4726   */\n      0x00\n        /* \"#utility.yul\":4760:4762   */\n      0x20\n        /* \"#utility.yul\":4749:4758   */\n      dup3\n        /* \"#utility.yul\":4745:4763   */\n      add\n        /* \"#utility.yul\":4737:4763   */\n      swap1\n      pop\n        /* \"#utility.yul\":4773:4840   */\n      tag_511\n        /* \"#utility.yul\":4837:4838   */\n      0x00\n        /* \"#utility.yul\":4826:4835   */\n      dup4\n        /* \"#utility.yul\":4822:4839   */\n      add\n        /* \"#utility.yul\":4813:4819   */\n      dup5\n        /* \"#utility.yul\":4773:4840   */\n      tag_376\n      jump\t// in\n    tag_511:\n        /* \"#utility.yul\":4633:4847   */\n      swap3\n      swap2\n      pop\n      pop\n      jump\t// out\n        /* \"#utility.yul\":4853:5182   */\n    tag_54:\n        /* \"#utility.yul\":4912:4918   */\n      0x00\n        /* \"#utility.yul\":4961:4963   */\n      0x20\n        /* \"#utility.yul\":4949:4958   */\n      dup3\n        /* \"#utility.yul\":4940:4947   */\n      dup5\n        /* \"#utility.yul\":4936:4959   */\n      sub\n        /* \"#utility.yul\":4932:4964   */\n      slt\n        /* \"#utility.yul\":4929:5048   */\n      iszero\n      tag_513\n      jumpi\n        /* \"#utility.yul\":4967:5046   */\n      tag_514\n      tag_363\n      jump\t// in\n    tag_514:\n        /* \"#utility.yul\":4929:5048   */\n    tag_513:\n        /* \"#utility.yul\":5087:5088   */\n      0x00\n        /* \"#utility.yul\":5112:5165   */\n      tag_515\n        /* \"#utility.yul\":5157:5164   */\n      dup5\n        /* \"#utility.yul\":5148:5154   */\n      dup3\n        /* \"#utility.yul\":5137:5146   */\n      dup6\n        /* \"#utility.yul\":5133:5155   */\n      add\n        /* \"#utility.yul\":5112:5165   */\n      tag_368\n      jump\t// in\n    tag_515:\n        /* \"#utility.yul\":5102:5165   */\n      swap2\n      pop\n        /* \"#utility.yul\":5058:5175   */\n      pop\n        /* \"#utility.yul\":4853:5182   */\n      swap3\n      swap2\n      pop\n      pop\n      jump\t// out\n        /* \"#utility.yul\":5188:6034   */\n    tag_57:\n        /* \"#utility.yul\":5433:5437   */\n      0x00\n        /* \"#utility.yul\":5471:5474   */\n      0xa0\n        /* \"#utility.yul\":5460:5469   */\n      dup3\n        /* \"#utility.yul\":5456:5475   */\n      add\n        /* \"#utility.yul\":5448:5475   */\n      swap1\n      pop\n        /* \"#utility.yul\":5521:5530   */\n      dup2\n        /* \"#utility.yul\":5515:5519   */\n      dup2\n        /* \"#utility.yul\":5511:5531   */\n      sub\n        /* \"#utility.yul\":5507:5508   */\n      0x00\n        /* \"#utility.yul\":5496:5505   */\n      dup4\n        /* \"#utility.yul\":5492:5509   */\n      add\n        /* \"#utility.yul\":5485:5532   */\n      mstore\n        /* \"#utility.yul\":5549:5627   */\n      tag_517\n        /* \"#utility.yul\":5622:5626   */\n      dup2\n        /* \"#utility.yul\":5613:5619   */\n      dup9\n        /* \"#utility.yul\":5549:5627   */\n      tag_361\n      jump\t// in\n    tag_517:\n        /* \"#utility.yul\":5541:5627   */\n      swap1\n      pop\n        /* \"#utility.yul\":5637:5709   */\n      tag_518\n        /* \"#utility.yul\":5705:5707   */\n      0x20\n        /* \"#utility.yul\":5694:5703   */\n      dup4\n        /* \"#utility.yul\":5690:5708   */\n      add\n        /* \"#utility.yul\":5681:5687   */\n      dup8\n        /* \"#utility.yul\":5637:5709   */\n      tag_374\n      jump\t// in\n    tag_518:\n        /* \"#utility.yul\":5756:5765   */\n      dup2\n        /* \"#utility.yul\":5750:5754   */\n      dup2\n        /* \"#utility.yul\":5746:5766   */\n      sub\n        /* \"#utility.yul\":5741:5743   */\n      0x40\n        /* \"#utility.yul\":5730:5739   */\n      dup4\n        /* \"#utility.yul\":5726:5744   */\n      add\n        /* \"#utility.yul\":5719:5767   */\n      mstore\n        /* \"#utility.yul\":5784:5862   */\n      tag_519\n        /* \"#utility.yul\":5857:5861   */\n      dup2\n        /* \"#utility.yul\":5848:5854   */\n      dup7\n        /* \"#utility.yul\":5784:5862   */\n      tag_361\n      jump\t// in\n    tag_519:\n        /* \"#utility.yul\":5776:5862   */\n      swap1\n      pop\n        /* \"#utility.yul\":5872:5944   */\n      tag_520\n        /* \"#utility.yul\":5940:5942   */\n      0x60\n        /* \"#utility.yul\":5929:5938   */\n      dup4\n        /* \"#utility.yul\":5925:5943   */\n      add\n        /* \"#utility.yul\":5916:5922   */\n      dup6\n        /* \"#utility.yul\":5872:5944   */\n      tag_374\n      jump\t// in\n    tag_520:\n        /* \"#utility.yul\":5954:6027   */\n      tag_521\n        /* \"#utility.yul\":6022:6025   */\n      0x80\n        /* \"#utility.yul\":6011:6020   */\n      dup4\n        /* \"#utility.yul\":6007:6026   */\n      add\n        /* \"#utility.yul\":5998:6004   */\n      dup5\n        /* \"#utility.yul\":5954:6027   */\n      tag_374\n      jump\t// in\n    tag_521:\n        /* \"#utility.yul\":5188:6034   */\n      swap7\n      swap6\n      pop\n      pop\n      pop\n      pop\n      pop\n      pop\n      jump\t// out\n        /* \"#utility.yul\":6040:6369   */\n    tag_60:\n        /* \"#utility.yul\":6099:6105   */\n      0x00\n        /* \"#utility.yul\":6148:6150   */\n      0x20\n        /* \"#utility.yul\":6136:6145   */\n      dup3\n        /* \"#utility.yul\":6127:6134   */\n      dup5\n        /* \"#utility.yul\":6123:6146   */\n      sub\n        /* \"#utility.yul\":6119:6151   */\n      slt\n        /* \"#utility.yul\":6116:6235   */\n      iszero\n      tag_523\n      jumpi\n        /* \"#utility.yul\":6154:6233   */\n      tag_524\n      tag_363\n      jump\t// in\n    tag_524:\n        /* \"#utility.yul\":6116:6235   */\n    tag_523:\n        /* \"#utility.yul\":6274:6275   */\n      0x00\n        /* \"#utility.yul\":6299:6352   */\n      tag_525\n        /* \"#utility.yul\":6344:6351   */\n      dup5\n        /* \"#utility.yul\":6335:6341   */\n      dup3\n        /* \"#utility.yul\":6324:6333   */\n      dup6\n        /* \"#utility.yul\":6320:6342   */\n      add\n        /* \"#utility.yul\":6299:6352   */\n      tag_371\n      jump\t// in\n    tag_525:\n        /* \"#utility.yul\":6289:6352   */\n      swap2\n      pop\n        /* \"#utility.yul\":6245:6362   */\n      pop\n        /* \"#utility.yul\":6040:6369   */\n      swap3\n      swap2\n      pop\n      pop\n      jump\t// out\n        /* \"#utility.yul\":6375:6493   */\n    tag_377:\n        /* \"#utility.yul\":6462:6486   */\n      tag_527\n        /* \"#utility.yul\":6480:6485   */\n      dup2\n        /* \"#utility.yul\":6462:6486   */\n      tag_366\n      jump\t// in\n    tag_527:\n        /* \"#utility.yul\":6457:6460   */\n      dup3\n        /* \"#utility.yul\":6450:6487   */\n      mstore\n        /* \"#utility.yul\":6375:6493   */\n      pop\n      pop\n      jump\t// out\n        /* \"#utility.yul\":6499:6831   */\n    tag_63:\n        /* \"#utility.yul\":6620:6624   */\n      0x00\n        /* \"#utility.yul\":6658:6660   */\n      0x40\n        /* \"#utility.yul\":6647:6656   */\n      dup3\n        /* \"#utility.yul\":6643:6661   */\n      add\n        /* \"#utility.yul\":6635:6661   */\n      swap1\n      pop\n        /* \"#utility.yul\":6671:6742   */\n      tag_529\n        /* \"#utility.yul\":6739:6740   */\n      0x00\n        /* \"#utility.yul\":6728:6737   */\n      dup4\n        /* \"#utility.yul\":6724:6741   */\n      add\n        /* \"#utility.yul\":6715:6721   */\n      dup6\n        /* \"#utility.yul\":6671:6742   */\n      tag_377\n      jump\t// in\n    tag_529:\n        /* \"#utility.yul\":6752:6824   */\n      tag_530\n        /* \"#utility.yul\":6820:6822   */\n      0x20\n        /* \"#utility.yul\":6809:6818   */\n      dup4\n        /* \"#utility.yul\":6805:6823   */\n      add\n        /* \"#utility.yul\":6796:6802   */\n      dup5\n        /* \"#utility.yul\":6752:6824   */\n      tag_377\n      jump\t// in\n    tag_530:\n        /* \"#utility.yul\":6499:6831   */\n      swap4\n      swap3\n      pop\n      pop\n      pop\n      jump\t// out\n        /* \"#utility.yul\":6837:6914   */\n    tag_378:\n        /* \"#utility.yul\":6874:6881   */\n      0x00\n        /* \"#utility.yul\":6903:6908   */\n      dup2\n        /* \"#utility.yul\":6892:6908   */\n      swap1\n      pop\n        /* \"#utility.yul\":6837:6914   */\n      swap2\n      swap1\n      pop\n      jump\t// out\n        /* \"#utility.yul\":6920:7042   */\n    tag_379:\n        /* \"#utility.yul\":6993:7017   */\n      tag_533\n        /* \"#utility.yul\":7011:7016   */\n      dup2\n        /* \"#utility.yul\":6993:7017   */\n      tag_378\n      jump\t// in\n    tag_533:\n        /* \"#utility.yul\":6986:6991   */\n      dup2\n        /* \"#utility.yul\":6983:7018   */\n      eq\n        /* \"#utility.yul\":6973:7036   */\n      tag_534\n      jumpi\n        /* \"#utility.yul\":7032:7033   */\n      0x00\n        /* \"#utility.yul\":7029:7030   */\n      dup1\n        /* \"#utility.yul\":7022:7034   */\n      revert\n        /* \"#utility.yul\":6973:7036   */\n    tag_534:\n        /* \"#utility.yul\":6920:7042   */\n      pop\n      jump\t// out\n        /* \"#utility.yul\":7048:7187   */\n    tag_380:\n        /* \"#utility.yul\":7094:7099   */\n      0x00\n        /* \"#utility.yul\":7132:7138   */\n      dup2\n        /* \"#utility.yul\":7119:7139   */\n      calldataload\n        /* \"#utility.yul\":7110:7139   */\n      swap1\n      pop\n        /* \"#utility.yul\":7148:7181   */\n      tag_536\n        /* \"#utility.yul\":7175:7180   */\n      dup2\n        /* \"#utility.yul\":7148:7181   */\n      tag_379\n      jump\t// in\n    tag_536:\n        /* \"#utility.yul\":7048:7187   */\n      swap3\n      swap2\n      pop\n      pop\n      jump\t// out\n        /* \"#utility.yul\":7193:7667   */\n    tag_66:\n        /* \"#utility.yul\":7261:7267   */\n      0x00\n        /* \"#utility.yul\":7269:7275   */\n      dup1\n        /* \"#utility.yul\":7318:7320   */\n      0x40\n        /* \"#utility.yul\":7306:7315   */\n      dup4\n        /* \"#utility.yul\":7297:7304   */\n      dup6\n        /* \"#utility.yul\":7293:7316   */\n      sub\n        /* \"#utility.yul\":7289:7321   */\n      slt\n        /* \"#utility.yul\":7286:7405   */\n      iszero\n      tag_538\n      jumpi\n        /* \"#utility.yul\":7324:7403   */\n      tag_539\n      tag_363\n      jump\t// in\n    tag_539:\n        /* \"#utility.yul\":7286:7405   */\n    tag_538:\n        /* \"#utility.yul\":7444:7445   */\n      0x00\n        /* \"#utility.yul\":7469:7522   */\n      tag_540\n        /* \"#utility.yul\":7514:7521   */\n      dup6\n        /* \"#utility.yul\":7505:7511   */\n      dup3\n        /* \"#utility.yul\":7494:7503   */\n      dup7\n        /* \"#utility.yul\":7490:7512   */\n      add\n        /* \"#utility.yul\":7469:7522   */\n      tag_380\n      jump\t// in\n    tag_540:\n        /* \"#utility.yul\":7459:7522   */\n      swap3\n      pop\n        /* \"#utility.yul\":7415:7532   */\n      pop\n        /* \"#utility.yul\":7571:7573   */\n      0x20\n        /* \"#utility.yul\":7597:7650   */\n      tag_541\n        /* \"#utility.yul\":7642:7649   */\n      dup6\n        /* \"#utility.yul\":7633:7639   */\n      dup3\n        /* \"#utility.yul\":7622:7631   */\n      dup7\n        /* \"#utility.yul\":7618:7640   */\n      add\n        /* \"#utility.yul\":7597:7650   */\n      tag_371\n      jump\t// in\n    tag_541:\n        /* \"#utility.yul\":7587:7650   */\n      swap2\n      pop\n        /* \"#utility.yul\":7542:7660   */\n      pop\n        /* \"#utility.yul\":7193:7667   */\n      swap3\n      pop\n      swap3\n      swap1\n      pop\n      jump\t// out\n        /* \"#utility.yul\":7673:8096   */\n    tag_69:\n        /* \"#utility.yul\":7814:7818   */\n      0x00\n        /* \"#utility.yul\":7852:7854   */\n      0x40\n        /* \"#utility.yul\":7841:7850   */\n      dup3\n        /* \"#utility.yul\":7837:7855   */\n      add\n        /* \"#utility.yul\":7829:7855   */\n      swap1\n      pop\n        /* \"#utility.yul\":7865:7936   */\n      tag_543\n        /* \"#utility.yul\":7933:7934   */\n      0x00\n        /* \"#utility.yul\":7922:7931   */\n      dup4\n        /* \"#utility.yul\":7918:7935   */\n      add\n        /* \"#utility.yul\":7909:7915   */\n      dup6\n        /* \"#utility.yul\":7865:7936   */\n      tag_377\n      jump\t// in\n    tag_543:\n        /* \"#utility.yul\":7983:7992   */\n      dup2\n        /* \"#utility.yul\":7977:7981   */\n      dup2\n        /* \"#utility.yul\":7973:7993   */\n      sub\n        /* \"#utility.yul\":7968:7970   */\n      0x20\n        /* \"#utility.yul\":7957:7966   */\n      dup4\n        /* \"#utility.yul\":7953:7971   */\n      add\n        /* \"#utility.yul\":7946:7994   */\n      mstore\n        /* \"#utility.yul\":8011:8089   */\n      tag_544\n        /* \"#utility.yul\":8084:8088   */\n      dup2\n        /* \"#utility.yul\":8075:8081   */\n      dup5\n        /* \"#utility.yul\":8011:8089   */\n      tag_361\n      jump\t// in\n    tag_544:\n        /* \"#utility.yul\":8003:8089   */\n      swap1\n      pop\n        /* \"#utility.yul\":7673:8096   */\n      swap4\n      swap3\n      pop\n      pop\n      pop\n      jump\t// out\n        /* \"#utility.yul\":8102:8218   */\n    tag_381:\n        /* \"#utility.yul\":8172:8193   */\n      tag_546\n        /* \"#utility.yul\":8187:8192   */\n      dup2\n        /* \"#utility.yul\":8172:8193   */\n      tag_372\n      jump\t// in\n    tag_546:\n        /* \"#utility.yul\":8165:8170   */\n      dup2\n        /* \"#utility.yul\":8162:8194   */\n      eq\n        /* \"#utility.yul\":8152:8212   */\n      tag_547\n      jumpi\n        /* \"#utility.yul\":8208:8209   */\n      0x00\n        /* \"#utility.yul\":8205:8206   */\n      dup1\n        /* \"#utility.yul\":8198:8210   */\n      revert\n        /* \"#utility.yul\":8152:8212   */\n    tag_547:\n        /* \"#utility.yul\":8102:8218   */\n      pop\n      jump\t// out\n        /* \"#utility.yul\":8224:8357   */\n    tag_382:\n        /* \"#utility.yul\":8267:8272   */\n      0x00\n        /* \"#utility.yul\":8305:8311   */\n      dup2\n        /* \"#utility.yul\":8292:8312   */\n      calldataload\n        /* \"#utility.yul\":8283:8312   */\n      swap1\n      pop\n        /* \"#utility.yul\":8321:8351   */\n      tag_549\n        /* \"#utility.yul\":8345:8350   */\n      dup2\n        /* \"#utility.yul\":8321:8351   */\n      tag_381\n      jump\t// in\n    tag_549:\n        /* \"#utility.yul\":8224:8357   */\n      swap3\n      swap2\n      pop\n      pop\n      jump\t// out\n        /* \"#utility.yul\":8363:8831   */\n    tag_79:\n        /* \"#utility.yul\":8428:8434   */\n      0x00\n        /* \"#utility.yul\":8436:8442   */\n      dup1\n        /* \"#utility.yul\":8485:8487   */\n      0x40\n        /* \"#utility.yul\":8473:8482   */\n      dup4\n        /* \"#utility.yul\":8464:8471   */\n      dup6\n        /* \"#utility.yul\":8460:8483   */\n      sub\n        /* \"#utility.yul\":8456:8488   */\n      slt\n        /* \"#utility.yul\":8453:8572   */\n      iszero\n      tag_551\n      jumpi\n        /* \"#utility.yul\":8491:8570   */\n      tag_552\n      tag_363\n      jump\t// in\n    tag_552:\n        /* \"#utility.yul\":8453:8572   */\n    tag_551:\n        /* \"#utility.yul\":8611:8612   */\n      0x00\n        /* \"#utility.yul\":8636:8689   */\n      tag_553\n        /* \"#utility.yul\":8681:8688   */\n      dup6\n        /* \"#utility.yul\":8672:8678   */\n      dup3\n        /* \"#utility.yul\":8661:8670   */\n      dup7\n        /* \"#utility.yul\":8657:8679   */\n      add\n        /* \"#utility.yul\":8636:8689   */\n      tag_368\n      jump\t// in\n    tag_553:\n        /* \"#utility.yul\":8626:8689   */\n      swap3\n      pop\n        /* \"#utility.yul\":8582:8699   */\n      pop\n        /* \"#utility.yul\":8738:8740   */\n      0x20\n        /* \"#utility.yul\":8764:8814   */\n      tag_554\n        /* \"#utility.yul\":8806:8813   */\n      dup6\n        /* \"#utility.yul\":8797:8803   */\n      dup3\n        /* \"#utility.yul\":8786:8795   */\n      dup7\n        /* \"#utility.yul\":8782:8804   */\n      add\n        /* \"#utility.yul\":8764:8814   */\n      tag_382\n      jump\t// in\n    tag_554:\n        /* \"#utility.yul\":8754:8814   */\n      swap2\n      pop\n        /* \"#utility.yul\":8709:8824   */\n      pop\n        /* \"#utility.yul\":8363:8831   */\n      swap3\n      pop\n      swap3\n      swap1\n      pop\n      jump\t// out\n        /* \"#utility.yul\":8837:8951   */\n    tag_383:\n        /* \"#utility.yul\":8904:8910   */\n      0x00\n        /* \"#utility.yul\":8938:8943   */\n      dup2\n        /* \"#utility.yul\":8932:8944   */\n      mload\n        /* \"#utility.yul\":8922:8944   */\n      swap1\n      pop\n        /* \"#utility.yul\":8837:8951   */\n      swap2\n      swap1\n      pop\n      jump\t// out\n        /* \"#utility.yul\":8957:9141   */\n    tag_384:\n        /* \"#utility.yul\":9056:9067   */\n      0x00\n        /* \"#utility.yul\":9090:9096   */\n      dup3\n        /* \"#utility.yul\":9085:9088   */\n      dup3\n        /* \"#utility.yul\":9078:9097   */\n      mstore\n        /* \"#utility.yul\":9130:9134   */\n      0x20\n        /* \"#utility.yul\":9125:9128   */\n      dup3\n        /* \"#utility.yul\":9121:9135   */\n      add\n        /* \"#utility.yul\":9106:9135   */\n      swap1\n      pop\n        /* \"#utility.yul\":8957:9141   */\n      swap3\n      swap2\n      pop\n      pop\n      jump\t// out\n        /* \"#utility.yul\":9147:9279   */\n    tag_385:\n        /* \"#utility.yul\":9214:9218   */\n      0x00\n        /* \"#utility.yul\":9237:9240   */\n      dup2\n        /* \"#utility.yul\":9229:9240   */\n      swap1\n      pop\n        /* \"#utility.yul\":9267:9271   */\n      0x20\n        /* \"#utility.yul\":9262:9265   */\n      dup3\n        /* \"#utility.yul\":9258:9272   */\n      add\n        /* \"#utility.yul\":9250:9272   */\n      swap1\n      pop\n        /* \"#utility.yul\":9147:9279   */\n      swap2\n      swap1\n      pop\n      jump\t// out\n        /* \"#utility.yul\":9285:9393   */\n    tag_386:\n        /* \"#utility.yul\":9362:9386   */\n      tag_559\n        /* \"#utility.yul\":9380:9385   */\n      dup2\n        /* \"#utility.yul\":9362:9386   */\n      tag_366\n      jump\t// in\n    tag_559:\n        /* \"#utility.yul\":9357:9360   */\n      dup3\n        /* \"#utility.yul\":9350:9387   */\n      mstore\n        /* \"#utility.yul\":9285:9393   */\n      pop\n      pop\n      jump\t// out\n        /* \"#utility.yul\":9399:9578   */\n    tag_387:\n        /* \"#utility.yul\":9468:9478   */\n      0x00\n        /* \"#utility.yul\":9489:9535   */\n      tag_561\n        /* \"#utility.yul\":9531:9534   */\n      dup4\n        /* \"#utility.yul\":9523:9529   */\n      dup4\n        /* \"#utility.yul\":9489:9535   */\n      tag_386\n      jump\t// in\n    tag_561:\n        /* \"#utility.yul\":9567:9571   */\n      0x20\n        /* \"#utility.yul\":9562:9565   */\n      dup4\n        /* \"#utility.yul\":9558:9572   */\n      add\n        /* \"#utility.yul\":9544:9572   */\n      swap1\n      pop\n        /* \"#utility.yul\":9399:9578   */\n      swap3\n      swap2\n      pop\n      pop\n      jump\t// out\n        /* \"#utility.yul\":9584:9697   */\n    tag_388:\n        /* \"#utility.yul\":9654:9658   */\n      0x00\n        /* \"#utility.yul\":9686:9690   */\n      0x20\n        /* \"#utility.yul\":9681:9684   */\n      dup3\n        /* \"#utility.yul\":9677:9691   */\n      add\n        /* \"#utility.yul\":9669:9691   */\n      swap1\n      pop\n        /* \"#utility.yul\":9584:9697   */\n      swap2\n      swap1\n      pop\n      jump\t// out\n        /* \"#utility.yul\":9733:10465   */\n    tag_389:\n        /* \"#utility.yul\":9852:9855   */\n      0x00\n        /* \"#utility.yul\":9881:9935   */\n      tag_564\n        /* \"#utility.yul\":9929:9934   */\n      dup3\n        /* \"#utility.yul\":9881:9935   */\n      tag_383\n      jump\t// in\n    tag_564:\n        /* \"#utility.yul\":9951:10037   */\n      tag_565\n        /* \"#utility.yul\":10030:10036   */\n      dup2\n        /* \"#utility.yul\":10025:10028   */\n      dup6\n        /* \"#utility.yul\":9951:10037   */\n      tag_384\n      jump\t// in\n    tag_565:\n        /* \"#utility.yul\":9944:10037   */\n      swap4\n      pop\n        /* \"#utility.yul\":10061:10117   */\n      tag_566\n        /* \"#utility.yul\":10111:10116   */\n      dup4\n        /* \"#utility.yul\":10061:10117   */\n      tag_385\n      jump\t// in\n    tag_566:\n        /* \"#utility.yul\":10140:10147   */\n      dup1\n        /* \"#utility.yul\":10171:10172   */\n      0x00\n        /* \"#utility.yul\":10156:10440   */\n    tag_567:\n        /* \"#utility.yul\":10181:10187   */\n      dup4\n        /* \"#utility.yul\":10178:10179   */\n      dup2\n        /* \"#utility.yul\":10175:10188   */\n      lt\n        /* \"#utility.yul\":10156:10440   */\n      iszero\n      tag_569\n      jumpi\n        /* \"#utility.yul\":10257:10263   */\n      dup2\n        /* \"#utility.yul\":10251:10264   */\n      mload\n        /* \"#utility.yul\":10284:10347   */\n      tag_570\n        /* \"#utility.yul\":10343:10346   */\n      dup9\n        /* \"#utility.yul\":10328:10341   */\n      dup3\n        /* \"#utility.yul\":10284:10347   */\n      tag_387\n      jump\t// in\n    tag_570:\n        /* \"#utility.yul\":10277:10347   */\n      swap8\n      pop\n        /* \"#utility.yul\":10370:10430   */\n      tag_571\n        /* \"#utility.yul\":10423:10429   */\n      dup4\n        /* \"#utility.yul\":10370:10430   */\n      tag_388\n      jump\t// in\n    tag_571:\n        /* \"#utility.yul\":10360:10430   */\n      swap3\n      pop\n        /* \"#utility.yul\":10216:10440   */\n      pop\n        /* \"#utility.yul\":10203:10204   */\n      0x01\n        /* \"#utility.yul\":10200:10201   */\n      dup2\n        /* \"#utility.yul\":10196:10205   */\n      add\n        /* \"#utility.yul\":10191:10205   */\n      swap1\n      pop\n        /* \"#utility.yul\":10156:10440   */\n      jump(tag_567)\n    tag_569:\n        /* \"#utility.yul\":10160:10174   */\n      pop\n        /* \"#utility.yul\":10456:10459   */\n      dup6\n        /* \"#utility.yul\":10449:10459   */\n      swap4\n      pop\n        /* \"#utility.yul\":9857:10465   */\n      pop\n      pop\n      pop\n        /* \"#utility.yul\":9733:10465   */\n      swap3\n      swap2\n      pop\n      pop\n      jump\t// out\n        /* \"#utility.yul\":10471:10844   */\n    tag_84:\n        /* \"#utility.yul\":10614:10618   */\n      0x00\n        /* \"#utility.yul\":10652:10654   */\n      0x20\n        /* \"#utility.yul\":10641:10650   */\n      dup3\n        /* \"#utility.yul\":10637:10655   */\n      add\n        /* \"#utility.yul\":10629:10655   */\n      swap1\n      pop\n        /* \"#utility.yul\":10701:10710   */\n      dup2\n        /* \"#utility.yul\":10695:10699   */\n      dup2\n        /* \"#utility.yul\":10691:10711   */\n      sub\n        /* \"#utility.yul\":10687:10688   */\n      0x00\n        /* \"#utility.yul\":10676:10685   */\n      dup4\n        /* \"#utility.yul\":10672:10689   */\n      add\n        /* \"#utility.yul\":10665:10712   */\n      mstore\n        /* \"#utility.yul\":10729:10837   */\n      tag_573\n        /* \"#utility.yul\":10832:10836   */\n      dup2\n        /* \"#utility.yul\":10823:10829   */\n      dup5\n        /* \"#utility.yul\":10729:10837   */\n      tag_389\n      jump\t// in\n    tag_573:\n        /* \"#utility.yul\":10721:10837   */\n      swap1\n      pop\n        /* \"#utility.yul\":10471:10844   */\n      swap3\n      swap2\n      pop\n      pop\n      jump\t// out\n        /* \"#utility.yul\":10850:10967   */\n    tag_390:\n        /* \"#utility.yul\":10959:10960   */\n      0x00\n        /* \"#utility.yul\":10956:10957   */\n      dup1\n        /* \"#utility.yul\":10949:10961   */\n      revert\n        /* \"#utility.yul\":10973:11090   */\n    tag_391:\n        /* \"#utility.yul\":11082:11083   */\n      0x00\n        /* \"#utility.yul\":11079:11080   */\n      dup1\n        /* \"#utility.yul\":11072:11084   */\n      revert\n        /* \"#utility.yul\":11096:11276   */\n    tag_193:\n        /* \"#utility.yul\":11144:11221   */\n      0x4e487b7100000000000000000000000000000000000000000000000000000000\n        /* \"#utility.yul\":11141:11142   */\n      0x00\n        /* \"#utility.yul\":11134:11222   */\n      mstore\n        /* \"#utility.yul\":11241:11245   */\n      0x41\n        /* \"#utility.yul\":11238:11239   */\n      0x04\n        /* \"#utility.yul\":11231:11246   */\n      mstore\n        /* \"#utility.yul\":11265:11269   */\n      0x24\n        /* \"#utility.yul\":11262:11263   */\n      0x00\n        /* \"#utility.yul\":11255:11270   */\n      revert\n        /* \"#utility.yul\":11282:11563   */\n    tag_392:\n        /* \"#utility.yul\":11365:11392   */\n      tag_578\n        /* \"#utility.yul\":11387:11391   */\n      dup3\n        /* \"#utility.yul\":11365:11392   */\n      tag_360\n      jump\t// in\n    tag_578:\n        /* \"#utility.yul\":11357:11363   */\n      dup2\n        /* \"#utility.yul\":11353:11393   */\n      add\n        /* \"#utility.yul\":11495:11501   */\n      dup2\n        /* \"#utility.yul\":11483:11493   */\n      dup2\n        /* \"#utility.yul\":11480:11502   */\n      lt\n        /* \"#utility.yul\":11459:11477   */\n      0xffffffffffffffff\n        /* \"#utility.yul\":11447:11457   */\n      dup3\n        /* \"#utility.yul\":11444:11478   */\n      gt\n        /* \"#utility.yul\":11441:11503   */\n      or\n        /* \"#utility.yul\":11438:11526   */\n      iszero\n      tag_579\n      jumpi\n        /* \"#utility.yul\":11506:11524   */\n      tag_580\n      tag_193\n      jump\t// in\n    tag_580:\n        /* \"#utility.yul\":11438:11526   */\n    tag_579:\n        /* \"#utility.yul\":11546:11556   */\n      dup1\n        /* \"#utility.yul\":11542:11544   */\n      0x40\n        /* \"#utility.yul\":11535:11557   */\n      mstore\n        /* \"#utility.yul\":11325:11563   */\n      pop\n        /* \"#utility.yul\":11282:11563   */\n      pop\n      pop\n      jump\t// out\n        /* \"#utility.yul\":11569:11698   */\n    tag_393:\n        /* \"#utility.yul\":11603:11609   */\n      0x00\n        /* \"#utility.yul\":11630:11650   */\n      tag_582\n      tag_362\n      jump\t// in\n    tag_582:\n        /* \"#utility.yul\":11620:11650   */\n      swap1\n      pop\n        /* \"#utility.yul\":11659:11692   */\n      tag_583\n        /* \"#utility.yul\":11687:11691   */\n      dup3\n        /* \"#utility.yul\":11679:11685   */\n      dup3\n        /* \"#utility.yul\":11659:11692   */\n      tag_392\n      jump\t// in\n    tag_583:\n        /* \"#utility.yul\":11569:11698   */\n      swap2\n      swap1\n      pop\n      jump\t// out\n        /* \"#utility.yul\":11704:12012   */\n    tag_394:\n        /* \"#utility.yul\":11766:11770   */\n      0x00\n        /* \"#utility.yul\":11856:11874   */\n      0xffffffffffffffff\n        /* \"#utility.yul\":11848:11854   */\n      dup3\n        /* \"#utility.yul\":11845:11875   */\n      gt\n        /* \"#utility.yul\":11842:11898   */\n      iszero\n      tag_585\n      jumpi\n        /* \"#utility.yul\":11878:11896   */\n      tag_586\n      tag_193\n      jump\t// in\n    tag_586:\n        /* \"#utility.yul\":11842:11898   */\n    tag_585:\n        /* \"#utility.yul\":11916:11945   */\n      tag_587\n        /* \"#utility.yul\":11938:11944   */\n      dup3\n        /* \"#utility.yul\":11916:11945   */\n      tag_360\n      jump\t// in\n    tag_587:\n        /* \"#utility.yul\":11908:11945   */\n      swap1\n      pop\n        /* \"#utility.yul\":12000:12004   */\n      0x20\n        /* \"#utility.yul\":11994:11998   */\n      dup2\n        /* \"#utility.yul\":11990:12005   */\n      add\n        /* \"#utility.yul\":11982:12005   */\n      swap1\n      pop\n        /* \"#utility.yul\":11704:12012   */\n      swap2\n      swap1\n      pop\n      jump\t// out\n        /* \"#utility.yul\":12018:12164   */\n    tag_395:\n        /* \"#utility.yul\":12115:12121   */\n      dup3\n        /* \"#utility.yul\":12110:12113   */\n      dup2\n        /* \"#utility.yul\":12105:12108   */\n      dup4\n        /* \"#utility.yul\":12092:12122   */\n      calldatacopy\n        /* \"#utility.yul\":12156:12157   */\n      0x00\n        /* \"#utility.yul\":12147:12153   */\n      dup4\n        /* \"#utility.yul\":12142:12145   */\n      dup4\n        /* \"#utility.yul\":12138:12154   */\n      add\n        /* \"#utility.yul\":12131:12158   */\n      mstore\n        /* \"#utility.yul\":12018:12164   */\n      pop\n      pop\n      pop\n      jump\t// out\n        /* \"#utility.yul\":12170:12595   */\n    tag_396:\n        /* \"#utility.yul\":12248:12253   */\n      0x00\n        /* \"#utility.yul\":12273:12339   */\n      tag_590\n        /* \"#utility.yul\":12289:12338   */\n      tag_591\n        /* \"#utility.yul\":12331:12337   */\n      dup5\n        /* \"#utility.yul\":12289:12338   */\n      tag_394\n      jump\t// in\n    tag_591:\n        /* \"#utility.yul\":12273:12339   */\n      tag_393\n      jump\t// in\n    tag_590:\n        /* \"#utility.yul\":12264:12339   */\n      swap1\n      pop\n        /* \"#utility.yul\":12362:12368   */\n      dup3\n        /* \"#utility.yul\":12355:12360   */\n      dup2\n        /* \"#utility.yul\":12348:12369   */\n      mstore\n        /* \"#utility.yul\":12400:12404   */\n      0x20\n        /* \"#utility.yul\":12393:12398   */\n      dup2\n        /* \"#utility.yul\":12389:12405   */\n      add\n        /* \"#utility.yul\":12438:12441   */\n      dup5\n        /* \"#utility.yul\":12429:12435   */\n      dup5\n        /* \"#utility.yul\":12424:12427   */\n      dup5\n        /* \"#utility.yul\":12420:12436   */\n      add\n        /* \"#utility.yul\":12417:12442   */\n      gt\n        /* \"#utility.yul\":12414:12526   */\n      iszero\n      tag_592\n      jumpi\n        /* \"#utility.yul\":12445:12524   */\n      tag_593\n      tag_391\n      jump\t// in\n    tag_593:\n        /* \"#utility.yul\":12414:12526   */\n    tag_592:\n        /* \"#utility.yul\":12535:12589   */\n      tag_594\n        /* \"#utility.yul\":12582:12588   */\n      dup5\n        /* \"#utility.yul\":12577:12580   */\n      dup3\n        /* \"#utility.yul\":12572:12575   */\n      dup6\n        /* \"#utility.yul\":12535:12589   */\n      tag_395\n      jump\t// in\n    tag_594:\n        /* \"#utility.yul\":12254:12595   */\n      pop\n        /* \"#utility.yul\":12170:12595   */\n      swap4\n      swap3\n      pop\n      pop\n      pop\n      jump\t// out\n        /* \"#utility.yul\":12615:12955   */\n    tag_397:\n        /* \"#utility.yul\":12671:12676   */\n      0x00\n        /* \"#utility.yul\":12720:12723   */\n      dup3\n        /* \"#utility.yul\":12713:12717   */\n      0x1f\n        /* \"#utility.yul\":12705:12711   */\n      dup4\n        /* \"#utility.yul\":12701:12718   */\n      add\n        /* \"#utility.yul\":12697:12724   */\n      slt\n        /* \"#utility.yul\":12687:12809   */\n      tag_596\n      jumpi\n        /* \"#utility.yul\":12728:12807   */\n      tag_597\n      tag_390\n      jump\t// in\n    tag_597:\n        /* \"#utility.yul\":12687:12809   */\n    tag_596:\n        /* \"#utility.yul\":12845:12851   */\n      dup2\n        /* \"#utility.yul\":12832:12852   */\n      calldataload\n        /* \"#utility.yul\":12870:12949   */\n      tag_598\n        /* \"#utility.yul\":12945:12948   */\n      dup5\n        /* \"#utility.yul\":12937:12943   */\n      dup3\n        /* \"#utility.yul\":12930:12934   */\n      0x20\n        /* \"#utility.yul\":12922:12928   */\n      dup7\n        /* \"#utility.yul\":12918:12935   */\n      add\n        /* \"#utility.yul\":12870:12949   */\n      tag_396\n      jump\t// in\n    tag_598:\n        /* \"#utility.yul\":12861:12949   */\n      swap2\n      pop\n        /* \"#utility.yul\":12677:12955   */\n      pop\n        /* \"#utility.yul\":12615:12955   */\n      swap3\n      swap2\n      pop\n      pop\n      jump\t// out\n        /* \"#utility.yul\":12961:13940   */\n    tag_93:\n        /* \"#utility.yul\":13058:13064   */\n      0x00\n        /* \"#utility.yul\":13066:13072   */\n      dup1\n        /* \"#utility.yul\":13074:13080   */\n      0x00\n        /* \"#utility.yul\":13123:13125   */\n      0x60\n        /* \"#utility.yul\":13111:13120   */\n      dup5\n        /* \"#utility.yul\":13102:13109   */\n      dup7\n        /* \"#utility.yul\":13098:13121   */\n      sub\n        /* \"#utility.yul\":13094:13126   */\n      slt\n        /* \"#utility.yul\":13091:13210   */\n      iszero\n      tag_600\n      jumpi\n        /* \"#utility.yul\":13129:13208   */\n      tag_601\n      tag_363\n      jump\t// in\n    tag_601:\n        /* \"#utility.yul\":13091:13210   */\n    tag_600:\n        /* \"#utility.yul\":13277:13278   */\n      0x00\n        /* \"#utility.yul\":13266:13275   */\n      dup5\n        /* \"#utility.yul\":13262:13279   */\n      add\n        /* \"#utility.yul\":13249:13280   */\n      calldataload\n        /* \"#utility.yul\":13307:13325   */\n      0xffffffffffffffff\n        /* \"#utility.yul\":13299:13305   */\n      dup2\n        /* \"#utility.yul\":13296:13326   */\n      gt\n        /* \"#utility.yul\":13293:13410   */\n      iszero\n      tag_602\n      jumpi\n        /* \"#utility.yul\":13329:13408   */\n      tag_603\n      tag_364\n      jump\t// in\n    tag_603:\n        /* \"#utility.yul\":13293:13410   */\n    tag_602:\n        /* \"#utility.yul\":13434:13497   */\n      tag_604\n        /* \"#utility.yul\":13489:13496   */\n      dup7\n        /* \"#utility.yul\":13480:13486   */\n      dup3\n        /* \"#utility.yul\":13469:13478   */\n      dup8\n        /* \"#utility.yul\":13465:13487   */\n      add\n        /* \"#utility.yul\":13434:13497   */\n      tag_397\n      jump\t// in\n    tag_604:\n        /* \"#utility.yul\":13424:13497   */\n      swap4\n      pop\n        /* \"#utility.yul\":13220:13507   */\n      pop\n        /* \"#utility.yul\":13546:13548   */\n      0x20\n        /* \"#utility.yul\":13572:13625   */\n      tag_605\n        /* \"#utility.yul\":13617:13624   */\n      dup7\n        /* \"#utility.yul\":13608:13614   */\n      dup3\n        /* \"#utility.yul\":13597:13606   */\n      dup8\n        /* \"#utility.yul\":13593:13615   */\n      add\n        /* \"#utility.yul\":13572:13625   */\n      tag_371\n      jump\t// in\n    tag_605:\n        /* \"#utility.yul\":13562:13625   */\n      swap3\n      pop\n        /* \"#utility.yul\":13517:13635   */\n      pop\n        /* \"#utility.yul\":13702:13704   */\n      0x40\n        /* \"#utility.yul\":13691:13700   */\n      dup5\n        /* \"#utility.yul\":13687:13705   */\n      add\n        /* \"#utility.yul\":13674:13706   */\n      calldataload\n        /* \"#utility.yul\":13733:13751   */\n      0xffffffffffffffff\n        /* \"#utility.yul\":13725:13731   */\n      dup2\n        /* \"#utility.yul\":13722:13752   */\n      gt\n        /* \"#utility.yul\":13719:13836   */\n      iszero\n      tag_606\n      jumpi\n        /* \"#utility.yul\":13755:13834   */\n      tag_607\n      tag_364\n      jump\t// in\n    tag_607:\n        /* \"#utility.yul\":13719:13836   */\n    tag_606:\n        /* \"#utility.yul\":13860:13923   */\n      tag_608\n        /* \"#utility.yul\":13915:13922   */\n      dup7\n        /* \"#utility.yul\":13906:13912   */\n      dup3\n        /* \"#utility.yul\":13895:13904   */\n      dup8\n        /* \"#utility.yul\":13891:13913   */\n      add\n        /* \"#utility.yul\":13860:13923   */\n      tag_397\n      jump\t// in\n    tag_608:\n        /* \"#utility.yul\":13850:13923   */\n      swap2\n      pop\n        /* \"#utility.yul\":13645:13933   */\n      pop\n        /* \"#utility.yul\":12961:13940   */\n      swap3\n      pop\n      swap3\n      pop\n      swap3\n      jump\t// out\n        /* \"#utility.yul\":13946:14420   */\n    tag_108:\n        /* \"#utility.yul\":14014:14020   */\n      0x00\n        /* \"#utility.yul\":14022:14028   */\n      dup1\n        /* \"#utility.yul\":14071:14073   */\n      0x40\n        /* \"#utility.yul\":14059:14068   */\n      dup4\n        /* \"#utility.yul\":14050:14057   */\n      dup6\n        /* \"#utility.yul\":14046:14069   */\n      sub\n        /* \"#utility.yul\":14042:14074   */\n      slt\n        /* \"#utility.yul\":14039:14158   */\n      iszero\n      tag_610\n      jumpi\n        /* \"#utility.yul\":14077:14156   */\n      tag_611\n      tag_363\n      jump\t// in\n    tag_611:\n        /* \"#utility.yul\":14039:14158   */\n    tag_610:\n        /* \"#utility.yul\":14197:14198   */\n      0x00\n        /* \"#utility.yul\":14222:14275   */\n      tag_612\n        /* \"#utility.yul\":14267:14274   */\n      dup6\n        /* \"#utility.yul\":14258:14264   */\n      dup3\n        /* \"#utility.yul\":14247:14256   */\n      dup7\n        /* \"#utility.yul\":14243:14265   */\n      add\n        /* \"#utility.yul\":14222:14275   */\n      tag_368\n      jump\t// in\n    tag_612:\n        /* \"#utility.yul\":14212:14275   */\n      swap3\n      pop\n        /* \"#utility.yul\":14168:14285   */\n      pop\n        /* \"#utility.yul\":14324:14326   */\n      0x20\n        /* \"#utility.yul\":14350:14403   */\n      tag_613\n        /* \"#utility.yul\":14395:14402   */\n      dup6\n        /* \"#utility.yul\":14386:14392   */\n      dup3\n        /* \"#utility.yul\":14375:14384   */\n      dup7\n        /* \"#utility.yul\":14371:14393   */\n      add\n        /* \"#utility.yul\":14350:14403   */\n      tag_368\n      jump\t// in\n    tag_613:\n        /* \"#utility.yul\":14340:14403   */\n      swap2\n      pop\n        /* \"#utility.yul\":14295:14413   */\n      pop\n        /* \"#utility.yul\":13946:14420   */\n      swap3\n      pop\n      swap3\n      swap1\n      pop\n      jump\t// out\n        /* \"#utility.yul\":14426:15080   */\n    tag_113:\n        /* \"#utility.yul\":14504:14510   */\n      0x00\n        /* \"#utility.yul\":14512:14518   */\n      dup1\n        /* \"#utility.yul\":14561:14563   */\n      0x40\n        /* \"#utility.yul\":14549:14558   */\n      dup4\n        /* \"#utility.yul\":14540:14547   */\n      dup6\n        /* \"#utility.yul\":14536:14559   */\n      sub\n        /* \"#utility.yul\":14532:14564   */\n      slt\n        /* \"#utility.yul\":14529:14648   */\n      iszero\n      tag_615\n      jumpi\n        /* \"#utility.yul\":14567:14646   */\n      tag_616\n      tag_363\n      jump\t// in\n    tag_616:\n        /* \"#utility.yul\":14529:14648   */\n    tag_615:\n        /* \"#utility.yul\":14687:14688   */\n      0x00\n        /* \"#utility.yul\":14712:14765   */\n      tag_617\n        /* \"#utility.yul\":14757:14764   */\n      dup6\n        /* \"#utility.yul\":14748:14754   */\n      dup3\n        /* \"#utility.yul\":14737:14746   */\n      dup7\n        /* \"#utility.yul\":14733:14755   */\n      add\n        /* \"#utility.yul\":14712:14765   */\n      tag_368\n      jump\t// in\n    tag_617:\n        /* \"#utility.yul\":14702:14765   */\n      swap3\n      pop\n        /* \"#utility.yul\":14658:14775   */\n      pop\n        /* \"#utility.yul\":14842:14844   */\n      0x20\n        /* \"#utility.yul\":14831:14840   */\n      dup4\n        /* \"#utility.yul\":14827:14845   */\n      add\n        /* \"#utility.yul\":14814:14846   */\n      calldataload\n        /* \"#utility.yul\":14873:14891   */\n      0xffffffffffffffff\n        /* \"#utility.yul\":14865:14871   */\n      dup2\n        /* \"#utility.yul\":14862:14892   */\n      gt\n        /* \"#utility.yul\":14859:14976   */\n      iszero\n      tag_618\n      jumpi\n        /* \"#utility.yul\":14895:14974   */\n      tag_619\n      tag_364\n      jump\t// in\n    tag_619:\n        /* \"#utility.yul\":14859:14976   */\n    tag_618:\n        /* \"#utility.yul\":15000:15063   */\n      tag_620\n        /* \"#utility.yul\":15055:15062   */\n      dup6\n        /* \"#utility.yul\":15046:15052   */\n      dup3\n        /* \"#utility.yul\":15035:15044   */\n      dup7\n        /* \"#utility.yul\":15031:15053   */\n      add\n        /* \"#utility.yul\":15000:15063   */\n      tag_397\n      jump\t// in\n    tag_620:\n        /* \"#utility.yul\":14990:15063   */\n      swap2\n      pop\n        /* \"#utility.yul\":14785:15073   */\n      pop\n        /* \"#utility.yul\":14426:15080   */\n      swap3\n      pop\n      swap3\n      swap1\n      pop\n      jump\t// out\n        /* \"#utility.yul\":15086:15146   */\n    tag_398:\n        /* \"#utility.yul\":15114:15117   */\n      0x00\n        /* \"#utility.yul\":15135:15140   */\n      dup2\n        /* \"#utility.yul\":15128:15140   */\n      swap1\n      pop\n        /* \"#utility.yul\":15086:15146   */\n      swap2\n      swap1\n      pop\n      jump\t// out\n        /* \"#utility.yul\":15152:15294   */\n    tag_399:\n        /* \"#utility.yul\":15202:15211   */\n      0x00\n        /* \"#utility.yul\":15235:15288   */\n      tag_623\n        /* \"#utility.yul\":15253:15287   */\n      tag_624\n        /* \"#utility.yul\":15262:15286   */\n      tag_625\n        /* \"#utility.yul\":15280:15285   */\n      dup5\n        /* \"#utility.yul\":15262:15286   */\n      tag_365\n      jump\t// in\n    tag_625:\n        /* \"#utility.yul\":15253:15287   */\n      tag_398\n      jump\t// in\n    tag_624:\n        /* \"#utility.yul\":15235:15288   */\n      tag_365\n      jump\t// in\n    tag_623:\n        /* \"#utility.yul\":15222:15288   */\n      swap1\n      pop\n        /* \"#utility.yul\":15152:15294   */\n      swap2\n      swap1\n      pop\n      jump\t// out\n        /* \"#utility.yul\":15300:15426   */\n    tag_400:\n        /* \"#utility.yul\":15350:15359   */\n      0x00\n        /* \"#utility.yul\":15383:15420   */\n      tag_627\n        /* \"#utility.yul\":15414:15419   */\n      dup3\n        /* \"#utility.yul\":15383:15420   */\n      tag_399\n      jump\t// in\n    tag_627:\n        /* \"#utility.yul\":15370:15420   */\n      swap1\n      pop\n        /* \"#utility.yul\":15300:15426   */\n      swap2\n      swap1\n      pop\n      jump\t// out\n        /* \"#utility.yul\":15432:15572   */\n    tag_401:\n        /* \"#utility.yul\":15496:15505   */\n      0x00\n        /* \"#utility.yul\":15529:15566   */\n      tag_629\n        /* \"#utility.yul\":15560:15565   */\n      dup3\n        /* \"#utility.yul\":15529:15566   */\n      tag_400\n      jump\t// in\n    tag_629:\n        /* \"#utility.yul\":15516:15566   */\n      swap1\n      pop\n        /* \"#utility.yul\":15432:15572   */\n      swap2\n      swap1\n      pop\n      jump\t// out\n        /* \"#utility.yul\":15578:15737   */\n    tag_402:\n        /* \"#utility.yul\":15679:15730   */\n      tag_631\n        /* \"#utility.yul\":15724:15729   */\n      dup2\n        /* \"#utility.yul\":15679:15730   */\n      tag_401\n      jump\t// in\n    tag_631:\n        /* \"#utility.yul\":15674:15677   */\n      dup3\n        /* \"#utility.yul\":15667:15731   */\n      mstore\n        /* \"#utility.yul\":15578:15737   */\n      pop\n      pop\n      jump\t// out\n        /* \"#utility.yul\":15743:15993   */\n    tag_125:\n        /* \"#utility.yul\":15850:15854   */\n      0x00\n        /* \"#utility.yul\":15888:15890   */\n      0x20\n        /* \"#utility.yul\":15877:15886   */\n      dup3\n        /* \"#utility.yul\":15873:15891   */\n      add\n        /* \"#utility.yul\":15865:15891   */\n      swap1\n      pop\n        /* \"#utility.yul\":15901:15986   */\n      tag_633\n        /* \"#utility.yul\":15983:15984   */\n      0x00\n        /* \"#utility.yul\":15972:15981   */\n      dup4\n        /* \"#utility.yul\":15968:15985   */\n      add\n        /* \"#utility.yul\":15959:15965   */\n      dup5\n        /* \"#utility.yul\":15901:15986   */\n      tag_402\n      jump\t// in\n    tag_633:\n        /* \"#utility.yul\":15743:15993   */\n      swap3\n      swap2\n      pop\n      pop\n      jump\t// out\n        /* \"#utility.yul\":15999:16179   */\n    tag_403:\n        /* \"#utility.yul\":16047:16124   */\n      0x4e487b7100000000000000000000000000000000000000000000000000000000\n        /* \"#utility.yul\":16044:16045   */\n      0x00\n        /* \"#utility.yul\":16037:16125   */\n      mstore\n        /* \"#utility.yul\":16144:16148   */\n      0x22\n        /* \"#utility.yul\":16141:16142   */\n      0x04\n        /* \"#utility.yul\":16134:16149   */\n      mstore\n        /* \"#utility.yul\":16168:16172   */\n      0x24\n        /* \"#utility.yul\":16165:16166   */\n      0x00\n        /* \"#utility.yul\":16158:16173   */\n      revert\n        /* \"#utility.yul\":16185:16505   */\n    tag_128:\n        /* \"#utility.yul\":16229:16235   */\n      0x00\n        /* \"#utility.yul\":16266:16267   */\n      0x02\n        /* \"#utility.yul\":16260:16264   */\n      dup3\n        /* \"#utility.yul\":16256:16268   */\n      div\n        /* \"#utility.yul\":16246:16268   */\n      swap1\n      pop\n        /* \"#utility.yul\":16313:16314   */\n      0x01\n        /* \"#utility.yul\":16307:16311   */\n      dup3\n        /* \"#utility.yul\":16303:16315   */\n      and\n        /* \"#utility.yul\":16334:16352   */\n      dup1\n        /* \"#utility.yul\":16324:16405   */\n      tag_636\n      jumpi\n        /* \"#utility.yul\":16390:16394   */\n      0x7f\n        /* \"#utility.yul\":16382:16388   */\n      dup3\n        /* \"#utility.yul\":16378:16395   */\n      and\n        /* \"#utility.yul\":16368:16395   */\n      swap2\n      pop\n        /* \"#utility.yul\":16324:16405   */\n    tag_636:\n        /* \"#utility.yul\":16452:16454   */\n      0x20\n        /* \"#utility.yul\":16444:16450   */\n      dup3\n        /* \"#utility.yul\":16441:16455   */\n      lt\n        /* \"#utility.yul\":16421:16439   */\n      dup2\n        /* \"#utility.yul\":16418:16456   */\n      sub\n        /* \"#utility.yul\":16415:16499   */\n      tag_637\n      jumpi\n        /* \"#utility.yul\":16471:16489   */\n      tag_638\n      tag_403\n      jump\t// in\n    tag_638:\n        /* \"#utility.yul\":16415:16499   */\n    tag_637:\n        /* \"#utility.yul\":16236:16505   */\n      pop\n        /* \"#utility.yul\":16185:16505   */\n      swap2\n      swap1\n      pop\n      jump\t// out\n        /* \"#utility.yul\":16511:16731   */\n    tag_404:\n        /* \"#utility.yul\":16651:16685   */\n      0x596f752063616e6e6f7420696e746572616374207769746820796f757273656c\n        /* \"#utility.yul\":16647:16648   */\n      0x00\n        /* \"#utility.yul\":16639:16645   */\n      dup3\n        /* \"#utility.yul\":16635:16649   */\n      add\n        /* \"#utility.yul\":16628:16686   */\n      mstore\n        /* \"#utility.yul\":16720:16723   */\n      0x6600000000000000000000000000000000000000000000000000000000000000\n        /* \"#utility.yul\":16715:16717   */\n      0x20\n        /* \"#utility.yul\":16707:16713   */\n      dup3\n        /* \"#utility.yul\":16703:16718   */\n      add\n        /* \"#utility.yul\":16696:16724   */\n      mstore\n        /* \"#utility.yul\":16511:16731   */\n      pop\n      jump\t// out\n        /* \"#utility.yul\":16737:17103   */\n    tag_405:\n        /* \"#utility.yul\":16879:16882   */\n      0x00\n        /* \"#utility.yul\":16900:16967   */\n      tag_641\n        /* \"#utility.yul\":16964:16966   */\n      0x21\n        /* \"#utility.yul\":16959:16962   */\n      dup4\n        /* \"#utility.yul\":16900:16967   */\n      tag_358\n      jump\t// in\n    tag_641:\n        /* \"#utility.yul\":16893:16967   */\n      swap2\n      pop\n        /* \"#utility.yul\":16976:17069   */\n      tag_642\n        /* \"#utility.yul\":17065:17068   */\n      dup3\n        /* \"#utility.yul\":16976:17069   */\n      tag_404\n      jump\t// in\n    tag_642:\n        /* \"#utility.yul\":17094:17096   */\n      0x40\n        /* \"#utility.yul\":17089:17092   */\n      dup3\n        /* \"#utility.yul\":17085:17097   */\n      add\n        /* \"#utility.yul\":17078:17097   */\n      swap1\n      pop\n        /* \"#utility.yul\":16737:17103   */\n      swap2\n      swap1\n      pop\n      jump\t// out\n        /* \"#utility.yul\":17109:17528   */\n    tag_169:\n        /* \"#utility.yul\":17275:17279   */\n      0x00\n        /* \"#utility.yul\":17313:17315   */\n      0x20\n        /* \"#utility.yul\":17302:17311   */\n      dup3\n        /* \"#utility.yul\":17298:17316   */\n      add\n        /* \"#utility.yul\":17290:17316   */\n      swap1\n      pop\n        /* \"#utility.yul\":17362:17371   */\n      dup2\n        /* \"#utility.yul\":17356:17360   */\n      dup2\n        /* \"#utility.yul\":17352:17372   */\n      sub\n        /* \"#utility.yul\":17348:17349   */\n      0x00\n        /* \"#utility.yul\":17337:17346   */\n      dup4\n        /* \"#utility.yul\":17333:17350   */\n      add\n        /* \"#utility.yul\":17326:17373   */\n      mstore\n        /* \"#utility.yul\":17390:17521   */\n      tag_644\n        /* \"#utility.yul\":17516:17520   */\n      dup2\n        /* \"#utility.yul\":17390:17521   */\n      tag_405\n      jump\t// in\n    tag_644:\n        /* \"#utility.yul\":17382:17521   */\n      swap1\n      pop\n        /* \"#utility.yul\":17109:17528   */\n      swap2\n      swap1\n      pop\n      jump\t// out\n        /* \"#utility.yul\":17534:17764   */\n    tag_406:\n        /* \"#utility.yul\":17674:17708   */\n      0x55736572206d757374206861766520612070726f66696c65207769746820696e\n        /* \"#utility.yul\":17670:17671   */\n      0x00\n        /* \"#utility.yul\":17662:17668   */\n      dup3\n        /* \"#utility.yul\":17658:17672   */\n      add\n        /* \"#utility.yul\":17651:17709   */\n      mstore\n        /* \"#utility.yul\":17743:17756   */\n      0x746572616374696f6e732e000000000000000000000000000000000000000000\n        /* \"#utility.yul\":17738:17740   */\n      0x20\n        /* \"#utility.yul\":17730:17736   */\n      dup3\n        /* \"#utility.yul\":17726:17741   */\n      add\n        /* \"#utility.yul\":17719:17757   */\n      mstore\n        /* \"#utility.yul\":17534:17764   */\n      pop\n      jump\t// out\n        /* \"#utility.yul\":17770:18136   */\n    tag_407:\n        /* \"#utility.yul\":17912:17915   */\n      0x00\n        /* \"#utility.yul\":17933:18000   */\n      tag_647\n        /* \"#utility.yul\":17997:17999   */\n      0x2b\n        /* \"#utility.yul\":17992:17995   */\n      dup4\n        /* \"#utility.yul\":17933:18000   */\n      tag_358\n      jump\t// in\n    tag_647:\n        /* \"#utility.yul\":17926:18000   */\n      swap2\n      pop\n        /* \"#utility.yul\":18009:18102   */\n      tag_648\n        /* \"#utility.yul\":18098:18101   */\n      dup3\n        /* \"#utility.yul\":18009:18102   */\n      tag_406\n      jump\t// in\n    tag_648:\n        /* \"#utility.yul\":18127:18129   */\n      0x40\n        /* \"#utility.yul\":18122:18125   */\n      dup3\n        /* \"#utility.yul\":18118:18130   */\n      add\n        /* \"#utility.yul\":18111:18130   */\n      swap1\n      pop\n        /* \"#utility.yul\":17770:18136   */\n      swap2\n      swap1\n      pop\n      jump\t// out\n        /* \"#utility.yul\":18142:18561   */\n    tag_172:\n        /* \"#utility.yul\":18308:18312   */\n      0x00\n        /* \"#utility.yul\":18346:18348   */\n      0x20\n        /* \"#utility.yul\":18335:18344   */\n      dup3\n        /* \"#utility.yul\":18331:18349   */\n      add\n        /* \"#utility.yul\":18323:18349   */\n      swap1\n      pop\n        /* \"#utility.yul\":18395:18404   */\n      dup2\n        /* \"#utility.yul\":18389:18393   */\n      dup2\n        /* \"#utility.yul\":18385:18405   */\n      sub\n        /* \"#utility.yul\":18381:18382   */\n      0x00\n        /* \"#utility.yul\":18370:18379   */\n      dup4\n        /* \"#utility.yul\":18366:18383   */\n      add\n        /* \"#utility.yul\":18359:18406   */\n      mstore\n        /* \"#utility.yul\":18423:18554   */\n      tag_650\n        /* \"#utility.yul\":18549:18553   */\n      dup2\n        /* \"#utility.yul\":18423:18554   */\n      tag_407\n      jump\t// in\n    tag_650:\n        /* \"#utility.yul\":18415:18554   */\n      swap1\n      pop\n        /* \"#utility.yul\":18142:18561   */\n      swap2\n      swap1\n      pop\n      jump\t// out\n        /* \"#utility.yul\":18567:18747   */\n    tag_408:\n        /* \"#utility.yul\":18615:18692   */\n      0x4e487b7100000000000000000000000000000000000000000000000000000000\n        /* \"#utility.yul\":18612:18613   */\n      0x00\n        /* \"#utility.yul\":18605:18693   */\n      mstore\n        /* \"#utility.yul\":18712:18716   */\n      0x11\n        /* \"#utility.yul\":18709:18710   */\n      0x04\n        /* \"#utility.yul\":18702:18717   */\n      mstore\n        /* \"#utility.yul\":18736:18740   */\n      0x24\n        /* \"#utility.yul\":18733:18734   */\n      0x00\n        /* \"#utility.yul\":18726:18741   */\n      revert\n        /* \"#utility.yul\":18753:18986   */\n    tag_177:\n        /* \"#utility.yul\":18792:18795   */\n      0x00\n        /* \"#utility.yul\":18815:18839   */\n      tag_653\n        /* \"#utility.yul\":18833:18838   */\n      dup3\n        /* \"#utility.yul\":18815:18839   */\n      tag_369\n      jump\t// in\n    tag_653:\n        /* \"#utility.yul\":18806:18839   */\n      swap2\n      pop\n        /* \"#utility.yul\":18861:18927   */\n      0xffffffffffffffffffffffffffffffffffffffffffffffffffffffffffffffff\n        /* \"#utility.yul\":18854:18859   */\n      dup3\n        /* \"#utility.yul\":18851:18928   */\n      sub\n        /* \"#utility.yul\":18848:18951   */\n      tag_654\n      jumpi\n        /* \"#utility.yul\":18931:18949   */\n      tag_655\n      tag_408\n      jump\t// in\n    tag_655:\n        /* \"#utility.yul\":18848:18951   */\n    tag_654:\n        /* \"#utility.yul\":18978:18979   */\n      0x01\n        /* \"#utility.yul\":18971:18976   */\n      dup3\n        /* \"#utility.yul\":18967:18980   */\n      add\n        /* \"#utility.yul\":18960:18980   */\n      swap1\n      pop\n        /* \"#utility.yul\":18753:18986   */\n      swap2\n      swap1\n      pop\n      jump\t// out\n        /* \"#utility.yul\":18992:19165   */\n    tag_409:\n        /* \"#utility.yul\":19132:19157   */\n      0x557365722070726f66696c65206d757374206578697374000000000000000000\n        /* \"#utility.yul\":19128:19129   */\n      0x00\n        /* \"#utility.yul\":19120:19126   */\n      dup3\n        /* \"#utility.yul\":19116:19130   */\n      add\n        /* \"#utility.yul\":19109:19158   */\n      mstore\n        /* \"#utility.yul\":18992:19165   */\n      pop\n      jump\t// out\n        /* \"#utility.yul\":19171:19537   */\n    tag_410:\n        /* \"#utility.yul\":19313:19316   */\n      0x00\n        /* \"#utility.yul\":19334:19401   */\n      tag_658\n        /* \"#utility.yul\":19398:19400   */\n      0x17\n        /* \"#utility.yul\":19393:19396   */\n      dup4\n        /* \"#utility.yul\":19334:19401   */\n      tag_358\n      jump\t// in\n    tag_658:\n        /* \"#utility.yul\":19327:19401   */\n      swap2\n      pop\n        /* \"#utility.yul\":19410:19503   */\n      tag_659\n        /* \"#utility.yul\":19499:19502   */\n      dup3\n        /* \"#utility.yul\":19410:19503   */\n      tag_409\n      jump\t// in\n    tag_659:\n        /* \"#utility.yul\":19528:19530   */\n      0x20\n        /* \"#utility.yul\":19523:19526   */\n      dup3\n        /* \"#utility.yul\":19519:19531   */\n      add\n        /* \"#utility.yul\":19512:19531   */\n      swap1\n      pop\n        /* \"#utility.yul\":19171:19537   */\n      swap2\n      swap1\n      pop\n      jump\t// out\n        /* \"#utility.yul\":19543:19962   */\n    tag_181:\n        /* \"#utility.yul\":19709:19713   */\n      0x00\n        /* \"#utility.yul\":19747:19749   */\n      0x20\n        /* \"#utility.yul\":19736:19745   */\n      dup3\n        /* \"#utility.yul\":19732:19750   */\n      add\n        /* \"#utility.yul\":19724:19750   */\n      swap1\n      pop\n        /* \"#utility.yul\":19796:19805   */\n      dup2\n        /* \"#utility.yul\":19790:19794   */\n      dup2\n        /* \"#utility.yul\":19786:19806   */\n      sub\n        /* \"#utility.yul\":19782:19783   */\n      0x00\n        /* \"#utility.yul\":19771:19780   */\n      dup4\n        /* \"#utility.yul\":19767:19784   */\n      add\n        /* \"#utility.yul\":19760:19807   */\n      mstore\n        /* \"#utility.yul\":19824:19955   */\n      tag_661\n        /* \"#utility.yul\":19950:19954   */\n      dup2\n        /* \"#utility.yul\":19824:19955   */\n      tag_410\n      jump\t// in\n    tag_661:\n        /* \"#utility.yul\":19816:19955   */\n      swap1\n      pop\n        /* \"#utility.yul\":19543:19962   */\n      swap2\n      swap1\n      pop\n      jump\t// out\n        /* \"#utility.yul\":19968:20135   */\n    tag_411:\n        /* \"#utility.yul\":20108:20127   */\n      0x52657175657374206e6f7420666f756e64000000000000000000000000000000\n        /* \"#utility.yul\":20104:20105   */\n      0x00\n        /* \"#utility.yul\":20096:20102   */\n      dup3\n        /* \"#utility.yul\":20092:20106   */\n      add\n        /* \"#utility.yul\":20085:20128   */\n      mstore\n        /* \"#utility.yul\":19968:20135   */\n      pop\n      jump\t// out\n        /* \"#utility.yul\":20141:20507   */\n    tag_412:\n        /* \"#utility.yul\":20283:20286   */\n      0x00\n        /* \"#utility.yul\":20304:20371   */\n      tag_664\n        /* \"#utility.yul\":20368:20370   */\n      0x11\n        /* \"#utility.yul\":20363:20366   */\n      dup4\n        /* \"#utility.yul\":20304:20371   */\n      tag_358\n      jump\t// in\n    tag_664:\n        /* \"#utility.yul\":20297:20371   */\n      swap2\n      pop\n        /* \"#utility.yul\":20380:20473   */\n      tag_665\n        /* \"#utility.yul\":20469:20472   */\n      dup3\n        /* \"#utility.yul\":20380:20473   */\n      tag_411\n      jump\t// in\n    tag_665:\n        /* \"#utility.yul\":20498:20500   */\n      0x20\n        /* \"#utility.yul\":20493:20496   */\n      dup3\n        /* \"#utility.yul\":20489:20501   */\n      add\n        /* \"#utility.yul\":20482:20501   */\n      swap1\n      pop\n        /* \"#utility.yul\":20141:20507   */\n      swap2\n      swap1\n      pop\n      jump\t// out\n        /* \"#utility.yul\":20513:20932   */\n    tag_184:\n        /* \"#utility.yul\":20679:20683   */\n      0x00\n        /* \"#utility.yul\":20717:20719   */\n      0x20\n        /* \"#utility.yul\":20706:20715   */\n      dup3\n        /* \"#utility.yul\":20702:20720   */\n      add\n        /* \"#utility.yul\":20694:20720   */\n      swap1\n      pop\n        /* \"#utility.yul\":20766:20775   */\n      dup2\n        /* \"#utility.yul\":20760:20764   */\n      dup2\n        /* \"#utility.yul\":20756:20776   */\n      sub\n        /* \"#utility.yul\":20752:20753   */\n      0x00\n        /* \"#utility.yul\":20741:20750   */\n      dup4\n        /* \"#utility.yul\":20737:20754   */\n      add\n        /* \"#utility.yul\":20730:20777   */\n      mstore\n        /* \"#utility.yul\":20794:20925   */\n      tag_667\n        /* \"#utility.yul\":20920:20924   */\n      dup2\n        /* \"#utility.yul\":20794:20925   */\n      tag_412\n      jump\t// in\n    tag_667:\n        /* \"#utility.yul\":20786:20925   */\n      swap1\n      pop\n        /* \"#utility.yul\":20513:20932   */\n      swap2\n      swap1\n      pop\n      jump\t// out\n        /* \"#utility.yul\":20938:21118   */\n    tag_200:\n        /* \"#utility.yul\":20986:21063   */\n      0x4e487b7100000000000000000000000000000000000000000000000000000000\n        /* \"#utility.yul\":20983:20984   */\n      0x00\n        /* \"#utility.yul\":20976:21064   */\n      mstore\n        /* \"#utility.yul\":21083:21087   */\n      0x32\n        /* \"#utility.yul\":21080:21081   */\n      0x04\n        /* \"#utility.yul\":21073:21088   */\n      mstore\n        /* \"#utility.yul\":21107:21111   */\n      0x24\n        /* \"#utility.yul\":21104:21105   */\n      0x00\n        /* \"#utility.yul\":21097:21112   */\n      revert\n        /* \"#utility.yul\":21124:21348   */\n    tag_413:\n        /* \"#utility.yul\":21264:21298   */\n      0x596f752063616e6e6f742073656e642061207265717565737420746f20796f75\n        /* \"#utility.yul\":21260:21261   */\n      0x00\n        /* \"#utility.yul\":21252:21258   */\n      dup3\n        /* \"#utility.yul\":21248:21262   */\n      add\n        /* \"#utility.yul\":21241:21299   */\n      mstore\n        /* \"#utility.yul\":21333:21340   */\n      0x7273656c66000000000000000000000000000000000000000000000000000000\n        /* \"#utility.yul\":21328:21330   */\n      0x20\n        /* \"#utility.yul\":21320:21326   */\n      dup3\n        /* \"#utility.yul\":21316:21331   */\n      add\n        /* \"#utility.yul\":21309:21341   */\n      mstore\n        /* \"#utility.yul\":21124:21348   */\n      pop\n      jump\t// out\n        /* \"#utility.yul\":21354:21720   */\n    tag_414:\n        /* \"#utility.yul\":21496:21499   */\n      0x00\n        /* \"#utility.yul\":21517:21584   */\n      tag_671\n        /* \"#utility.yul\":21581:21583   */\n      0x25\n        /* \"#utility.yul\":21576:21579   */\n      dup4\n        /* \"#utility.yul\":21517:21584   */\n      tag_358\n      jump\t// in\n    tag_671:\n        /* \"#utility.yul\":21510:21584   */\n      swap2\n      pop\n        /* \"#utility.yul\":21593:21686   */\n      tag_672\n        /* \"#utility.yul\":21682:21685   */\n      dup3\n        /* \"#utility.yul\":21593:21686   */\n      tag_413\n      jump\t// in\n    tag_672:\n        /* \"#utility.yul\":21711:21713   */\n      0x40\n        /* \"#utility.yul\":21706:21709   */\n      dup3\n        /* \"#utility.yul\":21702:21714   */\n      add\n        /* \"#utility.yul\":21695:21714   */\n      swap1\n      pop\n        /* \"#utility.yul\":21354:21720   */\n      swap2\n      swap1\n      pop\n      jump\t// out\n        /* \"#utility.yul\":21726:22145   */\n    tag_208:\n        /* \"#utility.yul\":21892:21896   */\n      0x00\n        /* \"#utility.yul\":21930:21932   */\n      0x20\n        /* \"#utility.yul\":21919:21928   */\n      dup3\n        /* \"#utility.yul\":21915:21933   */\n      add\n        /* \"#utility.yul\":21907:21933   */\n      swap1\n      pop\n        /* \"#utility.yul\":21979:21988   */\n      dup2\n        /* \"#utility.yul\":21973:21977   */\n      dup2\n        /* \"#utility.yul\":21969:21989   */\n      sub\n        /* \"#utility.yul\":21965:21966   */\n      0x00\n        /* \"#utility.yul\":21954:21963   */\n      dup4\n        /* \"#utility.yul\":21950:21967   */\n      add\n        /* \"#utility.yul\":21943:21990   */\n      mstore\n        /* \"#utility.yul\":22007:22138   */\n      tag_674\n        /* \"#utility.yul\":22133:22137   */\n      dup2\n        /* \"#utility.yul\":22007:22138   */\n      tag_414\n      jump\t// in\n    tag_674:\n        /* \"#utility.yul\":21999:22138   */\n      swap1\n      pop\n        /* \"#utility.yul\":21726:22145   */\n      swap2\n      swap1\n      pop\n      jump\t// out\n        /* \"#utility.yul\":22151:22326   */\n    tag_415:\n        /* \"#utility.yul\":22291:22318   */\n      0x5461726765742070726f66696c65206d75737420657869737400000000000000\n        /* \"#utility.yul\":22287:22288   */\n      0x00\n        /* \"#utility.yul\":22279:22285   */\n      dup3\n        /* \"#utility.yul\":22275:22289   */\n      add\n        /* \"#utility.yul\":22268:22319   */\n      mstore\n        /* \"#utility.yul\":22151:22326   */\n      pop\n      jump\t// out\n        /* \"#utility.yul\":22332:22698   */\n    tag_416:\n        /* \"#utility.yul\":22474:22477   */\n      0x00\n        /* \"#utility.yul\":22495:22562   */\n      tag_677\n        /* \"#utility.yul\":22559:22561   */\n      0x19\n        /* \"#utility.yul\":22554:22557   */\n      dup4\n        /* \"#utility.yul\":22495:22562   */\n      tag_358\n      jump\t// in\n    tag_677:\n        /* \"#utility.yul\":22488:22562   */\n      swap2\n      pop\n        /* \"#utility.yul\":22571:22664   */\n      tag_678\n        /* \"#utility.yul\":22660:22663   */\n      dup3\n        /* \"#utility.yul\":22571:22664   */\n      tag_415\n      jump\t// in\n    tag_678:\n        /* \"#utility.yul\":22689:22691   */\n      0x20\n        /* \"#utility.yul\":22684:22687   */\n      dup3\n        /* \"#utility.yul\":22680:22692   */\n      add\n        /* \"#utility.yul\":22673:22692   */\n      swap1\n      pop\n        /* \"#utility.yul\":22332:22698   */\n      swap2\n      swap1\n      pop\n      jump\t// out\n        /* \"#utility.yul\":22704:23123   */\n    tag_213:\n        /* \"#utility.yul\":22870:22874   */\n      0x00\n        /* \"#utility.yul\":22908:22910   */\n      0x20\n        /* \"#utility.yul\":22897:22906   */\n      dup3\n        /* \"#utility.yul\":22893:22911   */\n      add\n        /* \"#utility.yul\":22885:22911   */\n      swap1\n      pop\n        /* \"#utility.yul\":22957:22966   */\n      dup2\n        /* \"#utility.yul\":22951:22955   */\n      dup2\n        /* \"#utility.yul\":22947:22967   */\n      sub\n        /* \"#utility.yul\":22943:22944   */\n      0x00\n        /* \"#utility.yul\":22932:22941   */\n      dup4\n        /* \"#utility.yul\":22928:22945   */\n      add\n        /* \"#utility.yul\":22921:22968   */\n      mstore\n        /* \"#utility.yul\":22985:23116   */\n      tag_680\n        /* \"#utility.yul\":23111:23115   */\n      dup2\n        /* \"#utility.yul\":22985:23116   */\n      tag_416\n      jump\t// in\n    tag_680:\n        /* \"#utility.yul\":22977:23116   */\n      swap1\n      pop\n        /* \"#utility.yul\":22704:23123   */\n      swap2\n      swap1\n      pop\n      jump\t// out\n        /* \"#utility.yul\":23129:23355   */\n    tag_417:\n        /* \"#utility.yul\":23269:23303   */\n      0x596f75206861766520616c7265616479206d6174636865642077697468207468\n        /* \"#utility.yul\":23265:23266   */\n      0x00\n        /* \"#utility.yul\":23257:23263   */\n      dup3\n        /* \"#utility.yul\":23253:23267   */\n      add\n        /* \"#utility.yul\":23246:23304   */\n      mstore\n        /* \"#utility.yul\":23338:23347   */\n      0x6973207573657200000000000000000000000000000000000000000000000000\n        /* \"#utility.yul\":23333:23335   */\n      0x20\n        /* \"#utility.yul\":23325:23331   */\n      dup3\n        /* \"#utility.yul\":23321:23336   */\n      add\n        /* \"#utility.yul\":23314:23348   */\n      mstore\n        /* \"#utility.yul\":23129:23355   */\n      pop\n      jump\t// out\n        /* \"#utility.yul\":23361:23727   */\n    tag_418:\n        /* \"#utility.yul\":23503:23506   */\n      0x00\n        /* \"#utility.yul\":23524:23591   */\n      tag_683\n        /* \"#utility.yul\":23588:23590   */\n      0x27\n        /* \"#utility.yul\":23583:23586   */\n      dup4\n        /* \"#utility.yul\":23524:23591   */\n      tag_358\n      jump\t// in\n    tag_683:\n        /* \"#utility.yul\":23517:23591   */\n      swap2\n      pop\n        /* \"#utility.yul\":23600:23693   */\n      tag_684\n        /* \"#utility.yul\":23689:23692   */\n      dup3\n        /* \"#utility.yul\":23600:23693   */\n      tag_417\n      jump\t// in\n    tag_684:\n        /* \"#utility.yul\":23718:23720   */\n      0x40\n        /* \"#utility.yul\":23713:23716   */\n      dup3\n        /* \"#utility.yul\":23709:23721   */\n      add\n        /* \"#utility.yul\":23702:23721   */\n      swap1\n      pop\n        /* \"#utility.yul\":23361:23727   */\n      swap2\n      swap1\n      pop\n      jump\t// out\n        /* \"#utility.yul\":23733:24152   */\n    tag_217:\n        /* \"#utility.yul\":23899:23903   */\n      0x00\n        /* \"#utility.yul\":23937:23939   */\n      0x20\n        /* \"#utility.yul\":23926:23935   */\n      dup3\n        /* \"#utility.yul\":23922:23940   */\n      add\n        /* \"#utility.yul\":23914:23940   */\n      swap1\n      pop\n        /* \"#utility.yul\":23986:23995   */\n      dup2\n        /* \"#utility.yul\":23980:23984   */\n      dup2\n        /* \"#utility.yul\":23976:23996   */\n      sub\n        /* \"#utility.yul\":23972:23973   */\n      0x00\n        /* \"#utility.yul\":23961:23970   */\n      dup4\n        /* \"#utility.yul\":23957:23974   */\n      add\n        /* \"#utility.yul\":23950:23997   */\n      mstore\n        /* \"#utility.yul\":24014:24145   */\n      tag_686\n        /* \"#utility.yul\":24140:24144   */\n      dup2\n        /* \"#utility.yul\":24014:24145   */\n      tag_418\n      jump\t// in\n    tag_686:\n        /* \"#utility.yul\":24006:24145   */\n      swap1\n      pop\n        /* \"#utility.yul\":23733:24152   */\n      swap2\n      swap1\n      pop\n      jump\t// out\n        /* \"#utility.yul\":24158:24389   */\n    tag_419:\n        /* \"#utility.yul\":24298:24332   */\n      0x596f75206861766520616c72656164792073656e742061207265717565737420\n        /* \"#utility.yul\":24294:24295   */\n      0x00\n        /* \"#utility.yul\":24286:24292   */\n      dup3\n        /* \"#utility.yul\":24282:24296   */\n      add\n        /* \"#utility.yul\":24275:24333   */\n      mstore\n        /* \"#utility.yul\":24367:24381   */\n      0x746f207468697320757365720000000000000000000000000000000000000000\n        /* \"#utility.yul\":24362:24364   */\n      0x20\n        /* \"#utility.yul\":24354:24360   */\n      dup3\n        /* \"#utility.yul\":24350:24365   */\n      add\n        /* \"#utility.yul\":24343:24382   */\n      mstore\n        /* \"#utility.yul\":24158:24389   */\n      pop\n      jump\t// out\n        /* \"#utility.yul\":24395:24761   */\n    tag_420:\n        /* \"#utility.yul\":24537:24540   */\n      0x00\n        /* \"#utility.yul\":24558:24625   */\n      tag_689\n        /* \"#utility.yul\":24622:24624   */\n      0x2c\n        /* \"#utility.yul\":24617:24620   */\n      dup4\n        /* \"#utility.yul\":24558:24625   */\n      tag_358\n      jump\t// in\n    tag_689:\n        /* \"#utility.yul\":24551:24625   */\n      swap2\n      pop\n        /* \"#utility.yul\":24634:24727   */\n      tag_690\n        /* \"#utility.yul\":24723:24726   */\n      dup3\n        /* \"#utility.yul\":24634:24727   */\n      tag_419\n      jump\t// in\n    tag_690:\n        /* \"#utility.yul\":24752:24754   */\n      0x40\n        /* \"#utility.yul\":24747:24750   */\n      dup3\n        /* \"#utility.yul\":24743:24755   */\n      add\n        /* \"#utility.yul\":24736:24755   */\n      swap1\n      pop\n        /* \"#utility.yul\":24395:24761   */\n      swap2\n      swap1\n      pop\n      jump\t// out\n        /* \"#utility.yul\":24767:25186   */\n    tag_220:\n        /* \"#utility.yul\":24933:24937   */\n      0x00\n        /* \"#utility.yul\":24971:24973   */\n      0x20\n        /* \"#utility.yul\":24960:24969   */\n      dup3\n        /* \"#utility.yul\":24956:24974   */\n      add\n        /* \"#utility.yul\":24948:24974   */\n      swap1\n      pop\n        /* \"#utility.yul\":25020:25029   */\n      dup2\n        /* \"#utility.yul\":25014:25018   */\n      dup2\n        /* \"#utility.yul\":25010:25030   */\n      sub\n        /* \"#utility.yul\":25006:25007   */\n      0x00\n        /* \"#utility.yul\":24995:25004   */\n      dup4\n        /* \"#utility.yul\":24991:25008   */\n      add\n        /* \"#utility.yul\":24984:25031   */\n      mstore\n        /* \"#utility.yul\":25048:25179   */\n      tag_692\n        /* \"#utility.yul\":25174:25178   */\n      dup2\n        /* \"#utility.yul\":25048:25179   */\n      tag_420\n      jump\t// in\n    tag_692:\n        /* \"#utility.yul\":25040:25179   */\n      swap1\n      pop\n        /* \"#utility.yul\":24767:25186   */\n      swap2\n      swap1\n      pop\n      jump\t// out\n        /* \"#utility.yul\":25192:25362   */\n    tag_421:\n        /* \"#utility.yul\":25332:25354   */\n      0x4e616d652063616e6e6f7420626520656d707479000000000000000000000000\n        /* \"#utility.yul\":25328:25329   */\n      0x00\n        /* \"#utility.yul\":25320:25326   */\n      dup3\n        /* \"#utility.yul\":25316:25330   */\n      add\n        /* \"#utility.yul\":25309:25355   */\n      mstore\n        /* \"#utility.yul\":25192:25362   */\n      pop\n      jump\t// out\n        /* \"#utility.yul\":25368:25734   */\n    tag_422:\n        /* \"#utility.yul\":25510:25513   */\n      0x00\n        /* \"#utility.yul\":25531:25598   */\n      tag_695\n        /* \"#utility.yul\":25595:25597   */\n      0x14\n        /* \"#utility.yul\":25590:25593   */\n      dup4\n        /* \"#utility.yul\":25531:25598   */\n      tag_358\n      jump\t// in\n    tag_695:\n        /* \"#utility.yul\":25524:25598   */\n      swap2\n      pop\n        /* \"#utility.yul\":25607:25700   */\n      tag_696\n        /* \"#utility.yul\":25696:25699   */\n      dup3\n        /* \"#utility.yul\":25607:25700   */\n      tag_421\n      jump\t// in\n    tag_696:\n        /* \"#utility.yul\":25725:25727   */\n      0x20\n        /* \"#utility.yul\":25720:25723   */\n      dup3\n        /* \"#utility.yul\":25716:25728   */\n      add\n        /* \"#utility.yul\":25709:25728   */\n      swap1\n      pop\n        /* \"#utility.yul\":25368:25734   */\n      swap2\n      swap1\n      pop\n      jump\t// out\n        /* \"#utility.yul\":25740:26159   */\n    tag_231:\n        /* \"#utility.yul\":25906:25910   */\n      0x00\n        /* \"#utility.yul\":25944:25946   */\n      0x20\n        /* \"#utility.yul\":25933:25942   */\n      dup3\n        /* \"#utility.yul\":25929:25947   */\n      add\n        /* \"#utility.yul\":25921:25947   */\n      swap1\n      pop\n        /* \"#utility.yul\":25993:26002   */\n      dup2\n        /* \"#utility.yul\":25987:25991   */\n      dup2\n        /* \"#utility.yul\":25983:26003   */\n      sub\n        /* \"#utility.yul\":25979:25980   */\n      0x00\n        /* \"#utility.yul\":25968:25977   */\n      dup4\n        /* \"#utility.yul\":25964:25981   */\n      add\n        /* \"#utility.yul\":25957:26004   */\n      mstore\n        /* \"#utility.yul\":26021:26152   */\n      tag_698\n        /* \"#utility.yul\":26147:26151   */\n      dup2\n        /* \"#utility.yul\":26021:26152   */\n      tag_422\n      jump\t// in\n    tag_698:\n        /* \"#utility.yul\":26013:26152   */\n      swap1\n      pop\n        /* \"#utility.yul\":25740:26159   */\n      swap2\n      swap1\n      pop\n      jump\t// out\n        /* \"#utility.yul\":26165:26337   */\n    tag_423:\n        /* \"#utility.yul\":26305:26329   */\n      0x50726f66696c6520646f6573206e6f7420657869737400000000000000000000\n        /* \"#utility.yul\":26301:26302   */\n      0x00\n        /* \"#utility.yul\":26293:26299   */\n      dup3\n        /* \"#utility.yul\":26289:26303   */\n      add\n        /* \"#utility.yul\":26282:26330   */\n      mstore\n        /* \"#utility.yul\":26165:26337   */\n      pop\n      jump\t// out\n        /* \"#utility.yul\":26343:26709   */\n    tag_424:\n        /* \"#utility.yul\":26485:26488   */\n      0x00\n        /* \"#utility.yul\":26506:26573   */\n      tag_701\n        /* \"#utility.yul\":26570:26572   */\n      0x16\n        /* \"#utility.yul\":26565:26568   */\n      dup4\n        /* \"#utility.yul\":26506:26573   */\n      tag_358\n      jump\t// in\n    tag_701:\n        /* \"#utility.yul\":26499:26573   */\n      swap2\n      pop\n        /* \"#utility.yul\":26582:26675   */\n      tag_702\n        /* \"#utility.yul\":26671:26674   */\n      dup3\n        /* \"#utility.yul\":26582:26675   */\n      tag_423\n      jump\t// in\n    tag_702:\n        /* \"#utility.yul\":26700:26702   */\n      0x20\n        /* \"#utility.yul\":26695:26698   */\n      dup3\n        /* \"#utility.yul\":26691:26703   */\n      add\n        /* \"#utility.yul\":26684:26703   */\n      swap1\n      pop\n        /* \"#utility.yul\":26343:26709   */\n      swap2\n      swap1\n      pop\n      jump\t// out\n        /* \"#utility.yul\":26715:27134   */\n    tag_234:\n        /* \"#utility.yul\":26881:26885   */\n      0x00\n        /* \"#utility.yul\":26919:26921   */\n      0x20\n        /* \"#utility.yul\":26908:26917   */\n      dup3\n        /* \"#utility.yul\":26904:26922   */\n      add\n        /* \"#utility.yul\":26896:26922   */\n      swap1\n      pop\n        /* \"#utility.yul\":26968:26977   */\n      dup2\n        /* \"#utility.yul\":26962:26966   */\n      dup2\n        /* \"#utility.yul\":26958:26978   */\n      sub\n        /* \"#utility.yul\":26954:26955   */\n      0x00\n        /* \"#utility.yul\":26943:26952   */\n      dup4\n        /* \"#utility.yul\":26939:26956   */\n      add\n        /* \"#utility.yul\":26932:26979   */\n      mstore\n        /* \"#utility.yul\":26996:27127   */\n      tag_704\n        /* \"#utility.yul\":27122:27126   */\n      dup2\n        /* \"#utility.yul\":26996:27127   */\n      tag_424\n      jump\t// in\n    tag_704:\n        /* \"#utility.yul\":26988:27127   */\n      swap1\n      pop\n        /* \"#utility.yul\":26715:27134   */\n      swap2\n      swap1\n      pop\n      jump\t// out\n        /* \"#utility.yul\":27140:27281   */\n    tag_425:\n        /* \"#utility.yul\":27189:27193   */\n      0x00\n        /* \"#utility.yul\":27212:27215   */\n      dup2\n        /* \"#utility.yul\":27204:27215   */\n      swap1\n      pop\n        /* \"#utility.yul\":27235:27238   */\n      dup2\n        /* \"#utility.yul\":27232:27233   */\n      0x00\n        /* \"#utility.yul\":27225:27239   */\n      mstore\n        /* \"#utility.yul\":27269:27273   */\n      0x20\n        /* \"#utility.yul\":27266:27267   */\n      0x00\n        /* \"#utility.yul\":27256:27274   */\n      keccak256\n        /* \"#utility.yul\":27248:27274   */\n      swap1\n      pop\n        /* \"#utility.yul\":27140:27281   */\n      swap2\n      swap1\n      pop\n      jump\t// out\n        /* \"#utility.yul\":27287:27380   */\n    tag_426:\n        /* \"#utility.yul\":27324:27330   */\n      0x00\n        /* \"#utility.yul\":27371:27373   */\n      0x20\n        /* \"#utility.yul\":27366:27368   */\n      0x1f\n        /* \"#utility.yul\":27359:27364   */\n      dup4\n        /* \"#utility.yul\":27355:27369   */\n      add\n        /* \"#utility.yul\":27351:27374   */\n      div\n        /* \"#utility.yul\":27341:27374   */\n      swap1\n      pop\n        /* \"#utility.yul\":27287:27380   */\n      swap2\n      swap1\n      pop\n      jump\t// out\n        /* \"#utility.yul\":27386:27493   */\n    tag_427:\n        /* \"#utility.yul\":27430:27438   */\n      0x00\n        /* \"#utility.yul\":27480:27485   */\n      dup3\n        /* \"#utility.yul\":27474:27478   */\n      dup3\n        /* \"#utility.yul\":27470:27486   */\n      shl\n        /* \"#utility.yul\":27449:27486   */\n      swap1\n      pop\n        /* \"#utility.yul\":27386:27493   */\n      swap3\n      swap2\n      pop\n      pop\n      jump\t// out\n        /* \"#utility.yul\":27499:27892   */\n    tag_428:\n        /* \"#utility.yul\":27568:27574   */\n      0x00\n        /* \"#utility.yul\":27618:27619   */\n      0x08\n        /* \"#utility.yul\":27606:27616   */\n      dup4\n        /* \"#utility.yul\":27602:27620   */\n      mul\n        /* \"#utility.yul\":27641:27738   */\n      tag_709\n        /* \"#utility.yul\":27671:27737   */\n      0xffffffffffffffffffffffffffffffffffffffffffffffffffffffffffffffff\n        /* \"#utility.yul\":27660:27669   */\n      dup3\n        /* \"#utility.yul\":27641:27738   */\n      tag_427\n      jump\t// in\n    tag_709:\n        /* \"#utility.yul\":27759:27798   */\n      tag_710\n        /* \"#utility.yul\":27789:27797   */\n      dup7\n        /* \"#utility.yul\":27778:27787   */\n      dup4\n        /* \"#utility.yul\":27759:27798   */\n      tag_427\n      jump\t// in\n    tag_710:\n        /* \"#utility.yul\":27747:27798   */\n      swap6\n      pop\n        /* \"#utility.yul\":27831:27835   */\n      dup1\n        /* \"#utility.yul\":27827:27836   */\n      not\n        /* \"#utility.yul\":27820:27825   */\n      dup5\n        /* \"#utility.yul\":27816:27837   */\n      and\n        /* \"#utility.yul\":27807:27837   */\n      swap4\n      pop\n        /* \"#utility.yul\":27880:27884   */\n      dup1\n        /* \"#utility.yul\":27870:27878   */\n      dup7\n        /* \"#utility.yul\":27866:27885   */\n      and\n        /* \"#utility.yul\":27859:27864   */\n      dup5\n        /* \"#utility.yul\":27856:27886   */\n      or\n        /* \"#utility.yul\":27846:27886   */\n      swap3\n      pop\n        /* \"#utility.yul\":27575:27892   */\n      pop\n      pop\n        /* \"#utility.yul\":27499:27892   */\n      swap4\n      swap3\n      pop\n      pop\n      pop\n      jump\t// out\n        /* \"#utility.yul\":27898:28040   */\n    tag_429:\n        /* \"#utility.yul\":27948:27957   */\n      0x00\n        /* \"#utility.yul\":27981:28034   */\n      tag_712\n        /* \"#utility.yul\":27999:28033   */\n      tag_713\n        /* \"#utility.yul\":28008:28032   */\n      tag_714\n        /* \"#utility.yul\":28026:28031   */\n      dup5\n        /* \"#utility.yul\":28008:28032   */\n      tag_369\n      jump\t// in\n    tag_714:\n        /* \"#utility.yul\":27999:28033   */\n      tag_398\n      jump\t// in\n    tag_713:\n        /* \"#utility.yul\":27981:28034   */\n      tag_369\n      jump\t// in\n    tag_712:\n        /* \"#utility.yul\":27968:28034   */\n      swap1\n      pop\n        /* \"#utility.yul\":27898:28040   */\n      swap2\n      swap1\n      pop\n      jump\t// out\n        /* \"#utility.yul\":28046:28121   */\n    tag_430:\n        /* \"#utility.yul\":28089:28092   */\n      0x00\n        /* \"#utility.yul\":28110:28115   */\n      dup2\n        /* \"#utility.yul\":28103:28115   */\n      swap1\n      pop\n        /* \"#utility.yul\":28046:28121   */\n      swap2\n      swap1\n      pop\n      jump\t// out\n        /* \"#utility.yul\":28127:28396   */\n    tag_431:\n        /* \"#utility.yul\":28237:28276   */\n      tag_717\n        /* \"#utility.yul\":28268:28275   */\n      dup4\n        /* \"#utility.yul\":28237:28276   */\n      tag_429\n      jump\t// in\n    tag_717:\n        /* \"#utility.yul\":28298:28389   */\n      tag_718\n        /* \"#utility.yul\":28347:28388   */\n      tag_719\n        /* \"#utility.yul\":28371:28387   */\n      dup3\n        /* \"#utility.yul\":28347:28388   */\n      tag_430\n      jump\t// in\n    tag_719:\n        /* \"#utility.yul\":28339:28345   */\n      dup5\n        /* \"#utility.yul\":28332:28336   */\n      dup5\n        /* \"#utility.yul\":28326:28337   */\n      sload\n        /* \"#utility.yul\":28298:28389   */\n      tag_428\n      jump\t// in\n    tag_718:\n        /* \"#utility.yul\":28292:28296   */\n      dup3\n        /* \"#utility.yul\":28285:28390   */\n      sstore\n        /* \"#utility.yul\":28203:28396   */\n      pop\n        /* \"#utility.yul\":28127:28396   */\n      pop\n      pop\n      pop\n      jump\t// out\n        /* \"#utility.yul\":28402:28475   */\n    tag_432:\n        /* \"#utility.yul\":28447:28450   */\n      0x00\n        /* \"#utility.yul\":28402:28475   */\n      swap1\n      jump\t// out\n        /* \"#utility.yul\":28481:28670   */\n    tag_433:\n        /* \"#utility.yul\":28558:28590   */\n      tag_722\n      tag_432\n      jump\t// in\n    tag_722:\n        /* \"#utility.yul\":28599:28664   */\n      tag_723\n        /* \"#utility.yul\":28657:28663   */\n      dup2\n        /* \"#utility.yul\":28649:28655   */\n      dup5\n        /* \"#utility.yul\":28643:28647   */\n      dup5\n        /* \"#utility.yul\":28599:28664   */\n      tag_431\n      jump\t// in\n    tag_723:\n        /* \"#utility.yul\":28534:28670   */\n      pop\n        /* \"#utility.yul\":28481:28670   */\n      pop\n      pop\n      jump\t// out\n        /* \"#utility.yul\":28676:28862   */\n    tag_434:\n        /* \"#utility.yul\":28736:28856   */\n    tag_725:\n        /* \"#utility.yul\":28753:28756   */\n      dup2\n        /* \"#utility.yul\":28746:28751   */\n      dup2\n        /* \"#utility.yul\":28743:28757   */\n      lt\n        /* \"#utility.yul\":28736:28856   */\n      iszero\n      tag_727\n      jumpi\n        /* \"#utility.yul\":28807:28846   */\n      tag_728\n        /* \"#utility.yul\":28844:28845   */\n      0x00\n        /* \"#utility.yul\":28837:28842   */\n      dup3\n        /* \"#utility.yul\":28807:28846   */\n      tag_433\n      jump\t// in\n    tag_728:\n        /* \"#utility.yul\":28780:28781   */\n      0x01\n        /* \"#utility.yul\":28773:28778   */\n      dup2\n        /* \"#utility.yul\":28769:28782   */\n      add\n        /* \"#utility.yul\":28760:28782   */\n      swap1\n      pop\n        /* \"#utility.yul\":28736:28856   */\n      jump(tag_725)\n    tag_727:\n        /* \"#utility.yul\":28676:28862   */\n      pop\n      pop\n      jump\t// out\n        /* \"#utility.yul\":28868:29411   */\n    tag_435:\n        /* \"#utility.yul\":28969:28971   */\n      0x1f\n        /* \"#utility.yul\":28964:28967   */\n      dup3\n        /* \"#utility.yul\":28961:28972   */\n      gt\n        /* \"#utility.yul\":28958:29404   */\n      iszero\n      tag_730\n      jumpi\n        /* \"#utility.yul\":29003:29041   */\n      tag_731\n        /* \"#utility.yul\":29035:29040   */\n      dup2\n        /* \"#utility.yul\":29003:29041   */\n      tag_425\n      jump\t// in\n    tag_731:\n        /* \"#utility.yul\":29087:29116   */\n      tag_732\n        /* \"#utility.yul\":29105:29115   */\n      dup5\n        /* \"#utility.yul\":29087:29116   */\n      tag_426\n      jump\t// in\n    tag_732:\n        /* \"#utility.yul\":29077:29085   */\n      dup2\n        /* \"#utility.yul\":29073:29117   */\n      add\n        /* \"#utility.yul\":29270:29272   */\n      0x20\n        /* \"#utility.yul\":29258:29268   */\n      dup6\n        /* \"#utility.yul\":29255:29273   */\n      lt\n        /* \"#utility.yul\":29252:29301   */\n      iszero\n      tag_733\n      jumpi\n        /* \"#utility.yul\":29291:29299   */\n      dup2\n        /* \"#utility.yul\":29276:29299   */\n      swap1\n      pop\n        /* \"#utility.yul\":29252:29301   */\n    tag_733:\n        /* \"#utility.yul\":29314:29394   */\n      tag_734\n        /* \"#utility.yul\":29370:29392   */\n      tag_735\n        /* \"#utility.yul\":29388:29391   */\n      dup6\n        /* \"#utility.yul\":29370:29392   */\n      tag_426\n      jump\t// in\n    tag_735:\n        /* \"#utility.yul\":29360:29368   */\n      dup4\n        /* \"#utility.yul\":29356:29393   */\n      add\n        /* \"#utility.yul\":29343:29354   */\n      dup3\n        /* \"#utility.yul\":29314:29394   */\n      tag_434\n      jump\t// in\n    tag_734:\n        /* \"#utility.yul\":28973:29404   */\n      pop\n      pop\n        /* \"#utility.yul\":28958:29404   */\n    tag_730:\n        /* \"#utility.yul\":28868:29411   */\n      pop\n      pop\n      pop\n      jump\t// out\n        /* \"#utility.yul\":29417:29534   */\n    tag_436:\n        /* \"#utility.yul\":29471:29479   */\n      0x00\n        /* \"#utility.yul\":29521:29526   */\n      dup3\n        /* \"#utility.yul\":29515:29519   */\n      dup3\n        /* \"#utility.yul\":29511:29527   */\n      shr\n        /* \"#utility.yul\":29490:29527   */\n      swap1\n      pop\n        /* \"#utility.yul\":29417:29534   */\n      swap3\n      swap2\n      pop\n      pop\n      jump\t// out\n        /* \"#utility.yul\":29540:29709   */\n    tag_437:\n        /* \"#utility.yul\":29584:29590   */\n      0x00\n        /* \"#utility.yul\":29617:29668   */\n      tag_738\n        /* \"#utility.yul\":29665:29666   */\n      0x00\n        /* \"#utility.yul\":29661:29667   */\n      not\n        /* \"#utility.yul\":29653:29658   */\n      dup5\n        /* \"#utility.yul\":29650:29651   */\n      0x08\n        /* \"#utility.yul\":29646:29659   */\n      mul\n        /* \"#utility.yul\":29617:29668   */\n      tag_436\n      jump\t// in\n    tag_738:\n        /* \"#utility.yul\":29613:29669   */\n      not\n        /* \"#utility.yul\":29698:29702   */\n      dup1\n        /* \"#utility.yul\":29692:29696   */\n      dup4\n        /* \"#utility.yul\":29688:29703   */\n      and\n        /* \"#utility.yul\":29678:29703   */\n      swap2\n      pop\n        /* \"#utility.yul\":29591:29709   */\n      pop\n        /* \"#utility.yul\":29540:29709   */\n      swap3\n      swap2\n      pop\n      pop\n      jump\t// out\n        /* \"#utility.yul\":29714:30009   */\n    tag_438:\n        /* \"#utility.yul\":29790:29794   */\n      0x00\n        /* \"#utility.yul\":29936:29965   */\n      tag_740\n        /* \"#utility.yul\":29961:29964   */\n      dup4\n        /* \"#utility.yul\":29955:29959   */\n      dup4\n        /* \"#utility.yul\":29936:29965   */\n      tag_437\n      jump\t// in\n    tag_740:\n        /* \"#utility.yul\":29928:29965   */\n      swap2\n      pop\n        /* \"#utility.yul\":29998:30001   */\n      dup3\n        /* \"#utility.yul\":29995:29996   */\n      0x02\n        /* \"#utility.yul\":29991:30002   */\n      mul\n        /* \"#utility.yul\":29985:29989   */\n      dup3\n        /* \"#utility.yul\":29982:30003   */\n      or\n        /* \"#utility.yul\":29974:30003   */\n      swap1\n      pop\n        /* \"#utility.yul\":29714:30009   */\n      swap3\n      swap2\n      pop\n      pop\n      jump\t// out\n        /* \"#utility.yul\":30014:31409   */\n    tag_236:\n        /* \"#utility.yul\":30131:30168   */\n      tag_742\n        /* \"#utility.yul\":30164:30167   */\n      dup3\n        /* \"#utility.yul\":30131:30168   */\n      tag_357\n      jump\t// in\n    tag_742:\n        /* \"#utility.yul\":30233:30251   */\n      0xffffffffffffffff\n        /* \"#utility.yul\":30225:30231   */\n      dup2\n        /* \"#utility.yul\":30222:30252   */\n      gt\n        /* \"#utility.yul\":30219:30275   */\n      iszero\n      tag_743\n      jumpi\n        /* \"#utility.yul\":30255:30273   */\n      tag_744\n      tag_193\n      jump\t// in\n    tag_744:\n        /* \"#utility.yul\":30219:30275   */\n    tag_743:\n        /* \"#utility.yul\":30299:30337   */\n      tag_745\n        /* \"#utility.yul\":30331:30335   */\n      dup3\n        /* \"#utility.yul\":30325:30336   */\n      sload\n        /* \"#utility.yul\":30299:30337   */\n      tag_128\n      jump\t// in\n    tag_745:\n        /* \"#utility.yul\":30384:30451   */\n      tag_746\n        /* \"#utility.yul\":30444:30450   */\n      dup3\n        /* \"#utility.yul\":30436:30442   */\n      dup3\n        /* \"#utility.yul\":30430:30434   */\n      dup6\n        /* \"#utility.yul\":30384:30451   */\n      tag_435\n      jump\t// in\n    tag_746:\n        /* \"#utility.yul\":30478:30479   */\n      0x00\n        /* \"#utility.yul\":30502:30506   */\n      0x20\n        /* \"#utility.yul\":30489:30506   */\n      swap1\n      pop\n        /* \"#utility.yul\":30534:30536   */\n      0x1f\n        /* \"#utility.yul\":30526:30532   */\n      dup4\n        /* \"#utility.yul\":30523:30537   */\n      gt\n        /* \"#utility.yul\":30551:30552   */\n      0x01\n        /* \"#utility.yul\":30546:31164   */\n      dup2\n      eq\n      tag_748\n      jumpi\n        /* \"#utility.yul\":31208:31209   */\n      0x00\n        /* \"#utility.yul\":31225:31231   */\n      dup5\n        /* \"#utility.yul\":31222:31299   */\n      iszero\n      tag_749\n      jumpi\n        /* \"#utility.yul\":31274:31283   */\n      dup3\n        /* \"#utility.yul\":31269:31272   */\n      dup8\n        /* \"#utility.yul\":31265:31284   */\n      add\n        /* \"#utility.yul\":31259:31285   */\n      mload\n        /* \"#utility.yul\":31250:31285   */\n      swap1\n      pop\n        /* \"#utility.yul\":31222:31299   */\n    tag_749:\n        /* \"#utility.yul\":31325:31392   */\n      tag_750\n        /* \"#utility.yul\":31385:31391   */\n      dup6\n        /* \"#utility.yul\":31378:31383   */\n      dup3\n        /* \"#utility.yul\":31325:31392   */\n      tag_438\n      jump\t// in\n    tag_750:\n        /* \"#utility.yul\":31319:31323   */\n      dup7\n        /* \"#utility.yul\":31312:31393   */\n      sstore\n        /* \"#utility.yul\":31181:31403   */\n      pop\n        /* \"#utility.yul\":30516:31403   */\n      jump(tag_747)\n        /* \"#utility.yul\":30546:31164   */\n    tag_748:\n        /* \"#utility.yul\":30598:30602   */\n      0x1f\n        /* \"#utility.yul\":30594:30603   */\n      not\n        /* \"#utility.yul\":30586:30592   */\n      dup5\n        /* \"#utility.yul\":30582:30604   */\n      and\n        /* \"#utility.yul\":30632:30669   */\n      tag_751\n        /* \"#utility.yul\":30664:30668   */\n      dup7\n        /* \"#utility.yul\":30632:30669   */\n      tag_425\n      jump\t// in\n    tag_751:\n        /* \"#utility.yul\":30691:30692   */\n      0x00\n        /* \"#utility.yul\":30705:30913   */\n    tag_752:\n        /* \"#utility.yul\":30719:30726   */\n      dup3\n        /* \"#utility.yul\":30716:30717   */\n      dup2\n        /* \"#utility.yul\":30713:30727   */\n      lt\n        /* \"#utility.yul\":30705:30913   */\n      iszero\n      tag_754\n      jumpi\n        /* \"#utility.yul\":30798:30807   */\n      dup5\n        /* \"#utility.yul\":30793:30796   */\n      dup10\n        /* \"#utility.yul\":30789:30808   */\n      add\n        /* \"#utility.yul\":30783:30809   */\n      mload\n        /* \"#utility.yul\":30775:30781   */\n      dup3\n        /* \"#utility.yul\":30768:30810   */\n      sstore\n        /* \"#utility.yul\":30849:30850   */\n      0x01\n        /* \"#utility.yul\":30841:30847   */\n      dup3\n        /* \"#utility.yul\":30837:30851   */\n      add\n        /* \"#utility.yul\":30827:30851   */\n      swap2\n      pop\n        /* \"#utility.yul\":30896:30898   */\n      0x20\n        /* \"#utility.yul\":30885:30894   */\n      dup6\n        /* \"#utility.yul\":30881:30899   */\n      add\n        /* \"#utility.yul\":30868:30899   */\n      swap5\n      pop\n        /* \"#utility.yul\":30742:30746   */\n      0x20\n        /* \"#utility.yul\":30739:30740   */\n      dup2\n        /* \"#utility.yul\":30735:30747   */\n      add\n        /* \"#utility.yul\":30730:30747   */\n      swap1\n      pop\n        /* \"#utility.yul\":30705:30913   */\n      jump(tag_752)\n    tag_754:\n        /* \"#utility.yul\":30941:30947   */\n      dup7\n        /* \"#utility.yul\":30932:30939   */\n      dup4\n        /* \"#utility.yul\":30929:30948   */\n      lt\n        /* \"#utility.yul\":30926:31105   */\n      iszero\n      tag_755\n      jumpi\n        /* \"#utility.yul\":30999:31008   */\n      dup5\n        /* \"#utility.yul\":30994:30997   */\n      dup10\n        /* \"#utility.yul\":30990:31009   */\n      add\n        /* \"#utility.yul\":30984:31010   */\n      mload\n        /* \"#utility.yul\":31042:31090   */\n      tag_756\n        /* \"#utility.yul\":31084:31088   */\n      0x1f\n        /* \"#utility.yul\":31076:31082   */\n      dup10\n        /* \"#utility.yul\":31072:31089   */\n      and\n        /* \"#utility.yul\":31061:31070   */\n      dup3\n        /* \"#utility.yul\":31042:31090   */\n      tag_437\n      jump\t// in\n    tag_756:\n        /* \"#utility.yul\":31034:31040   */\n      dup4\n        /* \"#utility.yul\":31027:31091   */\n      sstore\n        /* \"#utility.yul\":30949:31105   */\n      pop\n        /* \"#utility.yul\":30926:31105   */\n    tag_755:\n        /* \"#utility.yul\":31151:31152   */\n      0x01\n        /* \"#utility.yul\":31147:31148   */\n      0x02\n        /* \"#utility.yul\":31139:31145   */\n      dup9\n        /* \"#utility.yul\":31135:31149   */\n      mul\n        /* \"#utility.yul\":31131:31153   */\n      add\n        /* \"#utility.yul\":31125:31129   */\n      dup9\n        /* \"#utility.yul\":31118:31154   */\n      sstore\n        /* \"#utility.yul\":30553:31164   */\n      pop\n      pop\n      pop\n        /* \"#utility.yul\":30516:31403   */\n    tag_747:\n      pop\n        /* \"#utility.yul\":30106:31409   */\n      pop\n      pop\n      pop\n        /* \"#utility.yul\":30014:31409   */\n      pop\n      pop\n      jump\t// out\n        /* \"#utility.yul\":31415:31587   */\n    tag_439:\n        /* \"#utility.yul\":31555:31579   */\n      0x50726f66696c6520616c72656164792065786973747300000000000000000000\n        /* \"#utility.yul\":31551:31552   */\n      0x00\n        /* \"#utility.yul\":31543:31549   */\n      dup3\n        /* \"#utility.yul\":31539:31553   */\n      add\n        /* \"#utility.yul\":31532:31580   */\n      mstore\n        /* \"#utility.yul\":31415:31587   */\n      pop\n      jump\t// out\n        /* \"#utility.yul\":31593:31959   */\n    tag_440:\n        /* \"#utility.yul\":31735:31738   */\n      0x00\n        /* \"#utility.yul\":31756:31823   */\n      tag_759\n        /* \"#utility.yul\":31820:31822   */\n      0x16\n        /* \"#utility.yul\":31815:31818   */\n      dup4\n        /* \"#utility.yul\":31756:31823   */\n      tag_358\n      jump\t// in\n    tag_759:\n        /* \"#utility.yul\":31749:31823   */\n      swap2\n      pop\n        /* \"#utility.yul\":31832:31925   */\n      tag_760\n        /* \"#utility.yul\":31921:31924   */\n      dup3\n        /* \"#utility.yul\":31832:31925   */\n      tag_439\n      jump\t// in\n    tag_760:\n        /* \"#utility.yul\":31950:31952   */\n      0x20\n        /* \"#utility.yul\":31945:31948   */\n      dup3\n        /* \"#utility.yul\":31941:31953   */\n      add\n        /* \"#utility.yul\":31934:31953   */\n      swap1\n      pop\n        /* \"#utility.yul\":31593:31959   */\n      swap2\n      swap1\n      pop\n      jump\t// out\n        /* \"#utility.yul\":31965:32384   */\n    tag_246:\n        /* \"#utility.yul\":32131:32135   */\n      0x00\n        /* \"#utility.yul\":32169:32171   */\n      0x20\n        /* \"#utility.yul\":32158:32167   */\n      dup3\n        /* \"#utility.yul\":32154:32172   */\n      add\n        /* \"#utility.yul\":32146:32172   */\n      swap1\n      pop\n        /* \"#utility.yul\":32218:32227   */\n      dup2\n        /* \"#utility.yul\":32212:32216   */\n      dup2\n        /* \"#utility.yul\":32208:32228   */\n      sub\n        /* \"#utility.yul\":32204:32205   */\n      0x00\n        /* \"#utility.yul\":32193:32202   */\n      dup4\n        /* \"#utility.yul\":32189:32206   */\n      add\n        /* \"#utility.yul\":32182:32229   */\n      mstore\n        /* \"#utility.yul\":32246:32377   */\n      tag_762\n        /* \"#utility.yul\":32372:32376   */\n      dup2\n        /* \"#utility.yul\":32246:32377   */\n      tag_440\n      jump\t// in\n    tag_762:\n        /* \"#utility.yul\":32238:32377   */\n      swap1\n      pop\n        /* \"#utility.yul\":31965:32384   */\n      swap2\n      swap1\n      pop\n      jump\t// out\n        /* \"#utility.yul\":32390:32614   */\n    tag_441:\n        /* \"#utility.yul\":32530:32564   */\n      0x596f752063616e6e6f742073656e642061206d65737361676520746f20796f75\n        /* \"#utility.yul\":32526:32527   */\n      0x00\n        /* \"#utility.yul\":32518:32524   */\n      dup3\n        /* \"#utility.yul\":32514:32528   */\n      add\n        /* \"#utility.yul\":32507:32565   */\n      mstore\n        /* \"#utility.yul\":32599:32606   */\n      0x7273656c66000000000000000000000000000000000000000000000000000000\n        /* \"#utility.yul\":32594:32596   */\n      0x20\n        /* \"#utility.yul\":32586:32592   */\n      dup3\n        /* \"#utility.yul\":32582:32597   */\n      add\n        /* \"#utility.yul\":32575:32607   */\n      mstore\n        /* \"#utility.yul\":32390:32614   */\n      pop\n      jump\t// out\n        /* \"#utility.yul\":32620:32986   */\n    tag_442:\n        /* \"#utility.yul\":32762:32765   */\n      0x00\n        /* \"#utility.yul\":32783:32850   */\n      tag_765\n        /* \"#utility.yul\":32847:32849   */\n      0x25\n        /* \"#utility.yul\":32842:32845   */\n      dup4\n        /* \"#utility.yul\":32783:32850   */\n      tag_358\n      jump\t// in\n    tag_765:\n        /* \"#utility.yul\":32776:32850   */\n      swap2\n      pop\n        /* \"#utility.yul\":32859:32952   */\n      tag_766\n        /* \"#utility.yul\":32948:32951   */\n      dup3\n        /* \"#utility.yul\":32859:32952   */\n      tag_441\n      jump\t// in\n    tag_766:\n        /* \"#utility.yul\":32977:32979   */\n      0x40\n        /* \"#utility.yul\":32972:32975   */\n      dup3\n        /* \"#utility.yul\":32968:32980   */\n      add\n        /* \"#utility.yul\":32961:32980   */\n      swap1\n      pop\n        /* \"#utility.yul\":32620:32986   */\n      swap2\n      swap1\n      pop\n      jump\t// out\n        /* \"#utility.yul\":32992:33411   */\n    tag_261:\n        /* \"#utility.yul\":33158:33162   */\n      0x00\n        /* \"#utility.yul\":33196:33198   */\n      0x20\n        /* \"#utility.yul\":33185:33194   */\n      dup3\n        /* \"#utility.yul\":33181:33199   */\n      add\n        /* \"#utility.yul\":33173:33199   */\n      swap1\n      pop\n        /* \"#utility.yul\":33245:33254   */\n      dup2\n        /* \"#utility.yul\":33239:33243   */\n      dup2\n        /* \"#utility.yul\":33235:33255   */\n      sub\n        /* \"#utility.yul\":33231:33232   */\n      0x00\n        /* \"#utility.yul\":33220:33229   */\n      dup4\n        /* \"#utility.yul\":33216:33233   */\n      add\n        /* \"#utility.yul\":33209:33256   */\n      mstore\n        /* \"#utility.yul\":33273:33404   */\n      tag_768\n        /* \"#utility.yul\":33399:33403   */\n      dup2\n        /* \"#utility.yul\":33273:33404   */\n      tag_442\n      jump\t// in\n    tag_768:\n        /* \"#utility.yul\":33265:33404   */\n      swap1\n      pop\n        /* \"#utility.yul\":32992:33411   */\n      swap2\n      swap1\n      pop\n      jump\t// out\n        /* \"#utility.yul\":33417:33590   */\n    tag_443:\n        /* \"#utility.yul\":33557:33582   */\n      0x4d6573736167652063616e6e6f7420626520656d707479000000000000000000\n        /* \"#utility.yul\":33553:33554   */\n      0x00\n        /* \"#utility.yul\":33545:33551   */\n      dup3\n        /* \"#utility.yul\":33541:33555   */\n      add\n        /* \"#utility.yul\":33534:33583   */\n      mstore\n        /* \"#utility.yul\":33417:33590   */\n      pop\n      jump\t// out\n        /* \"#utility.yul\":33596:33962   */\n    tag_444:\n        /* \"#utility.yul\":33738:33741   */\n      0x00\n        /* \"#utility.yul\":33759:33826   */\n      tag_771\n        /* \"#utility.yul\":33823:33825   */\n      0x17\n        /* \"#utility.yul\":33818:33821   */\n      dup4\n        /* \"#utility.yul\":33759:33826   */\n      tag_358\n      jump\t// in\n    tag_771:\n        /* \"#utility.yul\":33752:33826   */\n      swap2\n      pop\n        /* \"#utility.yul\":33835:33928   */\n      tag_772\n        /* \"#utility.yul\":33924:33927   */\n      dup3\n        /* \"#utility.yul\":33835:33928   */\n      tag_443\n      jump\t// in\n    tag_772:\n        /* \"#utility.yul\":33953:33955   */\n      0x20\n        /* \"#utility.yul\":33948:33951   */\n      dup3\n        /* \"#utility.yul\":33944:33956   */\n      add\n        /* \"#utility.yul\":33937:33956   */\n      swap1\n      pop\n        /* \"#utility.yul\":33596:33962   */\n      swap2\n      swap1\n      pop\n      jump\t// out\n        /* \"#utility.yul\":33968:34387   */\n    tag_264:\n        /* \"#utility.yul\":34134:34138   */\n      0x00\n        /* \"#utility.yul\":34172:34174   */\n      0x20\n        /* \"#utility.yul\":34161:34170   */\n      dup3\n        /* \"#utility.yul\":34157:34175   */\n      add\n        /* \"#utility.yul\":34149:34175   */\n      swap1\n      pop\n        /* \"#utility.yul\":34221:34230   */\n      dup2\n        /* \"#utility.yul\":34215:34219   */\n      dup2\n        /* \"#utility.yul\":34211:34231   */\n      sub\n        /* \"#utility.yul\":34207:34208   */\n      0x00\n        /* \"#utility.yul\":34196:34205   */\n      dup4\n        /* \"#utility.yul\":34192:34209   */\n      add\n        /* \"#utility.yul\":34185:34232   */\n      mstore\n        /* \"#utility.yul\":34249:34380   */\n      tag_774\n        /* \"#utility.yul\":34375:34379   */\n      dup2\n        /* \"#utility.yul\":34249:34380   */\n      tag_444\n      jump\t// in\n    tag_774:\n        /* \"#utility.yul\":34241:34380   */\n      swap1\n      pop\n        /* \"#utility.yul\":33968:34387   */\n      swap2\n      swap1\n      pop\n      jump\t// out\n        /* \"#utility.yul\":34393:34614   */\n    tag_445:\n        /* \"#utility.yul\":34533:34567   */\n      0x596f75206d757374206265206d61746368656420776974682074686973207573\n        /* \"#utility.yul\":34529:34530   */\n      0x00\n        /* \"#utility.yul\":34521:34527   */\n      dup3\n        /* \"#utility.yul\":34517:34531   */\n      add\n        /* \"#utility.yul\":34510:34568   */\n      mstore\n        /* \"#utility.yul\":34602:34606   */\n      0x6572000000000000000000000000000000000000000000000000000000000000\n        /* \"#utility.yul\":34597:34599   */\n      0x20\n        /* \"#utility.yul\":34589:34595   */\n      dup3\n        /* \"#utility.yul\":34585:34600   */\n      add\n        /* \"#utility.yul\":34578:34607   */\n      mstore\n        /* \"#utility.yul\":34393:34614   */\n      pop\n      jump\t// out\n        /* \"#utility.yul\":34620:34986   */\n    tag_446:\n        /* \"#utility.yul\":34762:34765   */\n      0x00\n        /* \"#utility.yul\":34783:34850   */\n      tag_777\n        /* \"#utility.yul\":34847:34849   */\n      0x22\n        /* \"#utility.yul\":34842:34845   */\n      dup4\n        /* \"#utility.yul\":34783:34850   */\n      tag_358\n      jump\t// in\n    tag_777:\n        /* \"#utility.yul\":34776:34850   */\n      swap2\n      pop\n        /* \"#utility.yul\":34859:34952   */\n      tag_778\n        /* \"#utility.yul\":34948:34951   */\n      dup3\n        /* \"#utility.yul\":34859:34952   */\n      tag_445\n      jump\t// in\n    tag_778:\n        /* \"#utility.yul\":34977:34979   */\n      0x40\n        /* \"#utility.yul\":34972:34975   */\n      dup3\n        /* \"#utility.yul\":34968:34980   */\n      add\n        /* \"#utility.yul\":34961:34980   */\n      swap1\n      pop\n        /* \"#utility.yul\":34620:34986   */\n      swap2\n      swap1\n      pop\n      jump\t// out\n        /* \"#utility.yul\":34992:35411   */\n    tag_272:\n        /* \"#utility.yul\":35158:35162   */\n      0x00\n        /* \"#utility.yul\":35196:35198   */\n      0x20\n        /* \"#utility.yul\":35185:35194   */\n      dup3\n        /* \"#utility.yul\":35181:35199   */\n      add\n        /* \"#utility.yul\":35173:35199   */\n      swap1\n      pop\n        /* \"#utility.yul\":35245:35254   */\n      dup2\n        /* \"#utility.yul\":35239:35243   */\n      dup2\n        /* \"#utility.yul\":35235:35255   */\n      sub\n        /* \"#utility.yul\":35231:35232   */\n      0x00\n        /* \"#utility.yul\":35220:35229   */\n      dup4\n        /* \"#utility.yul\":35216:35233   */\n      add\n        /* \"#utility.yul\":35209:35256   */\n      mstore\n        /* \"#utility.yul\":35273:35404   */\n      tag_780\n        /* \"#utility.yul\":35399:35403   */\n      dup2\n        /* \"#utility.yul\":35273:35404   */\n      tag_446\n      jump\t// in\n    tag_780:\n        /* \"#utility.yul\":35265:35404   */\n      swap1\n      pop\n        /* \"#utility.yul\":34992:35411   */\n      swap2\n      swap1\n      pop\n      jump\t// out\n        /* \"#utility.yul\":35417:35511   */\n    tag_447:\n        /* \"#utility.yul\":35450:35458   */\n      0x00\n        /* \"#utility.yul\":35498:35503   */\n      dup2\n        /* \"#utility.yul\":35494:35496   */\n      0x60\n        /* \"#utility.yul\":35490:35504   */\n      shl\n        /* \"#utility.yul\":35469:35504   */\n      swap1\n      pop\n        /* \"#utility.yul\":35417:35511   */\n      swap2\n      swap1\n      pop\n      jump\t// out\n        /* \"#utility.yul\":35517:35611   */\n    tag_448:\n        /* \"#utility.yul\":35556:35563   */\n      0x00\n        /* \"#utility.yul\":35585:35605   */\n      tag_783\n        /* \"#utility.yul\":35599:35604   */\n      dup3\n        /* \"#utility.yul\":35585:35605   */\n      tag_447\n      jump\t// in\n    tag_783:\n        /* \"#utility.yul\":35574:35605   */\n      swap1\n      pop\n        /* \"#utility.yul\":35517:35611   */\n      swap2\n      swap1\n      pop\n      jump\t// out\n        /* \"#utility.yul\":35617:35717   */\n    tag_449:\n        /* \"#utility.yul\":35656:35663   */\n      0x00\n        /* \"#utility.yul\":35685:35711   */\n      tag_785\n        /* \"#utility.yul\":35705:35710   */\n      dup3\n        /* \"#utility.yul\":35685:35711   */\n      tag_448\n      jump\t// in\n    tag_785:\n        /* \"#utility.yul\":35674:35711   */\n      swap1\n      pop\n        /* \"#utility.yul\":35617:35717   */\n      swap2\n      swap1\n      pop\n      jump\t// out\n        /* \"#utility.yul\":35723:35880   */\n    tag_450:\n        /* \"#utility.yul\":35828:35873   */\n      tag_787\n        /* \"#utility.yul\":35848:35872   */\n      tag_788\n        /* \"#utility.yul\":35866:35871   */\n      dup3\n        /* \"#utility.yul\":35848:35872   */\n      tag_366\n      jump\t// in\n    tag_788:\n        /* \"#utility.yul\":35828:35873   */\n      tag_449\n      jump\t// in\n    tag_787:\n        /* \"#utility.yul\":35823:35826   */\n      dup3\n        /* \"#utility.yul\":35816:35874   */\n      mstore\n        /* \"#utility.yul\":35723:35880   */\n      pop\n      pop\n      jump\t// out\n        /* \"#utility.yul\":35886:36283   */\n    tag_274:\n        /* \"#utility.yul\":36026:36029   */\n      0x00\n        /* \"#utility.yul\":36041:36116   */\n      tag_790\n        /* \"#utility.yul\":36112:36115   */\n      dup3\n        /* \"#utility.yul\":36103:36109   */\n      dup6\n        /* \"#utility.yul\":36041:36116   */\n      tag_450\n      jump\t// in\n    tag_790:\n        /* \"#utility.yul\":36141:36143   */\n      0x14\n        /* \"#utility.yul\":36136:36139   */\n      dup3\n        /* \"#utility.yul\":36132:36144   */\n      add\n        /* \"#utility.yul\":36125:36144   */\n      swap2\n      pop\n        /* \"#utility.yul\":36154:36229   */\n      tag_791\n        /* \"#utility.yul\":36225:36228   */\n      dup3\n        /* \"#utility.yul\":36216:36222   */\n      dup5\n        /* \"#utility.yul\":36154:36229   */\n      tag_450\n      jump\t// in\n    tag_791:\n        /* \"#utility.yul\":36254:36256   */\n      0x14\n        /* \"#utility.yul\":36249:36252   */\n      dup3\n        /* \"#utility.yul\":36245:36257   */\n      add\n        /* \"#utility.yul\":36238:36257   */\n      swap2\n      pop\n        /* \"#utility.yul\":36274:36277   */\n      dup2\n        /* \"#utility.yul\":36267:36277   */\n      swap1\n      pop\n        /* \"#utility.yul\":35886:36283   */\n      swap4\n      swap3\n      pop\n      pop\n      pop\n      jump\t// out\n        /* \"#utility.yul\":36289:36463   */\n    tag_451:\n        /* \"#utility.yul\":36429:36455   */\n      0x596f752063616e6e6f74206c696b6520796f757273656c660000000000000000\n        /* \"#utility.yul\":36425:36426   */\n      0x00\n        /* \"#utility.yul\":36417:36423   */\n      dup3\n        /* \"#utility.yul\":36413:36427   */\n      add\n        /* \"#utility.yul\":36406:36456   */\n      mstore\n        /* \"#utility.yul\":36289:36463   */\n      pop\n      jump\t// out\n        /* \"#utility.yul\":36469:36835   */\n    tag_452:\n        /* \"#utility.yul\":36611:36614   */\n      0x00\n        /* \"#utility.yul\":36632:36699   */\n      tag_794\n        /* \"#utility.yul\":36696:36698   */\n      0x18\n        /* \"#utility.yul\":36691:36694   */\n      dup4\n        /* \"#utility.yul\":36632:36699   */\n      tag_358\n      jump\t// in\n    tag_794:\n        /* \"#utility.yul\":36625:36699   */\n      swap2\n      pop\n        /* \"#utility.yul\":36708:36801   */\n      tag_795\n        /* \"#utility.yul\":36797:36800   */\n      dup3\n        /* \"#utility.yul\":36708:36801   */\n      tag_451\n      jump\t// in\n    tag_795:\n        /* \"#utility.yul\":36826:36828   */\n      0x20\n        /* \"#utility.yul\":36821:36824   */\n      dup3\n        /* \"#utility.yul\":36817:36829   */\n      add\n        /* \"#utility.yul\":36810:36829   */\n      swap1\n      pop\n        /* \"#utility.yul\":36469:36835   */\n      swap2\n      swap1\n      pop\n      jump\t// out\n        /* \"#utility.yul\":36841:37260   */\n    tag_280:\n        /* \"#utility.yul\":37007:37011   */\n      0x00\n        /* \"#utility.yul\":37045:37047   */\n      0x20\n        /* \"#utility.yul\":37034:37043   */\n      dup3\n        /* \"#utility.yul\":37030:37048   */\n      add\n        /* \"#utility.yul\":37022:37048   */\n      swap1\n      pop\n        /* \"#utility.yul\":37094:37103   */\n      dup2\n        /* \"#utility.yul\":37088:37092   */\n      dup2\n        /* \"#utility.yul\":37084:37104   */\n      sub\n        /* \"#utility.yul\":37080:37081   */\n      0x00\n        /* \"#utility.yul\":37069:37078   */\n      dup4\n        /* \"#utility.yul\":37065:37082   */\n      add\n        /* \"#utility.yul\":37058:37105   */\n      mstore\n        /* \"#utility.yul\":37122:37253   */\n      tag_797\n        /* \"#utility.yul\":37248:37252   */\n      dup2\n        /* \"#utility.yul\":37122:37253   */\n      tag_452\n      jump\t// in\n    tag_797:\n        /* \"#utility.yul\":37114:37253   */\n      swap1\n      pop\n        /* \"#utility.yul\":36841:37260   */\n      swap2\n      swap1\n      pop\n      jump\t// out\n        /* \"#utility.yul\":37266:37708   */\n    tag_303:\n        /* \"#utility.yul\":37415:37419   */\n      0x00\n        /* \"#utility.yul\":37453:37455   */\n      0x60\n        /* \"#utility.yul\":37442:37451   */\n      dup3\n        /* \"#utility.yul\":37438:37456   */\n      add\n        /* \"#utility.yul\":37430:37456   */\n      swap1\n      pop\n        /* \"#utility.yul\":37466:37537   */\n      tag_799\n        /* \"#utility.yul\":37534:37535   */\n      0x00\n        /* \"#utility.yul\":37523:37532   */\n      dup4\n        /* \"#utility.yul\":37519:37536   */\n      add\n        /* \"#utility.yul\":37510:37516   */\n      dup7\n        /* \"#utility.yul\":37466:37537   */\n      tag_377\n      jump\t// in\n    tag_799:\n        /* \"#utility.yul\":37547:37619   */\n      tag_800\n        /* \"#utility.yul\":37615:37617   */\n      0x20\n        /* \"#utility.yul\":37604:37613   */\n      dup4\n        /* \"#utility.yul\":37600:37618   */\n      add\n        /* \"#utility.yul\":37591:37597   */\n      dup6\n        /* \"#utility.yul\":37547:37619   */\n      tag_374\n      jump\t// in\n    tag_800:\n        /* \"#utility.yul\":37629:37701   */\n      tag_801\n        /* \"#utility.yul\":37697:37699   */\n      0x40\n        /* \"#utility.yul\":37686:37695   */\n      dup4\n        /* \"#utility.yul\":37682:37700   */\n      add\n        /* \"#utility.yul\":37673:37679   */\n      dup5\n        /* \"#utility.yul\":37629:37701   */\n      tag_374\n      jump\t// in\n    tag_801:\n        /* \"#utility.yul\":37266:37708   */\n      swap5\n      swap4\n      pop\n      pop\n      pop\n      pop\n      jump\t// out\n        /* \"#utility.yul\":37714:37936   */\n    tag_308:\n        /* \"#utility.yul\":37807:37811   */\n      0x00\n        /* \"#utility.yul\":37845:37847   */\n      0x20\n        /* \"#utility.yul\":37834:37843   */\n      dup3\n        /* \"#utility.yul\":37830:37848   */\n      add\n        /* \"#utility.yul\":37822:37848   */\n      swap1\n      pop\n        /* \"#utility.yul\":37858:37929   */\n      tag_803\n        /* \"#utility.yul\":37926:37927   */\n      0x00\n        /* \"#utility.yul\":37915:37924   */\n      dup4\n        /* \"#utility.yul\":37911:37928   */\n      add\n        /* \"#utility.yul\":37902:37908   */\n      dup5\n        /* \"#utility.yul\":37858:37929   */\n      tag_377\n      jump\t// in\n    tag_803:\n        /* \"#utility.yul\":37714:37936   */\n      swap3\n      swap2\n      pop\n      pop\n      jump\t// out\n        /* \"#utility.yul\":37942:38164   */\n    tag_453:\n        /* \"#utility.yul\":38082:38116   */\n      0x5461726765742075736572206d757374206861766520696e746572616374696f\n        /* \"#utility.yul\":38078:38079   */\n      0x00\n        /* \"#utility.yul\":38070:38076   */\n      dup3\n        /* \"#utility.yul\":38066:38080   */\n      add\n        /* \"#utility.yul\":38059:38117   */\n      mstore\n        /* \"#utility.yul\":38151:38156   */\n      0x6e732e0000000000000000000000000000000000000000000000000000000000\n        /* \"#utility.yul\":38146:38148   */\n      0x20\n        /* \"#utility.yul\":38138:38144   */\n      dup3\n        /* \"#utility.yul\":38134:38149   */\n      add\n        /* \"#utility.yul\":38127:38157   */\n      mstore\n        /* \"#utility.yul\":37942:38164   */\n      pop\n      jump\t// out\n        /* \"#utility.yul\":38170:38536   */\n    tag_454:\n        /* \"#utility.yul\":38312:38315   */\n      0x00\n        /* \"#utility.yul\":38333:38400   */\n      tag_806\n        /* \"#utility.yul\":38397:38399   */\n      0x23\n        /* \"#utility.yul\":38392:38395   */\n      dup4\n        /* \"#utility.yul\":38333:38400   */\n      tag_358\n      jump\t// in\n    tag_806:\n        /* \"#utility.yul\":38326:38400   */\n      swap2\n      pop\n        /* \"#utility.yul\":38409:38502   */\n      tag_807\n        /* \"#utility.yul\":38498:38501   */\n      dup3\n        /* \"#utility.yul\":38409:38502   */\n      tag_453\n      jump\t// in\n    tag_807:\n        /* \"#utility.yul\":38527:38529   */\n      0x40\n        /* \"#utility.yul\":38522:38525   */\n      dup3\n        /* \"#utility.yul\":38518:38530   */\n      add\n        /* \"#utility.yul\":38511:38530   */\n      swap1\n      pop\n        /* \"#utility.yul\":38170:38536   */\n      swap2\n      swap1\n      pop\n      jump\t// out\n        /* \"#utility.yul\":38542:38961   */\n    tag_316:\n        /* \"#utility.yul\":38708:38712   */\n      0x00\n        /* \"#utility.yul\":38746:38748   */\n      0x20\n        /* \"#utility.yul\":38735:38744   */\n      dup3\n        /* \"#utility.yul\":38731:38749   */\n      add\n        /* \"#utility.yul\":38723:38749   */\n      swap1\n      pop\n        /* \"#utility.yul\":38795:38804   */\n      dup2\n        /* \"#utility.yul\":38789:38793   */\n      dup2\n        /* \"#utility.yul\":38785:38805   */\n      sub\n        /* \"#utility.yul\":38781:38782   */\n      0x00\n        /* \"#utility.yul\":38770:38779   */\n      dup4\n        /* \"#utility.yul\":38766:38783   */\n      add\n        /* \"#utility.yul\":38759:38806   */\n      mstore\n        /* \"#utility.yul\":38823:38954   */\n      tag_809\n        /* \"#utility.yul\":38949:38953   */\n      dup2\n        /* \"#utility.yul\":38823:38954   */\n      tag_454\n      jump\t// in\n    tag_809:\n        /* \"#utility.yul\":38815:38954   */\n      swap1\n      pop\n        /* \"#utility.yul\":38542:38961   */\n      swap2\n      swap1\n      pop\n      jump\t// out\n        /* \"#utility.yul\":38967:39158   */\n    tag_318:\n        /* \"#utility.yul\":39007:39010   */\n      0x00\n        /* \"#utility.yul\":39026:39046   */\n      tag_811\n        /* \"#utility.yul\":39044:39045   */\n      dup3\n        /* \"#utility.yul\":39026:39046   */\n      tag_369\n      jump\t// in\n    tag_811:\n        /* \"#utility.yul\":39021:39046   */\n      swap2\n      pop\n        /* \"#utility.yul\":39060:39080   */\n      tag_812\n        /* \"#utility.yul\":39078:39079   */\n      dup4\n        /* \"#utility.yul\":39060:39080   */\n      tag_369\n      jump\t// in\n    tag_812:\n        /* \"#utility.yul\":39055:39080   */\n      swap3\n      pop\n        /* \"#utility.yul\":39103:39104   */\n      dup3\n        /* \"#utility.yul\":39100:39101   */\n      dup3\n        /* \"#utility.yul\":39096:39105   */\n      add\n        /* \"#utility.yul\":39089:39105   */\n      swap1\n      pop\n        /* \"#utility.yul\":39124:39127   */\n      dup1\n        /* \"#utility.yul\":39121:39122   */\n      dup3\n        /* \"#utility.yul\":39118:39128   */\n      gt\n        /* \"#utility.yul\":39115:39151   */\n      iszero\n      tag_813\n      jumpi\n        /* \"#utility.yul\":39131:39149   */\n      tag_814\n      tag_408\n      jump\t// in\n    tag_814:\n        /* \"#utility.yul\":39115:39151   */\n    tag_813:\n        /* \"#utility.yul\":38967:39158   */\n      swap3\n      swap2\n      pop\n      pop\n      jump\t// out\n\n    auxdata: 0xa2646970667358221220b4e3124504b255869c6234b433722999c13b6a5a9677c8a50c8337e3cdbdc72e64736f6c63430008130033\n}\n",
				"bytecode": {
					"linkReferences": {},
					"object": "60806040523480156200001157600080fd5b506040518060400160405280600481526020017f54657374000000000000000000000000000000000000000000000000000000008152506040518060400160405280600381526020017f545354000000000000000000000000000000000000000000000000000000000081525081600390816200008f9190620005f5565b508060049081620000a19190620005f5565b505050620000b8306103e8620000be60201b60201c565b62000813565b600073ffffffffffffffffffffffffffffffffffffffff168273ffffffffffffffffffffffffffffffffffffffff1603620001335760006040517fec442f050000000000000000000000000000000000000000000000000000000081526004016200012a919062000721565b60405180910390fd5b62000147600083836200014b60201b60201c565b5050565b600073ffffffffffffffffffffffffffffffffffffffff168373ffffffffffffffffffffffffffffffffffffffff1603620001a15780600260008282546200019491906200076d565b9250508190555062000277565b60008060008573ffffffffffffffffffffffffffffffffffffffff1673ffffffffffffffffffffffffffffffffffffffff1681526020019081526020016000205490508181101562000230578381836040517fe450d38c0000000000000000000000000000000000000000000000000000000081526004016200022793929190620007b9565b60405180910390fd5b8181036000808673ffffffffffffffffffffffffffffffffffffffff1673ffffffffffffffffffffffffffffffffffffffff16815260200190815260200160002081905550505b600073ffffffffffffffffffffffffffffffffffffffff168273ffffffffffffffffffffffffffffffffffffffff1603620002c257806002600082825403925050819055506200030f565b806000808473ffffffffffffffffffffffffffffffffffffffff1673ffffffffffffffffffffffffffffffffffffffff168152602001908152602001600020600082825401925050819055505b8173ffffffffffffffffffffffffffffffffffffffff168373ffffffffffffffffffffffffffffffffffffffff167fddf252ad1be2c89b69c2b068fc378daa952ba7f163c4a11628f55a4df523b3ef836040516200036e9190620007f6565b60405180910390a3505050565b600081519050919050565b7f4e487b7100000000000000000000000000000000000000000000000000000000600052604160045260246000fd5b7f4e487b7100000000000000000000000000000000000000000000000000000000600052602260045260246000fd5b60006002820490506001821680620003fd57607f821691505b602082108103620004135762000412620003b5565b5b50919050565b60008190508160005260206000209050919050565b60006020601f8301049050919050565b600082821b905092915050565b6000600883026200047d7fffffffffffffffffffffffffffffffffffffffffffffffffffffffffffffffff826200043e565b6200048986836200043e565b95508019841693508086168417925050509392505050565b6000819050919050565b6000819050919050565b6000620004d6620004d0620004ca84620004a1565b620004ab565b620004a1565b9050919050565b6000819050919050565b620004f283620004b5565b6200050a6200050182620004dd565b8484546200044b565b825550505050565b600090565b6200052162000512565b6200052e818484620004e7565b505050565b5b8181101562000556576200054a60008262000517565b60018101905062000534565b5050565b601f821115620005a5576200056f8162000419565b6200057a846200042e565b810160208510156200058a578190505b620005a262000599856200042e565b83018262000533565b50505b505050565b600082821c905092915050565b6000620005ca60001984600802620005aa565b1980831691505092915050565b6000620005e58383620005b7565b9150826002028217905092915050565b62000600826200037b565b67ffffffffffffffff8111156200061c576200061b62000386565b5b620006288254620003e4565b620006358282856200055a565b600060209050601f8311600181146200066d576000841562000658578287015190505b620006648582620005d7565b865550620006d4565b601f1984166200067d8662000419565b60005b82811015620006a75784890151825560018201915060208501945060208101905062000680565b86831015620006c75784890151620006c3601f891682620005b7565b8355505b6001600288020188555050505b505050505050565b600073ffffffffffffffffffffffffffffffffffffffff82169050919050565b60006200070982620006dc565b9050919050565b6200071b81620006fc565b82525050565b600060208201905062000738600083018462000710565b92915050565b7f4e487b7100000000000000000000000000000000000000000000000000000000600052601160045260246000fd5b60006200077a82620004a1565b91506200078783620004a1565b9250828201905080821115620007a257620007a16200073e565b5b92915050565b620007b381620004a1565b82525050565b6000606082019050620007d0600083018662000710565b620007df6020830185620007a8565b620007ee6040830184620007a8565b949350505050565b60006020820190506200080d6000830184620007a8565b92915050565b613c0480620008236000396000f3fe608060405234801561001057600080fd5b506004361061014d5760003560e01c806380a1f712116100c3578063ce43c0321161007c578063ce43c032146103ca578063dd62ed3e146103fa578063de6f24bb1461042a578063df6c5b2c14610446578063f98fe62814610462578063fc0c546a146104925761014d565b806380a1f7121461030a57806385e1b15b1461032857806395d89b4114610344578063a5fb1fb814610362578063a9059cbb1461037e578063b708fd4d146103ae5761014d565b8063332d56d711610115578063332d56d71461020c5780634768d4ef146102405780636036a0391461027157806370a08231146102a257806371f8b59e146102d25780637ebda124146102ee5761014d565b806306fdde0314610152578063095ea7b31461017057806318160ddd146101a057806323b872dd146101be578063313ce567146101ee575b600080fd5b61015a6104b0565b60405161016791906127bb565b60405180910390f35b61018a60048036038101906101859190612885565b610542565b60405161019791906128e0565b60405180910390f35b6101a8610565565b6040516101b5919061290a565b60405180910390f35b6101d860048036038101906101d39190612925565b61056f565b6040516101e591906128e0565b60405180910390f35b6101f661059e565b6040516102039190612994565b60405180910390f35b610226600480360381019061022191906129af565b6105a7565b6040516102379594939291906129dc565b60405180910390f35b61025a60048036038101906102559190612a3d565b6106ed565b604051610268929190612a79565b60405180910390f35b61028b60048036038101906102869190612ad8565b610761565b604051610299929190612b18565b60405180910390f35b6102bc60048036038101906102b791906129af565b61084a565b6040516102c9919061290a565b60405180910390f35b6102ec60048036038101906102e791906129af565b610892565b005b61030860048036038101906103039190612b74565b6109f9565b005b610312610c9b565b60405161031f9190612c72565b60405180910390f35b610342600480360381019061033d91906129af565b610df0565b005b61034c6111bd565b60405161035991906127bb565b60405180910390f35b61037c60048036038101906103779190612dc9565b61124f565b005b61039860048036038101906103939190612885565b611404565b6040516103a591906128e0565b60405180910390f35b6103c860048036038101906103c39190612dc9565b611427565b005b6103e460048036038101906103df91906129af565b6115dc565b6040516103f191906127bb565b60405180910390f35b610414600480360381019061040f9190612e54565b611735565b604051610421919061290a565b60405180910390f35b610444600480360381019061043f9190612e94565b6117bc565b005b610460600480360381019061045b91906129af565b611ab9565b005b61047c600480360381019061047791906129af565b611e35565b60405161048991906128e0565b60405180910390f35b61049a611e3c565b6040516104a79190612f4f565b60405180910390f35b6060600380546104bf90612f99565b80601f01602080910402602001604051908101604052809291908181526020018280546104eb90612f99565b80156105385780601f1061050d57610100808354040283529160200191610538565b820191906000526020600020905b81548152906001019060200180831161051b57829003601f168201915b5050505050905090565b60008061054d611e62565b905061055a818585611e6a565b600191505092915050565b6000600254905090565b60008061057a611e62565b9050610587858285611e7c565b610592858585611f10565b60019150509392505050565b60006012905090565b60056020528060005260406000206000915090508060000180546105ca90612f99565b80601f01602080910402602001604051908101604052809291908181526020018280546105f690612f99565b80156106435780601f1061061857610100808354040283529160200191610643565b820191906000526020600020905b81548152906001019060200180831161062657829003601f168201915b50505050509080600101549080600201805461065e90612f99565b80601f016020809104026020016040519081016040528092919081815260200182805461068a90612f99565b80156106d75780601f106106ac576101008083540402835291602001916106d7565b820191906000526020600020905b8154815290600101906020018083116106ba57829003601f168201915b5050505050908060030154908060040154905085565b600681815481106106fd57600080fd5b90600052602060002090600202016000915090508060000160009054906101000a900473ffffffffffffffffffffffffffffffffffffffff16908060010160009054906101000a900473ffffffffffffffffffffffffffffffffffffffff16905082565b6007602052816000526040600020818154811061077d57600080fd5b9060005260206000209060020201600091509150508060000160009054906101000a900473ffffffffffffffffffffffffffffffffffffffff16908060010180546107c790612f99565b80601f01602080910402602001604051908101604052809291908181526020018280546107f390612f99565b80156108405780601f1061081557610100808354040283529160200191610840565b820191906000526020600020905b81548152906001019060200180831161082357829003601f168201915b5050505050905082565b60008060008373ffffffffffffffffffffffffffffffffffffffff1673ffffffffffffffffffffffffffffffffffffffff168152602001908152602001600020549050919050565b8073ffffffffffffffffffffffffffffffffffffffff163373ffffffffffffffffffffffffffffffffffffffff1603610900576040517f08c379a00000000000000000000000000000000000000000000000000000000081526004016108f79061303c565b60405180910390fd5b6000600560003373ffffffffffffffffffffffffffffffffffffffff1673ffffffffffffffffffffffffffffffffffffffff1681526020019081526020016000206001015411610985576040517f08c379a000000000000000000000000000000000000000000000000000000000815260040161097c906130ce565b60405180910390fd5b600061099082612004565b905061099c8282611404565b50600560003373ffffffffffffffffffffffffffffffffffffffff1673ffffffffffffffffffffffffffffffffffffffff16815260200190815260200160002060040160008154809291906109f09061311d565b91905055505050565b6000600560003373ffffffffffffffffffffffffffffffffffffffff1673ffffffffffffffffffffffffffffffffffffffff1681526020019081526020016000206001015411610a7e576040517f08c379a0000000000000000000000000000000000000000000000000000000008152600401610a75906131b1565b60405180910390fd5b600560003373ffffffffffffffffffffffffffffffffffffffff1673ffffffffffffffffffffffffffffffffffffffff16815260200190815260200160002060060160008373ffffffffffffffffffffffffffffffffffffffff1673ffffffffffffffffffffffffffffffffffffffff16815260200190815260200160002060009054906101000a900460ff16610b4a576040517f08c379a0000000000000000000000000000000000000000000000000000000008152600401610b419061321d565b60405180910390fd5b6000600560003373ffffffffffffffffffffffffffffffffffffffff1673ffffffffffffffffffffffffffffffffffffffff16815260200190815260200160002060060160008473ffffffffffffffffffffffffffffffffffffffff1673ffffffffffffffffffffffffffffffffffffffff16815260200190815260200160002060006101000a81548160ff0219169083151502179055508015610c9757600560003373ffffffffffffffffffffffffffffffffffffffff1673ffffffffffffffffffffffffffffffffffffffff168152602001908152602001600020600701829080600181540180825580915050600190039060005260206000200160009091909190916101000a81548173ffffffffffffffffffffffffffffffffffffffff021916908373ffffffffffffffffffffffffffffffffffffffff160217905550610c958233612105565b505b5050565b60606000600560003373ffffffffffffffffffffffffffffffffffffffff1673ffffffffffffffffffffffffffffffffffffffff16815260200190815260200160002090506000816005018054905067ffffffffffffffff811115610d0357610d02612c9e565b5b604051908082528060200260200182016040528015610d315781602001602082028036833780820191505090505b50905060005b8260050180549050811015610de757826005018181548110610d5c57610d5b61323d565b5b9060005260206000200160009054906101000a900473ffffffffffffffffffffffffffffffffffffffff16828281518110610d9a57610d9961323d565b5b602002602001019073ffffffffffffffffffffffffffffffffffffffff16908173ffffffffffffffffffffffffffffffffffffffff16815250508080610ddf9061311d565b915050610d37565b50809250505090565b8073ffffffffffffffffffffffffffffffffffffffff163373ffffffffffffffffffffffffffffffffffffffff1603610e5e576040517f08c379a0000000000000000000000000000000000000000000000000000000008152600401610e55906132de565b60405180910390fd5b6000600560003373ffffffffffffffffffffffffffffffffffffffff1673ffffffffffffffffffffffffffffffffffffffff1681526020019081526020016000206001015411610ee3576040517f08c379a0000000000000000000000000000000000000000000000000000000008152600401610eda906131b1565b60405180910390fd5b6000600560008373ffffffffffffffffffffffffffffffffffffffff1673ffffffffffffffffffffffffffffffffffffffff1681526020019081526020016000206001015411610f68576040517f08c379a0000000000000000000000000000000000000000000000000000000008152600401610f5f9061334a565b60405180910390fd5b610f723382612105565b15610fb2576040517f08c379a0000000000000000000000000000000000000000000000000000000008152600401610fa9906133dc565b60405180910390fd5b600560003373ffffffffffffffffffffffffffffffffffffffff1673ffffffffffffffffffffffffffffffffffffffff16815260200190815260200160002060060160008273ffffffffffffffffffffffffffffffffffffffff1673ffffffffffffffffffffffffffffffffffffffff16815260200190815260200160002060009054906101000a900460ff161561107f576040517f08c379a00000000000000000000000000000000000000000000000000000000081526004016110769061346e565b60405180910390fd5b6001600560003373ffffffffffffffffffffffffffffffffffffffff1673ffffffffffffffffffffffffffffffffffffffff16815260200190815260200160002060060160008373ffffffffffffffffffffffffffffffffffffffff1673ffffffffffffffffffffffffffffffffffffffff16815260200190815260200160002060006101000a81548160ff021916908315150217905550600560003373ffffffffffffffffffffffffffffffffffffffff1673ffffffffffffffffffffffffffffffffffffffff168152602001908152602001600020600501819080600181540180825580915050600190039060005260206000200160009091909190916101000a81548173ffffffffffffffffffffffffffffffffffffffff021916908373ffffffffffffffffffffffffffffffffffffffff16021790555050565b6060600480546111cc90612f99565b80601f01602080910402602001604051908101604052809291908181526020018280546111f890612f99565b80156112455780601f1061121a57610100808354040283529160200191611245565b820191906000526020600020905b81548152906001019060200180831161122857829003601f168201915b5050505050905090565b6000835111611293576040517f08c379a000000000000000000000000000000000000000000000000000000000815260040161128a906134da565b60405180910390fd5b6000600560003373ffffffffffffffffffffffffffffffffffffffff1673ffffffffffffffffffffffffffffffffffffffff1681526020019081526020016000206001015411611318576040517f08c379a000000000000000000000000000000000000000000000000000000000815260040161130f90613546565b60405180910390fd5b82600560003373ffffffffffffffffffffffffffffffffffffffff1673ffffffffffffffffffffffffffffffffffffffff16815260200190815260200160002060000190816113679190613708565b5081600560003373ffffffffffffffffffffffffffffffffffffffff1673ffffffffffffffffffffffffffffffffffffffff1681526020019081526020016000206001018190555080600560003373ffffffffffffffffffffffffffffffffffffffff1673ffffffffffffffffffffffffffffffffffffffff16815260200190815260200160002060020190816113fe9190613708565b50505050565b60008061140f611e62565b905061141c818585611f10565b600191505092915050565b600083511161146b576040517f08c379a0000000000000000000000000000000000000000000000000000000008152600401611462906134da565b60405180910390fd5b6000600560003373ffffffffffffffffffffffffffffffffffffffff1673ffffffffffffffffffffffffffffffffffffffff16815260200190815260200160002060010154146114f0576040517f08c379a00000000000000000000000000000000000000000000000000000000081526004016114e790613826565b60405180910390fd5b82600560003373ffffffffffffffffffffffffffffffffffffffff1673ffffffffffffffffffffffffffffffffffffffff168152602001908152602001600020600001908161153f9190613708565b5081600560003373ffffffffffffffffffffffffffffffffffffffff1673ffffffffffffffffffffffffffffffffffffffff1681526020019081526020016000206001018190555080600560003373ffffffffffffffffffffffffffffffffffffffff1673ffffffffffffffffffffffffffffffffffffffff16815260200190815260200160002060020190816115d69190613708565b50505050565b60606000600560008473ffffffffffffffffffffffffffffffffffffffff1673ffffffffffffffffffffffffffffffffffffffff1681526020019081526020016000206001015411611663576040517f08c379a000000000000000000000000000000000000000000000000000000000815260040161165a90613546565b60405180910390fd5b600560008373ffffffffffffffffffffffffffffffffffffffff1673ffffffffffffffffffffffffffffffffffffffff16815260200190815260200160002060000180546116b090612f99565b80601f01602080910402602001604051908101604052809291908181526020018280546116dc90612f99565b80156117295780601f106116fe57610100808354040283529160200191611729565b820191906000526020600020905b81548152906001019060200180831161170c57829003601f168201915b50505050509050919050565b6000600160008473ffffffffffffffffffffffffffffffffffffffff1673ffffffffffffffffffffffffffffffffffffffff16815260200190815260200160002060008373ffffffffffffffffffffffffffffffffffffffff1673ffffffffffffffffffffffffffffffffffffffff16815260200190815260200160002054905092915050565b8173ffffffffffffffffffffffffffffffffffffffff163373ffffffffffffffffffffffffffffffffffffffff160361182a576040517f08c379a0000000000000000000000000000000000000000000000000000000008152600401611821906138b8565b60405180910390fd5b600081511161186e576040517f08c379a000000000000000000000000000000000000000000000000000000000815260040161186590613924565b60405180910390fd5b6000600560003373ffffffffffffffffffffffffffffffffffffffff1673ffffffffffffffffffffffffffffffffffffffff16815260200190815260200160002060010154116118f3576040517f08c379a00000000000000000000000000000000000000000000000000000000081526004016118ea906131b1565b60405180910390fd5b6000600560008473ffffffffffffffffffffffffffffffffffffffff1673ffffffffffffffffffffffffffffffffffffffff1681526020019081526020016000206001015411611978576040517f08c379a000000000000000000000000000000000000000000000000000000000815260040161196f9061334a565b60405180910390fd5b6119823383612105565b6119c1576040517f08c379a00000000000000000000000000000000000000000000000000000000081526004016119b8906139b6565b60405180910390fd5b600033836040516020016119d6929190613a1e565b6040516020818303038152906040528051906020012090506007600082815260200190815260200160002060405180604001604052803373ffffffffffffffffffffffffffffffffffffffff16815260200184815250908060018154018082558091505060019003906000526020600020906002020160009091909190915060008201518160000160006101000a81548173ffffffffffffffffffffffffffffffffffffffff021916908373ffffffffffffffffffffffffffffffffffffffff1602179055506020820151816001019081611ab19190613708565b505050505050565b8073ffffffffffffffffffffffffffffffffffffffff163373ffffffffffffffffffffffffffffffffffffffff1603611b27576040517f08c379a0000000000000000000000000000000000000000000000000000000008152600401611b1e90613a96565b60405180910390fd5b6000600560003373ffffffffffffffffffffffffffffffffffffffff1673ffffffffffffffffffffffffffffffffffffffff1681526020019081526020016000206001015411611bac576040517f08c379a0000000000000000000000000000000000000000000000000000000008152600401611ba3906131b1565b60405180910390fd5b6000600560008373ffffffffffffffffffffffffffffffffffffffff1673ffffffffffffffffffffffffffffffffffffffff1681526020019081526020016000206001015411611c31576040517f08c379a0000000000000000000000000000000000000000000000000000000008152600401611c289061334a565b60405180910390fd5b611c3b3382612105565b15611c7b576040517f08c379a0000000000000000000000000000000000000000000000000000000008152600401611c72906133dc565b60405180910390fd5b600560003373ffffffffffffffffffffffffffffffffffffffff1673ffffffffffffffffffffffffffffffffffffffff1681526020019081526020016000206003016000815480929190611cce9061311d565b9190505550600560008273ffffffffffffffffffffffffffffffffffffffff1673ffffffffffffffffffffffffffffffffffffffff1681526020019081526020016000206003016000815480929190611d269061311d565b9190505550600660405180604001604052803373ffffffffffffffffffffffffffffffffffffffff1681526020018373ffffffffffffffffffffffffffffffffffffffff16815250908060018154018082558091505060019003906000526020600020906002020160009091909190915060008201518160000160006101000a81548173ffffffffffffffffffffffffffffffffffffffff021916908373ffffffffffffffffffffffffffffffffffffffff16021790555060208201518160010160006101000a81548173ffffffffffffffffffffffffffffffffffffffff021916908373ffffffffffffffffffffffffffffffffffffffff1602179055505050611e318133612105565b5050565b6000919050565b600860009054906101000a900473ffffffffffffffffffffffffffffffffffffffff1681565b600033905090565b611e77838383600161232f565b505050565b6000611e888484611735565b90507fffffffffffffffffffffffffffffffffffffffffffffffffffffffffffffffff8114611f0a5781811015611efa578281836040517ffb8f41b2000000000000000000000000000000000000000000000000000000008152600401611ef193929190613ab6565b60405180910390fd5b611f098484848403600061232f565b5b50505050565b600073ffffffffffffffffffffffffffffffffffffffff168373ffffffffffffffffffffffffffffffffffffffff1603611f825760006040517f96c6fd1e000000000000000000000000000000000000000000000000000000008152600401611f799190613aed565b60405180910390fd5b600073ffffffffffffffffffffffffffffffffffffffff168273ffffffffffffffffffffffffffffffffffffffff1603611ff45760006040517fec442f05000000000000000000000000000000000000000000000000000000008152600401611feb9190613aed565b60405180910390fd5b611fff838383612506565b505050565b600080600560008473ffffffffffffffffffffffffffffffffffffffff1673ffffffffffffffffffffffffffffffffffffffff168152602001908152602001600020600401541161208a576040517f08c379a000000000000000000000000000000000000000000000000000000000815260040161208190613b7a565b60405180910390fd5b6000600190506000600560008573ffffffffffffffffffffffffffffffffffffffff1673ffffffffffffffffffffffffffffffffffffffff168152602001908152602001600020600401549050600081836120e59190613b9a565b90506000600a9050808211156120f9578091505b81945050505050919050565b600080600090505b600680549050811015612323578373ffffffffffffffffffffffffffffffffffffffff16600682815481106121455761214461323d565b5b906000526020600020906002020160000160009054906101000a900473ffffffffffffffffffffffffffffffffffffffff1673ffffffffffffffffffffffffffffffffffffffff1614801561220a57508273ffffffffffffffffffffffffffffffffffffffff16600682815481106121c0576121bf61323d565b5b906000526020600020906002020160010160009054906101000a900473ffffffffffffffffffffffffffffffffffffffff1673ffffffffffffffffffffffffffffffffffffffff16145b8061230157508273ffffffffffffffffffffffffffffffffffffffff166006828154811061223b5761223a61323d565b5b906000526020600020906002020160000160009054906101000a900473ffffffffffffffffffffffffffffffffffffffff1673ffffffffffffffffffffffffffffffffffffffff1614801561230057508373ffffffffffffffffffffffffffffffffffffffff16600682815481106122b6576122b561323d565b5b906000526020600020906002020160010160009054906101000a900473ffffffffffffffffffffffffffffffffffffffff1673ffffffffffffffffffffffffffffffffffffffff16145b5b15612310576001915050612329565b808061231b9061311d565b91505061210d565b50600090505b92915050565b600073ffffffffffffffffffffffffffffffffffffffff168473ffffffffffffffffffffffffffffffffffffffff16036123a15760006040517fe602df050000000000000000000000000000000000000000000000000000000081526004016123989190613aed565b60405180910390fd5b600073ffffffffffffffffffffffffffffffffffffffff168373ffffffffffffffffffffffffffffffffffffffff16036124135760006040517f94280d6200000000000000000000000000000000000000000000000000000000815260040161240a9190613aed565b60405180910390fd5b81600160008673ffffffffffffffffffffffffffffffffffffffff1673ffffffffffffffffffffffffffffffffffffffff16815260200190815260200160002060008573ffffffffffffffffffffffffffffffffffffffff1673ffffffffffffffffffffffffffffffffffffffff168152602001908152602001600020819055508015612500578273ffffffffffffffffffffffffffffffffffffffff168473ffffffffffffffffffffffffffffffffffffffff167f8c5be1e5ebec7d5bd14f71427d1e84f3dd0314c0f7b2291e5b200ac8c7c3b925846040516124f7919061290a565b60405180910390a35b50505050565b600073ffffffffffffffffffffffffffffffffffffffff168373ffffffffffffffffffffffffffffffffffffffff160361255857806002600082825461254c9190613b9a565b9250508190555061262b565b60008060008573ffffffffffffffffffffffffffffffffffffffff1673ffffffffffffffffffffffffffffffffffffffff168152602001908152602001600020549050818110156125e4578381836040517fe450d38c0000000000000000000000000000000000000000000000000000000081526004016125db93929190613ab6565b60405180910390fd5b8181036000808673ffffffffffffffffffffffffffffffffffffffff1673ffffffffffffffffffffffffffffffffffffffff16815260200190815260200160002081905550505b600073ffffffffffffffffffffffffffffffffffffffff168273ffffffffffffffffffffffffffffffffffffffff160361267457806002600082825403925050819055506126c1565b806000808473ffffffffffffffffffffffffffffffffffffffff1673ffffffffffffffffffffffffffffffffffffffff168152602001908152602001600020600082825401925050819055505b8173ffffffffffffffffffffffffffffffffffffffff168373ffffffffffffffffffffffffffffffffffffffff167fddf252ad1be2c89b69c2b068fc378daa952ba7f163c4a11628f55a4df523b3ef8360405161271e919061290a565b60405180910390a3505050565b600081519050919050565b600082825260208201905092915050565b60005b8381101561276557808201518184015260208101905061274a565b60008484015250505050565b6000601f19601f8301169050919050565b600061278d8261272b565b6127978185612736565b93506127a7818560208601612747565b6127b081612771565b840191505092915050565b600060208201905081810360008301526127d58184612782565b905092915050565b6000604051905090565b600080fd5b600080fd5b600073ffffffffffffffffffffffffffffffffffffffff82169050919050565b600061281c826127f1565b9050919050565b61282c81612811565b811461283757600080fd5b50565b60008135905061284981612823565b92915050565b6000819050919050565b6128628161284f565b811461286d57600080fd5b50565b60008135905061287f81612859565b92915050565b6000806040838503121561289c5761289b6127e7565b5b60006128aa8582860161283a565b92505060206128bb85828601612870565b9150509250929050565b60008115159050919050565b6128da816128c5565b82525050565b60006020820190506128f560008301846128d1565b92915050565b6129048161284f565b82525050565b600060208201905061291f60008301846128fb565b92915050565b60008060006060848603121561293e5761293d6127e7565b5b600061294c8682870161283a565b935050602061295d8682870161283a565b925050604061296e86828701612870565b9150509250925092565b600060ff82169050919050565b61298e81612978565b82525050565b60006020820190506129a96000830184612985565b92915050565b6000602082840312156129c5576129c46127e7565b5b60006129d38482850161283a565b91505092915050565b600060a08201905081810360008301526129f68188612782565b9050612a0560208301876128fb565b8181036040830152612a178186612782565b9050612a2660608301856128fb565b612a3360808301846128fb565b9695505050505050565b600060208284031215612a5357612a526127e7565b5b6000612a6184828501612870565b91505092915050565b612a7381612811565b82525050565b6000604082019050612a8e6000830185612a6a565b612a9b6020830184612a6a565b9392505050565b6000819050919050565b612ab581612aa2565b8114612ac057600080fd5b50565b600081359050612ad281612aac565b92915050565b60008060408385031215612aef57612aee6127e7565b5b6000612afd85828601612ac3565b9250506020612b0e85828601612870565b9150509250929050565b6000604082019050612b2d6000830185612a6a565b8181036020830152612b3f8184612782565b90509392505050565b612b51816128c5565b8114612b5c57600080fd5b50565b600081359050612b6e81612b48565b92915050565b60008060408385031215612b8b57612b8a6127e7565b5b6000612b998582860161283a565b9250506020612baa85828601612b5f565b9150509250929050565b600081519050919050565b600082825260208201905092915050565b6000819050602082019050919050565b612be981612811565b82525050565b6000612bfb8383612be0565b60208301905092915050565b6000602082019050919050565b6000612c1f82612bb4565b612c298185612bbf565b9350612c3483612bd0565b8060005b83811015612c65578151612c4c8882612bef565b9750612c5783612c07565b925050600181019050612c38565b5085935050505092915050565b60006020820190508181036000830152612c8c8184612c14565b905092915050565b600080fd5b600080fd5b7f4e487b7100000000000000000000000000000000000000000000000000000000600052604160045260246000fd5b612cd682612771565b810181811067ffffffffffffffff82111715612cf557612cf4612c9e565b5b80604052505050565b6000612d086127dd565b9050612d148282612ccd565b919050565b600067ffffffffffffffff821115612d3457612d33612c9e565b5b612d3d82612771565b9050602081019050919050565b82818337600083830152505050565b6000612d6c612d6784612d19565b612cfe565b905082815260208101848484011115612d8857612d87612c99565b5b612d93848285612d4a565b509392505050565b600082601f830112612db057612daf612c94565b5b8135612dc0848260208601612d59565b91505092915050565b600080600060608486031215612de257612de16127e7565b5b600084013567ffffffffffffffff811115612e0057612dff6127ec565b5b612e0c86828701612d9b565b9350506020612e1d86828701612870565b925050604084013567ffffffffffffffff811115612e3e57612e3d6127ec565b5b612e4a86828701612d9b565b9150509250925092565b60008060408385031215612e6b57612e6a6127e7565b5b6000612e798582860161283a565b9250506020612e8a8582860161283a565b9150509250929050565b60008060408385031215612eab57612eaa6127e7565b5b6000612eb98582860161283a565b925050602083013567ffffffffffffffff811115612eda57612ed96127ec565b5b612ee685828601612d9b565b9150509250929050565b6000819050919050565b6000612f15612f10612f0b846127f1565b612ef0565b6127f1565b9050919050565b6000612f2782612efa565b9050919050565b6000612f3982612f1c565b9050919050565b612f4981612f2e565b82525050565b6000602082019050612f646000830184612f40565b92915050565b7f4e487b7100000000000000000000000000000000000000000000000000000000600052602260045260246000fd5b60006002820490506001821680612fb157607f821691505b602082108103612fc457612fc3612f6a565b5b50919050565b7f596f752063616e6e6f7420696e746572616374207769746820796f757273656c60008201527f6600000000000000000000000000000000000000000000000000000000000000602082015250565b6000613026602183612736565b915061303182612fca565b604082019050919050565b6000602082019050818103600083015261305581613019565b9050919050565b7f55736572206d757374206861766520612070726f66696c65207769746820696e60008201527f746572616374696f6e732e000000000000000000000000000000000000000000602082015250565b60006130b8602b83612736565b91506130c38261305c565b604082019050919050565b600060208201905081810360008301526130e7816130ab565b9050919050565b7f4e487b7100000000000000000000000000000000000000000000000000000000600052601160045260246000fd5b60006131288261284f565b91507fffffffffffffffffffffffffffffffffffffffffffffffffffffffffffffffff820361315a576131596130ee565b5b600182019050919050565b7f557365722070726f66696c65206d757374206578697374000000000000000000600082015250565b600061319b601783612736565b91506131a682613165565b602082019050919050565b600060208201905081810360008301526131ca8161318e565b9050919050565b7f52657175657374206e6f7420666f756e64000000000000000000000000000000600082015250565b6000613207601183612736565b9150613212826131d1565b602082019050919050565b60006020820190508181036000830152613236816131fa565b9050919050565b7f4e487b7100000000000000000000000000000000000000000000000000000000600052603260045260246000fd5b7f596f752063616e6e6f742073656e642061207265717565737420746f20796f7560008201527f7273656c66000000000000000000000000000000000000000000000000000000602082015250565b60006132c8602583612736565b91506132d38261326c565b604082019050919050565b600060208201905081810360008301526132f7816132bb565b9050919050565b7f5461726765742070726f66696c65206d75737420657869737400000000000000600082015250565b6000613334601983612736565b915061333f826132fe565b602082019050919050565b6000602082019050818103600083015261336381613327565b9050919050565b7f596f75206861766520616c7265616479206d617463686564207769746820746860008201527f6973207573657200000000000000000000000000000000000000000000000000602082015250565b60006133c6602783612736565b91506133d18261336a565b604082019050919050565b600060208201905081810360008301526133f5816133b9565b9050919050565b7f596f75206861766520616c72656164792073656e74206120726571756573742060008201527f746f207468697320757365720000000000000000000000000000000000000000602082015250565b6000613458602c83612736565b9150613463826133fc565b604082019050919050565b600060208201905081810360008301526134878161344b565b9050919050565b7f4e616d652063616e6e6f7420626520656d707479000000000000000000000000600082015250565b60006134c4601483612736565b91506134cf8261348e565b602082019050919050565b600060208201905081810360008301526134f3816134b7565b9050919050565b7f50726f66696c6520646f6573206e6f7420657869737400000000000000000000600082015250565b6000613530601683612736565b915061353b826134fa565b602082019050919050565b6000602082019050818103600083015261355f81613523565b9050919050565b60008190508160005260206000209050919050565b60006020601f8301049050919050565b600082821b905092915050565b6000600883026135c87fffffffffffffffffffffffffffffffffffffffffffffffffffffffffffffffff8261358b565b6135d2868361358b565b95508019841693508086168417925050509392505050565b60006136056136006135fb8461284f565b612ef0565b61284f565b9050919050565b6000819050919050565b61361f836135ea565b61363361362b8261360c565b848454613598565b825550505050565b600090565b61364861363b565b613653818484613616565b505050565b5b818110156136775761366c600082613640565b600181019050613659565b5050565b601f8211156136bc5761368d81613566565b6136968461357b565b810160208510156136a5578190505b6136b96136b18561357b565b830182613658565b50505b505050565b600082821c905092915050565b60006136df600019846008026136c1565b1980831691505092915050565b60006136f883836136ce565b9150826002028217905092915050565b6137118261272b565b67ffffffffffffffff81111561372a57613729612c9e565b5b6137348254612f99565b61373f82828561367b565b600060209050601f8311600181146137725760008415613760578287015190505b61376a85826136ec565b8655506137d2565b601f19841661378086613566565b60005b828110156137a857848901518255600182019150602085019450602081019050613783565b868310156137c557848901516137c1601f8916826136ce565b8355505b6001600288020188555050505b505050505050565b7f50726f66696c6520616c72656164792065786973747300000000000000000000600082015250565b6000613810601683612736565b915061381b826137da565b602082019050919050565b6000602082019050818103600083015261383f81613803565b9050919050565b7f596f752063616e6e6f742073656e642061206d65737361676520746f20796f7560008201527f7273656c66000000000000000000000000000000000000000000000000000000602082015250565b60006138a2602583612736565b91506138ad82613846565b604082019050919050565b600060208201905081810360008301526138d181613895565b9050919050565b7f4d6573736167652063616e6e6f7420626520656d707479000000000000000000600082015250565b600061390e601783612736565b9150613919826138d8565b602082019050919050565b6000602082019050818103600083015261393d81613901565b9050919050565b7f596f75206d757374206265206d6174636865642077697468207468697320757360008201527f6572000000000000000000000000000000000000000000000000000000000000602082015250565b60006139a0602283612736565b91506139ab82613944565b604082019050919050565b600060208201905081810360008301526139cf81613993565b9050919050565b60008160601b9050919050565b60006139ee826139d6565b9050919050565b6000613a00826139e3565b9050919050565b613a18613a1382612811565b6139f5565b82525050565b6000613a2a8285613a07565b601482019150613a3a8284613a07565b6014820191508190509392505050565b7f596f752063616e6e6f74206c696b6520796f757273656c660000000000000000600082015250565b6000613a80601883612736565b9150613a8b82613a4a565b602082019050919050565b60006020820190508181036000830152613aaf81613a73565b9050919050565b6000606082019050613acb6000830186612a6a565b613ad860208301856128fb565b613ae560408301846128fb565b949350505050565b6000602082019050613b026000830184612a6a565b92915050565b7f5461726765742075736572206d757374206861766520696e746572616374696f60008201527f6e732e0000000000000000000000000000000000000000000000000000000000602082015250565b6000613b64602383612736565b9150613b6f82613b08565b604082019050919050565b60006020820190508181036000830152613b9381613b57565b9050919050565b6000613ba58261284f565b9150613bb08361284f565b9250828201905080821115613bc857613bc76130ee565b5b9291505056fea2646970667358221220b4e3124504b255869c6234b433722999c13b6a5a9677c8a50c8337e3cdbdc72e64736f6c63430008130033",
					"opcodes": "PUSH1 0x80 PUSH1 0x40 MSTORE CALLVALUE DUP1 ISZERO PUSH3 0x11 JUMPI PUSH1 0x0 DUP1 REVERT JUMPDEST POP PUSH1 0x40 MLOAD DUP1 PUSH1 0x40 ADD PUSH1 0x40 MSTORE DUP1 PUSH1 0x4 DUP2 MSTORE PUSH1 0x20 ADD PUSH32 0x5465737400000000000000000000000000000000000000000000000000000000 DUP2 MSTORE POP PUSH1 0x40 MLOAD DUP1 PUSH1 0x40 ADD PUSH1 0x40 MSTORE DUP1 PUSH1 0x3 DUP2 MSTORE PUSH1 0x20 ADD PUSH32 0x5453540000000000000000000000000000000000000000000000000000000000 DUP2 MSTORE POP DUP2 PUSH1 0x3 SWAP1 DUP2 PUSH3 0x8F SWAP2 SWAP1 PUSH3 0x5F5 JUMP JUMPDEST POP DUP1 PUSH1 0x4 SWAP1 DUP2 PUSH3 0xA1 SWAP2 SWAP1 PUSH3 0x5F5 JUMP JUMPDEST POP POP POP PUSH3 0xB8 ADDRESS PUSH2 0x3E8 PUSH3 0xBE PUSH1 0x20 SHL PUSH1 0x20 SHR JUMP JUMPDEST PUSH3 0x813 JUMP JUMPDEST PUSH1 0x0 PUSH20 0xFFFFFFFFFFFFFFFFFFFFFFFFFFFFFFFFFFFFFFFF AND DUP3 PUSH20 0xFFFFFFFFFFFFFFFFFFFFFFFFFFFFFFFFFFFFFFFF AND SUB PUSH3 0x133 JUMPI PUSH1 0x0 PUSH1 0x40 MLOAD PUSH32 0xEC442F0500000000000000000000000000000000000000000000000000000000 DUP2 MSTORE PUSH1 0x4 ADD PUSH3 0x12A SWAP2 SWAP1 PUSH3 0x721 JUMP JUMPDEST PUSH1 0x40 MLOAD DUP1 SWAP2 SUB SWAP1 REVERT JUMPDEST PUSH3 0x147 PUSH1 0x0 DUP4 DUP4 PUSH3 0x14B PUSH1 0x20 SHL PUSH1 0x20 SHR JUMP JUMPDEST POP POP JUMP JUMPDEST PUSH1 0x0 PUSH20 0xFFFFFFFFFFFFFFFFFFFFFFFFFFFFFFFFFFFFFFFF AND DUP4 PUSH20 0xFFFFFFFFFFFFFFFFFFFFFFFFFFFFFFFFFFFFFFFF AND SUB PUSH3 0x1A1 JUMPI DUP1 PUSH1 0x2 PUSH1 0x0 DUP3 DUP3 SLOAD PUSH3 0x194 SWAP2 SWAP1 PUSH3 0x76D JUMP JUMPDEST SWAP3 POP POP DUP2 SWAP1 SSTORE POP PUSH3 0x277 JUMP JUMPDEST PUSH1 0x0 DUP1 PUSH1 0x0 DUP6 PUSH20 0xFFFFFFFFFFFFFFFFFFFFFFFFFFFFFFFFFFFFFFFF AND PUSH20 0xFFFFFFFFFFFFFFFFFFFFFFFFFFFFFFFFFFFFFFFF AND DUP2 MSTORE PUSH1 0x20 ADD SWAP1 DUP2 MSTORE PUSH1 0x20 ADD PUSH1 0x0 KECCAK256 SLOAD SWAP1 POP DUP2 DUP2 LT ISZERO PUSH3 0x230 JUMPI DUP4 DUP2 DUP4 PUSH1 0x40 MLOAD PUSH32 0xE450D38C00000000000000000000000000000000000000000000000000000000 DUP2 MSTORE PUSH1 0x4 ADD PUSH3 0x227 SWAP4 SWAP3 SWAP2 SWAP1 PUSH3 0x7B9 JUMP JUMPDEST PUSH1 0x40 MLOAD DUP1 SWAP2 SUB SWAP1 REVERT JUMPDEST DUP2 DUP2 SUB PUSH1 0x0 DUP1 DUP7 PUSH20 0xFFFFFFFFFFFFFFFFFFFFFFFFFFFFFFFFFFFFFFFF AND PUSH20 0xFFFFFFFFFFFFFFFFFFFFFFFFFFFFFFFFFFFFFFFF AND DUP2 MSTORE PUSH1 0x20 ADD SWAP1 DUP2 MSTORE PUSH1 0x20 ADD PUSH1 0x0 KECCAK256 DUP2 SWAP1 SSTORE POP POP JUMPDEST PUSH1 0x0 PUSH20 0xFFFFFFFFFFFFFFFFFFFFFFFFFFFFFFFFFFFFFFFF AND DUP3 PUSH20 0xFFFFFFFFFFFFFFFFFFFFFFFFFFFFFFFFFFFFFFFF AND SUB PUSH3 0x2C2 JUMPI DUP1 PUSH1 0x2 PUSH1 0x0 DUP3 DUP3 SLOAD SUB SWAP3 POP POP DUP2 SWAP1 SSTORE POP PUSH3 0x30F JUMP JUMPDEST DUP1 PUSH1 0x0 DUP1 DUP5 PUSH20 0xFFFFFFFFFFFFFFFFFFFFFFFFFFFFFFFFFFFFFFFF AND PUSH20 0xFFFFFFFFFFFFFFFFFFFFFFFFFFFFFFFFFFFFFFFF AND DUP2 MSTORE PUSH1 0x20 ADD SWAP1 DUP2 MSTORE PUSH1 0x20 ADD PUSH1 0x0 KECCAK256 PUSH1 0x0 DUP3 DUP3 SLOAD ADD SWAP3 POP POP DUP2 SWAP1 SSTORE POP JUMPDEST DUP2 PUSH20 0xFFFFFFFFFFFFFFFFFFFFFFFFFFFFFFFFFFFFFFFF AND DUP4 PUSH20 0xFFFFFFFFFFFFFFFFFFFFFFFFFFFFFFFFFFFFFFFF AND PUSH32 0xDDF252AD1BE2C89B69C2B068FC378DAA952BA7F163C4A11628F55A4DF523B3EF DUP4 PUSH1 0x40 MLOAD PUSH3 0x36E SWAP2 SWAP1 PUSH3 0x7F6 JUMP JUMPDEST PUSH1 0x40 MLOAD DUP1 SWAP2 SUB SWAP1 LOG3 POP POP POP JUMP JUMPDEST PUSH1 0x0 DUP2 MLOAD SWAP1 POP SWAP2 SWAP1 POP JUMP JUMPDEST PUSH32 0x4E487B7100000000000000000000000000000000000000000000000000000000 PUSH1 0x0 MSTORE PUSH1 0x41 PUSH1 0x4 MSTORE PUSH1 0x24 PUSH1 0x0 REVERT JUMPDEST PUSH32 0x4E487B7100000000000000000000000000000000000000000000000000000000 PUSH1 0x0 MSTORE PUSH1 0x22 PUSH1 0x4 MSTORE PUSH1 0x24 PUSH1 0x0 REVERT JUMPDEST PUSH1 0x0 PUSH1 0x2 DUP3 DIV SWAP1 POP PUSH1 0x1 DUP3 AND DUP1 PUSH3 0x3FD JUMPI PUSH1 0x7F DUP3 AND SWAP2 POP JUMPDEST PUSH1 0x20 DUP3 LT DUP2 SUB PUSH3 0x413 JUMPI PUSH3 0x412 PUSH3 0x3B5 JUMP JUMPDEST JUMPDEST POP SWAP2 SWAP1 POP JUMP JUMPDEST PUSH1 0x0 DUP2 SWAP1 POP DUP2 PUSH1 0x0 MSTORE PUSH1 0x20 PUSH1 0x0 KECCAK256 SWAP1 POP SWAP2 SWAP1 POP JUMP JUMPDEST PUSH1 0x0 PUSH1 0x20 PUSH1 0x1F DUP4 ADD DIV SWAP1 POP SWAP2 SWAP1 POP JUMP JUMPDEST PUSH1 0x0 DUP3 DUP3 SHL SWAP1 POP SWAP3 SWAP2 POP POP JUMP JUMPDEST PUSH1 0x0 PUSH1 0x8 DUP4 MUL PUSH3 0x47D PUSH32 0xFFFFFFFFFFFFFFFFFFFFFFFFFFFFFFFFFFFFFFFFFFFFFFFFFFFFFFFFFFFFFFFF DUP3 PUSH3 0x43E JUMP JUMPDEST PUSH3 0x489 DUP7 DUP4 PUSH3 0x43E JUMP JUMPDEST SWAP6 POP DUP1 NOT DUP5 AND SWAP4 POP DUP1 DUP7 AND DUP5 OR SWAP3 POP POP POP SWAP4 SWAP3 POP POP POP JUMP JUMPDEST PUSH1 0x0 DUP2 SWAP1 POP SWAP2 SWAP1 POP JUMP JUMPDEST PUSH1 0x0 DUP2 SWAP1 POP SWAP2 SWAP1 POP JUMP JUMPDEST PUSH1 0x0 PUSH3 0x4D6 PUSH3 0x4D0 PUSH3 0x4CA DUP5 PUSH3 0x4A1 JUMP JUMPDEST PUSH3 0x4AB JUMP JUMPDEST PUSH3 0x4A1 JUMP JUMPDEST SWAP1 POP SWAP2 SWAP1 POP JUMP JUMPDEST PUSH1 0x0 DUP2 SWAP1 POP SWAP2 SWAP1 POP JUMP JUMPDEST PUSH3 0x4F2 DUP4 PUSH3 0x4B5 JUMP JUMPDEST PUSH3 0x50A PUSH3 0x501 DUP3 PUSH3 0x4DD JUMP JUMPDEST DUP5 DUP5 SLOAD PUSH3 0x44B JUMP JUMPDEST DUP3 SSTORE POP POP POP POP JUMP JUMPDEST PUSH1 0x0 SWAP1 JUMP JUMPDEST PUSH3 0x521 PUSH3 0x512 JUMP JUMPDEST PUSH3 0x52E DUP2 DUP5 DUP5 PUSH3 0x4E7 JUMP JUMPDEST POP POP POP JUMP JUMPDEST JUMPDEST DUP2 DUP2 LT ISZERO PUSH3 0x556 JUMPI PUSH3 0x54A PUSH1 0x0 DUP3 PUSH3 0x517 JUMP JUMPDEST PUSH1 0x1 DUP2 ADD SWAP1 POP PUSH3 0x534 JUMP JUMPDEST POP POP JUMP JUMPDEST PUSH1 0x1F DUP3 GT ISZERO PUSH3 0x5A5 JUMPI PUSH3 0x56F DUP2 PUSH3 0x419 JUMP JUMPDEST PUSH3 0x57A DUP5 PUSH3 0x42E JUMP JUMPDEST DUP2 ADD PUSH1 0x20 DUP6 LT ISZERO PUSH3 0x58A JUMPI DUP2 SWAP1 POP JUMPDEST PUSH3 0x5A2 PUSH3 0x599 DUP6 PUSH3 0x42E JUMP JUMPDEST DUP4 ADD DUP3 PUSH3 0x533 JUMP JUMPDEST POP POP JUMPDEST POP POP POP JUMP JUMPDEST PUSH1 0x0 DUP3 DUP3 SHR SWAP1 POP SWAP3 SWAP2 POP POP JUMP JUMPDEST PUSH1 0x0 PUSH3 0x5CA PUSH1 0x0 NOT DUP5 PUSH1 0x8 MUL PUSH3 0x5AA JUMP JUMPDEST NOT DUP1 DUP4 AND SWAP2 POP POP SWAP3 SWAP2 POP POP JUMP JUMPDEST PUSH1 0x0 PUSH3 0x5E5 DUP4 DUP4 PUSH3 0x5B7 JUMP JUMPDEST SWAP2 POP DUP3 PUSH1 0x2 MUL DUP3 OR SWAP1 POP SWAP3 SWAP2 POP POP JUMP JUMPDEST PUSH3 0x600 DUP3 PUSH3 0x37B JUMP JUMPDEST PUSH8 0xFFFFFFFFFFFFFFFF DUP2 GT ISZERO PUSH3 0x61C JUMPI PUSH3 0x61B PUSH3 0x386 JUMP JUMPDEST JUMPDEST PUSH3 0x628 DUP3 SLOAD PUSH3 0x3E4 JUMP JUMPDEST PUSH3 0x635 DUP3 DUP3 DUP6 PUSH3 0x55A JUMP JUMPDEST PUSH1 0x0 PUSH1 0x20 SWAP1 POP PUSH1 0x1F DUP4 GT PUSH1 0x1 DUP2 EQ PUSH3 0x66D JUMPI PUSH1 0x0 DUP5 ISZERO PUSH3 0x658 JUMPI DUP3 DUP8 ADD MLOAD SWAP1 POP JUMPDEST PUSH3 0x664 DUP6 DUP3 PUSH3 0x5D7 JUMP JUMPDEST DUP7 SSTORE POP PUSH3 0x6D4 JUMP JUMPDEST PUSH1 0x1F NOT DUP5 AND PUSH3 0x67D DUP7 PUSH3 0x419 JUMP JUMPDEST PUSH1 0x0 JUMPDEST DUP3 DUP2 LT ISZERO PUSH3 0x6A7 JUMPI DUP5 DUP10 ADD MLOAD DUP3 SSTORE PUSH1 0x1 DUP3 ADD SWAP2 POP PUSH1 0x20 DUP6 ADD SWAP5 POP PUSH1 0x20 DUP2 ADD SWAP1 POP PUSH3 0x680 JUMP JUMPDEST DUP7 DUP4 LT ISZERO PUSH3 0x6C7 JUMPI DUP5 DUP10 ADD MLOAD PUSH3 0x6C3 PUSH1 0x1F DUP10 AND DUP3 PUSH3 0x5B7 JUMP JUMPDEST DUP4 SSTORE POP JUMPDEST PUSH1 0x1 PUSH1 0x2 DUP9 MUL ADD DUP9 SSTORE POP POP POP JUMPDEST POP POP POP POP POP POP JUMP JUMPDEST PUSH1 0x0 PUSH20 0xFFFFFFFFFFFFFFFFFFFFFFFFFFFFFFFFFFFFFFFF DUP3 AND SWAP1 POP SWAP2 SWAP1 POP JUMP JUMPDEST PUSH1 0x0 PUSH3 0x709 DUP3 PUSH3 0x6DC JUMP JUMPDEST SWAP1 POP SWAP2 SWAP1 POP JUMP JUMPDEST PUSH3 0x71B DUP2 PUSH3 0x6FC JUMP JUMPDEST DUP3 MSTORE POP POP JUMP JUMPDEST PUSH1 0x0 PUSH1 0x20 DUP3 ADD SWAP1 POP PUSH3 0x738 PUSH1 0x0 DUP4 ADD DUP5 PUSH3 0x710 JUMP JUMPDEST SWAP3 SWAP2 POP POP JUMP JUMPDEST PUSH32 0x4E487B7100000000000000000000000000000000000000000000000000000000 PUSH1 0x0 MSTORE PUSH1 0x11 PUSH1 0x4 MSTORE PUSH1 0x24 PUSH1 0x0 REVERT JUMPDEST PUSH1 0x0 PUSH3 0x77A DUP3 PUSH3 0x4A1 JUMP JUMPDEST SWAP2 POP PUSH3 0x787 DUP4 PUSH3 0x4A1 JUMP JUMPDEST SWAP3 POP DUP3 DUP3 ADD SWAP1 POP DUP1 DUP3 GT ISZERO PUSH3 0x7A2 JUMPI PUSH3 0x7A1 PUSH3 0x73E JUMP JUMPDEST JUMPDEST SWAP3 SWAP2 POP POP JUMP JUMPDEST PUSH3 0x7B3 DUP2 PUSH3 0x4A1 JUMP JUMPDEST DUP3 MSTORE POP POP JUMP JUMPDEST PUSH1 0x0 PUSH1 0x60 DUP3 ADD SWAP1 POP PUSH3 0x7D0 PUSH1 0x0 DUP4 ADD DUP7 PUSH3 0x710 JUMP JUMPDEST PUSH3 0x7DF PUSH1 0x20 DUP4 ADD DUP6 PUSH3 0x7A8 JUMP JUMPDEST PUSH3 0x7EE PUSH1 0x40 DUP4 ADD DUP5 PUSH3 0x7A8 JUMP JUMPDEST SWAP5 SWAP4 POP POP POP POP JUMP JUMPDEST PUSH1 0x0 PUSH1 0x20 DUP3 ADD SWAP1 POP PUSH3 0x80D PUSH1 0x0 DUP4 ADD DUP5 PUSH3 0x7A8 JUMP JUMPDEST SWAP3 SWAP2 POP POP JUMP JUMPDEST PUSH2 0x3C04 DUP1 PUSH3 0x823 PUSH1 0x0 CODECOPY PUSH1 0x0 RETURN INVALID PUSH1 0x80 PUSH1 0x40 MSTORE CALLVALUE DUP1 ISZERO PUSH2 0x10 JUMPI PUSH1 0x0 DUP1 REVERT JUMPDEST POP PUSH1 0x4 CALLDATASIZE LT PUSH2 0x14D JUMPI PUSH1 0x0 CALLDATALOAD PUSH1 0xE0 SHR DUP1 PUSH4 0x80A1F712 GT PUSH2 0xC3 JUMPI DUP1 PUSH4 0xCE43C032 GT PUSH2 0x7C JUMPI DUP1 PUSH4 0xCE43C032 EQ PUSH2 0x3CA JUMPI DUP1 PUSH4 0xDD62ED3E EQ PUSH2 0x3FA JUMPI DUP1 PUSH4 0xDE6F24BB EQ PUSH2 0x42A JUMPI DUP1 PUSH4 0xDF6C5B2C EQ PUSH2 0x446 JUMPI DUP1 PUSH4 0xF98FE628 EQ PUSH2 0x462 JUMPI DUP1 PUSH4 0xFC0C546A EQ PUSH2 0x492 JUMPI PUSH2 0x14D JUMP JUMPDEST DUP1 PUSH4 0x80A1F712 EQ PUSH2 0x30A JUMPI DUP1 PUSH4 0x85E1B15B EQ PUSH2 0x328 JUMPI DUP1 PUSH4 0x95D89B41 EQ PUSH2 0x344 JUMPI DUP1 PUSH4 0xA5FB1FB8 EQ PUSH2 0x362 JUMPI DUP1 PUSH4 0xA9059CBB EQ PUSH2 0x37E JUMPI DUP1 PUSH4 0xB708FD4D EQ PUSH2 0x3AE JUMPI PUSH2 0x14D JUMP JUMPDEST DUP1 PUSH4 0x332D56D7 GT PUSH2 0x115 JUMPI DUP1 PUSH4 0x332D56D7 EQ PUSH2 0x20C JUMPI DUP1 PUSH4 0x4768D4EF EQ PUSH2 0x240 JUMPI DUP1 PUSH4 0x6036A039 EQ PUSH2 0x271 JUMPI DUP1 PUSH4 0x70A08231 EQ PUSH2 0x2A2 JUMPI DUP1 PUSH4 0x71F8B59E EQ PUSH2 0x2D2 JUMPI DUP1 PUSH4 0x7EBDA124 EQ PUSH2 0x2EE JUMPI PUSH2 0x14D JUMP JUMPDEST DUP1 PUSH4 0x6FDDE03 EQ PUSH2 0x152 JUMPI DUP1 PUSH4 0x95EA7B3 EQ PUSH2 0x170 JUMPI DUP1 PUSH4 0x18160DDD EQ PUSH2 0x1A0 JUMPI DUP1 PUSH4 0x23B872DD EQ PUSH2 0x1BE JUMPI DUP1 PUSH4 0x313CE567 EQ PUSH2 0x1EE JUMPI JUMPDEST PUSH1 0x0 DUP1 REVERT JUMPDEST PUSH2 0x15A PUSH2 0x4B0 JUMP JUMPDEST PUSH1 0x40 MLOAD PUSH2 0x167 SWAP2 SWAP1 PUSH2 0x27BB JUMP JUMPDEST PUSH1 0x40 MLOAD DUP1 SWAP2 SUB SWAP1 RETURN JUMPDEST PUSH2 0x18A PUSH1 0x4 DUP1 CALLDATASIZE SUB DUP2 ADD SWAP1 PUSH2 0x185 SWAP2 SWAP1 PUSH2 0x2885 JUMP JUMPDEST PUSH2 0x542 JUMP JUMPDEST PUSH1 0x40 MLOAD PUSH2 0x197 SWAP2 SWAP1 PUSH2 0x28E0 JUMP JUMPDEST PUSH1 0x40 MLOAD DUP1 SWAP2 SUB SWAP1 RETURN JUMPDEST PUSH2 0x1A8 PUSH2 0x565 JUMP JUMPDEST PUSH1 0x40 MLOAD PUSH2 0x1B5 SWAP2 SWAP1 PUSH2 0x290A JUMP JUMPDEST PUSH1 0x40 MLOAD DUP1 SWAP2 SUB SWAP1 RETURN JUMPDEST PUSH2 0x1D8 PUSH1 0x4 DUP1 CALLDATASIZE SUB DUP2 ADD SWAP1 PUSH2 0x1D3 SWAP2 SWAP1 PUSH2 0x2925 JUMP JUMPDEST PUSH2 0x56F JUMP JUMPDEST PUSH1 0x40 MLOAD PUSH2 0x1E5 SWAP2 SWAP1 PUSH2 0x28E0 JUMP JUMPDEST PUSH1 0x40 MLOAD DUP1 SWAP2 SUB SWAP1 RETURN JUMPDEST PUSH2 0x1F6 PUSH2 0x59E JUMP JUMPDEST PUSH1 0x40 MLOAD PUSH2 0x203 SWAP2 SWAP1 PUSH2 0x2994 JUMP JUMPDEST PUSH1 0x40 MLOAD DUP1 SWAP2 SUB SWAP1 RETURN JUMPDEST PUSH2 0x226 PUSH1 0x4 DUP1 CALLDATASIZE SUB DUP2 ADD SWAP1 PUSH2 0x221 SWAP2 SWAP1 PUSH2 0x29AF JUMP JUMPDEST PUSH2 0x5A7 JUMP JUMPDEST PUSH1 0x40 MLOAD PUSH2 0x237 SWAP6 SWAP5 SWAP4 SWAP3 SWAP2 SWAP1 PUSH2 0x29DC JUMP JUMPDEST PUSH1 0x40 MLOAD DUP1 SWAP2 SUB SWAP1 RETURN JUMPDEST PUSH2 0x25A PUSH1 0x4 DUP1 CALLDATASIZE SUB DUP2 ADD SWAP1 PUSH2 0x255 SWAP2 SWAP1 PUSH2 0x2A3D JUMP JUMPDEST PUSH2 0x6ED JUMP JUMPDEST PUSH1 0x40 MLOAD PUSH2 0x268 SWAP3 SWAP2 SWAP1 PUSH2 0x2A79 JUMP JUMPDEST PUSH1 0x40 MLOAD DUP1 SWAP2 SUB SWAP1 RETURN JUMPDEST PUSH2 0x28B PUSH1 0x4 DUP1 CALLDATASIZE SUB DUP2 ADD SWAP1 PUSH2 0x286 SWAP2 SWAP1 PUSH2 0x2AD8 JUMP JUMPDEST PUSH2 0x761 JUMP JUMPDEST PUSH1 0x40 MLOAD PUSH2 0x299 SWAP3 SWAP2 SWAP1 PUSH2 0x2B18 JUMP JUMPDEST PUSH1 0x40 MLOAD DUP1 SWAP2 SUB SWAP1 RETURN JUMPDEST PUSH2 0x2BC PUSH1 0x4 DUP1 CALLDATASIZE SUB DUP2 ADD SWAP1 PUSH2 0x2B7 SWAP2 SWAP1 PUSH2 0x29AF JUMP JUMPDEST PUSH2 0x84A JUMP JUMPDEST PUSH1 0x40 MLOAD PUSH2 0x2C9 SWAP2 SWAP1 PUSH2 0x290A JUMP JUMPDEST PUSH1 0x40 MLOAD DUP1 SWAP2 SUB SWAP1 RETURN JUMPDEST PUSH2 0x2EC PUSH1 0x4 DUP1 CALLDATASIZE SUB DUP2 ADD SWAP1 PUSH2 0x2E7 SWAP2 SWAP1 PUSH2 0x29AF JUMP JUMPDEST PUSH2 0x892 JUMP JUMPDEST STOP JUMPDEST PUSH2 0x308 PUSH1 0x4 DUP1 CALLDATASIZE SUB DUP2 ADD SWAP1 PUSH2 0x303 SWAP2 SWAP1 PUSH2 0x2B74 JUMP JUMPDEST PUSH2 0x9F9 JUMP JUMPDEST STOP JUMPDEST PUSH2 0x312 PUSH2 0xC9B JUMP JUMPDEST PUSH1 0x40 MLOAD PUSH2 0x31F SWAP2 SWAP1 PUSH2 0x2C72 JUMP JUMPDEST PUSH1 0x40 MLOAD DUP1 SWAP2 SUB SWAP1 RETURN JUMPDEST PUSH2 0x342 PUSH1 0x4 DUP1 CALLDATASIZE SUB DUP2 ADD SWAP1 PUSH2 0x33D SWAP2 SWAP1 PUSH2 0x29AF JUMP JUMPDEST PUSH2 0xDF0 JUMP JUMPDEST STOP JUMPDEST PUSH2 0x34C PUSH2 0x11BD JUMP JUMPDEST PUSH1 0x40 MLOAD PUSH2 0x359 SWAP2 SWAP1 PUSH2 0x27BB JUMP JUMPDEST PUSH1 0x40 MLOAD DUP1 SWAP2 SUB SWAP1 RETURN JUMPDEST PUSH2 0x37C PUSH1 0x4 DUP1 CALLDATASIZE SUB DUP2 ADD SWAP1 PUSH2 0x377 SWAP2 SWAP1 PUSH2 0x2DC9 JUMP JUMPDEST PUSH2 0x124F JUMP JUMPDEST STOP JUMPDEST PUSH2 0x398 PUSH1 0x4 DUP1 CALLDATASIZE SUB DUP2 ADD SWAP1 PUSH2 0x393 SWAP2 SWAP1 PUSH2 0x2885 JUMP JUMPDEST PUSH2 0x1404 JUMP JUMPDEST PUSH1 0x40 MLOAD PUSH2 0x3A5 SWAP2 SWAP1 PUSH2 0x28E0 JUMP JUMPDEST PUSH1 0x40 MLOAD DUP1 SWAP2 SUB SWAP1 RETURN JUMPDEST PUSH2 0x3C8 PUSH1 0x4 DUP1 CALLDATASIZE SUB DUP2 ADD SWAP1 PUSH2 0x3C3 SWAP2 SWAP1 PUSH2 0x2DC9 JUMP JUMPDEST PUSH2 0x1427 JUMP JUMPDEST STOP JUMPDEST PUSH2 0x3E4 PUSH1 0x4 DUP1 CALLDATASIZE SUB DUP2 ADD SWAP1 PUSH2 0x3DF SWAP2 SWAP1 PUSH2 0x29AF JUMP JUMPDEST PUSH2 0x15DC JUMP JUMPDEST PUSH1 0x40 MLOAD PUSH2 0x3F1 SWAP2 SWAP1 PUSH2 0x27BB JUMP JUMPDEST PUSH1 0x40 MLOAD DUP1 SWAP2 SUB SWAP1 RETURN JUMPDEST PUSH2 0x414 PUSH1 0x4 DUP1 CALLDATASIZE SUB DUP2 ADD SWAP1 PUSH2 0x40F SWAP2 SWAP1 PUSH2 0x2E54 JUMP JUMPDEST PUSH2 0x1735 JUMP JUMPDEST PUSH1 0x40 MLOAD PUSH2 0x421 SWAP2 SWAP1 PUSH2 0x290A JUMP JUMPDEST PUSH1 0x40 MLOAD DUP1 SWAP2 SUB SWAP1 RETURN JUMPDEST PUSH2 0x444 PUSH1 0x4 DUP1 CALLDATASIZE SUB DUP2 ADD SWAP1 PUSH2 0x43F SWAP2 SWAP1 PUSH2 0x2E94 JUMP JUMPDEST PUSH2 0x17BC JUMP JUMPDEST STOP JUMPDEST PUSH2 0x460 PUSH1 0x4 DUP1 CALLDATASIZE SUB DUP2 ADD SWAP1 PUSH2 0x45B SWAP2 SWAP1 PUSH2 0x29AF JUMP JUMPDEST PUSH2 0x1AB9 JUMP JUMPDEST STOP JUMPDEST PUSH2 0x47C PUSH1 0x4 DUP1 CALLDATASIZE SUB DUP2 ADD SWAP1 PUSH2 0x477 SWAP2 SWAP1 PUSH2 0x29AF JUMP JUMPDEST PUSH2 0x1E35 JUMP JUMPDEST PUSH1 0x40 MLOAD PUSH2 0x489 SWAP2 SWAP1 PUSH2 0x28E0 JUMP JUMPDEST PUSH1 0x40 MLOAD DUP1 SWAP2 SUB SWAP1 RETURN JUMPDEST PUSH2 0x49A PUSH2 0x1E3C JUMP JUMPDEST PUSH1 0x40 MLOAD PUSH2 0x4A7 SWAP2 SWAP1 PUSH2 0x2F4F JUMP JUMPDEST PUSH1 0x40 MLOAD DUP1 SWAP2 SUB SWAP1 RETURN JUMPDEST PUSH1 0x60 PUSH1 0x3 DUP1 SLOAD PUSH2 0x4BF SWAP1 PUSH2 0x2F99 JUMP JUMPDEST DUP1 PUSH1 0x1F ADD PUSH1 0x20 DUP1 SWAP2 DIV MUL PUSH1 0x20 ADD PUSH1 0x40 MLOAD SWAP1 DUP2 ADD PUSH1 0x40 MSTORE DUP1 SWAP3 SWAP2 SWAP1 DUP2 DUP2 MSTORE PUSH1 0x20 ADD DUP3 DUP1 SLOAD PUSH2 0x4EB SWAP1 PUSH2 0x2F99 JUMP JUMPDEST DUP1 ISZERO PUSH2 0x538 JUMPI DUP1 PUSH1 0x1F LT PUSH2 0x50D JUMPI PUSH2 0x100 DUP1 DUP4 SLOAD DIV MUL DUP4 MSTORE SWAP2 PUSH1 0x20 ADD SWAP2 PUSH2 0x538 JUMP JUMPDEST DUP3 ADD SWAP2 SWAP1 PUSH1 0x0 MSTORE PUSH1 0x20 PUSH1 0x0 KECCAK256 SWAP1 JUMPDEST DUP2 SLOAD DUP2 MSTORE SWAP1 PUSH1 0x1 ADD SWAP1 PUSH1 0x20 ADD DUP1 DUP4 GT PUSH2 0x51B JUMPI DUP3 SWAP1 SUB PUSH1 0x1F AND DUP3 ADD SWAP2 JUMPDEST POP POP POP POP POP SWAP1 POP SWAP1 JUMP JUMPDEST PUSH1 0x0 DUP1 PUSH2 0x54D PUSH2 0x1E62 JUMP JUMPDEST SWAP1 POP PUSH2 0x55A DUP2 DUP6 DUP6 PUSH2 0x1E6A JUMP JUMPDEST PUSH1 0x1 SWAP2 POP POP SWAP3 SWAP2 POP POP JUMP JUMPDEST PUSH1 0x0 PUSH1 0x2 SLOAD SWAP1 POP SWAP1 JUMP JUMPDEST PUSH1 0x0 DUP1 PUSH2 0x57A PUSH2 0x1E62 JUMP JUMPDEST SWAP1 POP PUSH2 0x587 DUP6 DUP3 DUP6 PUSH2 0x1E7C JUMP JUMPDEST PUSH2 0x592 DUP6 DUP6 DUP6 PUSH2 0x1F10 JUMP JUMPDEST PUSH1 0x1 SWAP2 POP POP SWAP4 SWAP3 POP POP POP JUMP JUMPDEST PUSH1 0x0 PUSH1 0x12 SWAP1 POP SWAP1 JUMP JUMPDEST PUSH1 0x5 PUSH1 0x20 MSTORE DUP1 PUSH1 0x0 MSTORE PUSH1 0x40 PUSH1 0x0 KECCAK256 PUSH1 0x0 SWAP2 POP SWAP1 POP DUP1 PUSH1 0x0 ADD DUP1 SLOAD PUSH2 0x5CA SWAP1 PUSH2 0x2F99 JUMP JUMPDEST DUP1 PUSH1 0x1F ADD PUSH1 0x20 DUP1 SWAP2 DIV MUL PUSH1 0x20 ADD PUSH1 0x40 MLOAD SWAP1 DUP2 ADD PUSH1 0x40 MSTORE DUP1 SWAP3 SWAP2 SWAP1 DUP2 DUP2 MSTORE PUSH1 0x20 ADD DUP3 DUP1 SLOAD PUSH2 0x5F6 SWAP1 PUSH2 0x2F99 JUMP JUMPDEST DUP1 ISZERO PUSH2 0x643 JUMPI DUP1 PUSH1 0x1F LT PUSH2 0x618 JUMPI PUSH2 0x100 DUP1 DUP4 SLOAD DIV MUL DUP4 MSTORE SWAP2 PUSH1 0x20 ADD SWAP2 PUSH2 0x643 JUMP JUMPDEST DUP3 ADD SWAP2 SWAP1 PUSH1 0x0 MSTORE PUSH1 0x20 PUSH1 0x0 KECCAK256 SWAP1 JUMPDEST DUP2 SLOAD DUP2 MSTORE SWAP1 PUSH1 0x1 ADD SWAP1 PUSH1 0x20 ADD DUP1 DUP4 GT PUSH2 0x626 JUMPI DUP3 SWAP1 SUB PUSH1 0x1F AND DUP3 ADD SWAP2 JUMPDEST POP POP POP POP POP SWAP1 DUP1 PUSH1 0x1 ADD SLOAD SWAP1 DUP1 PUSH1 0x2 ADD DUP1 SLOAD PUSH2 0x65E SWAP1 PUSH2 0x2F99 JUMP JUMPDEST DUP1 PUSH1 0x1F ADD PUSH1 0x20 DUP1 SWAP2 DIV MUL PUSH1 0x20 ADD PUSH1 0x40 MLOAD SWAP1 DUP2 ADD PUSH1 0x40 MSTORE DUP1 SWAP3 SWAP2 SWAP1 DUP2 DUP2 MSTORE PUSH1 0x20 ADD DUP3 DUP1 SLOAD PUSH2 0x68A SWAP1 PUSH2 0x2F99 JUMP JUMPDEST DUP1 ISZERO PUSH2 0x6D7 JUMPI DUP1 PUSH1 0x1F LT PUSH2 0x6AC JUMPI PUSH2 0x100 DUP1 DUP4 SLOAD DIV MUL DUP4 MSTORE SWAP2 PUSH1 0x20 ADD SWAP2 PUSH2 0x6D7 JUMP JUMPDEST DUP3 ADD SWAP2 SWAP1 PUSH1 0x0 MSTORE PUSH1 0x20 PUSH1 0x0 KECCAK256 SWAP1 JUMPDEST DUP2 SLOAD DUP2 MSTORE SWAP1 PUSH1 0x1 ADD SWAP1 PUSH1 0x20 ADD DUP1 DUP4 GT PUSH2 0x6BA JUMPI DUP3 SWAP1 SUB PUSH1 0x1F AND DUP3 ADD SWAP2 JUMPDEST POP POP POP POP POP SWAP1 DUP1 PUSH1 0x3 ADD SLOAD SWAP1 DUP1 PUSH1 0x4 ADD SLOAD SWAP1 POP DUP6 JUMP JUMPDEST PUSH1 0x6 DUP2 DUP2 SLOAD DUP2 LT PUSH2 0x6FD JUMPI PUSH1 0x0 DUP1 REVERT JUMPDEST SWAP1 PUSH1 0x0 MSTORE PUSH1 0x20 PUSH1 0x0 KECCAK256 SWAP1 PUSH1 0x2 MUL ADD PUSH1 0x0 SWAP2 POP SWAP1 POP DUP1 PUSH1 0x0 ADD PUSH1 0x0 SWAP1 SLOAD SWAP1 PUSH2 0x100 EXP SWAP1 DIV PUSH20 0xFFFFFFFFFFFFFFFFFFFFFFFFFFFFFFFFFFFFFFFF AND SWAP1 DUP1 PUSH1 0x1 ADD PUSH1 0x0 SWAP1 SLOAD SWAP1 PUSH2 0x100 EXP SWAP1 DIV PUSH20 0xFFFFFFFFFFFFFFFFFFFFFFFFFFFFFFFFFFFFFFFF AND SWAP1 POP DUP3 JUMP JUMPDEST PUSH1 0x7 PUSH1 0x20 MSTORE DUP2 PUSH1 0x0 MSTORE PUSH1 0x40 PUSH1 0x0 KECCAK256 DUP2 DUP2 SLOAD DUP2 LT PUSH2 0x77D JUMPI PUSH1 0x0 DUP1 REVERT JUMPDEST SWAP1 PUSH1 0x0 MSTORE PUSH1 0x20 PUSH1 0x0 KECCAK256 SWAP1 PUSH1 0x2 MUL ADD PUSH1 0x0 SWAP2 POP SWAP2 POP POP DUP1 PUSH1 0x0 ADD PUSH1 0x0 SWAP1 SLOAD SWAP1 PUSH2 0x100 EXP SWAP1 DIV PUSH20 0xFFFFFFFFFFFFFFFFFFFFFFFFFFFFFFFFFFFFFFFF AND SWAP1 DUP1 PUSH1 0x1 ADD DUP1 SLOAD PUSH2 0x7C7 SWAP1 PUSH2 0x2F99 JUMP JUMPDEST DUP1 PUSH1 0x1F ADD PUSH1 0x20 DUP1 SWAP2 DIV MUL PUSH1 0x20 ADD PUSH1 0x40 MLOAD SWAP1 DUP2 ADD PUSH1 0x40 MSTORE DUP1 SWAP3 SWAP2 SWAP1 DUP2 DUP2 MSTORE PUSH1 0x20 ADD DUP3 DUP1 SLOAD PUSH2 0x7F3 SWAP1 PUSH2 0x2F99 JUMP JUMPDEST DUP1 ISZERO PUSH2 0x840 JUMPI DUP1 PUSH1 0x1F LT PUSH2 0x815 JUMPI PUSH2 0x100 DUP1 DUP4 SLOAD DIV MUL DUP4 MSTORE SWAP2 PUSH1 0x20 ADD SWAP2 PUSH2 0x840 JUMP JUMPDEST DUP3 ADD SWAP2 SWAP1 PUSH1 0x0 MSTORE PUSH1 0x20 PUSH1 0x0 KECCAK256 SWAP1 JUMPDEST DUP2 SLOAD DUP2 MSTORE SWAP1 PUSH1 0x1 ADD SWAP1 PUSH1 0x20 ADD DUP1 DUP4 GT PUSH2 0x823 JUMPI DUP3 SWAP1 SUB PUSH1 0x1F AND DUP3 ADD SWAP2 JUMPDEST POP POP POP POP POP SWAP1 POP DUP3 JUMP JUMPDEST PUSH1 0x0 DUP1 PUSH1 0x0 DUP4 PUSH20 0xFFFFFFFFFFFFFFFFFFFFFFFFFFFFFFFFFFFFFFFF AND PUSH20 0xFFFFFFFFFFFFFFFFFFFFFFFFFFFFFFFFFFFFFFFF AND DUP2 MSTORE PUSH1 0x20 ADD SWAP1 DUP2 MSTORE PUSH1 0x20 ADD PUSH1 0x0 KECCAK256 SLOAD SWAP1 POP SWAP2 SWAP1 POP JUMP JUMPDEST DUP1 PUSH20 0xFFFFFFFFFFFFFFFFFFFFFFFFFFFFFFFFFFFFFFFF AND CALLER PUSH20 0xFFFFFFFFFFFFFFFFFFFFFFFFFFFFFFFFFFFFFFFF AND SUB PUSH2 0x900 JUMPI PUSH1 0x40 MLOAD PUSH32 0x8C379A000000000000000000000000000000000000000000000000000000000 DUP2 MSTORE PUSH1 0x4 ADD PUSH2 0x8F7 SWAP1 PUSH2 0x303C JUMP JUMPDEST PUSH1 0x40 MLOAD DUP1 SWAP2 SUB SWAP1 REVERT JUMPDEST PUSH1 0x0 PUSH1 0x5 PUSH1 0x0 CALLER PUSH20 0xFFFFFFFFFFFFFFFFFFFFFFFFFFFFFFFFFFFFFFFF AND PUSH20 0xFFFFFFFFFFFFFFFFFFFFFFFFFFFFFFFFFFFFFFFF AND DUP2 MSTORE PUSH1 0x20 ADD SWAP1 DUP2 MSTORE PUSH1 0x20 ADD PUSH1 0x0 KECCAK256 PUSH1 0x1 ADD SLOAD GT PUSH2 0x985 JUMPI PUSH1 0x40 MLOAD PUSH32 0x8C379A000000000000000000000000000000000000000000000000000000000 DUP2 MSTORE PUSH1 0x4 ADD PUSH2 0x97C SWAP1 PUSH2 0x30CE JUMP JUMPDEST PUSH1 0x40 MLOAD DUP1 SWAP2 SUB SWAP1 REVERT JUMPDEST PUSH1 0x0 PUSH2 0x990 DUP3 PUSH2 0x2004 JUMP JUMPDEST SWAP1 POP PUSH2 0x99C DUP3 DUP3 PUSH2 0x1404 JUMP JUMPDEST POP PUSH1 0x5 PUSH1 0x0 CALLER PUSH20 0xFFFFFFFFFFFFFFFFFFFFFFFFFFFFFFFFFFFFFFFF AND PUSH20 0xFFFFFFFFFFFFFFFFFFFFFFFFFFFFFFFFFFFFFFFF AND DUP2 MSTORE PUSH1 0x20 ADD SWAP1 DUP2 MSTORE PUSH1 0x20 ADD PUSH1 0x0 KECCAK256 PUSH1 0x4 ADD PUSH1 0x0 DUP2 SLOAD DUP1 SWAP3 SWAP2 SWAP1 PUSH2 0x9F0 SWAP1 PUSH2 0x311D JUMP JUMPDEST SWAP2 SWAP1 POP SSTORE POP POP POP JUMP JUMPDEST PUSH1 0x0 PUSH1 0x5 PUSH1 0x0 CALLER PUSH20 0xFFFFFFFFFFFFFFFFFFFFFFFFFFFFFFFFFFFFFFFF AND PUSH20 0xFFFFFFFFFFFFFFFFFFFFFFFFFFFFFFFFFFFFFFFF AND DUP2 MSTORE PUSH1 0x20 ADD SWAP1 DUP2 MSTORE PUSH1 0x20 ADD PUSH1 0x0 KECCAK256 PUSH1 0x1 ADD SLOAD GT PUSH2 0xA7E JUMPI PUSH1 0x40 MLOAD PUSH32 0x8C379A000000000000000000000000000000000000000000000000000000000 DUP2 MSTORE PUSH1 0x4 ADD PUSH2 0xA75 SWAP1 PUSH2 0x31B1 JUMP JUMPDEST PUSH1 0x40 MLOAD DUP1 SWAP2 SUB SWAP1 REVERT JUMPDEST PUSH1 0x5 PUSH1 0x0 CALLER PUSH20 0xFFFFFFFFFFFFFFFFFFFFFFFFFFFFFFFFFFFFFFFF AND PUSH20 0xFFFFFFFFFFFFFFFFFFFFFFFFFFFFFFFFFFFFFFFF AND DUP2 MSTORE PUSH1 0x20 ADD SWAP1 DUP2 MSTORE PUSH1 0x20 ADD PUSH1 0x0 KECCAK256 PUSH1 0x6 ADD PUSH1 0x0 DUP4 PUSH20 0xFFFFFFFFFFFFFFFFFFFFFFFFFFFFFFFFFFFFFFFF AND PUSH20 0xFFFFFFFFFFFFFFFFFFFFFFFFFFFFFFFFFFFFFFFF AND DUP2 MSTORE PUSH1 0x20 ADD SWAP1 DUP2 MSTORE PUSH1 0x20 ADD PUSH1 0x0 KECCAK256 PUSH1 0x0 SWAP1 SLOAD SWAP1 PUSH2 0x100 EXP SWAP1 DIV PUSH1 0xFF AND PUSH2 0xB4A JUMPI PUSH1 0x40 MLOAD PUSH32 0x8C379A000000000000000000000000000000000000000000000000000000000 DUP2 MSTORE PUSH1 0x4 ADD PUSH2 0xB41 SWAP1 PUSH2 0x321D JUMP JUMPDEST PUSH1 0x40 MLOAD DUP1 SWAP2 SUB SWAP1 REVERT JUMPDEST PUSH1 0x0 PUSH1 0x5 PUSH1 0x0 CALLER PUSH20 0xFFFFFFFFFFFFFFFFFFFFFFFFFFFFFFFFFFFFFFFF AND PUSH20 0xFFFFFFFFFFFFFFFFFFFFFFFFFFFFFFFFFFFFFFFF AND DUP2 MSTORE PUSH1 0x20 ADD SWAP1 DUP2 MSTORE PUSH1 0x20 ADD PUSH1 0x0 KECCAK256 PUSH1 0x6 ADD PUSH1 0x0 DUP5 PUSH20 0xFFFFFFFFFFFFFFFFFFFFFFFFFFFFFFFFFFFFFFFF AND PUSH20 0xFFFFFFFFFFFFFFFFFFFFFFFFFFFFFFFFFFFFFFFF AND DUP2 MSTORE PUSH1 0x20 ADD SWAP1 DUP2 MSTORE PUSH1 0x20 ADD PUSH1 0x0 KECCAK256 PUSH1 0x0 PUSH2 0x100 EXP DUP2 SLOAD DUP2 PUSH1 0xFF MUL NOT AND SWAP1 DUP4 ISZERO ISZERO MUL OR SWAP1 SSTORE POP DUP1 ISZERO PUSH2 0xC97 JUMPI PUSH1 0x5 PUSH1 0x0 CALLER PUSH20 0xFFFFFFFFFFFFFFFFFFFFFFFFFFFFFFFFFFFFFFFF AND PUSH20 0xFFFFFFFFFFFFFFFFFFFFFFFFFFFFFFFFFFFFFFFF AND DUP2 MSTORE PUSH1 0x20 ADD SWAP1 DUP2 MSTORE PUSH1 0x20 ADD PUSH1 0x0 KECCAK256 PUSH1 0x7 ADD DUP3 SWAP1 DUP1 PUSH1 0x1 DUP2 SLOAD ADD DUP1 DUP3 SSTORE DUP1 SWAP2 POP POP PUSH1 0x1 SWAP1 SUB SWAP1 PUSH1 0x0 MSTORE PUSH1 0x20 PUSH1 0x0 KECCAK256 ADD PUSH1 0x0 SWAP1 SWAP2 SWAP1 SWAP2 SWAP1 SWAP2 PUSH2 0x100 EXP DUP2 SLOAD DUP2 PUSH20 0xFFFFFFFFFFFFFFFFFFFFFFFFFFFFFFFFFFFFFFFF MUL NOT AND SWAP1 DUP4 PUSH20 0xFFFFFFFFFFFFFFFFFFFFFFFFFFFFFFFFFFFFFFFF AND MUL OR SWAP1 SSTORE POP PUSH2 0xC95 DUP3 CALLER PUSH2 0x2105 JUMP JUMPDEST POP JUMPDEST POP POP JUMP JUMPDEST PUSH1 0x60 PUSH1 0x0 PUSH1 0x5 PUSH1 0x0 CALLER PUSH20 0xFFFFFFFFFFFFFFFFFFFFFFFFFFFFFFFFFFFFFFFF AND PUSH20 0xFFFFFFFFFFFFFFFFFFFFFFFFFFFFFFFFFFFFFFFF AND DUP2 MSTORE PUSH1 0x20 ADD SWAP1 DUP2 MSTORE PUSH1 0x20 ADD PUSH1 0x0 KECCAK256 SWAP1 POP PUSH1 0x0 DUP2 PUSH1 0x5 ADD DUP1 SLOAD SWAP1 POP PUSH8 0xFFFFFFFFFFFFFFFF DUP2 GT ISZERO PUSH2 0xD03 JUMPI PUSH2 0xD02 PUSH2 0x2C9E JUMP JUMPDEST JUMPDEST PUSH1 0x40 MLOAD SWAP1 DUP1 DUP3 MSTORE DUP1 PUSH1 0x20 MUL PUSH1 0x20 ADD DUP3 ADD PUSH1 0x40 MSTORE DUP1 ISZERO PUSH2 0xD31 JUMPI DUP2 PUSH1 0x20 ADD PUSH1 0x20 DUP3 MUL DUP1 CALLDATASIZE DUP4 CALLDATACOPY DUP1 DUP3 ADD SWAP2 POP POP SWAP1 POP JUMPDEST POP SWAP1 POP PUSH1 0x0 JUMPDEST DUP3 PUSH1 0x5 ADD DUP1 SLOAD SWAP1 POP DUP2 LT ISZERO PUSH2 0xDE7 JUMPI DUP3 PUSH1 0x5 ADD DUP2 DUP2 SLOAD DUP2 LT PUSH2 0xD5C JUMPI PUSH2 0xD5B PUSH2 0x323D JUMP JUMPDEST JUMPDEST SWAP1 PUSH1 0x0 MSTORE PUSH1 0x20 PUSH1 0x0 KECCAK256 ADD PUSH1 0x0 SWAP1 SLOAD SWAP1 PUSH2 0x100 EXP SWAP1 DIV PUSH20 0xFFFFFFFFFFFFFFFFFFFFFFFFFFFFFFFFFFFFFFFF AND DUP3 DUP3 DUP2 MLOAD DUP2 LT PUSH2 0xD9A JUMPI PUSH2 0xD99 PUSH2 0x323D JUMP JUMPDEST JUMPDEST PUSH1 0x20 MUL PUSH1 0x20 ADD ADD SWAP1 PUSH20 0xFFFFFFFFFFFFFFFFFFFFFFFFFFFFFFFFFFFFFFFF AND SWAP1 DUP2 PUSH20 0xFFFFFFFFFFFFFFFFFFFFFFFFFFFFFFFFFFFFFFFF AND DUP2 MSTORE POP POP DUP1 DUP1 PUSH2 0xDDF SWAP1 PUSH2 0x311D JUMP JUMPDEST SWAP2 POP POP PUSH2 0xD37 JUMP JUMPDEST POP DUP1 SWAP3 POP POP POP SWAP1 JUMP JUMPDEST DUP1 PUSH20 0xFFFFFFFFFFFFFFFFFFFFFFFFFFFFFFFFFFFFFFFF AND CALLER PUSH20 0xFFFFFFFFFFFFFFFFFFFFFFFFFFFFFFFFFFFFFFFF AND SUB PUSH2 0xE5E JUMPI PUSH1 0x40 MLOAD PUSH32 0x8C379A000000000000000000000000000000000000000000000000000000000 DUP2 MSTORE PUSH1 0x4 ADD PUSH2 0xE55 SWAP1 PUSH2 0x32DE JUMP JUMPDEST PUSH1 0x40 MLOAD DUP1 SWAP2 SUB SWAP1 REVERT JUMPDEST PUSH1 0x0 PUSH1 0x5 PUSH1 0x0 CALLER PUSH20 0xFFFFFFFFFFFFFFFFFFFFFFFFFFFFFFFFFFFFFFFF AND PUSH20 0xFFFFFFFFFFFFFFFFFFFFFFFFFFFFFFFFFFFFFFFF AND DUP2 MSTORE PUSH1 0x20 ADD SWAP1 DUP2 MSTORE PUSH1 0x20 ADD PUSH1 0x0 KECCAK256 PUSH1 0x1 ADD SLOAD GT PUSH2 0xEE3 JUMPI PUSH1 0x40 MLOAD PUSH32 0x8C379A000000000000000000000000000000000000000000000000000000000 DUP2 MSTORE PUSH1 0x4 ADD PUSH2 0xEDA SWAP1 PUSH2 0x31B1 JUMP JUMPDEST PUSH1 0x40 MLOAD DUP1 SWAP2 SUB SWAP1 REVERT JUMPDEST PUSH1 0x0 PUSH1 0x5 PUSH1 0x0 DUP4 PUSH20 0xFFFFFFFFFFFFFFFFFFFFFFFFFFFFFFFFFFFFFFFF AND PUSH20 0xFFFFFFFFFFFFFFFFFFFFFFFFFFFFFFFFFFFFFFFF AND DUP2 MSTORE PUSH1 0x20 ADD SWAP1 DUP2 MSTORE PUSH1 0x20 ADD PUSH1 0x0 KECCAK256 PUSH1 0x1 ADD SLOAD GT PUSH2 0xF68 JUMPI PUSH1 0x40 MLOAD PUSH32 0x8C379A000000000000000000000000000000000000000000000000000000000 DUP2 MSTORE PUSH1 0x4 ADD PUSH2 0xF5F SWAP1 PUSH2 0x334A JUMP JUMPDEST PUSH1 0x40 MLOAD DUP1 SWAP2 SUB SWAP1 REVERT JUMPDEST PUSH2 0xF72 CALLER DUP3 PUSH2 0x2105 JUMP JUMPDEST ISZERO PUSH2 0xFB2 JUMPI PUSH1 0x40 MLOAD PUSH32 0x8C379A000000000000000000000000000000000000000000000000000000000 DUP2 MSTORE PUSH1 0x4 ADD PUSH2 0xFA9 SWAP1 PUSH2 0x33DC JUMP JUMPDEST PUSH1 0x40 MLOAD DUP1 SWAP2 SUB SWAP1 REVERT JUMPDEST PUSH1 0x5 PUSH1 0x0 CALLER PUSH20 0xFFFFFFFFFFFFFFFFFFFFFFFFFFFFFFFFFFFFFFFF AND PUSH20 0xFFFFFFFFFFFFFFFFFFFFFFFFFFFFFFFFFFFFFFFF AND DUP2 MSTORE PUSH1 0x20 ADD SWAP1 DUP2 MSTORE PUSH1 0x20 ADD PUSH1 0x0 KECCAK256 PUSH1 0x6 ADD PUSH1 0x0 DUP3 PUSH20 0xFFFFFFFFFFFFFFFFFFFFFFFFFFFFFFFFFFFFFFFF AND PUSH20 0xFFFFFFFFFFFFFFFFFFFFFFFFFFFFFFFFFFFFFFFF AND DUP2 MSTORE PUSH1 0x20 ADD SWAP1 DUP2 MSTORE PUSH1 0x20 ADD PUSH1 0x0 KECCAK256 PUSH1 0x0 SWAP1 SLOAD SWAP1 PUSH2 0x100 EXP SWAP1 DIV PUSH1 0xFF AND ISZERO PUSH2 0x107F JUMPI PUSH1 0x40 MLOAD PUSH32 0x8C379A000000000000000000000000000000000000000000000000000000000 DUP2 MSTORE PUSH1 0x4 ADD PUSH2 0x1076 SWAP1 PUSH2 0x346E JUMP JUMPDEST PUSH1 0x40 MLOAD DUP1 SWAP2 SUB SWAP1 REVERT JUMPDEST PUSH1 0x1 PUSH1 0x5 PUSH1 0x0 CALLER PUSH20 0xFFFFFFFFFFFFFFFFFFFFFFFFFFFFFFFFFFFFFFFF AND PUSH20 0xFFFFFFFFFFFFFFFFFFFFFFFFFFFFFFFFFFFFFFFF AND DUP2 MSTORE PUSH1 0x20 ADD SWAP1 DUP2 MSTORE PUSH1 0x20 ADD PUSH1 0x0 KECCAK256 PUSH1 0x6 ADD PUSH1 0x0 DUP4 PUSH20 0xFFFFFFFFFFFFFFFFFFFFFFFFFFFFFFFFFFFFFFFF AND PUSH20 0xFFFFFFFFFFFFFFFFFFFFFFFFFFFFFFFFFFFFFFFF AND DUP2 MSTORE PUSH1 0x20 ADD SWAP1 DUP2 MSTORE PUSH1 0x20 ADD PUSH1 0x0 KECCAK256 PUSH1 0x0 PUSH2 0x100 EXP DUP2 SLOAD DUP2 PUSH1 0xFF MUL NOT AND SWAP1 DUP4 ISZERO ISZERO MUL OR SWAP1 SSTORE POP PUSH1 0x5 PUSH1 0x0 CALLER PUSH20 0xFFFFFFFFFFFFFFFFFFFFFFFFFFFFFFFFFFFFFFFF AND PUSH20 0xFFFFFFFFFFFFFFFFFFFFFFFFFFFFFFFFFFFFFFFF AND DUP2 MSTORE PUSH1 0x20 ADD SWAP1 DUP2 MSTORE PUSH1 0x20 ADD PUSH1 0x0 KECCAK256 PUSH1 0x5 ADD DUP2 SWAP1 DUP1 PUSH1 0x1 DUP2 SLOAD ADD DUP1 DUP3 SSTORE DUP1 SWAP2 POP POP PUSH1 0x1 SWAP1 SUB SWAP1 PUSH1 0x0 MSTORE PUSH1 0x20 PUSH1 0x0 KECCAK256 ADD PUSH1 0x0 SWAP1 SWAP2 SWAP1 SWAP2 SWAP1 SWAP2 PUSH2 0x100 EXP DUP2 SLOAD DUP2 PUSH20 0xFFFFFFFFFFFFFFFFFFFFFFFFFFFFFFFFFFFFFFFF MUL NOT AND SWAP1 DUP4 PUSH20 0xFFFFFFFFFFFFFFFFFFFFFFFFFFFFFFFFFFFFFFFF AND MUL OR SWAP1 SSTORE POP POP JUMP JUMPDEST PUSH1 0x60 PUSH1 0x4 DUP1 SLOAD PUSH2 0x11CC SWAP1 PUSH2 0x2F99 JUMP JUMPDEST DUP1 PUSH1 0x1F ADD PUSH1 0x20 DUP1 SWAP2 DIV MUL PUSH1 0x20 ADD PUSH1 0x40 MLOAD SWAP1 DUP2 ADD PUSH1 0x40 MSTORE DUP1 SWAP3 SWAP2 SWAP1 DUP2 DUP2 MSTORE PUSH1 0x20 ADD DUP3 DUP1 SLOAD PUSH2 0x11F8 SWAP1 PUSH2 0x2F99 JUMP JUMPDEST DUP1 ISZERO PUSH2 0x1245 JUMPI DUP1 PUSH1 0x1F LT PUSH2 0x121A JUMPI PUSH2 0x100 DUP1 DUP4 SLOAD DIV MUL DUP4 MSTORE SWAP2 PUSH1 0x20 ADD SWAP2 PUSH2 0x1245 JUMP JUMPDEST DUP3 ADD SWAP2 SWAP1 PUSH1 0x0 MSTORE PUSH1 0x20 PUSH1 0x0 KECCAK256 SWAP1 JUMPDEST DUP2 SLOAD DUP2 MSTORE SWAP1 PUSH1 0x1 ADD SWAP1 PUSH1 0x20 ADD DUP1 DUP4 GT PUSH2 0x1228 JUMPI DUP3 SWAP1 SUB PUSH1 0x1F AND DUP3 ADD SWAP2 JUMPDEST POP POP POP POP POP SWAP1 POP SWAP1 JUMP JUMPDEST PUSH1 0x0 DUP4 MLOAD GT PUSH2 0x1293 JUMPI PUSH1 0x40 MLOAD PUSH32 0x8C379A000000000000000000000000000000000000000000000000000000000 DUP2 MSTORE PUSH1 0x4 ADD PUSH2 0x128A SWAP1 PUSH2 0x34DA JUMP JUMPDEST PUSH1 0x40 MLOAD DUP1 SWAP2 SUB SWAP1 REVERT JUMPDEST PUSH1 0x0 PUSH1 0x5 PUSH1 0x0 CALLER PUSH20 0xFFFFFFFFFFFFFFFFFFFFFFFFFFFFFFFFFFFFFFFF AND PUSH20 0xFFFFFFFFFFFFFFFFFFFFFFFFFFFFFFFFFFFFFFFF AND DUP2 MSTORE PUSH1 0x20 ADD SWAP1 DUP2 MSTORE PUSH1 0x20 ADD PUSH1 0x0 KECCAK256 PUSH1 0x1 ADD SLOAD GT PUSH2 0x1318 JUMPI PUSH1 0x40 MLOAD PUSH32 0x8C379A000000000000000000000000000000000000000000000000000000000 DUP2 MSTORE PUSH1 0x4 ADD PUSH2 0x130F SWAP1 PUSH2 0x3546 JUMP JUMPDEST PUSH1 0x40 MLOAD DUP1 SWAP2 SUB SWAP1 REVERT JUMPDEST DUP3 PUSH1 0x5 PUSH1 0x0 CALLER PUSH20 0xFFFFFFFFFFFFFFFFFFFFFFFFFFFFFFFFFFFFFFFF AND PUSH20 0xFFFFFFFFFFFFFFFFFFFFFFFFFFFFFFFFFFFFFFFF AND DUP2 MSTORE PUSH1 0x20 ADD SWAP1 DUP2 MSTORE PUSH1 0x20 ADD PUSH1 0x0 KECCAK256 PUSH1 0x0 ADD SWAP1 DUP2 PUSH2 0x1367 SWAP2 SWAP1 PUSH2 0x3708 JUMP JUMPDEST POP DUP2 PUSH1 0x5 PUSH1 0x0 CALLER PUSH20 0xFFFFFFFFFFFFFFFFFFFFFFFFFFFFFFFFFFFFFFFF AND PUSH20 0xFFFFFFFFFFFFFFFFFFFFFFFFFFFFFFFFFFFFFFFF AND DUP2 MSTORE PUSH1 0x20 ADD SWAP1 DUP2 MSTORE PUSH1 0x20 ADD PUSH1 0x0 KECCAK256 PUSH1 0x1 ADD DUP2 SWAP1 SSTORE POP DUP1 PUSH1 0x5 PUSH1 0x0 CALLER PUSH20 0xFFFFFFFFFFFFFFFFFFFFFFFFFFFFFFFFFFFFFFFF AND PUSH20 0xFFFFFFFFFFFFFFFFFFFFFFFFFFFFFFFFFFFFFFFF AND DUP2 MSTORE PUSH1 0x20 ADD SWAP1 DUP2 MSTORE PUSH1 0x20 ADD PUSH1 0x0 KECCAK256 PUSH1 0x2 ADD SWAP1 DUP2 PUSH2 0x13FE SWAP2 SWAP1 PUSH2 0x3708 JUMP JUMPDEST POP POP POP POP JUMP JUMPDEST PUSH1 0x0 DUP1 PUSH2 0x140F PUSH2 0x1E62 JUMP JUMPDEST SWAP1 POP PUSH2 0x141C DUP2 DUP6 DUP6 PUSH2 0x1F10 JUMP JUMPDEST PUSH1 0x1 SWAP2 POP POP SWAP3 SWAP2 POP POP JUMP JUMPDEST PUSH1 0x0 DUP4 MLOAD GT PUSH2 0x146B JUMPI PUSH1 0x40 MLOAD PUSH32 0x8C379A000000000000000000000000000000000000000000000000000000000 DUP2 MSTORE PUSH1 0x4 ADD PUSH2 0x1462 SWAP1 PUSH2 0x34DA JUMP JUMPDEST PUSH1 0x40 MLOAD DUP1 SWAP2 SUB SWAP1 REVERT JUMPDEST PUSH1 0x0 PUSH1 0x5 PUSH1 0x0 CALLER PUSH20 0xFFFFFFFFFFFFFFFFFFFFFFFFFFFFFFFFFFFFFFFF AND PUSH20 0xFFFFFFFFFFFFFFFFFFFFFFFFFFFFFFFFFFFFFFFF AND DUP2 MSTORE PUSH1 0x20 ADD SWAP1 DUP2 MSTORE PUSH1 0x20 ADD PUSH1 0x0 KECCAK256 PUSH1 0x1 ADD SLOAD EQ PUSH2 0x14F0 JUMPI PUSH1 0x40 MLOAD PUSH32 0x8C379A000000000000000000000000000000000000000000000000000000000 DUP2 MSTORE PUSH1 0x4 ADD PUSH2 0x14E7 SWAP1 PUSH2 0x3826 JUMP JUMPDEST PUSH1 0x40 MLOAD DUP1 SWAP2 SUB SWAP1 REVERT JUMPDEST DUP3 PUSH1 0x5 PUSH1 0x0 CALLER PUSH20 0xFFFFFFFFFFFFFFFFFFFFFFFFFFFFFFFFFFFFFFFF AND PUSH20 0xFFFFFFFFFFFFFFFFFFFFFFFFFFFFFFFFFFFFFFFF AND DUP2 MSTORE PUSH1 0x20 ADD SWAP1 DUP2 MSTORE PUSH1 0x20 ADD PUSH1 0x0 KECCAK256 PUSH1 0x0 ADD SWAP1 DUP2 PUSH2 0x153F SWAP2 SWAP1 PUSH2 0x3708 JUMP JUMPDEST POP DUP2 PUSH1 0x5 PUSH1 0x0 CALLER PUSH20 0xFFFFFFFFFFFFFFFFFFFFFFFFFFFFFFFFFFFFFFFF AND PUSH20 0xFFFFFFFFFFFFFFFFFFFFFFFFFFFFFFFFFFFFFFFF AND DUP2 MSTORE PUSH1 0x20 ADD SWAP1 DUP2 MSTORE PUSH1 0x20 ADD PUSH1 0x0 KECCAK256 PUSH1 0x1 ADD DUP2 SWAP1 SSTORE POP DUP1 PUSH1 0x5 PUSH1 0x0 CALLER PUSH20 0xFFFFFFFFFFFFFFFFFFFFFFFFFFFFFFFFFFFFFFFF AND PUSH20 0xFFFFFFFFFFFFFFFFFFFFFFFFFFFFFFFFFFFFFFFF AND DUP2 MSTORE PUSH1 0x20 ADD SWAP1 DUP2 MSTORE PUSH1 0x20 ADD PUSH1 0x0 KECCAK256 PUSH1 0x2 ADD SWAP1 DUP2 PUSH2 0x15D6 SWAP2 SWAP1 PUSH2 0x3708 JUMP JUMPDEST POP POP POP POP JUMP JUMPDEST PUSH1 0x60 PUSH1 0x0 PUSH1 0x5 PUSH1 0x0 DUP5 PUSH20 0xFFFFFFFFFFFFFFFFFFFFFFFFFFFFFFFFFFFFFFFF AND PUSH20 0xFFFFFFFFFFFFFFFFFFFFFFFFFFFFFFFFFFFFFFFF AND DUP2 MSTORE PUSH1 0x20 ADD SWAP1 DUP2 MSTORE PUSH1 0x20 ADD PUSH1 0x0 KECCAK256 PUSH1 0x1 ADD SLOAD GT PUSH2 0x1663 JUMPI PUSH1 0x40 MLOAD PUSH32 0x8C379A000000000000000000000000000000000000000000000000000000000 DUP2 MSTORE PUSH1 0x4 ADD PUSH2 0x165A SWAP1 PUSH2 0x3546 JUMP JUMPDEST PUSH1 0x40 MLOAD DUP1 SWAP2 SUB SWAP1 REVERT JUMPDEST PUSH1 0x5 PUSH1 0x0 DUP4 PUSH20 0xFFFFFFFFFFFFFFFFFFFFFFFFFFFFFFFFFFFFFFFF AND PUSH20 0xFFFFFFFFFFFFFFFFFFFFFFFFFFFFFFFFFFFFFFFF AND DUP2 MSTORE PUSH1 0x20 ADD SWAP1 DUP2 MSTORE PUSH1 0x20 ADD PUSH1 0x0 KECCAK256 PUSH1 0x0 ADD DUP1 SLOAD PUSH2 0x16B0 SWAP1 PUSH2 0x2F99 JUMP JUMPDEST DUP1 PUSH1 0x1F ADD PUSH1 0x20 DUP1 SWAP2 DIV MUL PUSH1 0x20 ADD PUSH1 0x40 MLOAD SWAP1 DUP2 ADD PUSH1 0x40 MSTORE DUP1 SWAP3 SWAP2 SWAP1 DUP2 DUP2 MSTORE PUSH1 0x20 ADD DUP3 DUP1 SLOAD PUSH2 0x16DC SWAP1 PUSH2 0x2F99 JUMP JUMPDEST DUP1 ISZERO PUSH2 0x1729 JUMPI DUP1 PUSH1 0x1F LT PUSH2 0x16FE JUMPI PUSH2 0x100 DUP1 DUP4 SLOAD DIV MUL DUP4 MSTORE SWAP2 PUSH1 0x20 ADD SWAP2 PUSH2 0x1729 JUMP JUMPDEST DUP3 ADD SWAP2 SWAP1 PUSH1 0x0 MSTORE PUSH1 0x20 PUSH1 0x0 KECCAK256 SWAP1 JUMPDEST DUP2 SLOAD DUP2 MSTORE SWAP1 PUSH1 0x1 ADD SWAP1 PUSH1 0x20 ADD DUP1 DUP4 GT PUSH2 0x170C JUMPI DUP3 SWAP1 SUB PUSH1 0x1F AND DUP3 ADD SWAP2 JUMPDEST POP POP POP POP POP SWAP1 POP SWAP2 SWAP1 POP JUMP JUMPDEST PUSH1 0x0 PUSH1 0x1 PUSH1 0x0 DUP5 PUSH20 0xFFFFFFFFFFFFFFFFFFFFFFFFFFFFFFFFFFFFFFFF AND PUSH20 0xFFFFFFFFFFFFFFFFFFFFFFFFFFFFFFFFFFFFFFFF AND DUP2 MSTORE PUSH1 0x20 ADD SWAP1 DUP2 MSTORE PUSH1 0x20 ADD PUSH1 0x0 KECCAK256 PUSH1 0x0 DUP4 PUSH20 0xFFFFFFFFFFFFFFFFFFFFFFFFFFFFFFFFFFFFFFFF AND PUSH20 0xFFFFFFFFFFFFFFFFFFFFFFFFFFFFFFFFFFFFFFFF AND DUP2 MSTORE PUSH1 0x20 ADD SWAP1 DUP2 MSTORE PUSH1 0x20 ADD PUSH1 0x0 KECCAK256 SLOAD SWAP1 POP SWAP3 SWAP2 POP POP JUMP JUMPDEST DUP2 PUSH20 0xFFFFFFFFFFFFFFFFFFFFFFFFFFFFFFFFFFFFFFFF AND CALLER PUSH20 0xFFFFFFFFFFFFFFFFFFFFFFFFFFFFFFFFFFFFFFFF AND SUB PUSH2 0x182A JUMPI PUSH1 0x40 MLOAD PUSH32 0x8C379A000000000000000000000000000000000000000000000000000000000 DUP2 MSTORE PUSH1 0x4 ADD PUSH2 0x1821 SWAP1 PUSH2 0x38B8 JUMP JUMPDEST PUSH1 0x40 MLOAD DUP1 SWAP2 SUB SWAP1 REVERT JUMPDEST PUSH1 0x0 DUP2 MLOAD GT PUSH2 0x186E JUMPI PUSH1 0x40 MLOAD PUSH32 0x8C379A000000000000000000000000000000000000000000000000000000000 DUP2 MSTORE PUSH1 0x4 ADD PUSH2 0x1865 SWAP1 PUSH2 0x3924 JUMP JUMPDEST PUSH1 0x40 MLOAD DUP1 SWAP2 SUB SWAP1 REVERT JUMPDEST PUSH1 0x0 PUSH1 0x5 PUSH1 0x0 CALLER PUSH20 0xFFFFFFFFFFFFFFFFFFFFFFFFFFFFFFFFFFFFFFFF AND PUSH20 0xFFFFFFFFFFFFFFFFFFFFFFFFFFFFFFFFFFFFFFFF AND DUP2 MSTORE PUSH1 0x20 ADD SWAP1 DUP2 MSTORE PUSH1 0x20 ADD PUSH1 0x0 KECCAK256 PUSH1 0x1 ADD SLOAD GT PUSH2 0x18F3 JUMPI PUSH1 0x40 MLOAD PUSH32 0x8C379A000000000000000000000000000000000000000000000000000000000 DUP2 MSTORE PUSH1 0x4 ADD PUSH2 0x18EA SWAP1 PUSH2 0x31B1 JUMP JUMPDEST PUSH1 0x40 MLOAD DUP1 SWAP2 SUB SWAP1 REVERT JUMPDEST PUSH1 0x0 PUSH1 0x5 PUSH1 0x0 DUP5 PUSH20 0xFFFFFFFFFFFFFFFFFFFFFFFFFFFFFFFFFFFFFFFF AND PUSH20 0xFFFFFFFFFFFFFFFFFFFFFFFFFFFFFFFFFFFFFFFF AND DUP2 MSTORE PUSH1 0x20 ADD SWAP1 DUP2 MSTORE PUSH1 0x20 ADD PUSH1 0x0 KECCAK256 PUSH1 0x1 ADD SLOAD GT PUSH2 0x1978 JUMPI PUSH1 0x40 MLOAD PUSH32 0x8C379A000000000000000000000000000000000000000000000000000000000 DUP2 MSTORE PUSH1 0x4 ADD PUSH2 0x196F SWAP1 PUSH2 0x334A JUMP JUMPDEST PUSH1 0x40 MLOAD DUP1 SWAP2 SUB SWAP1 REVERT JUMPDEST PUSH2 0x1982 CALLER DUP4 PUSH2 0x2105 JUMP JUMPDEST PUSH2 0x19C1 JUMPI PUSH1 0x40 MLOAD PUSH32 0x8C379A000000000000000000000000000000000000000000000000000000000 DUP2 MSTORE PUSH1 0x4 ADD PUSH2 0x19B8 SWAP1 PUSH2 0x39B6 JUMP JUMPDEST PUSH1 0x40 MLOAD DUP1 SWAP2 SUB SWAP1 REVERT JUMPDEST PUSH1 0x0 CALLER DUP4 PUSH1 0x40 MLOAD PUSH1 0x20 ADD PUSH2 0x19D6 SWAP3 SWAP2 SWAP1 PUSH2 0x3A1E JUMP JUMPDEST PUSH1 0x40 MLOAD PUSH1 0x20 DUP2 DUP4 SUB SUB DUP2 MSTORE SWAP1 PUSH1 0x40 MSTORE DUP1 MLOAD SWAP1 PUSH1 0x20 ADD KECCAK256 SWAP1 POP PUSH1 0x7 PUSH1 0x0 DUP3 DUP2 MSTORE PUSH1 0x20 ADD SWAP1 DUP2 MSTORE PUSH1 0x20 ADD PUSH1 0x0 KECCAK256 PUSH1 0x40 MLOAD DUP1 PUSH1 0x40 ADD PUSH1 0x40 MSTORE DUP1 CALLER PUSH20 0xFFFFFFFFFFFFFFFFFFFFFFFFFFFFFFFFFFFFFFFF AND DUP2 MSTORE PUSH1 0x20 ADD DUP5 DUP2 MSTORE POP SWAP1 DUP1 PUSH1 0x1 DUP2 SLOAD ADD DUP1 DUP3 SSTORE DUP1 SWAP2 POP POP PUSH1 0x1 SWAP1 SUB SWAP1 PUSH1 0x0 MSTORE PUSH1 0x20 PUSH1 0x0 KECCAK256 SWAP1 PUSH1 0x2 MUL ADD PUSH1 0x0 SWAP1 SWAP2 SWAP1 SWAP2 SWAP1 SWAP2 POP PUSH1 0x0 DUP3 ADD MLOAD DUP2 PUSH1 0x0 ADD PUSH1 0x0 PUSH2 0x100 EXP DUP2 SLOAD DUP2 PUSH20 0xFFFFFFFFFFFFFFFFFFFFFFFFFFFFFFFFFFFFFFFF MUL NOT AND SWAP1 DUP4 PUSH20 0xFFFFFFFFFFFFFFFFFFFFFFFFFFFFFFFFFFFFFFFF AND MUL OR SWAP1 SSTORE POP PUSH1 0x20 DUP3 ADD MLOAD DUP2 PUSH1 0x1 ADD SWAP1 DUP2 PUSH2 0x1AB1 SWAP2 SWAP1 PUSH2 0x3708 JUMP JUMPDEST POP POP POP POP POP POP JUMP JUMPDEST DUP1 PUSH20 0xFFFFFFFFFFFFFFFFFFFFFFFFFFFFFFFFFFFFFFFF AND CALLER PUSH20 0xFFFFFFFFFFFFFFFFFFFFFFFFFFFFFFFFFFFFFFFF AND SUB PUSH2 0x1B27 JUMPI PUSH1 0x40 MLOAD PUSH32 0x8C379A000000000000000000000000000000000000000000000000000000000 DUP2 MSTORE PUSH1 0x4 ADD PUSH2 0x1B1E SWAP1 PUSH2 0x3A96 JUMP JUMPDEST PUSH1 0x40 MLOAD DUP1 SWAP2 SUB SWAP1 REVERT JUMPDEST PUSH1 0x0 PUSH1 0x5 PUSH1 0x0 CALLER PUSH20 0xFFFFFFFFFFFFFFFFFFFFFFFFFFFFFFFFFFFFFFFF AND PUSH20 0xFFFFFFFFFFFFFFFFFFFFFFFFFFFFFFFFFFFFFFFF AND DUP2 MSTORE PUSH1 0x20 ADD SWAP1 DUP2 MSTORE PUSH1 0x20 ADD PUSH1 0x0 KECCAK256 PUSH1 0x1 ADD SLOAD GT PUSH2 0x1BAC JUMPI PUSH1 0x40 MLOAD PUSH32 0x8C379A000000000000000000000000000000000000000000000000000000000 DUP2 MSTORE PUSH1 0x4 ADD PUSH2 0x1BA3 SWAP1 PUSH2 0x31B1 JUMP JUMPDEST PUSH1 0x40 MLOAD DUP1 SWAP2 SUB SWAP1 REVERT JUMPDEST PUSH1 0x0 PUSH1 0x5 PUSH1 0x0 DUP4 PUSH20 0xFFFFFFFFFFFFFFFFFFFFFFFFFFFFFFFFFFFFFFFF AND PUSH20 0xFFFFFFFFFFFFFFFFFFFFFFFFFFFFFFFFFFFFFFFF AND DUP2 MSTORE PUSH1 0x20 ADD SWAP1 DUP2 MSTORE PUSH1 0x20 ADD PUSH1 0x0 KECCAK256 PUSH1 0x1 ADD SLOAD GT PUSH2 0x1C31 JUMPI PUSH1 0x40 MLOAD PUSH32 0x8C379A000000000000000000000000000000000000000000000000000000000 DUP2 MSTORE PUSH1 0x4 ADD PUSH2 0x1C28 SWAP1 PUSH2 0x334A JUMP JUMPDEST PUSH1 0x40 MLOAD DUP1 SWAP2 SUB SWAP1 REVERT JUMPDEST PUSH2 0x1C3B CALLER DUP3 PUSH2 0x2105 JUMP JUMPDEST ISZERO PUSH2 0x1C7B JUMPI PUSH1 0x40 MLOAD PUSH32 0x8C379A000000000000000000000000000000000000000000000000000000000 DUP2 MSTORE PUSH1 0x4 ADD PUSH2 0x1C72 SWAP1 PUSH2 0x33DC JUMP JUMPDEST PUSH1 0x40 MLOAD DUP1 SWAP2 SUB SWAP1 REVERT JUMPDEST PUSH1 0x5 PUSH1 0x0 CALLER PUSH20 0xFFFFFFFFFFFFFFFFFFFFFFFFFFFFFFFFFFFFFFFF AND PUSH20 0xFFFFFFFFFFFFFFFFFFFFFFFFFFFFFFFFFFFFFFFF AND DUP2 MSTORE PUSH1 0x20 ADD SWAP1 DUP2 MSTORE PUSH1 0x20 ADD PUSH1 0x0 KECCAK256 PUSH1 0x3 ADD PUSH1 0x0 DUP2 SLOAD DUP1 SWAP3 SWAP2 SWAP1 PUSH2 0x1CCE SWAP1 PUSH2 0x311D JUMP JUMPDEST SWAP2 SWAP1 POP SSTORE POP PUSH1 0x5 PUSH1 0x0 DUP3 PUSH20 0xFFFFFFFFFFFFFFFFFFFFFFFFFFFFFFFFFFFFFFFF AND PUSH20 0xFFFFFFFFFFFFFFFFFFFFFFFFFFFFFFFFFFFFFFFF AND DUP2 MSTORE PUSH1 0x20 ADD SWAP1 DUP2 MSTORE PUSH1 0x20 ADD PUSH1 0x0 KECCAK256 PUSH1 0x3 ADD PUSH1 0x0 DUP2 SLOAD DUP1 SWAP3 SWAP2 SWAP1 PUSH2 0x1D26 SWAP1 PUSH2 0x311D JUMP JUMPDEST SWAP2 SWAP1 POP SSTORE POP PUSH1 0x6 PUSH1 0x40 MLOAD DUP1 PUSH1 0x40 ADD PUSH1 0x40 MSTORE DUP1 CALLER PUSH20 0xFFFFFFFFFFFFFFFFFFFFFFFFFFFFFFFFFFFFFFFF AND DUP2 MSTORE PUSH1 0x20 ADD DUP4 PUSH20 0xFFFFFFFFFFFFFFFFFFFFFFFFFFFFFFFFFFFFFFFF AND DUP2 MSTORE POP SWAP1 DUP1 PUSH1 0x1 DUP2 SLOAD ADD DUP1 DUP3 SSTORE DUP1 SWAP2 POP POP PUSH1 0x1 SWAP1 SUB SWAP1 PUSH1 0x0 MSTORE PUSH1 0x20 PUSH1 0x0 KECCAK256 SWAP1 PUSH1 0x2 MUL ADD PUSH1 0x0 SWAP1 SWAP2 SWAP1 SWAP2 SWAP1 SWAP2 POP PUSH1 0x0 DUP3 ADD MLOAD DUP2 PUSH1 0x0 ADD PUSH1 0x0 PUSH2 0x100 EXP DUP2 SLOAD DUP2 PUSH20 0xFFFFFFFFFFFFFFFFFFFFFFFFFFFFFFFFFFFFFFFF MUL NOT AND SWAP1 DUP4 PUSH20 0xFFFFFFFFFFFFFFFFFFFFFFFFFFFFFFFFFFFFFFFF AND MUL OR SWAP1 SSTORE POP PUSH1 0x20 DUP3 ADD MLOAD DUP2 PUSH1 0x1 ADD PUSH1 0x0 PUSH2 0x100 EXP DUP2 SLOAD DUP2 PUSH20 0xFFFFFFFFFFFFFFFFFFFFFFFFFFFFFFFFFFFFFFFF MUL NOT AND SWAP1 DUP4 PUSH20 0xFFFFFFFFFFFFFFFFFFFFFFFFFFFFFFFFFFFFFFFF AND MUL OR SWAP1 SSTORE POP POP POP PUSH2 0x1E31 DUP2 CALLER PUSH2 0x2105 JUMP JUMPDEST POP POP JUMP JUMPDEST PUSH1 0x0 SWAP2 SWAP1 POP JUMP JUMPDEST PUSH1 0x8 PUSH1 0x0 SWAP1 SLOAD SWAP1 PUSH2 0x100 EXP SWAP1 DIV PUSH20 0xFFFFFFFFFFFFFFFFFFFFFFFFFFFFFFFFFFFFFFFF AND DUP2 JUMP JUMPDEST PUSH1 0x0 CALLER SWAP1 POP SWAP1 JUMP JUMPDEST PUSH2 0x1E77 DUP4 DUP4 DUP4 PUSH1 0x1 PUSH2 0x232F JUMP JUMPDEST POP POP POP JUMP JUMPDEST PUSH1 0x0 PUSH2 0x1E88 DUP5 DUP5 PUSH2 0x1735 JUMP JUMPDEST SWAP1 POP PUSH32 0xFFFFFFFFFFFFFFFFFFFFFFFFFFFFFFFFFFFFFFFFFFFFFFFFFFFFFFFFFFFFFFFF DUP2 EQ PUSH2 0x1F0A JUMPI DUP2 DUP2 LT ISZERO PUSH2 0x1EFA JUMPI DUP3 DUP2 DUP4 PUSH1 0x40 MLOAD PUSH32 0xFB8F41B200000000000000000000000000000000000000000000000000000000 DUP2 MSTORE PUSH1 0x4 ADD PUSH2 0x1EF1 SWAP4 SWAP3 SWAP2 SWAP1 PUSH2 0x3AB6 JUMP JUMPDEST PUSH1 0x40 MLOAD DUP1 SWAP2 SUB SWAP1 REVERT JUMPDEST PUSH2 0x1F09 DUP5 DUP5 DUP5 DUP5 SUB PUSH1 0x0 PUSH2 0x232F JUMP JUMPDEST JUMPDEST POP POP POP POP JUMP JUMPDEST PUSH1 0x0 PUSH20 0xFFFFFFFFFFFFFFFFFFFFFFFFFFFFFFFFFFFFFFFF AND DUP4 PUSH20 0xFFFFFFFFFFFFFFFFFFFFFFFFFFFFFFFFFFFFFFFF AND SUB PUSH2 0x1F82 JUMPI PUSH1 0x0 PUSH1 0x40 MLOAD PUSH32 0x96C6FD1E00000000000000000000000000000000000000000000000000000000 DUP2 MSTORE PUSH1 0x4 ADD PUSH2 0x1F79 SWAP2 SWAP1 PUSH2 0x3AED JUMP JUMPDEST PUSH1 0x40 MLOAD DUP1 SWAP2 SUB SWAP1 REVERT JUMPDEST PUSH1 0x0 PUSH20 0xFFFFFFFFFFFFFFFFFFFFFFFFFFFFFFFFFFFFFFFF AND DUP3 PUSH20 0xFFFFFFFFFFFFFFFFFFFFFFFFFFFFFFFFFFFFFFFF AND SUB PUSH2 0x1FF4 JUMPI PUSH1 0x0 PUSH1 0x40 MLOAD PUSH32 0xEC442F0500000000000000000000000000000000000000000000000000000000 DUP2 MSTORE PUSH1 0x4 ADD PUSH2 0x1FEB SWAP2 SWAP1 PUSH2 0x3AED JUMP JUMPDEST PUSH1 0x40 MLOAD DUP1 SWAP2 SUB SWAP1 REVERT JUMPDEST PUSH2 0x1FFF DUP4 DUP4 DUP4 PUSH2 0x2506 JUMP JUMPDEST POP POP POP JUMP JUMPDEST PUSH1 0x0 DUP1 PUSH1 0x5 PUSH1 0x0 DUP5 PUSH20 0xFFFFFFFFFFFFFFFFFFFFFFFFFFFFFFFFFFFFFFFF AND PUSH20 0xFFFFFFFFFFFFFFFFFFFFFFFFFFFFFFFFFFFFFFFF AND DUP2 MSTORE PUSH1 0x20 ADD SWAP1 DUP2 MSTORE PUSH1 0x20 ADD PUSH1 0x0 KECCAK256 PUSH1 0x4 ADD SLOAD GT PUSH2 0x208A JUMPI PUSH1 0x40 MLOAD PUSH32 0x8C379A000000000000000000000000000000000000000000000000000000000 DUP2 MSTORE PUSH1 0x4 ADD PUSH2 0x2081 SWAP1 PUSH2 0x3B7A JUMP JUMPDEST PUSH1 0x40 MLOAD DUP1 SWAP2 SUB SWAP1 REVERT JUMPDEST PUSH1 0x0 PUSH1 0x1 SWAP1 POP PUSH1 0x0 PUSH1 0x5 PUSH1 0x0 DUP6 PUSH20 0xFFFFFFFFFFFFFFFFFFFFFFFFFFFFFFFFFFFFFFFF AND PUSH20 0xFFFFFFFFFFFFFFFFFFFFFFFFFFFFFFFFFFFFFFFF AND DUP2 MSTORE PUSH1 0x20 ADD SWAP1 DUP2 MSTORE PUSH1 0x20 ADD PUSH1 0x0 KECCAK256 PUSH1 0x4 ADD SLOAD SWAP1 POP PUSH1 0x0 DUP2 DUP4 PUSH2 0x20E5 SWAP2 SWAP1 PUSH2 0x3B9A JUMP JUMPDEST SWAP1 POP PUSH1 0x0 PUSH1 0xA SWAP1 POP DUP1 DUP3 GT ISZERO PUSH2 0x20F9 JUMPI DUP1 SWAP2 POP JUMPDEST DUP2 SWAP5 POP POP POP POP POP SWAP2 SWAP1 POP JUMP JUMPDEST PUSH1 0x0 DUP1 PUSH1 0x0 SWAP1 POP JUMPDEST PUSH1 0x6 DUP1 SLOAD SWAP1 POP DUP2 LT ISZERO PUSH2 0x2323 JUMPI DUP4 PUSH20 0xFFFFFFFFFFFFFFFFFFFFFFFFFFFFFFFFFFFFFFFF AND PUSH1 0x6 DUP3 DUP2 SLOAD DUP2 LT PUSH2 0x2145 JUMPI PUSH2 0x2144 PUSH2 0x323D JUMP JUMPDEST JUMPDEST SWAP1 PUSH1 0x0 MSTORE PUSH1 0x20 PUSH1 0x0 KECCAK256 SWAP1 PUSH1 0x2 MUL ADD PUSH1 0x0 ADD PUSH1 0x0 SWAP1 SLOAD SWAP1 PUSH2 0x100 EXP SWAP1 DIV PUSH20 0xFFFFFFFFFFFFFFFFFFFFFFFFFFFFFFFFFFFFFFFF AND PUSH20 0xFFFFFFFFFFFFFFFFFFFFFFFFFFFFFFFFFFFFFFFF AND EQ DUP1 ISZERO PUSH2 0x220A JUMPI POP DUP3 PUSH20 0xFFFFFFFFFFFFFFFFFFFFFFFFFFFFFFFFFFFFFFFF AND PUSH1 0x6 DUP3 DUP2 SLOAD DUP2 LT PUSH2 0x21C0 JUMPI PUSH2 0x21BF PUSH2 0x323D JUMP JUMPDEST JUMPDEST SWAP1 PUSH1 0x0 MSTORE PUSH1 0x20 PUSH1 0x0 KECCAK256 SWAP1 PUSH1 0x2 MUL ADD PUSH1 0x1 ADD PUSH1 0x0 SWAP1 SLOAD SWAP1 PUSH2 0x100 EXP SWAP1 DIV PUSH20 0xFFFFFFFFFFFFFFFFFFFFFFFFFFFFFFFFFFFFFFFF AND PUSH20 0xFFFFFFFFFFFFFFFFFFFFFFFFFFFFFFFFFFFFFFFF AND EQ JUMPDEST DUP1 PUSH2 0x2301 JUMPI POP DUP3 PUSH20 0xFFFFFFFFFFFFFFFFFFFFFFFFFFFFFFFFFFFFFFFF AND PUSH1 0x6 DUP3 DUP2 SLOAD DUP2 LT PUSH2 0x223B JUMPI PUSH2 0x223A PUSH2 0x323D JUMP JUMPDEST JUMPDEST SWAP1 PUSH1 0x0 MSTORE PUSH1 0x20 PUSH1 0x0 KECCAK256 SWAP1 PUSH1 0x2 MUL ADD PUSH1 0x0 ADD PUSH1 0x0 SWAP1 SLOAD SWAP1 PUSH2 0x100 EXP SWAP1 DIV PUSH20 0xFFFFFFFFFFFFFFFFFFFFFFFFFFFFFFFFFFFFFFFF AND PUSH20 0xFFFFFFFFFFFFFFFFFFFFFFFFFFFFFFFFFFFFFFFF AND EQ DUP1 ISZERO PUSH2 0x2300 JUMPI POP DUP4 PUSH20 0xFFFFFFFFFFFFFFFFFFFFFFFFFFFFFFFFFFFFFFFF AND PUSH1 0x6 DUP3 DUP2 SLOAD DUP2 LT PUSH2 0x22B6 JUMPI PUSH2 0x22B5 PUSH2 0x323D JUMP JUMPDEST JUMPDEST SWAP1 PUSH1 0x0 MSTORE PUSH1 0x20 PUSH1 0x0 KECCAK256 SWAP1 PUSH1 0x2 MUL ADD PUSH1 0x1 ADD PUSH1 0x0 SWAP1 SLOAD SWAP1 PUSH2 0x100 EXP SWAP1 DIV PUSH20 0xFFFFFFFFFFFFFFFFFFFFFFFFFFFFFFFFFFFFFFFF AND PUSH20 0xFFFFFFFFFFFFFFFFFFFFFFFFFFFFFFFFFFFFFFFF AND EQ JUMPDEST JUMPDEST ISZERO PUSH2 0x2310 JUMPI PUSH1 0x1 SWAP2 POP POP PUSH2 0x2329 JUMP JUMPDEST DUP1 DUP1 PUSH2 0x231B SWAP1 PUSH2 0x311D JUMP JUMPDEST SWAP2 POP POP PUSH2 0x210D JUMP JUMPDEST POP PUSH1 0x0 SWAP1 POP JUMPDEST SWAP3 SWAP2 POP POP JUMP JUMPDEST PUSH1 0x0 PUSH20 0xFFFFFFFFFFFFFFFFFFFFFFFFFFFFFFFFFFFFFFFF AND DUP5 PUSH20 0xFFFFFFFFFFFFFFFFFFFFFFFFFFFFFFFFFFFFFFFF AND SUB PUSH2 0x23A1 JUMPI PUSH1 0x0 PUSH1 0x40 MLOAD PUSH32 0xE602DF0500000000000000000000000000000000000000000000000000000000 DUP2 MSTORE PUSH1 0x4 ADD PUSH2 0x2398 SWAP2 SWAP1 PUSH2 0x3AED JUMP JUMPDEST PUSH1 0x40 MLOAD DUP1 SWAP2 SUB SWAP1 REVERT JUMPDEST PUSH1 0x0 PUSH20 0xFFFFFFFFFFFFFFFFFFFFFFFFFFFFFFFFFFFFFFFF AND DUP4 PUSH20 0xFFFFFFFFFFFFFFFFFFFFFFFFFFFFFFFFFFFFFFFF AND SUB PUSH2 0x2413 JUMPI PUSH1 0x0 PUSH1 0x40 MLOAD PUSH32 0x94280D6200000000000000000000000000000000000000000000000000000000 DUP2 MSTORE PUSH1 0x4 ADD PUSH2 0x240A SWAP2 SWAP1 PUSH2 0x3AED JUMP JUMPDEST PUSH1 0x40 MLOAD DUP1 SWAP2 SUB SWAP1 REVERT JUMPDEST DUP2 PUSH1 0x1 PUSH1 0x0 DUP7 PUSH20 0xFFFFFFFFFFFFFFFFFFFFFFFFFFFFFFFFFFFFFFFF AND PUSH20 0xFFFFFFFFFFFFFFFFFFFFFFFFFFFFFFFFFFFFFFFF AND DUP2 MSTORE PUSH1 0x20 ADD SWAP1 DUP2 MSTORE PUSH1 0x20 ADD PUSH1 0x0 KECCAK256 PUSH1 0x0 DUP6 PUSH20 0xFFFFFFFFFFFFFFFFFFFFFFFFFFFFFFFFFFFFFFFF AND PUSH20 0xFFFFFFFFFFFFFFFFFFFFFFFFFFFFFFFFFFFFFFFF AND DUP2 MSTORE PUSH1 0x20 ADD SWAP1 DUP2 MSTORE PUSH1 0x20 ADD PUSH1 0x0 KECCAK256 DUP2 SWAP1 SSTORE POP DUP1 ISZERO PUSH2 0x2500 JUMPI DUP3 PUSH20 0xFFFFFFFFFFFFFFFFFFFFFFFFFFFFFFFFFFFFFFFF AND DUP5 PUSH20 0xFFFFFFFFFFFFFFFFFFFFFFFFFFFFFFFFFFFFFFFF AND PUSH32 0x8C5BE1E5EBEC7D5BD14F71427D1E84F3DD0314C0F7B2291E5B200AC8C7C3B925 DUP5 PUSH1 0x40 MLOAD PUSH2 0x24F7 SWAP2 SWAP1 PUSH2 0x290A JUMP JUMPDEST PUSH1 0x40 MLOAD DUP1 SWAP2 SUB SWAP1 LOG3 JUMPDEST POP POP POP POP JUMP JUMPDEST PUSH1 0x0 PUSH20 0xFFFFFFFFFFFFFFFFFFFFFFFFFFFFFFFFFFFFFFFF AND DUP4 PUSH20 0xFFFFFFFFFFFFFFFFFFFFFFFFFFFFFFFFFFFFFFFF AND SUB PUSH2 0x2558 JUMPI DUP1 PUSH1 0x2 PUSH1 0x0 DUP3 DUP3 SLOAD PUSH2 0x254C SWAP2 SWAP1 PUSH2 0x3B9A JUMP JUMPDEST SWAP3 POP POP DUP2 SWAP1 SSTORE POP PUSH2 0x262B JUMP JUMPDEST PUSH1 0x0 DUP1 PUSH1 0x0 DUP6 PUSH20 0xFFFFFFFFFFFFFFFFFFFFFFFFFFFFFFFFFFFFFFFF AND PUSH20 0xFFFFFFFFFFFFFFFFFFFFFFFFFFFFFFFFFFFFFFFF AND DUP2 MSTORE PUSH1 0x20 ADD SWAP1 DUP2 MSTORE PUSH1 0x20 ADD PUSH1 0x0 KECCAK256 SLOAD SWAP1 POP DUP2 DUP2 LT ISZERO PUSH2 0x25E4 JUMPI DUP4 DUP2 DUP4 PUSH1 0x40 MLOAD PUSH32 0xE450D38C00000000000000000000000000000000000000000000000000000000 DUP2 MSTORE PUSH1 0x4 ADD PUSH2 0x25DB SWAP4 SWAP3 SWAP2 SWAP1 PUSH2 0x3AB6 JUMP JUMPDEST PUSH1 0x40 MLOAD DUP1 SWAP2 SUB SWAP1 REVERT JUMPDEST DUP2 DUP2 SUB PUSH1 0x0 DUP1 DUP7 PUSH20 0xFFFFFFFFFFFFFFFFFFFFFFFFFFFFFFFFFFFFFFFF AND PUSH20 0xFFFFFFFFFFFFFFFFFFFFFFFFFFFFFFFFFFFFFFFF AND DUP2 MSTORE PUSH1 0x20 ADD SWAP1 DUP2 MSTORE PUSH1 0x20 ADD PUSH1 0x0 KECCAK256 DUP2 SWAP1 SSTORE POP POP JUMPDEST PUSH1 0x0 PUSH20 0xFFFFFFFFFFFFFFFFFFFFFFFFFFFFFFFFFFFFFFFF AND DUP3 PUSH20 0xFFFFFFFFFFFFFFFFFFFFFFFFFFFFFFFFFFFFFFFF AND SUB PUSH2 0x2674 JUMPI DUP1 PUSH1 0x2 PUSH1 0x0 DUP3 DUP3 SLOAD SUB SWAP3 POP POP DUP2 SWAP1 SSTORE POP PUSH2 0x26C1 JUMP JUMPDEST DUP1 PUSH1 0x0 DUP1 DUP5 PUSH20 0xFFFFFFFFFFFFFFFFFFFFFFFFFFFFFFFFFFFFFFFF AND PUSH20 0xFFFFFFFFFFFFFFFFFFFFFFFFFFFFFFFFFFFFFFFF AND DUP2 MSTORE PUSH1 0x20 ADD SWAP1 DUP2 MSTORE PUSH1 0x20 ADD PUSH1 0x0 KECCAK256 PUSH1 0x0 DUP3 DUP3 SLOAD ADD SWAP3 POP POP DUP2 SWAP1 SSTORE POP JUMPDEST DUP2 PUSH20 0xFFFFFFFFFFFFFFFFFFFFFFFFFFFFFFFFFFFFFFFF AND DUP4 PUSH20 0xFFFFFFFFFFFFFFFFFFFFFFFFFFFFFFFFFFFFFFFF AND PUSH32 0xDDF252AD1BE2C89B69C2B068FC378DAA952BA7F163C4A11628F55A4DF523B3EF DUP4 PUSH1 0x40 MLOAD PUSH2 0x271E SWAP2 SWAP1 PUSH2 0x290A JUMP JUMPDEST PUSH1 0x40 MLOAD DUP1 SWAP2 SUB SWAP1 LOG3 POP POP POP JUMP JUMPDEST PUSH1 0x0 DUP2 MLOAD SWAP1 POP SWAP2 SWAP1 POP JUMP JUMPDEST PUSH1 0x0 DUP3 DUP3 MSTORE PUSH1 0x20 DUP3 ADD SWAP1 POP SWAP3 SWAP2 POP POP JUMP JUMPDEST PUSH1 0x0 JUMPDEST DUP4 DUP2 LT ISZERO PUSH2 0x2765 JUMPI DUP1 DUP3 ADD MLOAD DUP2 DUP5 ADD MSTORE PUSH1 0x20 DUP2 ADD SWAP1 POP PUSH2 0x274A JUMP JUMPDEST PUSH1 0x0 DUP5 DUP5 ADD MSTORE POP POP POP POP JUMP JUMPDEST PUSH1 0x0 PUSH1 0x1F NOT PUSH1 0x1F DUP4 ADD AND SWAP1 POP SWAP2 SWAP1 POP JUMP JUMPDEST PUSH1 0x0 PUSH2 0x278D DUP3 PUSH2 0x272B JUMP JUMPDEST PUSH2 0x2797 DUP2 DUP6 PUSH2 0x2736 JUMP JUMPDEST SWAP4 POP PUSH2 0x27A7 DUP2 DUP6 PUSH1 0x20 DUP7 ADD PUSH2 0x2747 JUMP JUMPDEST PUSH2 0x27B0 DUP2 PUSH2 0x2771 JUMP JUMPDEST DUP5 ADD SWAP2 POP POP SWAP3 SWAP2 POP POP JUMP JUMPDEST PUSH1 0x0 PUSH1 0x20 DUP3 ADD SWAP1 POP DUP2 DUP2 SUB PUSH1 0x0 DUP4 ADD MSTORE PUSH2 0x27D5 DUP2 DUP5 PUSH2 0x2782 JUMP JUMPDEST SWAP1 POP SWAP3 SWAP2 POP POP JUMP JUMPDEST PUSH1 0x0 PUSH1 0x40 MLOAD SWAP1 POP SWAP1 JUMP JUMPDEST PUSH1 0x0 DUP1 REVERT JUMPDEST PUSH1 0x0 DUP1 REVERT JUMPDEST PUSH1 0x0 PUSH20 0xFFFFFFFFFFFFFFFFFFFFFFFFFFFFFFFFFFFFFFFF DUP3 AND SWAP1 POP SWAP2 SWAP1 POP JUMP JUMPDEST PUSH1 0x0 PUSH2 0x281C DUP3 PUSH2 0x27F1 JUMP JUMPDEST SWAP1 POP SWAP2 SWAP1 POP JUMP JUMPDEST PUSH2 0x282C DUP2 PUSH2 0x2811 JUMP JUMPDEST DUP2 EQ PUSH2 0x2837 JUMPI PUSH1 0x0 DUP1 REVERT JUMPDEST POP JUMP JUMPDEST PUSH1 0x0 DUP2 CALLDATALOAD SWAP1 POP PUSH2 0x2849 DUP2 PUSH2 0x2823 JUMP JUMPDEST SWAP3 SWAP2 POP POP JUMP JUMPDEST PUSH1 0x0 DUP2 SWAP1 POP SWAP2 SWAP1 POP JUMP JUMPDEST PUSH2 0x2862 DUP2 PUSH2 0x284F JUMP JUMPDEST DUP2 EQ PUSH2 0x286D JUMPI PUSH1 0x0 DUP1 REVERT JUMPDEST POP JUMP JUMPDEST PUSH1 0x0 DUP2 CALLDATALOAD SWAP1 POP PUSH2 0x287F DUP2 PUSH2 0x2859 JUMP JUMPDEST SWAP3 SWAP2 POP POP JUMP JUMPDEST PUSH1 0x0 DUP1 PUSH1 0x40 DUP4 DUP6 SUB SLT ISZERO PUSH2 0x289C JUMPI PUSH2 0x289B PUSH2 0x27E7 JUMP JUMPDEST JUMPDEST PUSH1 0x0 PUSH2 0x28AA DUP6 DUP3 DUP7 ADD PUSH2 0x283A JUMP JUMPDEST SWAP3 POP POP PUSH1 0x20 PUSH2 0x28BB DUP6 DUP3 DUP7 ADD PUSH2 0x2870 JUMP JUMPDEST SWAP2 POP POP SWAP3 POP SWAP3 SWAP1 POP JUMP JUMPDEST PUSH1 0x0 DUP2 ISZERO ISZERO SWAP1 POP SWAP2 SWAP1 POP JUMP JUMPDEST PUSH2 0x28DA DUP2 PUSH2 0x28C5 JUMP JUMPDEST DUP3 MSTORE POP POP JUMP JUMPDEST PUSH1 0x0 PUSH1 0x20 DUP3 ADD SWAP1 POP PUSH2 0x28F5 PUSH1 0x0 DUP4 ADD DUP5 PUSH2 0x28D1 JUMP JUMPDEST SWAP3 SWAP2 POP POP JUMP JUMPDEST PUSH2 0x2904 DUP2 PUSH2 0x284F JUMP JUMPDEST DUP3 MSTORE POP POP JUMP JUMPDEST PUSH1 0x0 PUSH1 0x20 DUP3 ADD SWAP1 POP PUSH2 0x291F PUSH1 0x0 DUP4 ADD DUP5 PUSH2 0x28FB JUMP JUMPDEST SWAP3 SWAP2 POP POP JUMP JUMPDEST PUSH1 0x0 DUP1 PUSH1 0x0 PUSH1 0x60 DUP5 DUP7 SUB SLT ISZERO PUSH2 0x293E JUMPI PUSH2 0x293D PUSH2 0x27E7 JUMP JUMPDEST JUMPDEST PUSH1 0x0 PUSH2 0x294C DUP7 DUP3 DUP8 ADD PUSH2 0x283A JUMP JUMPDEST SWAP4 POP POP PUSH1 0x20 PUSH2 0x295D DUP7 DUP3 DUP8 ADD PUSH2 0x283A JUMP JUMPDEST SWAP3 POP POP PUSH1 0x40 PUSH2 0x296E DUP7 DUP3 DUP8 ADD PUSH2 0x2870 JUMP JUMPDEST SWAP2 POP POP SWAP3 POP SWAP3 POP SWAP3 JUMP JUMPDEST PUSH1 0x0 PUSH1 0xFF DUP3 AND SWAP1 POP SWAP2 SWAP1 POP JUMP JUMPDEST PUSH2 0x298E DUP2 PUSH2 0x2978 JUMP JUMPDEST DUP3 MSTORE POP POP JUMP JUMPDEST PUSH1 0x0 PUSH1 0x20 DUP3 ADD SWAP1 POP PUSH2 0x29A9 PUSH1 0x0 DUP4 ADD DUP5 PUSH2 0x2985 JUMP JUMPDEST SWAP3 SWAP2 POP POP JUMP JUMPDEST PUSH1 0x0 PUSH1 0x20 DUP3 DUP5 SUB SLT ISZERO PUSH2 0x29C5 JUMPI PUSH2 0x29C4 PUSH2 0x27E7 JUMP JUMPDEST JUMPDEST PUSH1 0x0 PUSH2 0x29D3 DUP5 DUP3 DUP6 ADD PUSH2 0x283A JUMP JUMPDEST SWAP2 POP POP SWAP3 SWAP2 POP POP JUMP JUMPDEST PUSH1 0x0 PUSH1 0xA0 DUP3 ADD SWAP1 POP DUP2 DUP2 SUB PUSH1 0x0 DUP4 ADD MSTORE PUSH2 0x29F6 DUP2 DUP9 PUSH2 0x2782 JUMP JUMPDEST SWAP1 POP PUSH2 0x2A05 PUSH1 0x20 DUP4 ADD DUP8 PUSH2 0x28FB JUMP JUMPDEST DUP2 DUP2 SUB PUSH1 0x40 DUP4 ADD MSTORE PUSH2 0x2A17 DUP2 DUP7 PUSH2 0x2782 JUMP JUMPDEST SWAP1 POP PUSH2 0x2A26 PUSH1 0x60 DUP4 ADD DUP6 PUSH2 0x28FB JUMP JUMPDEST PUSH2 0x2A33 PUSH1 0x80 DUP4 ADD DUP5 PUSH2 0x28FB JUMP JUMPDEST SWAP7 SWAP6 POP POP POP POP POP POP JUMP JUMPDEST PUSH1 0x0 PUSH1 0x20 DUP3 DUP5 SUB SLT ISZERO PUSH2 0x2A53 JUMPI PUSH2 0x2A52 PUSH2 0x27E7 JUMP JUMPDEST JUMPDEST PUSH1 0x0 PUSH2 0x2A61 DUP5 DUP3 DUP6 ADD PUSH2 0x2870 JUMP JUMPDEST SWAP2 POP POP SWAP3 SWAP2 POP POP JUMP JUMPDEST PUSH2 0x2A73 DUP2 PUSH2 0x2811 JUMP JUMPDEST DUP3 MSTORE POP POP JUMP JUMPDEST PUSH1 0x0 PUSH1 0x40 DUP3 ADD SWAP1 POP PUSH2 0x2A8E PUSH1 0x0 DUP4 ADD DUP6 PUSH2 0x2A6A JUMP JUMPDEST PUSH2 0x2A9B PUSH1 0x20 DUP4 ADD DUP5 PUSH2 0x2A6A JUMP JUMPDEST SWAP4 SWAP3 POP POP POP JUMP JUMPDEST PUSH1 0x0 DUP2 SWAP1 POP SWAP2 SWAP1 POP JUMP JUMPDEST PUSH2 0x2AB5 DUP2 PUSH2 0x2AA2 JUMP JUMPDEST DUP2 EQ PUSH2 0x2AC0 JUMPI PUSH1 0x0 DUP1 REVERT JUMPDEST POP JUMP JUMPDEST PUSH1 0x0 DUP2 CALLDATALOAD SWAP1 POP PUSH2 0x2AD2 DUP2 PUSH2 0x2AAC JUMP JUMPDEST SWAP3 SWAP2 POP POP JUMP JUMPDEST PUSH1 0x0 DUP1 PUSH1 0x40 DUP4 DUP6 SUB SLT ISZERO PUSH2 0x2AEF JUMPI PUSH2 0x2AEE PUSH2 0x27E7 JUMP JUMPDEST JUMPDEST PUSH1 0x0 PUSH2 0x2AFD DUP6 DUP3 DUP7 ADD PUSH2 0x2AC3 JUMP JUMPDEST SWAP3 POP POP PUSH1 0x20 PUSH2 0x2B0E DUP6 DUP3 DUP7 ADD PUSH2 0x2870 JUMP JUMPDEST SWAP2 POP POP SWAP3 POP SWAP3 SWAP1 POP JUMP JUMPDEST PUSH1 0x0 PUSH1 0x40 DUP3 ADD SWAP1 POP PUSH2 0x2B2D PUSH1 0x0 DUP4 ADD DUP6 PUSH2 0x2A6A JUMP JUMPDEST DUP2 DUP2 SUB PUSH1 0x20 DUP4 ADD MSTORE PUSH2 0x2B3F DUP2 DUP5 PUSH2 0x2782 JUMP JUMPDEST SWAP1 POP SWAP4 SWAP3 POP POP POP JUMP JUMPDEST PUSH2 0x2B51 DUP2 PUSH2 0x28C5 JUMP JUMPDEST DUP2 EQ PUSH2 0x2B5C JUMPI PUSH1 0x0 DUP1 REVERT JUMPDEST POP JUMP JUMPDEST PUSH1 0x0 DUP2 CALLDATALOAD SWAP1 POP PUSH2 0x2B6E DUP2 PUSH2 0x2B48 JUMP JUMPDEST SWAP3 SWAP2 POP POP JUMP JUMPDEST PUSH1 0x0 DUP1 PUSH1 0x40 DUP4 DUP6 SUB SLT ISZERO PUSH2 0x2B8B JUMPI PUSH2 0x2B8A PUSH2 0x27E7 JUMP JUMPDEST JUMPDEST PUSH1 0x0 PUSH2 0x2B99 DUP6 DUP3 DUP7 ADD PUSH2 0x283A JUMP JUMPDEST SWAP3 POP POP PUSH1 0x20 PUSH2 0x2BAA DUP6 DUP3 DUP7 ADD PUSH2 0x2B5F JUMP JUMPDEST SWAP2 POP POP SWAP3 POP SWAP3 SWAP1 POP JUMP JUMPDEST PUSH1 0x0 DUP2 MLOAD SWAP1 POP SWAP2 SWAP1 POP JUMP JUMPDEST PUSH1 0x0 DUP3 DUP3 MSTORE PUSH1 0x20 DUP3 ADD SWAP1 POP SWAP3 SWAP2 POP POP JUMP JUMPDEST PUSH1 0x0 DUP2 SWAP1 POP PUSH1 0x20 DUP3 ADD SWAP1 POP SWAP2 SWAP1 POP JUMP JUMPDEST PUSH2 0x2BE9 DUP2 PUSH2 0x2811 JUMP JUMPDEST DUP3 MSTORE POP POP JUMP JUMPDEST PUSH1 0x0 PUSH2 0x2BFB DUP4 DUP4 PUSH2 0x2BE0 JUMP JUMPDEST PUSH1 0x20 DUP4 ADD SWAP1 POP SWAP3 SWAP2 POP POP JUMP JUMPDEST PUSH1 0x0 PUSH1 0x20 DUP3 ADD SWAP1 POP SWAP2 SWAP1 POP JUMP JUMPDEST PUSH1 0x0 PUSH2 0x2C1F DUP3 PUSH2 0x2BB4 JUMP JUMPDEST PUSH2 0x2C29 DUP2 DUP6 PUSH2 0x2BBF JUMP JUMPDEST SWAP4 POP PUSH2 0x2C34 DUP4 PUSH2 0x2BD0 JUMP JUMPDEST DUP1 PUSH1 0x0 JUMPDEST DUP4 DUP2 LT ISZERO PUSH2 0x2C65 JUMPI DUP2 MLOAD PUSH2 0x2C4C DUP9 DUP3 PUSH2 0x2BEF JUMP JUMPDEST SWAP8 POP PUSH2 0x2C57 DUP4 PUSH2 0x2C07 JUMP JUMPDEST SWAP3 POP POP PUSH1 0x1 DUP2 ADD SWAP1 POP PUSH2 0x2C38 JUMP JUMPDEST POP DUP6 SWAP4 POP POP POP POP SWAP3 SWAP2 POP POP JUMP JUMPDEST PUSH1 0x0 PUSH1 0x20 DUP3 ADD SWAP1 POP DUP2 DUP2 SUB PUSH1 0x0 DUP4 ADD MSTORE PUSH2 0x2C8C DUP2 DUP5 PUSH2 0x2C14 JUMP JUMPDEST SWAP1 POP SWAP3 SWAP2 POP POP JUMP JUMPDEST PUSH1 0x0 DUP1 REVERT JUMPDEST PUSH1 0x0 DUP1 REVERT JUMPDEST PUSH32 0x4E487B7100000000000000000000000000000000000000000000000000000000 PUSH1 0x0 MSTORE PUSH1 0x41 PUSH1 0x4 MSTORE PUSH1 0x24 PUSH1 0x0 REVERT JUMPDEST PUSH2 0x2CD6 DUP3 PUSH2 0x2771 JUMP JUMPDEST DUP2 ADD DUP2 DUP2 LT PUSH8 0xFFFFFFFFFFFFFFFF DUP3 GT OR ISZERO PUSH2 0x2CF5 JUMPI PUSH2 0x2CF4 PUSH2 0x2C9E JUMP JUMPDEST JUMPDEST DUP1 PUSH1 0x40 MSTORE POP POP POP JUMP JUMPDEST PUSH1 0x0 PUSH2 0x2D08 PUSH2 0x27DD JUMP JUMPDEST SWAP1 POP PUSH2 0x2D14 DUP3 DUP3 PUSH2 0x2CCD JUMP JUMPDEST SWAP2 SWAP1 POP JUMP JUMPDEST PUSH1 0x0 PUSH8 0xFFFFFFFFFFFFFFFF DUP3 GT ISZERO PUSH2 0x2D34 JUMPI PUSH2 0x2D33 PUSH2 0x2C9E JUMP JUMPDEST JUMPDEST PUSH2 0x2D3D DUP3 PUSH2 0x2771 JUMP JUMPDEST SWAP1 POP PUSH1 0x20 DUP2 ADD SWAP1 POP SWAP2 SWAP1 POP JUMP JUMPDEST DUP3 DUP2 DUP4 CALLDATACOPY PUSH1 0x0 DUP4 DUP4 ADD MSTORE POP POP POP JUMP JUMPDEST PUSH1 0x0 PUSH2 0x2D6C PUSH2 0x2D67 DUP5 PUSH2 0x2D19 JUMP JUMPDEST PUSH2 0x2CFE JUMP JUMPDEST SWAP1 POP DUP3 DUP2 MSTORE PUSH1 0x20 DUP2 ADD DUP5 DUP5 DUP5 ADD GT ISZERO PUSH2 0x2D88 JUMPI PUSH2 0x2D87 PUSH2 0x2C99 JUMP JUMPDEST JUMPDEST PUSH2 0x2D93 DUP5 DUP3 DUP6 PUSH2 0x2D4A JUMP JUMPDEST POP SWAP4 SWAP3 POP POP POP JUMP JUMPDEST PUSH1 0x0 DUP3 PUSH1 0x1F DUP4 ADD SLT PUSH2 0x2DB0 JUMPI PUSH2 0x2DAF PUSH2 0x2C94 JUMP JUMPDEST JUMPDEST DUP2 CALLDATALOAD PUSH2 0x2DC0 DUP5 DUP3 PUSH1 0x20 DUP7 ADD PUSH2 0x2D59 JUMP JUMPDEST SWAP2 POP POP SWAP3 SWAP2 POP POP JUMP JUMPDEST PUSH1 0x0 DUP1 PUSH1 0x0 PUSH1 0x60 DUP5 DUP7 SUB SLT ISZERO PUSH2 0x2DE2 JUMPI PUSH2 0x2DE1 PUSH2 0x27E7 JUMP JUMPDEST JUMPDEST PUSH1 0x0 DUP5 ADD CALLDATALOAD PUSH8 0xFFFFFFFFFFFFFFFF DUP2 GT ISZERO PUSH2 0x2E00 JUMPI PUSH2 0x2DFF PUSH2 0x27EC JUMP JUMPDEST JUMPDEST PUSH2 0x2E0C DUP7 DUP3 DUP8 ADD PUSH2 0x2D9B JUMP JUMPDEST SWAP4 POP POP PUSH1 0x20 PUSH2 0x2E1D DUP7 DUP3 DUP8 ADD PUSH2 0x2870 JUMP JUMPDEST SWAP3 POP POP PUSH1 0x40 DUP5 ADD CALLDATALOAD PUSH8 0xFFFFFFFFFFFFFFFF DUP2 GT ISZERO PUSH2 0x2E3E JUMPI PUSH2 0x2E3D PUSH2 0x27EC JUMP JUMPDEST JUMPDEST PUSH2 0x2E4A DUP7 DUP3 DUP8 ADD PUSH2 0x2D9B JUMP JUMPDEST SWAP2 POP POP SWAP3 POP SWAP3 POP SWAP3 JUMP JUMPDEST PUSH1 0x0 DUP1 PUSH1 0x40 DUP4 DUP6 SUB SLT ISZERO PUSH2 0x2E6B JUMPI PUSH2 0x2E6A PUSH2 0x27E7 JUMP JUMPDEST JUMPDEST PUSH1 0x0 PUSH2 0x2E79 DUP6 DUP3 DUP7 ADD PUSH2 0x283A JUMP JUMPDEST SWAP3 POP POP PUSH1 0x20 PUSH2 0x2E8A DUP6 DUP3 DUP7 ADD PUSH2 0x283A JUMP JUMPDEST SWAP2 POP POP SWAP3 POP SWAP3 SWAP1 POP JUMP JUMPDEST PUSH1 0x0 DUP1 PUSH1 0x40 DUP4 DUP6 SUB SLT ISZERO PUSH2 0x2EAB JUMPI PUSH2 0x2EAA PUSH2 0x27E7 JUMP JUMPDEST JUMPDEST PUSH1 0x0 PUSH2 0x2EB9 DUP6 DUP3 DUP7 ADD PUSH2 0x283A JUMP JUMPDEST SWAP3 POP POP PUSH1 0x20 DUP4 ADD CALLDATALOAD PUSH8 0xFFFFFFFFFFFFFFFF DUP2 GT ISZERO PUSH2 0x2EDA JUMPI PUSH2 0x2ED9 PUSH2 0x27EC JUMP JUMPDEST JUMPDEST PUSH2 0x2EE6 DUP6 DUP3 DUP7 ADD PUSH2 0x2D9B JUMP JUMPDEST SWAP2 POP POP SWAP3 POP SWAP3 SWAP1 POP JUMP JUMPDEST PUSH1 0x0 DUP2 SWAP1 POP SWAP2 SWAP1 POP JUMP JUMPDEST PUSH1 0x0 PUSH2 0x2F15 PUSH2 0x2F10 PUSH2 0x2F0B DUP5 PUSH2 0x27F1 JUMP JUMPDEST PUSH2 0x2EF0 JUMP JUMPDEST PUSH2 0x27F1 JUMP JUMPDEST SWAP1 POP SWAP2 SWAP1 POP JUMP JUMPDEST PUSH1 0x0 PUSH2 0x2F27 DUP3 PUSH2 0x2EFA JUMP JUMPDEST SWAP1 POP SWAP2 SWAP1 POP JUMP JUMPDEST PUSH1 0x0 PUSH2 0x2F39 DUP3 PUSH2 0x2F1C JUMP JUMPDEST SWAP1 POP SWAP2 SWAP1 POP JUMP JUMPDEST PUSH2 0x2F49 DUP2 PUSH2 0x2F2E JUMP JUMPDEST DUP3 MSTORE POP POP JUMP JUMPDEST PUSH1 0x0 PUSH1 0x20 DUP3 ADD SWAP1 POP PUSH2 0x2F64 PUSH1 0x0 DUP4 ADD DUP5 PUSH2 0x2F40 JUMP JUMPDEST SWAP3 SWAP2 POP POP JUMP JUMPDEST PUSH32 0x4E487B7100000000000000000000000000000000000000000000000000000000 PUSH1 0x0 MSTORE PUSH1 0x22 PUSH1 0x4 MSTORE PUSH1 0x24 PUSH1 0x0 REVERT JUMPDEST PUSH1 0x0 PUSH1 0x2 DUP3 DIV SWAP1 POP PUSH1 0x1 DUP3 AND DUP1 PUSH2 0x2FB1 JUMPI PUSH1 0x7F DUP3 AND SWAP2 POP JUMPDEST PUSH1 0x20 DUP3 LT DUP2 SUB PUSH2 0x2FC4 JUMPI PUSH2 0x2FC3 PUSH2 0x2F6A JUMP JUMPDEST JUMPDEST POP SWAP2 SWAP1 POP JUMP JUMPDEST PUSH32 0x596F752063616E6E6F7420696E746572616374207769746820796F757273656C PUSH1 0x0 DUP3 ADD MSTORE PUSH32 0x6600000000000000000000000000000000000000000000000000000000000000 PUSH1 0x20 DUP3 ADD MSTORE POP JUMP JUMPDEST PUSH1 0x0 PUSH2 0x3026 PUSH1 0x21 DUP4 PUSH2 0x2736 JUMP JUMPDEST SWAP2 POP PUSH2 0x3031 DUP3 PUSH2 0x2FCA JUMP JUMPDEST PUSH1 0x40 DUP3 ADD SWAP1 POP SWAP2 SWAP1 POP JUMP JUMPDEST PUSH1 0x0 PUSH1 0x20 DUP3 ADD SWAP1 POP DUP2 DUP2 SUB PUSH1 0x0 DUP4 ADD MSTORE PUSH2 0x3055 DUP2 PUSH2 0x3019 JUMP JUMPDEST SWAP1 POP SWAP2 SWAP1 POP JUMP JUMPDEST PUSH32 0x55736572206D757374206861766520612070726F66696C65207769746820696E PUSH1 0x0 DUP3 ADD MSTORE PUSH32 0x746572616374696F6E732E000000000000000000000000000000000000000000 PUSH1 0x20 DUP3 ADD MSTORE POP JUMP JUMPDEST PUSH1 0x0 PUSH2 0x30B8 PUSH1 0x2B DUP4 PUSH2 0x2736 JUMP JUMPDEST SWAP2 POP PUSH2 0x30C3 DUP3 PUSH2 0x305C JUMP JUMPDEST PUSH1 0x40 DUP3 ADD SWAP1 POP SWAP2 SWAP1 POP JUMP JUMPDEST PUSH1 0x0 PUSH1 0x20 DUP3 ADD SWAP1 POP DUP2 DUP2 SUB PUSH1 0x0 DUP4 ADD MSTORE PUSH2 0x30E7 DUP2 PUSH2 0x30AB JUMP JUMPDEST SWAP1 POP SWAP2 SWAP1 POP JUMP JUMPDEST PUSH32 0x4E487B7100000000000000000000000000000000000000000000000000000000 PUSH1 0x0 MSTORE PUSH1 0x11 PUSH1 0x4 MSTORE PUSH1 0x24 PUSH1 0x0 REVERT JUMPDEST PUSH1 0x0 PUSH2 0x3128 DUP3 PUSH2 0x284F JUMP JUMPDEST SWAP2 POP PUSH32 0xFFFFFFFFFFFFFFFFFFFFFFFFFFFFFFFFFFFFFFFFFFFFFFFFFFFFFFFFFFFFFFFF DUP3 SUB PUSH2 0x315A JUMPI PUSH2 0x3159 PUSH2 0x30EE JUMP JUMPDEST JUMPDEST PUSH1 0x1 DUP3 ADD SWAP1 POP SWAP2 SWAP1 POP JUMP JUMPDEST PUSH32 0x557365722070726F66696C65206D757374206578697374000000000000000000 PUSH1 0x0 DUP3 ADD MSTORE POP JUMP JUMPDEST PUSH1 0x0 PUSH2 0x319B PUSH1 0x17 DUP4 PUSH2 0x2736 JUMP JUMPDEST SWAP2 POP PUSH2 0x31A6 DUP3 PUSH2 0x3165 JUMP JUMPDEST PUSH1 0x20 DUP3 ADD SWAP1 POP SWAP2 SWAP1 POP JUMP JUMPDEST PUSH1 0x0 PUSH1 0x20 DUP3 ADD SWAP1 POP DUP2 DUP2 SUB PUSH1 0x0 DUP4 ADD MSTORE PUSH2 0x31CA DUP2 PUSH2 0x318E JUMP JUMPDEST SWAP1 POP SWAP2 SWAP1 POP JUMP JUMPDEST PUSH32 0x52657175657374206E6F7420666F756E64000000000000000000000000000000 PUSH1 0x0 DUP3 ADD MSTORE POP JUMP JUMPDEST PUSH1 0x0 PUSH2 0x3207 PUSH1 0x11 DUP4 PUSH2 0x2736 JUMP JUMPDEST SWAP2 POP PUSH2 0x3212 DUP3 PUSH2 0x31D1 JUMP JUMPDEST PUSH1 0x20 DUP3 ADD SWAP1 POP SWAP2 SWAP1 POP JUMP JUMPDEST PUSH1 0x0 PUSH1 0x20 DUP3 ADD SWAP1 POP DUP2 DUP2 SUB PUSH1 0x0 DUP4 ADD MSTORE PUSH2 0x3236 DUP2 PUSH2 0x31FA JUMP JUMPDEST SWAP1 POP SWAP2 SWAP1 POP JUMP JUMPDEST PUSH32 0x4E487B7100000000000000000000000000000000000000000000000000000000 PUSH1 0x0 MSTORE PUSH1 0x32 PUSH1 0x4 MSTORE PUSH1 0x24 PUSH1 0x0 REVERT JUMPDEST PUSH32 0x596F752063616E6E6F742073656E642061207265717565737420746F20796F75 PUSH1 0x0 DUP3 ADD MSTORE PUSH32 0x7273656C66000000000000000000000000000000000000000000000000000000 PUSH1 0x20 DUP3 ADD MSTORE POP JUMP JUMPDEST PUSH1 0x0 PUSH2 0x32C8 PUSH1 0x25 DUP4 PUSH2 0x2736 JUMP JUMPDEST SWAP2 POP PUSH2 0x32D3 DUP3 PUSH2 0x326C JUMP JUMPDEST PUSH1 0x40 DUP3 ADD SWAP1 POP SWAP2 SWAP1 POP JUMP JUMPDEST PUSH1 0x0 PUSH1 0x20 DUP3 ADD SWAP1 POP DUP2 DUP2 SUB PUSH1 0x0 DUP4 ADD MSTORE PUSH2 0x32F7 DUP2 PUSH2 0x32BB JUMP JUMPDEST SWAP1 POP SWAP2 SWAP1 POP JUMP JUMPDEST PUSH32 0x5461726765742070726F66696C65206D75737420657869737400000000000000 PUSH1 0x0 DUP3 ADD MSTORE POP JUMP JUMPDEST PUSH1 0x0 PUSH2 0x3334 PUSH1 0x19 DUP4 PUSH2 0x2736 JUMP JUMPDEST SWAP2 POP PUSH2 0x333F DUP3 PUSH2 0x32FE JUMP JUMPDEST PUSH1 0x20 DUP3 ADD SWAP1 POP SWAP2 SWAP1 POP JUMP JUMPDEST PUSH1 0x0 PUSH1 0x20 DUP3 ADD SWAP1 POP DUP2 DUP2 SUB PUSH1 0x0 DUP4 ADD MSTORE PUSH2 0x3363 DUP2 PUSH2 0x3327 JUMP JUMPDEST SWAP1 POP SWAP2 SWAP1 POP JUMP JUMPDEST PUSH32 0x596F75206861766520616C7265616479206D6174636865642077697468207468 PUSH1 0x0 DUP3 ADD MSTORE PUSH32 0x6973207573657200000000000000000000000000000000000000000000000000 PUSH1 0x20 DUP3 ADD MSTORE POP JUMP JUMPDEST PUSH1 0x0 PUSH2 0x33C6 PUSH1 0x27 DUP4 PUSH2 0x2736 JUMP JUMPDEST SWAP2 POP PUSH2 0x33D1 DUP3 PUSH2 0x336A JUMP JUMPDEST PUSH1 0x40 DUP3 ADD SWAP1 POP SWAP2 SWAP1 POP JUMP JUMPDEST PUSH1 0x0 PUSH1 0x20 DUP3 ADD SWAP1 POP DUP2 DUP2 SUB PUSH1 0x0 DUP4 ADD MSTORE PUSH2 0x33F5 DUP2 PUSH2 0x33B9 JUMP JUMPDEST SWAP1 POP SWAP2 SWAP1 POP JUMP JUMPDEST PUSH32 0x596F75206861766520616C72656164792073656E742061207265717565737420 PUSH1 0x0 DUP3 ADD MSTORE PUSH32 0x746F207468697320757365720000000000000000000000000000000000000000 PUSH1 0x20 DUP3 ADD MSTORE POP JUMP JUMPDEST PUSH1 0x0 PUSH2 0x3458 PUSH1 0x2C DUP4 PUSH2 0x2736 JUMP JUMPDEST SWAP2 POP PUSH2 0x3463 DUP3 PUSH2 0x33FC JUMP JUMPDEST PUSH1 0x40 DUP3 ADD SWAP1 POP SWAP2 SWAP1 POP JUMP JUMPDEST PUSH1 0x0 PUSH1 0x20 DUP3 ADD SWAP1 POP DUP2 DUP2 SUB PUSH1 0x0 DUP4 ADD MSTORE PUSH2 0x3487 DUP2 PUSH2 0x344B JUMP JUMPDEST SWAP1 POP SWAP2 SWAP1 POP JUMP JUMPDEST PUSH32 0x4E616D652063616E6E6F7420626520656D707479000000000000000000000000 PUSH1 0x0 DUP3 ADD MSTORE POP JUMP JUMPDEST PUSH1 0x0 PUSH2 0x34C4 PUSH1 0x14 DUP4 PUSH2 0x2736 JUMP JUMPDEST SWAP2 POP PUSH2 0x34CF DUP3 PUSH2 0x348E JUMP JUMPDEST PUSH1 0x20 DUP3 ADD SWAP1 POP SWAP2 SWAP1 POP JUMP JUMPDEST PUSH1 0x0 PUSH1 0x20 DUP3 ADD SWAP1 POP DUP2 DUP2 SUB PUSH1 0x0 DUP4 ADD MSTORE PUSH2 0x34F3 DUP2 PUSH2 0x34B7 JUMP JUMPDEST SWAP1 POP SWAP2 SWAP1 POP JUMP JUMPDEST PUSH32 0x50726F66696C6520646F6573206E6F7420657869737400000000000000000000 PUSH1 0x0 DUP3 ADD MSTORE POP JUMP JUMPDEST PUSH1 0x0 PUSH2 0x3530 PUSH1 0x16 DUP4 PUSH2 0x2736 JUMP JUMPDEST SWAP2 POP PUSH2 0x353B DUP3 PUSH2 0x34FA JUMP JUMPDEST PUSH1 0x20 DUP3 ADD SWAP1 POP SWAP2 SWAP1 POP JUMP JUMPDEST PUSH1 0x0 PUSH1 0x20 DUP3 ADD SWAP1 POP DUP2 DUP2 SUB PUSH1 0x0 DUP4 ADD MSTORE PUSH2 0x355F DUP2 PUSH2 0x3523 JUMP JUMPDEST SWAP1 POP SWAP2 SWAP1 POP JUMP JUMPDEST PUSH1 0x0 DUP2 SWAP1 POP DUP2 PUSH1 0x0 MSTORE PUSH1 0x20 PUSH1 0x0 KECCAK256 SWAP1 POP SWAP2 SWAP1 POP JUMP JUMPDEST PUSH1 0x0 PUSH1 0x20 PUSH1 0x1F DUP4 ADD DIV SWAP1 POP SWAP2 SWAP1 POP JUMP JUMPDEST PUSH1 0x0 DUP3 DUP3 SHL SWAP1 POP SWAP3 SWAP2 POP POP JUMP JUMPDEST PUSH1 0x0 PUSH1 0x8 DUP4 MUL PUSH2 0x35C8 PUSH32 0xFFFFFFFFFFFFFFFFFFFFFFFFFFFFFFFFFFFFFFFFFFFFFFFFFFFFFFFFFFFFFFFF DUP3 PUSH2 0x358B JUMP JUMPDEST PUSH2 0x35D2 DUP7 DUP4 PUSH2 0x358B JUMP JUMPDEST SWAP6 POP DUP1 NOT DUP5 AND SWAP4 POP DUP1 DUP7 AND DUP5 OR SWAP3 POP POP POP SWAP4 SWAP3 POP POP POP JUMP JUMPDEST PUSH1 0x0 PUSH2 0x3605 PUSH2 0x3600 PUSH2 0x35FB DUP5 PUSH2 0x284F JUMP JUMPDEST PUSH2 0x2EF0 JUMP JUMPDEST PUSH2 0x284F JUMP JUMPDEST SWAP1 POP SWAP2 SWAP1 POP JUMP JUMPDEST PUSH1 0x0 DUP2 SWAP1 POP SWAP2 SWAP1 POP JUMP JUMPDEST PUSH2 0x361F DUP4 PUSH2 0x35EA JUMP JUMPDEST PUSH2 0x3633 PUSH2 0x362B DUP3 PUSH2 0x360C JUMP JUMPDEST DUP5 DUP5 SLOAD PUSH2 0x3598 JUMP JUMPDEST DUP3 SSTORE POP POP POP POP JUMP JUMPDEST PUSH1 0x0 SWAP1 JUMP JUMPDEST PUSH2 0x3648 PUSH2 0x363B JUMP JUMPDEST PUSH2 0x3653 DUP2 DUP5 DUP5 PUSH2 0x3616 JUMP JUMPDEST POP POP POP JUMP JUMPDEST JUMPDEST DUP2 DUP2 LT ISZERO PUSH2 0x3677 JUMPI PUSH2 0x366C PUSH1 0x0 DUP3 PUSH2 0x3640 JUMP JUMPDEST PUSH1 0x1 DUP2 ADD SWAP1 POP PUSH2 0x3659 JUMP JUMPDEST POP POP JUMP JUMPDEST PUSH1 0x1F DUP3 GT ISZERO PUSH2 0x36BC JUMPI PUSH2 0x368D DUP2 PUSH2 0x3566 JUMP JUMPDEST PUSH2 0x3696 DUP5 PUSH2 0x357B JUMP JUMPDEST DUP2 ADD PUSH1 0x20 DUP6 LT ISZERO PUSH2 0x36A5 JUMPI DUP2 SWAP1 POP JUMPDEST PUSH2 0x36B9 PUSH2 0x36B1 DUP6 PUSH2 0x357B JUMP JUMPDEST DUP4 ADD DUP3 PUSH2 0x3658 JUMP JUMPDEST POP POP JUMPDEST POP POP POP JUMP JUMPDEST PUSH1 0x0 DUP3 DUP3 SHR SWAP1 POP SWAP3 SWAP2 POP POP JUMP JUMPDEST PUSH1 0x0 PUSH2 0x36DF PUSH1 0x0 NOT DUP5 PUSH1 0x8 MUL PUSH2 0x36C1 JUMP JUMPDEST NOT DUP1 DUP4 AND SWAP2 POP POP SWAP3 SWAP2 POP POP JUMP JUMPDEST PUSH1 0x0 PUSH2 0x36F8 DUP4 DUP4 PUSH2 0x36CE JUMP JUMPDEST SWAP2 POP DUP3 PUSH1 0x2 MUL DUP3 OR SWAP1 POP SWAP3 SWAP2 POP POP JUMP JUMPDEST PUSH2 0x3711 DUP3 PUSH2 0x272B JUMP JUMPDEST PUSH8 0xFFFFFFFFFFFFFFFF DUP2 GT ISZERO PUSH2 0x372A JUMPI PUSH2 0x3729 PUSH2 0x2C9E JUMP JUMPDEST JUMPDEST PUSH2 0x3734 DUP3 SLOAD PUSH2 0x2F99 JUMP JUMPDEST PUSH2 0x373F DUP3 DUP3 DUP6 PUSH2 0x367B JUMP JUMPDEST PUSH1 0x0 PUSH1 0x20 SWAP1 POP PUSH1 0x1F DUP4 GT PUSH1 0x1 DUP2 EQ PUSH2 0x3772 JUMPI PUSH1 0x0 DUP5 ISZERO PUSH2 0x3760 JUMPI DUP3 DUP8 ADD MLOAD SWAP1 POP JUMPDEST PUSH2 0x376A DUP6 DUP3 PUSH2 0x36EC JUMP JUMPDEST DUP7 SSTORE POP PUSH2 0x37D2 JUMP JUMPDEST PUSH1 0x1F NOT DUP5 AND PUSH2 0x3780 DUP7 PUSH2 0x3566 JUMP JUMPDEST PUSH1 0x0 JUMPDEST DUP3 DUP2 LT ISZERO PUSH2 0x37A8 JUMPI DUP5 DUP10 ADD MLOAD DUP3 SSTORE PUSH1 0x1 DUP3 ADD SWAP2 POP PUSH1 0x20 DUP6 ADD SWAP5 POP PUSH1 0x20 DUP2 ADD SWAP1 POP PUSH2 0x3783 JUMP JUMPDEST DUP7 DUP4 LT ISZERO PUSH2 0x37C5 JUMPI DUP5 DUP10 ADD MLOAD PUSH2 0x37C1 PUSH1 0x1F DUP10 AND DUP3 PUSH2 0x36CE JUMP JUMPDEST DUP4 SSTORE POP JUMPDEST PUSH1 0x1 PUSH1 0x2 DUP9 MUL ADD DUP9 SSTORE POP POP POP JUMPDEST POP POP POP POP POP POP JUMP JUMPDEST PUSH32 0x50726F66696C6520616C72656164792065786973747300000000000000000000 PUSH1 0x0 DUP3 ADD MSTORE POP JUMP JUMPDEST PUSH1 0x0 PUSH2 0x3810 PUSH1 0x16 DUP4 PUSH2 0x2736 JUMP JUMPDEST SWAP2 POP PUSH2 0x381B DUP3 PUSH2 0x37DA JUMP JUMPDEST PUSH1 0x20 DUP3 ADD SWAP1 POP SWAP2 SWAP1 POP JUMP JUMPDEST PUSH1 0x0 PUSH1 0x20 DUP3 ADD SWAP1 POP DUP2 DUP2 SUB PUSH1 0x0 DUP4 ADD MSTORE PUSH2 0x383F DUP2 PUSH2 0x3803 JUMP JUMPDEST SWAP1 POP SWAP2 SWAP1 POP JUMP JUMPDEST PUSH32 0x596F752063616E6E6F742073656E642061206D65737361676520746F20796F75 PUSH1 0x0 DUP3 ADD MSTORE PUSH32 0x7273656C66000000000000000000000000000000000000000000000000000000 PUSH1 0x20 DUP3 ADD MSTORE POP JUMP JUMPDEST PUSH1 0x0 PUSH2 0x38A2 PUSH1 0x25 DUP4 PUSH2 0x2736 JUMP JUMPDEST SWAP2 POP PUSH2 0x38AD DUP3 PUSH2 0x3846 JUMP JUMPDEST PUSH1 0x40 DUP3 ADD SWAP1 POP SWAP2 SWAP1 POP JUMP JUMPDEST PUSH1 0x0 PUSH1 0x20 DUP3 ADD SWAP1 POP DUP2 DUP2 SUB PUSH1 0x0 DUP4 ADD MSTORE PUSH2 0x38D1 DUP2 PUSH2 0x3895 JUMP JUMPDEST SWAP1 POP SWAP2 SWAP1 POP JUMP JUMPDEST PUSH32 0x4D6573736167652063616E6E6F7420626520656D707479000000000000000000 PUSH1 0x0 DUP3 ADD MSTORE POP JUMP JUMPDEST PUSH1 0x0 PUSH2 0x390E PUSH1 0x17 DUP4 PUSH2 0x2736 JUMP JUMPDEST SWAP2 POP PUSH2 0x3919 DUP3 PUSH2 0x38D8 JUMP JUMPDEST PUSH1 0x20 DUP3 ADD SWAP1 POP SWAP2 SWAP1 POP JUMP JUMPDEST PUSH1 0x0 PUSH1 0x20 DUP3 ADD SWAP1 POP DUP2 DUP2 SUB PUSH1 0x0 DUP4 ADD MSTORE PUSH2 0x393D DUP2 PUSH2 0x3901 JUMP JUMPDEST SWAP1 POP SWAP2 SWAP1 POP JUMP JUMPDEST PUSH32 0x596F75206D757374206265206D61746368656420776974682074686973207573 PUSH1 0x0 DUP3 ADD MSTORE PUSH32 0x6572000000000000000000000000000000000000000000000000000000000000 PUSH1 0x20 DUP3 ADD MSTORE POP JUMP JUMPDEST PUSH1 0x0 PUSH2 0x39A0 PUSH1 0x22 DUP4 PUSH2 0x2736 JUMP JUMPDEST SWAP2 POP PUSH2 0x39AB DUP3 PUSH2 0x3944 JUMP JUMPDEST PUSH1 0x40 DUP3 ADD SWAP1 POP SWAP2 SWAP1 POP JUMP JUMPDEST PUSH1 0x0 PUSH1 0x20 DUP3 ADD SWAP1 POP DUP2 DUP2 SUB PUSH1 0x0 DUP4 ADD MSTORE PUSH2 0x39CF DUP2 PUSH2 0x3993 JUMP JUMPDEST SWAP1 POP SWAP2 SWAP1 POP JUMP JUMPDEST PUSH1 0x0 DUP2 PUSH1 0x60 SHL SWAP1 POP SWAP2 SWAP1 POP JUMP JUMPDEST PUSH1 0x0 PUSH2 0x39EE DUP3 PUSH2 0x39D6 JUMP JUMPDEST SWAP1 POP SWAP2 SWAP1 POP JUMP JUMPDEST PUSH1 0x0 PUSH2 0x3A00 DUP3 PUSH2 0x39E3 JUMP JUMPDEST SWAP1 POP SWAP2 SWAP1 POP JUMP JUMPDEST PUSH2 0x3A18 PUSH2 0x3A13 DUP3 PUSH2 0x2811 JUMP JUMPDEST PUSH2 0x39F5 JUMP JUMPDEST DUP3 MSTORE POP POP JUMP JUMPDEST PUSH1 0x0 PUSH2 0x3A2A DUP3 DUP6 PUSH2 0x3A07 JUMP JUMPDEST PUSH1 0x14 DUP3 ADD SWAP2 POP PUSH2 0x3A3A DUP3 DUP5 PUSH2 0x3A07 JUMP JUMPDEST PUSH1 0x14 DUP3 ADD SWAP2 POP DUP2 SWAP1 POP SWAP4 SWAP3 POP POP POP JUMP JUMPDEST PUSH32 0x596F752063616E6E6F74206C696B6520796F757273656C660000000000000000 PUSH1 0x0 DUP3 ADD MSTORE POP JUMP JUMPDEST PUSH1 0x0 PUSH2 0x3A80 PUSH1 0x18 DUP4 PUSH2 0x2736 JUMP JUMPDEST SWAP2 POP PUSH2 0x3A8B DUP3 PUSH2 0x3A4A JUMP JUMPDEST PUSH1 0x20 DUP3 ADD SWAP1 POP SWAP2 SWAP1 POP JUMP JUMPDEST PUSH1 0x0 PUSH1 0x20 DUP3 ADD SWAP1 POP DUP2 DUP2 SUB PUSH1 0x0 DUP4 ADD MSTORE PUSH2 0x3AAF DUP2 PUSH2 0x3A73 JUMP JUMPDEST SWAP1 POP SWAP2 SWAP1 POP JUMP JUMPDEST PUSH1 0x0 PUSH1 0x60 DUP3 ADD SWAP1 POP PUSH2 0x3ACB PUSH1 0x0 DUP4 ADD DUP7 PUSH2 0x2A6A JUMP JUMPDEST PUSH2 0x3AD8 PUSH1 0x20 DUP4 ADD DUP6 PUSH2 0x28FB JUMP JUMPDEST PUSH2 0x3AE5 PUSH1 0x40 DUP4 ADD DUP5 PUSH2 0x28FB JUMP JUMPDEST SWAP5 SWAP4 POP POP POP POP JUMP JUMPDEST PUSH1 0x0 PUSH1 0x20 DUP3 ADD SWAP1 POP PUSH2 0x3B02 PUSH1 0x0 DUP4 ADD DUP5 PUSH2 0x2A6A JUMP JUMPDEST SWAP3 SWAP2 POP POP JUMP JUMPDEST PUSH32 0x5461726765742075736572206D757374206861766520696E746572616374696F PUSH1 0x0 DUP3 ADD MSTORE PUSH32 0x6E732E0000000000000000000000000000000000000000000000000000000000 PUSH1 0x20 DUP3 ADD MSTORE POP JUMP JUMPDEST PUSH1 0x0 PUSH2 0x3B64 PUSH1 0x23 DUP4 PUSH2 0x2736 JUMP JUMPDEST SWAP2 POP PUSH2 0x3B6F DUP3 PUSH2 0x3B08 JUMP JUMPDEST PUSH1 0x40 DUP3 ADD SWAP1 POP SWAP2 SWAP1 POP JUMP JUMPDEST PUSH1 0x0 PUSH1 0x20 DUP3 ADD SWAP1 POP DUP2 DUP2 SUB PUSH1 0x0 DUP4 ADD MSTORE PUSH2 0x3B93 DUP2 PUSH2 0x3B57 JUMP JUMPDEST SWAP1 POP SWAP2 SWAP1 POP JUMP JUMPDEST PUSH1 0x0 PUSH2 0x3BA5 DUP3 PUSH2 0x284F JUMP JUMPDEST SWAP2 POP PUSH2 0x3BB0 DUP4 PUSH2 0x284F JUMP JUMPDEST SWAP3 POP DUP3 DUP3 ADD SWAP1 POP DUP1 DUP3 GT ISZERO PUSH2 0x3BC8 JUMPI PUSH2 0x3BC7 PUSH2 0x30EE JUMP JUMPDEST JUMPDEST SWAP3 SWAP2 POP POP JUMP INVALID LOG2 PUSH5 0x6970667358 0x22 SLT KECCAK256 0xB4 0xE3 SLT GASLIMIT DIV 0xB2 SSTORE DUP7 SWAP13 PUSH3 0x34B433 PUSH19 0x2999C13B6A5A9677C8A50C8337E3CDBDC72E64 PUSH20 0x6F6C634300081300330000000000000000000000 "
				},
				"gasEstimates": {
					"creation": {
						"codeDepositCost": "3072800",
						"executionCost": "infinite",
						"totalCost": "infinite"
					},
					"external": {
						"acceptRequest(address,bool)": "infinite",
						"allowance(address,address)": "infinite",
						"approve(address,uint256)": "infinite",
						"balanceOf(address)": "2930",
						"createProfile(string,uint256,string)": "infinite",
						"decimals()": "455",
						"getPendingRequests()": "infinite",
						"getRequestStatus(address)": "759",
						"getUsername(address)": "infinite",
						"likeUser(address)": "infinite",
						"matches(uint256)": "infinite",
						"messages(bytes32,uint256)": "infinite",
						"name()": "infinite",
						"rewardInteraction(address)": "infinite",
						"sendMessage(address,string)": "infinite",
						"sendRequest(address)": "infinite",
						"symbol()": "infinite",
						"token()": "infinite",
						"totalSupply()": "2505",
						"transfer(address,uint256)": "infinite",
						"transferFrom(address,address,uint256)": "infinite",
						"updateProfile(string,uint256,string)": "infinite",
						"userProfiles(address)": "infinite"
					},
					"internal": {
						"calculateRewardAmount(address)": "infinite",
						"hasMatched(address,address)": "infinite"
					}
				},
				"methodIdentifiers": {
					"acceptRequest(address,bool)": "7ebda124",
					"allowance(address,address)": "dd62ed3e",
					"approve(address,uint256)": "095ea7b3",
					"balanceOf(address)": "70a08231",
					"createProfile(string,uint256,string)": "b708fd4d",
					"decimals()": "313ce567",
					"getPendingRequests()": "80a1f712",
					"getRequestStatus(address)": "f98fe628",
					"getUsername(address)": "ce43c032",
					"likeUser(address)": "df6c5b2c",
					"matches(uint256)": "4768d4ef",
					"messages(bytes32,uint256)": "6036a039",
					"name()": "06fdde03",
					"rewardInteraction(address)": "71f8b59e",
					"sendMessage(address,string)": "de6f24bb",
					"sendRequest(address)": "85e1b15b",
					"symbol()": "95d89b41",
					"token()": "fc0c546a",
					"totalSupply()": "18160ddd",
					"transfer(address,uint256)": "a9059cbb",
					"transferFrom(address,address,uint256)": "23b872dd",
					"updateProfile(string,uint256,string)": "a5fb1fb8",
					"userProfiles(address)": "332d56d7"
				}
			},
			"storageLayout": {
				"storage": [
					{
						"astId": 159,
						"contract": "Date.sol:DatingApp",
						"label": "_balances",
						"offset": 0,
						"slot": "0",
						"type": "t_mapping(t_address,t_uint256)"
					},
					{
						"astId": 165,
						"contract": "Date.sol:DatingApp",
						"label": "_allowances",
						"offset": 0,
						"slot": "1",
						"type": "t_mapping(t_address,t_mapping(t_address,t_uint256))"
					},
					{
						"astId": 167,
						"contract": "Date.sol:DatingApp",
						"label": "_totalSupply",
						"offset": 0,
						"slot": "2",
						"type": "t_uint256"
					},
					{
						"astId": 169,
						"contract": "Date.sol:DatingApp",
						"label": "_name",
						"offset": 0,
						"slot": "3",
						"type": "t_string_storage"
					},
					{
						"astId": 171,
						"contract": "Date.sol:DatingApp",
						"label": "_symbol",
						"offset": 0,
						"slot": "4",
						"type": "t_string_storage"
					},
					{
						"astId": 818,
						"contract": "Date.sol:DatingApp",
						"label": "userProfiles",
						"offset": 0,
						"slot": "5",
						"type": "t_mapping(t_address,t_struct(UserProfile)803_storage)"
					},
					{
						"astId": 822,
						"contract": "Date.sol:DatingApp",
						"label": "matches",
						"offset": 0,
						"slot": "6",
						"type": "t_array(t_struct(Match)808_storage)dyn_storage"
					},
					{
						"astId": 828,
						"contract": "Date.sol:DatingApp",
						"label": "messages",
						"offset": 0,
						"slot": "7",
						"type": "t_mapping(t_bytes32,t_array(t_struct(Message)813_storage)dyn_storage)"
					},
					{
						"astId": 831,
						"contract": "Date.sol:DatingApp",
						"label": "token",
						"offset": 0,
						"slot": "8",
						"type": "t_contract(IERC20)729"
					}
				],
				"types": {
					"t_address": {
						"encoding": "inplace",
						"label": "address",
						"numberOfBytes": "20"
					},
					"t_array(t_address)dyn_storage": {
						"base": "t_address",
						"encoding": "dynamic_array",
						"label": "address[]",
						"numberOfBytes": "32"
					},
					"t_array(t_struct(Match)808_storage)dyn_storage": {
						"base": "t_struct(Match)808_storage",
						"encoding": "dynamic_array",
						"label": "struct DatingApp.Match[]",
						"numberOfBytes": "32"
					},
					"t_array(t_struct(Message)813_storage)dyn_storage": {
						"base": "t_struct(Message)813_storage",
						"encoding": "dynamic_array",
						"label": "struct DatingApp.Message[]",
						"numberOfBytes": "32"
					},
					"t_bool": {
						"encoding": "inplace",
						"label": "bool",
						"numberOfBytes": "1"
					},
					"t_bytes32": {
						"encoding": "inplace",
						"label": "bytes32",
						"numberOfBytes": "32"
					},
					"t_contract(IERC20)729": {
						"encoding": "inplace",
						"label": "contract IERC20",
						"numberOfBytes": "20"
					},
					"t_mapping(t_address,t_bool)": {
						"encoding": "mapping",
						"key": "t_address",
						"label": "mapping(address => bool)",
						"numberOfBytes": "32",
						"value": "t_bool"
					},
					"t_mapping(t_address,t_mapping(t_address,t_uint256))": {
						"encoding": "mapping",
						"key": "t_address",
						"label": "mapping(address => mapping(address => uint256))",
						"numberOfBytes": "32",
						"value": "t_mapping(t_address,t_uint256)"
					},
					"t_mapping(t_address,t_struct(UserProfile)803_storage)": {
						"encoding": "mapping",
						"key": "t_address",
						"label": "mapping(address => struct DatingApp.UserProfile)",
						"numberOfBytes": "32",
						"value": "t_struct(UserProfile)803_storage"
					},
					"t_mapping(t_address,t_uint256)": {
						"encoding": "mapping",
						"key": "t_address",
						"label": "mapping(address => uint256)",
						"numberOfBytes": "32",
						"value": "t_uint256"
					},
					"t_mapping(t_bytes32,t_array(t_struct(Message)813_storage)dyn_storage)": {
						"encoding": "mapping",
						"key": "t_bytes32",
						"label": "mapping(bytes32 => struct DatingApp.Message[])",
						"numberOfBytes": "32",
						"value": "t_array(t_struct(Message)813_storage)dyn_storage"
					},
					"t_string_storage": {
						"encoding": "bytes",
						"label": "string",
						"numberOfBytes": "32"
					},
					"t_struct(Match)808_storage": {
						"encoding": "inplace",
						"label": "struct DatingApp.Match",
						"members": [
							{
								"astId": 805,
								"contract": "Date.sol:DatingApp",
								"label": "user1",
								"offset": 0,
								"slot": "0",
								"type": "t_address"
							},
							{
								"astId": 807,
								"contract": "Date.sol:DatingApp",
								"label": "user2",
								"offset": 0,
								"slot": "1",
								"type": "t_address"
							}
						],
						"numberOfBytes": "64"
					},
					"t_struct(Message)813_storage": {
						"encoding": "inplace",
						"label": "struct DatingApp.Message",
						"members": [
							{
								"astId": 810,
								"contract": "Date.sol:DatingApp",
								"label": "sender",
								"offset": 0,
								"slot": "0",
								"type": "t_address"
							},
							{
								"astId": 812,
								"contract": "Date.sol:DatingApp",
								"label": "text",
								"offset": 0,
								"slot": "1",
								"type": "t_string_storage"
							}
						],
						"numberOfBytes": "64"
					},
					"t_struct(UserProfile)803_storage": {
						"encoding": "inplace",
						"label": "struct DatingApp.UserProfile",
						"members": [
							{
								"astId": 784,
								"contract": "Date.sol:DatingApp",
								"label": "name",
								"offset": 0,
								"slot": "0",
								"type": "t_string_storage"
							},
							{
								"astId": 786,
								"contract": "Date.sol:DatingApp",
								"label": "age",
								"offset": 0,
								"slot": "1",
								"type": "t_uint256"
							},
							{
								"astId": 788,
								"contract": "Date.sol:DatingApp",
								"label": "gender",
								"offset": 0,
								"slot": "2",
								"type": "t_string_storage"
							},
							{
								"astId": 790,
								"contract": "Date.sol:DatingApp",
								"label": "likes",
								"offset": 0,
								"slot": "3",
								"type": "t_uint256"
							},
							{
								"astId": 792,
								"contract": "Date.sol:DatingApp",
								"label": "interactionCount",
								"offset": 0,
								"slot": "4",
								"type": "t_uint256"
							},
							{
								"astId": 795,
								"contract": "Date.sol:DatingApp",
								"label": "sentRequests",
								"offset": 0,
								"slot": "5",
								"type": "t_array(t_address)dyn_storage"
							},
							{
								"astId": 799,
								"contract": "Date.sol:DatingApp",
								"label": "pendingRequests",
								"offset": 0,
								"slot": "6",
								"type": "t_mapping(t_address,t_bool)"
							},
							{
								"astId": 802,
								"contract": "Date.sol:DatingApp",
								"label": "acceptedRequests",
								"offset": 0,
								"slot": "7",
								"type": "t_array(t_address)dyn_storage"
							}
						],
						"numberOfBytes": "256"
					},
					"t_uint256": {
						"encoding": "inplace",
						"label": "uint256",
						"numberOfBytes": "32"
					}
				}
			},
			"userdoc": {
				"kind": "user",
				"methods": {},
				"version": 1
			}
		}
	}
}